{
	"fundme/FundMe.sol": {
		"FundMe": {
			"abi": [
				{
					"inputs": [
						{
							"internalType": "uint256",
							"name": "_lockTime",
							"type": "uint256"
						}
					],
					"stateMutability": "nonpayable",
					"type": "constructor"
				},
				{
					"inputs": [],
					"name": "fund",
					"outputs": [],
					"stateMutability": "payable",
					"type": "function"
				},
				{
					"inputs": [
						{
							"internalType": "address",
							"name": "",
							"type": "address"
						}
					],
					"name": "fundersToAmount",
					"outputs": [
						{
							"internalType": "uint256",
							"name": "",
							"type": "uint256"
						}
					],
					"stateMutability": "view",
					"type": "function"
				},
				{
					"inputs": [],
					"name": "getChainlinkDataFeedLatestAnswer",
					"outputs": [
						{
							"internalType": "int256",
							"name": "",
							"type": "int256"
						}
					],
					"stateMutability": "view",
					"type": "function"
				},
				{
					"inputs": [],
					"name": "getFund",
					"outputs": [],
					"stateMutability": "nonpayable",
					"type": "function"
				},
				{
					"inputs": [],
					"name": "owner",
					"outputs": [
						{
							"internalType": "address",
							"name": "",
							"type": "address"
						}
					],
					"stateMutability": "view",
					"type": "function"
				},
				{
					"inputs": [],
					"name": "refund",
					"outputs": [],
					"stateMutability": "nonpayable",
					"type": "function"
				},
				{
					"inputs": [
						{
							"internalType": "address",
							"name": "_erc20Addr",
							"type": "address"
						}
					],
					"name": "setErc20Addr",
					"outputs": [],
					"stateMutability": "nonpayable",
					"type": "function"
				},
				{
					"inputs": [
						{
							"internalType": "address",
							"name": "funder",
							"type": "address"
						},
						{
							"internalType": "uint256",
							"name": "amountToUpdate",
							"type": "uint256"
						}
					],
					"name": "setFunderToAmount",
					"outputs": [],
					"stateMutability": "nonpayable",
					"type": "function"
				},
				{
					"inputs": [
						{
							"internalType": "address",
							"name": "newOwner",
							"type": "address"
						}
					],
					"name": "transferOwnership",
					"outputs": [],
					"stateMutability": "nonpayable",
					"type": "function"
				}
			],
			"devdoc": {
				"kind": "dev",
				"methods": {},
				"version": 1
			},
			"evm": {
				"assembly": "    /* \"fundme/FundMe.sol\":630:9073  contract FundMe {... */\n  mstore(0x40, 0x80)\n    /* \"fundme/FundMe.sol\":1568:2608  constructor(uint256 _lockTime) {... */\n  callvalue\n  dup1\n  iszero\n  tag_1\n  jumpi\n  0x00\n  dup1\n  revert\ntag_1:\n  pop\n  mload(0x40)\n  sub(codesize, bytecodeSize)\n  dup1\n  bytecodeSize\n  dup4\n  codecopy\n  dup2\n  dup2\n  add\n  0x40\n  mstore\n  dup2\n  add\n  swap1\n  tag_2\n  swap2\n  swap1\n  tag_3\n  jump\t// in\ntag_2:\n    /* \"fundme/FundMe.sol\":2093:2135  0x694AA1769357215DE4FAC081bf1f309aDC325306 */\n  0x694aa1769357215de4fac081bf1f309adc325306\n    /* \"fundme/FundMe.sol\":2060:2068  dataFeed */\n  0x01\n  0x00\n    /* \"fundme/FundMe.sol\":2060:2136  dataFeed = AggregatorV3Interface(0x694AA1769357215DE4FAC081bf1f309aDC325306) */\n  0x0100\n  exp\n  dup2\n  sload\n  dup2\n  0xffffffffffffffffffffffffffffffffffffffff\n  mul\n  not\n  and\n  swap1\n  dup4\n  0xffffffffffffffffffffffffffffffffffffffff\n  and\n  mul\n  or\n  swap1\n  sstore\n  pop\n    /* \"fundme/FundMe.sol\":2287:2297  msg.sender */\n  caller\n    /* \"fundme/FundMe.sol\":2279:2284  owner */\n  0x02\n  0x00\n    /* \"fundme/FundMe.sol\":2279:2297  owner = msg.sender */\n  0x0100\n  exp\n  dup2\n  sload\n  dup2\n  0xffffffffffffffffffffffffffffffffffffffff\n  mul\n  not\n  and\n  swap1\n  dup4\n  0xffffffffffffffffffffffffffffffffffffffff\n  and\n  mul\n  or\n  swap1\n  sstore\n  pop\n    /* \"fundme/FundMe.sol\":2554:2569  block.timestamp */\n  timestamp\n    /* \"fundme/FundMe.sol\":2532:2551  deploymentTimestamp */\n  0x03\n    /* \"fundme/FundMe.sol\":2532:2569  deploymentTimestamp = block.timestamp */\n  dup2\n  swap1\n  sstore\n  pop\n    /* \"fundme/FundMe.sol\":2591:2600  _lockTime */\n  dup1\n    /* \"fundme/FundMe.sol\":2580:2588  lockTime */\n  0x04\n    /* \"fundme/FundMe.sol\":2580:2600  lockTime = _lockTime */\n  dup2\n  swap1\n  sstore\n  pop\n    /* \"fundme/FundMe.sol\":1568:2608  constructor(uint256 _lockTime) {... */\n  pop\n    /* \"fundme/FundMe.sol\":630:9073  contract FundMe {... */\n  jump(tag_6)\n    /* \"#utility.yul\":88:205   */\ntag_8:\n    /* \"#utility.yul\":197:198   */\n  0x00\n    /* \"#utility.yul\":194:195   */\n  dup1\n    /* \"#utility.yul\":187:199   */\n  revert\n    /* \"#utility.yul\":334:411   */\ntag_10:\n    /* \"#utility.yul\":371:378   */\n  0x00\n    /* \"#utility.yul\":400:405   */\n  dup2\n    /* \"#utility.yul\":389:405   */\n  swap1\n  pop\n    /* \"#utility.yul\":334:411   */\n  swap2\n  swap1\n  pop\n  jump\t// out\n    /* \"#utility.yul\":417:539   */\ntag_11:\n    /* \"#utility.yul\":490:514   */\n  tag_19\n    /* \"#utility.yul\":508:513   */\n  dup2\n    /* \"#utility.yul\":490:514   */\n  tag_10\n  jump\t// in\ntag_19:\n    /* \"#utility.yul\":483:488   */\n  dup2\n    /* \"#utility.yul\":480:515   */\n  eq\n    /* \"#utility.yul\":470:533   */\n  tag_20\n  jumpi\n    /* \"#utility.yul\":529:530   */\n  0x00\n    /* \"#utility.yul\":526:527   */\n  dup1\n    /* \"#utility.yul\":519:531   */\n  revert\n    /* \"#utility.yul\":470:533   */\ntag_20:\n    /* \"#utility.yul\":417:539   */\n  pop\n  jump\t// out\n    /* \"#utility.yul\":545:688   */\ntag_12:\n    /* \"#utility.yul\":602:607   */\n  0x00\n    /* \"#utility.yul\":633:639   */\n  dup2\n    /* \"#utility.yul\":627:640   */\n  mload\n    /* \"#utility.yul\":618:640   */\n  swap1\n  pop\n    /* \"#utility.yul\":649:682   */\n  tag_22\n    /* \"#utility.yul\":676:681   */\n  dup2\n    /* \"#utility.yul\":649:682   */\n  tag_11\n  jump\t// in\ntag_22:\n    /* \"#utility.yul\":545:688   */\n  swap3\n  swap2\n  pop\n  pop\n  jump\t// out\n    /* \"#utility.yul\":694:1045   */\ntag_3:\n    /* \"#utility.yul\":764:770   */\n  0x00\n    /* \"#utility.yul\":813:815   */\n  0x20\n    /* \"#utility.yul\":801:810   */\n  dup3\n    /* \"#utility.yul\":792:799   */\n  dup5\n    /* \"#utility.yul\":788:811   */\n  sub\n    /* \"#utility.yul\":784:816   */\n  slt\n    /* \"#utility.yul\":781:900   */\n  iszero\n  tag_24\n  jumpi\n    /* \"#utility.yul\":819:898   */\n  tag_25\n  tag_8\n  jump\t// in\ntag_25:\n    /* \"#utility.yul\":781:900   */\ntag_24:\n    /* \"#utility.yul\":939:940   */\n  0x00\n    /* \"#utility.yul\":964:1028   */\n  tag_26\n    /* \"#utility.yul\":1020:1027   */\n  dup5\n    /* \"#utility.yul\":1011:1017   */\n  dup3\n    /* \"#utility.yul\":1000:1009   */\n  dup6\n    /* \"#utility.yul\":996:1018   */\n  add\n    /* \"#utility.yul\":964:1028   */\n  tag_12\n  jump\t// in\ntag_26:\n    /* \"#utility.yul\":954:1028   */\n  swap2\n  pop\n    /* \"#utility.yul\":910:1038   */\n  pop\n    /* \"#utility.yul\":694:1045   */\n  swap3\n  swap2\n  pop\n  pop\n  jump\t// out\n    /* \"fundme/FundMe.sol\":630:9073  contract FundMe {... */\ntag_6:\n  dataSize(sub_0)\n  dup1\n  dataOffset(sub_0)\n  0x00\n  codecopy\n  0x00\n  return\nstop\n\nsub_0: assembly {\n        /* \"fundme/FundMe.sol\":630:9073  contract FundMe {... */\n      mstore(0x40, 0x80)\n      jumpi(tag_1, lt(calldatasize, 0x04))\n      shr(0xe0, calldataload(0x00))\n      dup1\n      0x9f883a05\n      gt\n      tag_11\n      jumpi\n      dup1\n      0x9f883a05\n      eq\n      tag_6\n      jumpi\n      dup1\n      0xb60d4288\n      eq\n      tag_7\n      jumpi\n      dup1\n      0xbea4dfb5\n      eq\n      tag_8\n      jumpi\n      dup1\n      0xd39cf006\n      eq\n      tag_9\n      jumpi\n      dup1\n      0xf2fde38b\n      eq\n      tag_10\n      jumpi\n      jump(tag_1)\n    tag_11:\n      dup1\n      0x13ffff01\n      eq\n      tag_2\n      jumpi\n      dup1\n      0x590e1ae3\n      eq\n      tag_3\n      jumpi\n      dup1\n      0x8da5cb5b\n      eq\n      tag_4\n      jumpi\n      dup1\n      0x8edd6eb6\n      eq\n      tag_5\n      jumpi\n    tag_1:\n      0x00\n      dup1\n      revert\n        /* \"fundme/FundMe.sol\":8216:8316  function setErc20Addr(address _erc20Addr) public onlyOwner {... */\n    tag_2:\n      callvalue\n      dup1\n      iszero\n      tag_12\n      jumpi\n      0x00\n      dup1\n      revert\n    tag_12:\n      pop\n      tag_13\n      0x04\n      dup1\n      calldatasize\n      sub\n      dup2\n      add\n      swap1\n      tag_14\n      swap2\n      swap1\n      tag_15\n      jump\t// in\n    tag_14:\n      tag_16\n      jump\t// in\n    tag_13:\n      stop\n        /* \"fundme/FundMe.sol\":7027:7753  function refund() external windowClose {... */\n    tag_3:\n      callvalue\n      dup1\n      iszero\n      tag_17\n      jumpi\n      0x00\n      dup1\n      revert\n    tag_17:\n      pop\n      tag_18\n      tag_19\n      jump\t// in\n    tag_18:\n      stop\n        /* \"fundme/FundMe.sol\":1364:1384  address public owner */\n    tag_4:\n      callvalue\n      dup1\n      iszero\n      tag_20\n      jumpi\n      0x00\n      dup1\n      revert\n    tag_20:\n      pop\n      tag_21\n      tag_22\n      jump\t// in\n    tag_21:\n      mload(0x40)\n      tag_23\n      swap2\n      swap1\n      tag_24\n      jump\t// in\n    tag_23:\n      mload(0x40)\n      dup1\n      swap2\n      sub\n      swap1\n      return\n        /* \"fundme/FundMe.sol\":5029:6900  function getFund() external windowClose onlyOwner {... */\n    tag_5:\n      callvalue\n      dup1\n      iszero\n      tag_25\n      jumpi\n      0x00\n      dup1\n      revert\n    tag_25:\n      pop\n      tag_26\n      tag_27\n      jump\t// in\n    tag_26:\n      stop\n        /* \"fundme/FundMe.sol\":655:705  mapping(address => uint256) public fundersToAmount */\n    tag_6:\n      callvalue\n      dup1\n      iszero\n      tag_28\n      jumpi\n      0x00\n      dup1\n      revert\n    tag_28:\n      pop\n      tag_29\n      0x04\n      dup1\n      calldatasize\n      sub\n      dup2\n      add\n      swap1\n      tag_30\n      swap2\n      swap1\n      tag_15\n      jump\t// in\n    tag_30:\n      tag_31\n      jump\t// in\n    tag_29:\n      mload(0x40)\n      tag_32\n      swap2\n      swap1\n      tag_33\n      jump\t// in\n    tag_32:\n      mload(0x40)\n      dup1\n      swap2\n      sub\n      swap1\n      return\n        /* \"fundme/FundMe.sol\":2951:3599  function fund() external payable {... */\n    tag_7:\n      tag_34\n      tag_35\n      jump\t// in\n    tag_34:\n      stop\n        /* \"fundme/FundMe.sol\":3728:4076  function getChainlinkDataFeedLatestAnswer() public view returns (int) {... */\n    tag_8:\n      callvalue\n      dup1\n      iszero\n      tag_36\n      jumpi\n      0x00\n      dup1\n      revert\n    tag_36:\n      pop\n      tag_37\n      tag_38\n      jump\t// in\n    tag_37:\n      mload(0x40)\n      tag_39\n      swap2\n      swap1\n      tag_40\n      jump\t// in\n    tag_39:\n      mload(0x40)\n      dup1\n      swap2\n      sub\n      swap1\n      return\n        /* \"fundme/FundMe.sol\":7794:8113  function setFunderToAmount(address funder, uint256 amountToUpdate) external {... */\n    tag_9:\n      callvalue\n      dup1\n      iszero\n      tag_41\n      jumpi\n      0x00\n      dup1\n      revert\n    tag_41:\n      pop\n      tag_42\n      0x04\n      dup1\n      calldatasize\n      sub\n      dup2\n      add\n      swap1\n      tag_43\n      swap2\n      swap1\n      tag_44\n      jump\t// in\n    tag_43:\n      tag_45\n      jump\t// in\n    tag_42:\n      stop\n        /* \"fundme/FundMe.sol\":4647:4811  function transferOwnership(address newOwner) public onlyOwner {... */\n    tag_10:\n      callvalue\n      dup1\n      iszero\n      tag_46\n      jumpi\n      0x00\n      dup1\n      revert\n    tag_46:\n      pop\n      tag_47\n      0x04\n      dup1\n      calldatasize\n      sub\n      dup2\n      add\n      swap1\n      tag_48\n      swap2\n      swap1\n      tag_15\n      jump\t// in\n    tag_48:\n      tag_49\n      jump\t// in\n    tag_47:\n      stop\n        /* \"fundme/FundMe.sol\":8216:8316  function setErc20Addr(address _erc20Addr) public onlyOwner {... */\n    tag_16:\n        /* \"fundme/FundMe.sol\":8835:8840  owner */\n      0x02\n      0x00\n      swap1\n      sload\n      swap1\n      0x0100\n      exp\n      swap1\n      div\n      0xffffffffffffffffffffffffffffffffffffffff\n      and\n        /* \"fundme/FundMe.sol\":8821:8840  msg.sender == owner */\n      0xffffffffffffffffffffffffffffffffffffffff\n      and\n        /* \"fundme/FundMe.sol\":8821:8831  msg.sender */\n      caller\n        /* \"fundme/FundMe.sol\":8821:8840  msg.sender == owner */\n      0xffffffffffffffffffffffffffffffffffffffff\n      and\n      eq\n        /* \"fundme/FundMe.sol\":8813:8886  require(msg.sender == owner, \"this function can only be called by owner\") */\n      tag_51\n      jumpi\n      mload(0x40)\n      0x08c379a000000000000000000000000000000000000000000000000000000000\n      dup2\n      mstore\n      0x04\n      add\n      tag_52\n      swap1\n      tag_53\n      jump\t// in\n    tag_52:\n      mload(0x40)\n      dup1\n      swap2\n      sub\n      swap1\n      revert\n    tag_51:\n        /* \"fundme/FundMe.sol\":8298:8308  _erc20Addr */\n      dup1\n        /* \"fundme/FundMe.sol\":8286:8295  erc20Addr */\n      0x05\n      0x00\n        /* \"fundme/FundMe.sol\":8286:8308  erc20Addr = _erc20Addr */\n      0x0100\n      exp\n      dup2\n      sload\n      dup2\n      0xffffffffffffffffffffffffffffffffffffffff\n      mul\n      not\n      and\n      swap1\n      dup4\n      0xffffffffffffffffffffffffffffffffffffffff\n      and\n      mul\n      or\n      swap1\n      sstore\n      pop\n        /* \"fundme/FundMe.sol\":8216:8316  function setErc20Addr(address _erc20Addr) public onlyOwner {... */\n      pop\n      jump\t// out\n        /* \"fundme/FundMe.sol\":7027:7753  function refund() external windowClose {... */\n    tag_19:\n        /* \"fundme/FundMe.sol\":8527:8535  lockTime */\n      sload(0x04)\n        /* \"fundme/FundMe.sol\":8505:8524  deploymentTimestamp */\n      sload(0x03)\n        /* \"fundme/FundMe.sol\":8505:8535  deploymentTimestamp + lockTime */\n      tag_56\n      swap2\n      swap1\n      tag_57\n      jump\t// in\n    tag_56:\n        /* \"fundme/FundMe.sol\":8486:8501  block.timestamp */\n      timestamp\n        /* \"fundme/FundMe.sol\":8486:8535  block.timestamp >= deploymentTimestamp + lockTime */\n      lt\n      iszero\n        /* \"fundme/FundMe.sol\":8478:8559  require(block.timestamp >= deploymentTimestamp + lockTime, \"window is not close\") */\n      tag_58\n      jumpi\n      mload(0x40)\n      0x08c379a000000000000000000000000000000000000000000000000000000000\n      dup2\n      mstore\n      0x04\n      add\n      tag_59\n      swap1\n      tag_60\n      jump\t// in\n    tag_59:\n      mload(0x40)\n      dup1\n      swap2\n      sub\n      swap1\n      revert\n    tag_58:\n        /* \"fundme/FundMe.sol\":1316:1331  1000 * 10 ** 18 */\n      0x3635c9adc5dea00000\n        /* \"fundme/FundMe.sol\":7085:7123  convertEthToUsd(address(this).balance) */\n      tag_62\n        /* \"fundme/FundMe.sol\":7101:7122  address(this).balance */\n      selfbalance\n        /* \"fundme/FundMe.sol\":7085:7100  convertEthToUsd */\n      tag_63\n        /* \"fundme/FundMe.sol\":7085:7123  convertEthToUsd(address(this).balance) */\n      jump\t// in\n    tag_62:\n        /* \"fundme/FundMe.sol\":7085:7132  convertEthToUsd(address(this).balance) < TARGET */\n      lt\n        /* \"fundme/FundMe.sol\":7077:7154  require(convertEthToUsd(address(this).balance) < TARGET, \"Target is reached\") */\n      tag_64\n      jumpi\n      mload(0x40)\n      0x08c379a000000000000000000000000000000000000000000000000000000000\n      dup2\n      mstore\n      0x04\n      add\n      tag_65\n      swap1\n      tag_66\n      jump\t// in\n    tag_65:\n      mload(0x40)\n      dup1\n      swap2\n      sub\n      swap1\n      revert\n    tag_64:\n        /* \"fundme/FundMe.sol\":7295:7296  0 */\n      0x00\n        /* \"fundme/FundMe.sol\":7264:7279  fundersToAmount */\n      dup1\n        /* \"fundme/FundMe.sol\":7264:7291  fundersToAmount[msg.sender] */\n      0x00\n        /* \"fundme/FundMe.sol\":7280:7290  msg.sender */\n      caller\n        /* \"fundme/FundMe.sol\":7264:7291  fundersToAmount[msg.sender] */\n      0xffffffffffffffffffffffffffffffffffffffff\n      and\n      0xffffffffffffffffffffffffffffffffffffffff\n      and\n      dup2\n      mstore\n      0x20\n      add\n      swap1\n      dup2\n      mstore\n      0x20\n      add\n      0x00\n      keccak256\n      sload\n        /* \"fundme/FundMe.sol\":7264:7296  fundersToAmount[msg.sender] != 0 */\n      sub\n        /* \"fundme/FundMe.sol\":7256:7325  require(fundersToAmount[msg.sender] != 0, \"there is no fund for you\") */\n      tag_67\n      jumpi\n      mload(0x40)\n      0x08c379a000000000000000000000000000000000000000000000000000000000\n      dup2\n      mstore\n      0x04\n      add\n      tag_68\n      swap1\n      tag_69\n      jump\t// in\n    tag_68:\n      mload(0x40)\n      dup1\n      swap2\n      sub\n      swap1\n      revert\n    tag_67:\n        /* \"fundme/FundMe.sol\":7338:7350  bool success */\n      0x00\n        /* \"fundme/FundMe.sol\":7429:7439  msg.sender */\n      caller\n        /* \"fundme/FundMe.sol\":7421:7445  payable(msg.sender).call */\n      0xffffffffffffffffffffffffffffffffffffffff\n      and\n        /* \"fundme/FundMe.sol\":7453:7468  fundersToAmount */\n      0x00\n        /* \"fundme/FundMe.sol\":7453:7480  fundersToAmount[msg.sender] */\n      dup1\n        /* \"fundme/FundMe.sol\":7469:7479  msg.sender */\n      caller\n        /* \"fundme/FundMe.sol\":7453:7480  fundersToAmount[msg.sender] */\n      0xffffffffffffffffffffffffffffffffffffffff\n      and\n      0xffffffffffffffffffffffffffffffffffffffff\n      and\n      dup2\n      mstore\n      0x20\n      add\n      swap1\n      dup2\n      mstore\n      0x20\n      add\n      0x00\n      keccak256\n      sload\n        /* \"fundme/FundMe.sol\":7421:7485  payable(msg.sender).call{value: fundersToAmount[msg.sender]}(\"\") */\n      mload(0x40)\n      tag_70\n      swap1\n      tag_71\n      jump\t// in\n    tag_70:\n      0x00\n      mload(0x40)\n      dup1\n      dup4\n      sub\n      dup2\n      dup6\n      dup8\n      gas\n      call\n      swap3\n      pop\n      pop\n      pop\n      returndatasize\n      dup1\n      0x00\n      dup2\n      eq\n      tag_74\n      jumpi\n      mload(0x40)\n      swap2\n      pop\n      and(add(returndatasize, 0x3f), not(0x1f))\n      dup3\n      add\n      0x40\n      mstore\n      returndatasize\n      dup3\n      mstore\n      returndatasize\n      0x00\n      0x20\n      dup5\n      add\n      returndatacopy\n      jump(tag_73)\n    tag_74:\n      0x60\n      swap2\n      pop\n    tag_73:\n      pop\n        /* \"fundme/FundMe.sol\":7407:7485  (success, ) = payable(msg.sender).call{value: fundersToAmount[msg.sender]}(\"\") */\n      pop\n      dup1\n      swap2\n      pop\n      pop\n        /* \"fundme/FundMe.sol\":7608:7615  success */\n      dup1\n        /* \"fundme/FundMe.sol\":7600:7638  require(success, \"transfer tx failed\") */\n      tag_75\n      jumpi\n      mload(0x40)\n      0x08c379a000000000000000000000000000000000000000000000000000000000\n      dup2\n      mstore\n      0x04\n      add\n      tag_76\n      swap1\n      tag_77\n      jump\t// in\n    tag_76:\n      mload(0x40)\n      dup1\n      swap2\n      sub\n      swap1\n      revert\n    tag_75:\n        /* \"fundme/FundMe.sol\":7744:7745  0 */\n      0x00\n        /* \"fundme/FundMe.sol\":7714:7729  fundersToAmount */\n      dup1\n        /* \"fundme/FundMe.sol\":7714:7741  fundersToAmount[msg.sender] */\n      0x00\n        /* \"fundme/FundMe.sol\":7730:7740  msg.sender */\n      caller\n        /* \"fundme/FundMe.sol\":7714:7741  fundersToAmount[msg.sender] */\n      0xffffffffffffffffffffffffffffffffffffffff\n      and\n      0xffffffffffffffffffffffffffffffffffffffff\n      and\n      dup2\n      mstore\n      0x20\n      add\n      swap1\n      dup2\n      mstore\n      0x20\n      add\n      0x00\n      keccak256\n        /* \"fundme/FundMe.sol\":7714:7745  fundersToAmount[msg.sender] = 0 */\n      dup2\n      swap1\n      sstore\n      pop\n        /* \"fundme/FundMe.sol\":7066:7753  {... */\n      pop\n        /* \"fundme/FundMe.sol\":7027:7753  function refund() external windowClose {... */\n      jump\t// out\n        /* \"fundme/FundMe.sol\":1364:1384  address public owner */\n    tag_22:\n      0x02\n      0x00\n      swap1\n      sload\n      swap1\n      0x0100\n      exp\n      swap1\n      div\n      0xffffffffffffffffffffffffffffffffffffffff\n      and\n      dup2\n      jump\t// out\n        /* \"fundme/FundMe.sol\":5029:6900  function getFund() external windowClose onlyOwner {... */\n    tag_27:\n        /* \"fundme/FundMe.sol\":8527:8535  lockTime */\n      sload(0x04)\n        /* \"fundme/FundMe.sol\":8505:8524  deploymentTimestamp */\n      sload(0x03)\n        /* \"fundme/FundMe.sol\":8505:8535  deploymentTimestamp + lockTime */\n      tag_79\n      swap2\n      swap1\n      tag_57\n      jump\t// in\n    tag_79:\n        /* \"fundme/FundMe.sol\":8486:8501  block.timestamp */\n      timestamp\n        /* \"fundme/FundMe.sol\":8486:8535  block.timestamp >= deploymentTimestamp + lockTime */\n      lt\n      iszero\n        /* \"fundme/FundMe.sol\":8478:8559  require(block.timestamp >= deploymentTimestamp + lockTime, \"window is not close\") */\n      tag_80\n      jumpi\n      mload(0x40)\n      0x08c379a000000000000000000000000000000000000000000000000000000000\n      dup2\n      mstore\n      0x04\n      add\n      tag_81\n      swap1\n      tag_60\n      jump\t// in\n    tag_81:\n      mload(0x40)\n      dup1\n      swap2\n      sub\n      swap1\n      revert\n    tag_80:\n        /* \"fundme/FundMe.sol\":8835:8840  owner */\n      0x02\n      0x00\n      swap1\n      sload\n      swap1\n      0x0100\n      exp\n      swap1\n      div\n      0xffffffffffffffffffffffffffffffffffffffff\n      and\n        /* \"fundme/FundMe.sol\":8821:8840  msg.sender == owner */\n      0xffffffffffffffffffffffffffffffffffffffff\n      and\n        /* \"fundme/FundMe.sol\":8821:8831  msg.sender */\n      caller\n        /* \"fundme/FundMe.sol\":8821:8840  msg.sender == owner */\n      0xffffffffffffffffffffffffffffffffffffffff\n      and\n      eq\n        /* \"fundme/FundMe.sol\":8813:8886  require(msg.sender == owner, \"this function can only be called by owner\") */\n      tag_83\n      jumpi\n      mload(0x40)\n      0x08c379a000000000000000000000000000000000000000000000000000000000\n      dup2\n      mstore\n      0x04\n      add\n      tag_84\n      swap1\n      tag_53\n      jump\t// in\n    tag_84:\n      mload(0x40)\n      dup1\n      swap2\n      sub\n      swap1\n      revert\n    tag_83:\n        /* \"fundme/FundMe.sol\":1316:1331  1000 * 10 ** 18 */\n      0x3635c9adc5dea00000\n        /* \"fundme/FundMe.sol\":5242:5280  convertEthToUsd(address(this).balance) */\n      tag_86\n        /* \"fundme/FundMe.sol\":5258:5279  address(this).balance */\n      selfbalance\n        /* \"fundme/FundMe.sol\":5242:5257  convertEthToUsd */\n      tag_63\n        /* \"fundme/FundMe.sol\":5242:5280  convertEthToUsd(address(this).balance) */\n      jump\t// in\n    tag_86:\n        /* \"fundme/FundMe.sol\":5242:5317  convertEthToUsd(address(this).balance) /*balance的单位是wei*/ >= TARGET */\n      lt\n      iszero\n        /* \"fundme/FundMe.sol\":5234:5343  require(convertEthToUsd(address(this).balance) /*balance的单位是wei*/ >= TARGET, \"Target is not reached\") */\n      tag_87\n      jumpi\n      mload(0x40)\n      0x08c379a000000000000000000000000000000000000000000000000000000000\n      dup2\n      mstore\n      0x04\n      add\n      tag_88\n      swap1\n      tag_89\n      jump\t// in\n    tag_88:\n      mload(0x40)\n      dup1\n      swap2\n      sub\n      swap1\n      revert\n    tag_87:\n        /* \"fundme/FundMe.sol\":6537:6549  bool success */\n      0x00\n        /* \"fundme/FundMe.sol\":6582:6592  msg.sender */\n      caller\n        /* \"fundme/FundMe.sol\":6574:6598  payable(msg.sender).call */\n      0xffffffffffffffffffffffffffffffffffffffff\n      and\n        /* \"fundme/FundMe.sol\":6606:6627  address(this).balance */\n      selfbalance\n        /* \"fundme/FundMe.sol\":6574:6632  payable(msg.sender).call{value: address(this).balance}(\"\") */\n      mload(0x40)\n      tag_90\n      swap1\n      tag_71\n      jump\t// in\n    tag_90:\n      0x00\n      mload(0x40)\n      dup1\n      dup4\n      sub\n      dup2\n      dup6\n      dup8\n      gas\n      call\n      swap3\n      pop\n      pop\n      pop\n      returndatasize\n      dup1\n      0x00\n      dup2\n      eq\n      tag_93\n      jumpi\n      mload(0x40)\n      swap2\n      pop\n      and(add(returndatasize, 0x3f), not(0x1f))\n      dup3\n      add\n      0x40\n      mstore\n      returndatasize\n      dup3\n      mstore\n      returndatasize\n      0x00\n      0x20\n      dup5\n      add\n      returndatacopy\n      jump(tag_92)\n    tag_93:\n      0x60\n      swap2\n      pop\n    tag_92:\n      pop\n        /* \"fundme/FundMe.sol\":6560:6632  (success, ) = payable(msg.sender).call{value: address(this).balance}(\"\") */\n      pop\n      dup1\n      swap2\n      pop\n      pop\n        /* \"fundme/FundMe.sol\":6755:6762  success */\n      dup1\n        /* \"fundme/FundMe.sol\":6747:6785  require(success, \"transfer tx failed\") */\n      tag_94\n      jumpi\n      mload(0x40)\n      0x08c379a000000000000000000000000000000000000000000000000000000000\n      dup2\n      mstore\n      0x04\n      add\n      tag_95\n      swap1\n      tag_77\n      jump\t// in\n    tag_95:\n      mload(0x40)\n      dup1\n      swap2\n      sub\n      swap1\n      revert\n    tag_94:\n        /* \"fundme/FundMe.sol\":5079:6900  {... */\n      pop\n        /* \"fundme/FundMe.sol\":5029:6900  function getFund() external windowClose onlyOwner {... */\n      jump\t// out\n        /* \"fundme/FundMe.sol\":655:705  mapping(address => uint256) public fundersToAmount */\n    tag_31:\n      mstore(0x20, 0x00)\n      dup1\n      0x00\n      mstore\n      keccak256(0x00, 0x40)\n      0x00\n      swap2\n      pop\n      swap1\n      pop\n      sload\n      dup2\n      jump\t// out\n        /* \"fundme/FundMe.sol\":2951:3599  function fund() external payable {... */\n    tag_35:\n        /* \"fundme/FundMe.sol\":1086:1100  100 * 10 ** 18 */\n      0x056bc75e2d63100000\n        /* \"fundme/FundMe.sol\":3218:3244  convertEthToUsd(msg.value) */\n      tag_97\n        /* \"fundme/FundMe.sol\":3234:3243  msg.value */\n      callvalue\n        /* \"fundme/FundMe.sol\":3218:3233  convertEthToUsd */\n      tag_63\n        /* \"fundme/FundMe.sol\":3218:3244  convertEthToUsd(msg.value) */\n      jump\t// in\n    tag_97:\n        /* \"fundme/FundMe.sol\":3218:3261  convertEthToUsd(msg.value) >= MINIMUM_VALUE */\n      lt\n      iszero\n        /* \"fundme/FundMe.sol\":3210:3279  require(convertEthToUsd(msg.value) >= MINIMUM_VALUE, \"Send more ETH\") */\n      tag_98\n      jumpi\n      mload(0x40)\n      0x08c379a000000000000000000000000000000000000000000000000000000000\n      dup2\n      mstore\n      0x04\n      add\n      tag_99\n      swap1\n      tag_100\n      jump\t// in\n    tag_99:\n      mload(0x40)\n      dup1\n      swap2\n      sub\n      swap1\n      revert\n    tag_98:\n        /* \"fundme/FundMe.sol\":3441:3449  lockTime */\n      sload(0x04)\n        /* \"fundme/FundMe.sol\":3419:3438  deploymentTimestamp */\n      sload(0x03)\n        /* \"fundme/FundMe.sol\":3419:3449  deploymentTimestamp + lockTime */\n      tag_101\n      swap2\n      swap1\n      tag_57\n      jump\t// in\n    tag_101:\n        /* \"fundme/FundMe.sol\":3401:3416  block.timestamp */\n      timestamp\n        /* \"fundme/FundMe.sol\":3401:3449  block.timestamp < deploymentTimestamp + lockTime */\n      lt\n        /* \"fundme/FundMe.sol\":3393:3469  require(block.timestamp < deploymentTimestamp + lockTime, \"window is close\") */\n      tag_102\n      jumpi\n      mload(0x40)\n      0x08c379a000000000000000000000000000000000000000000000000000000000\n      dup2\n      mstore\n      0x04\n      add\n      tag_103\n      swap1\n      tag_104\n      jump\t// in\n    tag_103:\n      mload(0x40)\n      dup1\n      swap2\n      sub\n      swap1\n      revert\n    tag_102:\n        /* \"fundme/FundMe.sol\":3582:3591  msg.value */\n      callvalue\n        /* \"fundme/FundMe.sol\":3552:3567  fundersToAmount */\n      0x00\n        /* \"fundme/FundMe.sol\":3552:3579  fundersToAmount[msg.sender] */\n      dup1\n        /* \"fundme/FundMe.sol\":3568:3578  msg.sender */\n      caller\n        /* \"fundme/FundMe.sol\":3552:3579  fundersToAmount[msg.sender] */\n      0xffffffffffffffffffffffffffffffffffffffff\n      and\n      0xffffffffffffffffffffffffffffffffffffffff\n      and\n      dup2\n      mstore\n      0x20\n      add\n      swap1\n      dup2\n      mstore\n      0x20\n      add\n      0x00\n      keccak256\n        /* \"fundme/FundMe.sol\":3552:3591  fundersToAmount[msg.sender] = msg.value */\n      dup2\n      swap1\n      sstore\n      pop\n        /* \"fundme/FundMe.sol\":2951:3599  function fund() external payable {... */\n      jump\t// out\n        /* \"fundme/FundMe.sol\":3728:4076  function getChainlinkDataFeedLatestAnswer() public view returns (int) {... */\n    tag_38:\n        /* \"fundme/FundMe.sol\":3793:3796  int */\n      0x00\n        /* \"fundme/FundMe.sol\":3887:3897  int answer */\n      dup1\n        /* \"fundme/FundMe.sol\":4018:4026  dataFeed */\n      0x01\n      0x00\n      swap1\n      sload\n      swap1\n      0x0100\n      exp\n      swap1\n      div\n      0xffffffffffffffffffffffffffffffffffffffff\n      and\n        /* \"fundme/FundMe.sol\":4018:4042  dataFeed.latestRoundData */\n      0xffffffffffffffffffffffffffffffffffffffff\n      and\n      0xfeaf968c\n        /* \"fundme/FundMe.sol\":4018:4044  dataFeed.latestRoundData() */\n      mload(0x40)\n      dup2\n      0xffffffff\n      and\n      0xe0\n      shl\n      dup2\n      mstore\n      0x04\n      add\n      0xa0\n      mload(0x40)\n      dup1\n      dup4\n      sub\n      dup2\n      dup7\n      gas\n      staticcall\n      iszero\n      dup1\n      iszero\n      tag_107\n      jumpi\n      returndatasize\n      0x00\n      dup1\n      returndatacopy\n      revert(0x00, returndatasize)\n    tag_107:\n      pop\n      pop\n      pop\n      pop\n      mload(0x40)\n      returndatasize\n      not(0x1f)\n      0x1f\n      dup3\n      add\n      and\n      dup3\n      add\n      dup1\n      0x40\n      mstore\n      pop\n      dup2\n      add\n      swap1\n      tag_108\n      swap2\n      swap1\n      tag_109\n      jump\t// in\n    tag_108:\n        /* \"fundme/FundMe.sol\":3837:4044  (... */\n      pop\n      pop\n      pop\n      swap2\n      pop\n      pop\n        /* \"fundme/FundMe.sol\":4062:4068  answer */\n      dup1\n        /* \"fundme/FundMe.sol\":4055:4068  return answer */\n      swap2\n      pop\n      pop\n        /* \"fundme/FundMe.sol\":3728:4076  function getChainlinkDataFeedLatestAnswer() public view returns (int) {... */\n      swap1\n      jump\t// out\n        /* \"fundme/FundMe.sol\":7794:8113  function setFunderToAmount(address funder, uint256 amountToUpdate) external {... */\n    tag_45:\n        /* \"fundme/FundMe.sol\":7993:8002  erc20Addr */\n      0x05\n      0x00\n      swap1\n      sload\n      swap1\n      0x0100\n      exp\n      swap1\n      div\n      0xffffffffffffffffffffffffffffffffffffffff\n      and\n        /* \"fundme/FundMe.sol\":7979:8002  msg.sender == erc20Addr */\n      0xffffffffffffffffffffffffffffffffffffffff\n      and\n        /* \"fundme/FundMe.sol\":7979:7989  msg.sender */\n      caller\n        /* \"fundme/FundMe.sol\":7979:8002  msg.sender == erc20Addr */\n      0xffffffffffffffffffffffffffffffffffffffff\n      and\n      eq\n        /* \"fundme/FundMe.sol\":7971:8054  require(msg.sender == erc20Addr, \"you do not have permission to call this funtion\") */\n      tag_111\n      jumpi\n      mload(0x40)\n      0x08c379a000000000000000000000000000000000000000000000000000000000\n      dup2\n      mstore\n      0x04\n      add\n      tag_112\n      swap1\n      tag_113\n      jump\t// in\n    tag_112:\n      mload(0x40)\n      dup1\n      swap2\n      sub\n      swap1\n      revert\n    tag_111:\n        /* \"fundme/FundMe.sol\":8091:8105  amountToUpdate */\n      dup1\n        /* \"fundme/FundMe.sol\":8065:8080  fundersToAmount */\n      0x00\n        /* \"fundme/FundMe.sol\":8065:8088  fundersToAmount[funder] */\n      dup1\n        /* \"fundme/FundMe.sol\":8081:8087  funder */\n      dup5\n        /* \"fundme/FundMe.sol\":8065:8088  fundersToAmount[funder] */\n      0xffffffffffffffffffffffffffffffffffffffff\n      and\n      0xffffffffffffffffffffffffffffffffffffffff\n      and\n      dup2\n      mstore\n      0x20\n      add\n      swap1\n      dup2\n      mstore\n      0x20\n      add\n      0x00\n      keccak256\n        /* \"fundme/FundMe.sol\":8065:8105  fundersToAmount[funder] = amountToUpdate */\n      dup2\n      swap1\n      sstore\n      pop\n        /* \"fundme/FundMe.sol\":7794:8113  function setFunderToAmount(address funder, uint256 amountToUpdate) external {... */\n      pop\n      pop\n      jump\t// out\n        /* \"fundme/FundMe.sol\":4647:4811  function transferOwnership(address newOwner) public onlyOwner {... */\n    tag_49:\n        /* \"fundme/FundMe.sol\":8835:8840  owner */\n      0x02\n      0x00\n      swap1\n      sload\n      swap1\n      0x0100\n      exp\n      swap1\n      div\n      0xffffffffffffffffffffffffffffffffffffffff\n      and\n        /* \"fundme/FundMe.sol\":8821:8840  msg.sender == owner */\n      0xffffffffffffffffffffffffffffffffffffffff\n      and\n        /* \"fundme/FundMe.sol\":8821:8831  msg.sender */\n      caller\n        /* \"fundme/FundMe.sol\":8821:8840  msg.sender == owner */\n      0xffffffffffffffffffffffffffffffffffffffff\n      and\n      eq\n        /* \"fundme/FundMe.sol\":8813:8886  require(msg.sender == owner, \"this function can only be called by owner\") */\n      tag_115\n      jumpi\n      mload(0x40)\n      0x08c379a000000000000000000000000000000000000000000000000000000000\n      dup2\n      mstore\n      0x04\n      add\n      tag_116\n      swap1\n      tag_53\n      jump\t// in\n    tag_116:\n      mload(0x40)\n      dup1\n      swap2\n      sub\n      swap1\n      revert\n    tag_115:\n        /* \"fundme/FundMe.sol\":4795:4803  newOwner */\n      dup1\n        /* \"fundme/FundMe.sol\":4787:4792  owner */\n      0x02\n      0x00\n        /* \"fundme/FundMe.sol\":4787:4803  owner = newOwner */\n      0x0100\n      exp\n      dup2\n      sload\n      dup2\n      0xffffffffffffffffffffffffffffffffffffffff\n      mul\n      not\n      and\n      swap1\n      dup4\n      0xffffffffffffffffffffffffffffffffffffffff\n      and\n      mul\n      or\n      swap1\n      sstore\n      pop\n        /* \"fundme/FundMe.sol\":4647:4811  function transferOwnership(address newOwner) public onlyOwner {... */\n      pop\n      jump\t// out\n        /* \"fundme/FundMe.sol\":4126:4609  function convertEthToUsd(uint256 ethAmount) internal view returns (uint256) {... */\n    tag_63:\n        /* \"fundme/FundMe.sol\":4193:4200  uint256 */\n      0x00\n        /* \"fundme/FundMe.sol\":4254:4270  uint256 ethPrice */\n      dup1\n        /* \"fundme/FundMe.sol\":4281:4315  getChainlinkDataFeedLatestAnswer() */\n      tag_119\n        /* \"fundme/FundMe.sol\":4281:4313  getChainlinkDataFeedLatestAnswer */\n      tag_38\n        /* \"fundme/FundMe.sol\":4281:4315  getChainlinkDataFeedLatestAnswer() */\n      jump\t// in\n    tag_119:\n        /* \"fundme/FundMe.sol\":4254:4316  uint256 ethPrice = uint256(getChainlinkDataFeedLatestAnswer()) */\n      swap1\n      pop\n        /* \"fundme/FundMe.sol\":4591:4598  10 ** 8 */\n      0x05f5e100\n        /* \"fundme/FundMe.sol\":4579:4587  ethPrice */\n      dup2\n        /* \"fundme/FundMe.sol\":4567:4576  ethAmount */\n      dup5\n        /* \"fundme/FundMe.sol\":4567:4587  ethAmount * ethPrice */\n      tag_120\n      swap2\n      swap1\n      tag_121\n      jump\t// in\n    tag_120:\n        /* \"fundme/FundMe.sol\":4567:4599  ethAmount * ethPrice / (10 ** 8) */\n      tag_122\n      swap2\n      swap1\n      tag_123\n      jump\t// in\n    tag_122:\n        /* \"fundme/FundMe.sol\":4560:4599  return ethAmount * ethPrice / (10 ** 8) */\n      swap2\n      pop\n      pop\n        /* \"fundme/FundMe.sol\":4126:4609  function convertEthToUsd(uint256 ethAmount) internal view returns (uint256) {... */\n      swap2\n      swap1\n      pop\n      jump\t// out\n        /* \"#utility.yul\":88:205   */\n    tag_125:\n        /* \"#utility.yul\":197:198   */\n      0x00\n        /* \"#utility.yul\":194:195   */\n      dup1\n        /* \"#utility.yul\":187:199   */\n      revert\n        /* \"#utility.yul\":334:460   */\n    tag_127:\n        /* \"#utility.yul\":371:378   */\n      0x00\n        /* \"#utility.yul\":411:453   */\n      0xffffffffffffffffffffffffffffffffffffffff\n        /* \"#utility.yul\":404:409   */\n      dup3\n        /* \"#utility.yul\":400:454   */\n      and\n        /* \"#utility.yul\":389:454   */\n      swap1\n      pop\n        /* \"#utility.yul\":334:460   */\n      swap2\n      swap1\n      pop\n      jump\t// out\n        /* \"#utility.yul\":466:562   */\n    tag_128:\n        /* \"#utility.yul\":503:510   */\n      0x00\n        /* \"#utility.yul\":532:556   */\n      tag_174\n        /* \"#utility.yul\":550:555   */\n      dup3\n        /* \"#utility.yul\":532:556   */\n      tag_127\n      jump\t// in\n    tag_174:\n        /* \"#utility.yul\":521:556   */\n      swap1\n      pop\n        /* \"#utility.yul\":466:562   */\n      swap2\n      swap1\n      pop\n      jump\t// out\n        /* \"#utility.yul\":568:690   */\n    tag_129:\n        /* \"#utility.yul\":641:665   */\n      tag_176\n        /* \"#utility.yul\":659:664   */\n      dup2\n        /* \"#utility.yul\":641:665   */\n      tag_128\n      jump\t// in\n    tag_176:\n        /* \"#utility.yul\":634:639   */\n      dup2\n        /* \"#utility.yul\":631:666   */\n      eq\n        /* \"#utility.yul\":621:684   */\n      tag_177\n      jumpi\n        /* \"#utility.yul\":680:681   */\n      0x00\n        /* \"#utility.yul\":677:678   */\n      dup1\n        /* \"#utility.yul\":670:682   */\n      revert\n        /* \"#utility.yul\":621:684   */\n    tag_177:\n        /* \"#utility.yul\":568:690   */\n      pop\n      jump\t// out\n        /* \"#utility.yul\":696:835   */\n    tag_130:\n        /* \"#utility.yul\":742:747   */\n      0x00\n        /* \"#utility.yul\":780:786   */\n      dup2\n        /* \"#utility.yul\":767:787   */\n      calldataload\n        /* \"#utility.yul\":758:787   */\n      swap1\n      pop\n        /* \"#utility.yul\":796:829   */\n      tag_179\n        /* \"#utility.yul\":823:828   */\n      dup2\n        /* \"#utility.yul\":796:829   */\n      tag_129\n      jump\t// in\n    tag_179:\n        /* \"#utility.yul\":696:835   */\n      swap3\n      swap2\n      pop\n      pop\n      jump\t// out\n        /* \"#utility.yul\":841:1170   */\n    tag_15:\n        /* \"#utility.yul\":900:906   */\n      0x00\n        /* \"#utility.yul\":949:951   */\n      0x20\n        /* \"#utility.yul\":937:946   */\n      dup3\n        /* \"#utility.yul\":928:935   */\n      dup5\n        /* \"#utility.yul\":924:947   */\n      sub\n        /* \"#utility.yul\":920:952   */\n      slt\n        /* \"#utility.yul\":917:1036   */\n      iszero\n      tag_181\n      jumpi\n        /* \"#utility.yul\":955:1034   */\n      tag_182\n      tag_125\n      jump\t// in\n    tag_182:\n        /* \"#utility.yul\":917:1036   */\n    tag_181:\n        /* \"#utility.yul\":1075:1076   */\n      0x00\n        /* \"#utility.yul\":1100:1153   */\n      tag_183\n        /* \"#utility.yul\":1145:1152   */\n      dup5\n        /* \"#utility.yul\":1136:1142   */\n      dup3\n        /* \"#utility.yul\":1125:1134   */\n      dup6\n        /* \"#utility.yul\":1121:1143   */\n      add\n        /* \"#utility.yul\":1100:1153   */\n      tag_130\n      jump\t// in\n    tag_183:\n        /* \"#utility.yul\":1090:1153   */\n      swap2\n      pop\n        /* \"#utility.yul\":1046:1163   */\n      pop\n        /* \"#utility.yul\":841:1170   */\n      swap3\n      swap2\n      pop\n      pop\n      jump\t// out\n        /* \"#utility.yul\":1176:1294   */\n    tag_131:\n        /* \"#utility.yul\":1263:1287   */\n      tag_185\n        /* \"#utility.yul\":1281:1286   */\n      dup2\n        /* \"#utility.yul\":1263:1287   */\n      tag_128\n      jump\t// in\n    tag_185:\n        /* \"#utility.yul\":1258:1261   */\n      dup3\n        /* \"#utility.yul\":1251:1288   */\n      mstore\n        /* \"#utility.yul\":1176:1294   */\n      pop\n      pop\n      jump\t// out\n        /* \"#utility.yul\":1300:1522   */\n    tag_24:\n        /* \"#utility.yul\":1393:1397   */\n      0x00\n        /* \"#utility.yul\":1431:1433   */\n      0x20\n        /* \"#utility.yul\":1420:1429   */\n      dup3\n        /* \"#utility.yul\":1416:1434   */\n      add\n        /* \"#utility.yul\":1408:1434   */\n      swap1\n      pop\n        /* \"#utility.yul\":1444:1515   */\n      tag_187\n        /* \"#utility.yul\":1512:1513   */\n      0x00\n        /* \"#utility.yul\":1501:1510   */\n      dup4\n        /* \"#utility.yul\":1497:1514   */\n      add\n        /* \"#utility.yul\":1488:1494   */\n      dup5\n        /* \"#utility.yul\":1444:1515   */\n      tag_131\n      jump\t// in\n    tag_187:\n        /* \"#utility.yul\":1300:1522   */\n      swap3\n      swap2\n      pop\n      pop\n      jump\t// out\n        /* \"#utility.yul\":1528:1605   */\n    tag_132:\n        /* \"#utility.yul\":1565:1572   */\n      0x00\n        /* \"#utility.yul\":1594:1599   */\n      dup2\n        /* \"#utility.yul\":1583:1599   */\n      swap1\n      pop\n        /* \"#utility.yul\":1528:1605   */\n      swap2\n      swap1\n      pop\n      jump\t// out\n        /* \"#utility.yul\":1611:1729   */\n    tag_133:\n        /* \"#utility.yul\":1698:1722   */\n      tag_190\n        /* \"#utility.yul\":1716:1721   */\n      dup2\n        /* \"#utility.yul\":1698:1722   */\n      tag_132\n      jump\t// in\n    tag_190:\n        /* \"#utility.yul\":1693:1696   */\n      dup3\n        /* \"#utility.yul\":1686:1723   */\n      mstore\n        /* \"#utility.yul\":1611:1729   */\n      pop\n      pop\n      jump\t// out\n        /* \"#utility.yul\":1735:1957   */\n    tag_33:\n        /* \"#utility.yul\":1828:1832   */\n      0x00\n        /* \"#utility.yul\":1866:1868   */\n      0x20\n        /* \"#utility.yul\":1855:1864   */\n      dup3\n        /* \"#utility.yul\":1851:1869   */\n      add\n        /* \"#utility.yul\":1843:1869   */\n      swap1\n      pop\n        /* \"#utility.yul\":1879:1950   */\n      tag_192\n        /* \"#utility.yul\":1947:1948   */\n      0x00\n        /* \"#utility.yul\":1936:1945   */\n      dup4\n        /* \"#utility.yul\":1932:1949   */\n      add\n        /* \"#utility.yul\":1923:1929   */\n      dup5\n        /* \"#utility.yul\":1879:1950   */\n      tag_133\n      jump\t// in\n    tag_192:\n        /* \"#utility.yul\":1735:1957   */\n      swap3\n      swap2\n      pop\n      pop\n      jump\t// out\n        /* \"#utility.yul\":1963:2039   */\n    tag_134:\n        /* \"#utility.yul\":1999:2006   */\n      0x00\n        /* \"#utility.yul\":2028:2033   */\n      dup2\n        /* \"#utility.yul\":2017:2033   */\n      swap1\n      pop\n        /* \"#utility.yul\":1963:2039   */\n      swap2\n      swap1\n      pop\n      jump\t// out\n        /* \"#utility.yul\":2045:2160   */\n    tag_135:\n        /* \"#utility.yul\":2130:2153   */\n      tag_195\n        /* \"#utility.yul\":2147:2152   */\n      dup2\n        /* \"#utility.yul\":2130:2153   */\n      tag_134\n      jump\t// in\n    tag_195:\n        /* \"#utility.yul\":2125:2128   */\n      dup3\n        /* \"#utility.yul\":2118:2154   */\n      mstore\n        /* \"#utility.yul\":2045:2160   */\n      pop\n      pop\n      jump\t// out\n        /* \"#utility.yul\":2166:2384   */\n    tag_40:\n        /* \"#utility.yul\":2257:2261   */\n      0x00\n        /* \"#utility.yul\":2295:2297   */\n      0x20\n        /* \"#utility.yul\":2284:2293   */\n      dup3\n        /* \"#utility.yul\":2280:2298   */\n      add\n        /* \"#utility.yul\":2272:2298   */\n      swap1\n      pop\n        /* \"#utility.yul\":2308:2377   */\n      tag_197\n        /* \"#utility.yul\":2374:2375   */\n      0x00\n        /* \"#utility.yul\":2363:2372   */\n      dup4\n        /* \"#utility.yul\":2359:2376   */\n      add\n        /* \"#utility.yul\":2350:2356   */\n      dup5\n        /* \"#utility.yul\":2308:2377   */\n      tag_135\n      jump\t// in\n    tag_197:\n        /* \"#utility.yul\":2166:2384   */\n      swap3\n      swap2\n      pop\n      pop\n      jump\t// out\n        /* \"#utility.yul\":2390:2512   */\n    tag_136:\n        /* \"#utility.yul\":2463:2487   */\n      tag_199\n        /* \"#utility.yul\":2481:2486   */\n      dup2\n        /* \"#utility.yul\":2463:2487   */\n      tag_132\n      jump\t// in\n    tag_199:\n        /* \"#utility.yul\":2456:2461   */\n      dup2\n        /* \"#utility.yul\":2453:2488   */\n      eq\n        /* \"#utility.yul\":2443:2506   */\n      tag_200\n      jumpi\n        /* \"#utility.yul\":2502:2503   */\n      0x00\n        /* \"#utility.yul\":2499:2500   */\n      dup1\n        /* \"#utility.yul\":2492:2504   */\n      revert\n        /* \"#utility.yul\":2443:2506   */\n    tag_200:\n        /* \"#utility.yul\":2390:2512   */\n      pop\n      jump\t// out\n        /* \"#utility.yul\":2518:2657   */\n    tag_137:\n        /* \"#utility.yul\":2564:2569   */\n      0x00\n        /* \"#utility.yul\":2602:2608   */\n      dup2\n        /* \"#utility.yul\":2589:2609   */\n      calldataload\n        /* \"#utility.yul\":2580:2609   */\n      swap1\n      pop\n        /* \"#utility.yul\":2618:2651   */\n      tag_202\n        /* \"#utility.yul\":2645:2650   */\n      dup2\n        /* \"#utility.yul\":2618:2651   */\n      tag_136\n      jump\t// in\n    tag_202:\n        /* \"#utility.yul\":2518:2657   */\n      swap3\n      swap2\n      pop\n      pop\n      jump\t// out\n        /* \"#utility.yul\":2663:3137   */\n    tag_44:\n        /* \"#utility.yul\":2731:2737   */\n      0x00\n        /* \"#utility.yul\":2739:2745   */\n      dup1\n        /* \"#utility.yul\":2788:2790   */\n      0x40\n        /* \"#utility.yul\":2776:2785   */\n      dup4\n        /* \"#utility.yul\":2767:2774   */\n      dup6\n        /* \"#utility.yul\":2763:2786   */\n      sub\n        /* \"#utility.yul\":2759:2791   */\n      slt\n        /* \"#utility.yul\":2756:2875   */\n      iszero\n      tag_204\n      jumpi\n        /* \"#utility.yul\":2794:2873   */\n      tag_205\n      tag_125\n      jump\t// in\n    tag_205:\n        /* \"#utility.yul\":2756:2875   */\n    tag_204:\n        /* \"#utility.yul\":2914:2915   */\n      0x00\n        /* \"#utility.yul\":2939:2992   */\n      tag_206\n        /* \"#utility.yul\":2984:2991   */\n      dup6\n        /* \"#utility.yul\":2975:2981   */\n      dup3\n        /* \"#utility.yul\":2964:2973   */\n      dup7\n        /* \"#utility.yul\":2960:2982   */\n      add\n        /* \"#utility.yul\":2939:2992   */\n      tag_130\n      jump\t// in\n    tag_206:\n        /* \"#utility.yul\":2929:2992   */\n      swap3\n      pop\n        /* \"#utility.yul\":2885:3002   */\n      pop\n        /* \"#utility.yul\":3041:3043   */\n      0x20\n        /* \"#utility.yul\":3067:3120   */\n      tag_207\n        /* \"#utility.yul\":3112:3119   */\n      dup6\n        /* \"#utility.yul\":3103:3109   */\n      dup3\n        /* \"#utility.yul\":3092:3101   */\n      dup7\n        /* \"#utility.yul\":3088:3110   */\n      add\n        /* \"#utility.yul\":3067:3120   */\n      tag_137\n      jump\t// in\n    tag_207:\n        /* \"#utility.yul\":3057:3120   */\n      swap2\n      pop\n        /* \"#utility.yul\":3012:3130   */\n      pop\n        /* \"#utility.yul\":2663:3137   */\n      swap3\n      pop\n      swap3\n      swap1\n      pop\n      jump\t// out\n        /* \"#utility.yul\":3143:3312   */\n    tag_138:\n        /* \"#utility.yul\":3227:3238   */\n      0x00\n        /* \"#utility.yul\":3261:3267   */\n      dup3\n        /* \"#utility.yul\":3256:3259   */\n      dup3\n        /* \"#utility.yul\":3249:3268   */\n      mstore\n        /* \"#utility.yul\":3301:3305   */\n      0x20\n        /* \"#utility.yul\":3296:3299   */\n      dup3\n        /* \"#utility.yul\":3292:3306   */\n      add\n        /* \"#utility.yul\":3277:3306   */\n      swap1\n      pop\n        /* \"#utility.yul\":3143:3312   */\n      swap3\n      swap2\n      pop\n      pop\n      jump\t// out\n        /* \"#utility.yul\":3318:3546   */\n    tag_139:\n        /* \"#utility.yul\":3458:3492   */\n      0x746869732066756e6374696f6e2063616e206f6e6c792062652063616c6c6564\n        /* \"#utility.yul\":3454:3455   */\n      0x00\n        /* \"#utility.yul\":3446:3452   */\n      dup3\n        /* \"#utility.yul\":3442:3456   */\n      add\n        /* \"#utility.yul\":3435:3493   */\n      mstore\n        /* \"#utility.yul\":3527:3538   */\n      0x206279206f776e65720000000000000000000000000000000000000000000000\n        /* \"#utility.yul\":3522:3524   */\n      0x20\n        /* \"#utility.yul\":3514:3520   */\n      dup3\n        /* \"#utility.yul\":3510:3525   */\n      add\n        /* \"#utility.yul\":3503:3539   */\n      mstore\n        /* \"#utility.yul\":3318:3546   */\n      pop\n      jump\t// out\n        /* \"#utility.yul\":3552:3918   */\n    tag_140:\n        /* \"#utility.yul\":3694:3697   */\n      0x00\n        /* \"#utility.yul\":3715:3782   */\n      tag_211\n        /* \"#utility.yul\":3779:3781   */\n      0x29\n        /* \"#utility.yul\":3774:3777   */\n      dup4\n        /* \"#utility.yul\":3715:3782   */\n      tag_138\n      jump\t// in\n    tag_211:\n        /* \"#utility.yul\":3708:3782   */\n      swap2\n      pop\n        /* \"#utility.yul\":3791:3884   */\n      tag_212\n        /* \"#utility.yul\":3880:3883   */\n      dup3\n        /* \"#utility.yul\":3791:3884   */\n      tag_139\n      jump\t// in\n    tag_212:\n        /* \"#utility.yul\":3909:3911   */\n      0x40\n        /* \"#utility.yul\":3904:3907   */\n      dup3\n        /* \"#utility.yul\":3900:3912   */\n      add\n        /* \"#utility.yul\":3893:3912   */\n      swap1\n      pop\n        /* \"#utility.yul\":3552:3918   */\n      swap2\n      swap1\n      pop\n      jump\t// out\n        /* \"#utility.yul\":3924:4343   */\n    tag_53:\n        /* \"#utility.yul\":4090:4094   */\n      0x00\n        /* \"#utility.yul\":4128:4130   */\n      0x20\n        /* \"#utility.yul\":4117:4126   */\n      dup3\n        /* \"#utility.yul\":4113:4131   */\n      add\n        /* \"#utility.yul\":4105:4131   */\n      swap1\n      pop\n        /* \"#utility.yul\":4177:4186   */\n      dup2\n        /* \"#utility.yul\":4171:4175   */\n      dup2\n        /* \"#utility.yul\":4167:4187   */\n      sub\n        /* \"#utility.yul\":4163:4164   */\n      0x00\n        /* \"#utility.yul\":4152:4161   */\n      dup4\n        /* \"#utility.yul\":4148:4165   */\n      add\n        /* \"#utility.yul\":4141:4188   */\n      mstore\n        /* \"#utility.yul\":4205:4336   */\n      tag_214\n        /* \"#utility.yul\":4331:4335   */\n      dup2\n        /* \"#utility.yul\":4205:4336   */\n      tag_140\n      jump\t// in\n    tag_214:\n        /* \"#utility.yul\":4197:4336   */\n      swap1\n      pop\n        /* \"#utility.yul\":3924:4343   */\n      swap2\n      swap1\n      pop\n      jump\t// out\n        /* \"#utility.yul\":4349:4529   */\n    tag_141:\n        /* \"#utility.yul\":4397:4474   */\n      0x4e487b7100000000000000000000000000000000000000000000000000000000\n        /* \"#utility.yul\":4394:4395   */\n      0x00\n        /* \"#utility.yul\":4387:4475   */\n      mstore\n        /* \"#utility.yul\":4494:4498   */\n      0x11\n        /* \"#utility.yul\":4491:4492   */\n      0x04\n        /* \"#utility.yul\":4484:4499   */\n      mstore\n        /* \"#utility.yul\":4518:4522   */\n      0x24\n        /* \"#utility.yul\":4515:4516   */\n      0x00\n        /* \"#utility.yul\":4508:4523   */\n      revert\n        /* \"#utility.yul\":4535:4726   */\n    tag_57:\n        /* \"#utility.yul\":4575:4578   */\n      0x00\n        /* \"#utility.yul\":4594:4614   */\n      tag_217\n        /* \"#utility.yul\":4612:4613   */\n      dup3\n        /* \"#utility.yul\":4594:4614   */\n      tag_132\n      jump\t// in\n    tag_217:\n        /* \"#utility.yul\":4589:4614   */\n      swap2\n      pop\n        /* \"#utility.yul\":4628:4648   */\n      tag_218\n        /* \"#utility.yul\":4646:4647   */\n      dup4\n        /* \"#utility.yul\":4628:4648   */\n      tag_132\n      jump\t// in\n    tag_218:\n        /* \"#utility.yul\":4623:4648   */\n      swap3\n      pop\n        /* \"#utility.yul\":4671:4672   */\n      dup3\n        /* \"#utility.yul\":4668:4669   */\n      dup3\n        /* \"#utility.yul\":4664:4673   */\n      add\n        /* \"#utility.yul\":4657:4673   */\n      swap1\n      pop\n        /* \"#utility.yul\":4692:4695   */\n      dup1\n        /* \"#utility.yul\":4689:4690   */\n      dup3\n        /* \"#utility.yul\":4686:4696   */\n      gt\n        /* \"#utility.yul\":4683:4719   */\n      iszero\n      tag_219\n      jumpi\n        /* \"#utility.yul\":4699:4717   */\n      tag_220\n      tag_141\n      jump\t// in\n    tag_220:\n        /* \"#utility.yul\":4683:4719   */\n    tag_219:\n        /* \"#utility.yul\":4535:4726   */\n      swap3\n      swap2\n      pop\n      pop\n      jump\t// out\n        /* \"#utility.yul\":4732:4901   */\n    tag_142:\n        /* \"#utility.yul\":4872:4893   */\n      0x77696e646f77206973206e6f7420636c6f736500000000000000000000000000\n        /* \"#utility.yul\":4868:4869   */\n      0x00\n        /* \"#utility.yul\":4860:4866   */\n      dup3\n        /* \"#utility.yul\":4856:4870   */\n      add\n        /* \"#utility.yul\":4849:4894   */\n      mstore\n        /* \"#utility.yul\":4732:4901   */\n      pop\n      jump\t// out\n        /* \"#utility.yul\":4907:5273   */\n    tag_143:\n        /* \"#utility.yul\":5049:5052   */\n      0x00\n        /* \"#utility.yul\":5070:5137   */\n      tag_223\n        /* \"#utility.yul\":5134:5136   */\n      0x13\n        /* \"#utility.yul\":5129:5132   */\n      dup4\n        /* \"#utility.yul\":5070:5137   */\n      tag_138\n      jump\t// in\n    tag_223:\n        /* \"#utility.yul\":5063:5137   */\n      swap2\n      pop\n        /* \"#utility.yul\":5146:5239   */\n      tag_224\n        /* \"#utility.yul\":5235:5238   */\n      dup3\n        /* \"#utility.yul\":5146:5239   */\n      tag_142\n      jump\t// in\n    tag_224:\n        /* \"#utility.yul\":5264:5266   */\n      0x20\n        /* \"#utility.yul\":5259:5262   */\n      dup3\n        /* \"#utility.yul\":5255:5267   */\n      add\n        /* \"#utility.yul\":5248:5267   */\n      swap1\n      pop\n        /* \"#utility.yul\":4907:5273   */\n      swap2\n      swap1\n      pop\n      jump\t// out\n        /* \"#utility.yul\":5279:5698   */\n    tag_60:\n        /* \"#utility.yul\":5445:5449   */\n      0x00\n        /* \"#utility.yul\":5483:5485   */\n      0x20\n        /* \"#utility.yul\":5472:5481   */\n      dup3\n        /* \"#utility.yul\":5468:5486   */\n      add\n        /* \"#utility.yul\":5460:5486   */\n      swap1\n      pop\n        /* \"#utility.yul\":5532:5541   */\n      dup2\n        /* \"#utility.yul\":5526:5530   */\n      dup2\n        /* \"#utility.yul\":5522:5542   */\n      sub\n        /* \"#utility.yul\":5518:5519   */\n      0x00\n        /* \"#utility.yul\":5507:5516   */\n      dup4\n        /* \"#utility.yul\":5503:5520   */\n      add\n        /* \"#utility.yul\":5496:5543   */\n      mstore\n        /* \"#utility.yul\":5560:5691   */\n      tag_226\n        /* \"#utility.yul\":5686:5690   */\n      dup2\n        /* \"#utility.yul\":5560:5691   */\n      tag_143\n      jump\t// in\n    tag_226:\n        /* \"#utility.yul\":5552:5691   */\n      swap1\n      pop\n        /* \"#utility.yul\":5279:5698   */\n      swap2\n      swap1\n      pop\n      jump\t// out\n        /* \"#utility.yul\":5704:5871   */\n    tag_144:\n        /* \"#utility.yul\":5844:5863   */\n      0x5461726765742069732072656163686564000000000000000000000000000000\n        /* \"#utility.yul\":5840:5841   */\n      0x00\n        /* \"#utility.yul\":5832:5838   */\n      dup3\n        /* \"#utility.yul\":5828:5842   */\n      add\n        /* \"#utility.yul\":5821:5864   */\n      mstore\n        /* \"#utility.yul\":5704:5871   */\n      pop\n      jump\t// out\n        /* \"#utility.yul\":5877:6243   */\n    tag_145:\n        /* \"#utility.yul\":6019:6022   */\n      0x00\n        /* \"#utility.yul\":6040:6107   */\n      tag_229\n        /* \"#utility.yul\":6104:6106   */\n      0x11\n        /* \"#utility.yul\":6099:6102   */\n      dup4\n        /* \"#utility.yul\":6040:6107   */\n      tag_138\n      jump\t// in\n    tag_229:\n        /* \"#utility.yul\":6033:6107   */\n      swap2\n      pop\n        /* \"#utility.yul\":6116:6209   */\n      tag_230\n        /* \"#utility.yul\":6205:6208   */\n      dup3\n        /* \"#utility.yul\":6116:6209   */\n      tag_144\n      jump\t// in\n    tag_230:\n        /* \"#utility.yul\":6234:6236   */\n      0x20\n        /* \"#utility.yul\":6229:6232   */\n      dup3\n        /* \"#utility.yul\":6225:6237   */\n      add\n        /* \"#utility.yul\":6218:6237   */\n      swap1\n      pop\n        /* \"#utility.yul\":5877:6243   */\n      swap2\n      swap1\n      pop\n      jump\t// out\n        /* \"#utility.yul\":6249:6668   */\n    tag_66:\n        /* \"#utility.yul\":6415:6419   */\n      0x00\n        /* \"#utility.yul\":6453:6455   */\n      0x20\n        /* \"#utility.yul\":6442:6451   */\n      dup3\n        /* \"#utility.yul\":6438:6456   */\n      add\n        /* \"#utility.yul\":6430:6456   */\n      swap1\n      pop\n        /* \"#utility.yul\":6502:6511   */\n      dup2\n        /* \"#utility.yul\":6496:6500   */\n      dup2\n        /* \"#utility.yul\":6492:6512   */\n      sub\n        /* \"#utility.yul\":6488:6489   */\n      0x00\n        /* \"#utility.yul\":6477:6486   */\n      dup4\n        /* \"#utility.yul\":6473:6490   */\n      add\n        /* \"#utility.yul\":6466:6513   */\n      mstore\n        /* \"#utility.yul\":6530:6661   */\n      tag_232\n        /* \"#utility.yul\":6656:6660   */\n      dup2\n        /* \"#utility.yul\":6530:6661   */\n      tag_145\n      jump\t// in\n    tag_232:\n        /* \"#utility.yul\":6522:6661   */\n      swap1\n      pop\n        /* \"#utility.yul\":6249:6668   */\n      swap2\n      swap1\n      pop\n      jump\t// out\n        /* \"#utility.yul\":6674:6848   */\n    tag_146:\n        /* \"#utility.yul\":6814:6840   */\n      0x7468657265206973206e6f2066756e6420666f7220796f750000000000000000\n        /* \"#utility.yul\":6810:6811   */\n      0x00\n        /* \"#utility.yul\":6802:6808   */\n      dup3\n        /* \"#utility.yul\":6798:6812   */\n      add\n        /* \"#utility.yul\":6791:6841   */\n      mstore\n        /* \"#utility.yul\":6674:6848   */\n      pop\n      jump\t// out\n        /* \"#utility.yul\":6854:7220   */\n    tag_147:\n        /* \"#utility.yul\":6996:6999   */\n      0x00\n        /* \"#utility.yul\":7017:7084   */\n      tag_235\n        /* \"#utility.yul\":7081:7083   */\n      0x18\n        /* \"#utility.yul\":7076:7079   */\n      dup4\n        /* \"#utility.yul\":7017:7084   */\n      tag_138\n      jump\t// in\n    tag_235:\n        /* \"#utility.yul\":7010:7084   */\n      swap2\n      pop\n        /* \"#utility.yul\":7093:7186   */\n      tag_236\n        /* \"#utility.yul\":7182:7185   */\n      dup3\n        /* \"#utility.yul\":7093:7186   */\n      tag_146\n      jump\t// in\n    tag_236:\n        /* \"#utility.yul\":7211:7213   */\n      0x20\n        /* \"#utility.yul\":7206:7209   */\n      dup3\n        /* \"#utility.yul\":7202:7214   */\n      add\n        /* \"#utility.yul\":7195:7214   */\n      swap1\n      pop\n        /* \"#utility.yul\":6854:7220   */\n      swap2\n      swap1\n      pop\n      jump\t// out\n        /* \"#utility.yul\":7226:7645   */\n    tag_69:\n        /* \"#utility.yul\":7392:7396   */\n      0x00\n        /* \"#utility.yul\":7430:7432   */\n      0x20\n        /* \"#utility.yul\":7419:7428   */\n      dup3\n        /* \"#utility.yul\":7415:7433   */\n      add\n        /* \"#utility.yul\":7407:7433   */\n      swap1\n      pop\n        /* \"#utility.yul\":7479:7488   */\n      dup2\n        /* \"#utility.yul\":7473:7477   */\n      dup2\n        /* \"#utility.yul\":7469:7489   */\n      sub\n        /* \"#utility.yul\":7465:7466   */\n      0x00\n        /* \"#utility.yul\":7454:7463   */\n      dup4\n        /* \"#utility.yul\":7450:7467   */\n      add\n        /* \"#utility.yul\":7443:7490   */\n      mstore\n        /* \"#utility.yul\":7507:7638   */\n      tag_238\n        /* \"#utility.yul\":7633:7637   */\n      dup2\n        /* \"#utility.yul\":7507:7638   */\n      tag_147\n      jump\t// in\n    tag_238:\n        /* \"#utility.yul\":7499:7638   */\n      swap1\n      pop\n        /* \"#utility.yul\":7226:7645   */\n      swap2\n      swap1\n      pop\n      jump\t// out\n        /* \"#utility.yul\":7651:7798   */\n    tag_148:\n        /* \"#utility.yul\":7752:7763   */\n      0x00\n        /* \"#utility.yul\":7789:7792   */\n      dup2\n        /* \"#utility.yul\":7774:7792   */\n      swap1\n      pop\n        /* \"#utility.yul\":7651:7798   */\n      swap3\n      swap2\n      pop\n      pop\n      jump\t// out\n        /* \"#utility.yul\":7804:7918   */\n    tag_149:\n      pop\n      jump\t// out\n        /* \"#utility.yul\":7924:8322   */\n    tag_150:\n        /* \"#utility.yul\":8083:8086   */\n      0x00\n        /* \"#utility.yul\":8104:8187   */\n      tag_242\n        /* \"#utility.yul\":8185:8186   */\n      0x00\n        /* \"#utility.yul\":8180:8183   */\n      dup4\n        /* \"#utility.yul\":8104:8187   */\n      tag_148\n      jump\t// in\n    tag_242:\n        /* \"#utility.yul\":8097:8187   */\n      swap2\n      pop\n        /* \"#utility.yul\":8196:8289   */\n      tag_243\n        /* \"#utility.yul\":8285:8288   */\n      dup3\n        /* \"#utility.yul\":8196:8289   */\n      tag_149\n      jump\t// in\n    tag_243:\n        /* \"#utility.yul\":8314:8315   */\n      0x00\n        /* \"#utility.yul\":8309:8312   */\n      dup3\n        /* \"#utility.yul\":8305:8316   */\n      add\n        /* \"#utility.yul\":8298:8316   */\n      swap1\n      pop\n        /* \"#utility.yul\":7924:8322   */\n      swap2\n      swap1\n      pop\n      jump\t// out\n        /* \"#utility.yul\":8328:8707   */\n    tag_71:\n        /* \"#utility.yul\":8512:8515   */\n      0x00\n        /* \"#utility.yul\":8534:8681   */\n      tag_245\n        /* \"#utility.yul\":8677:8680   */\n      dup3\n        /* \"#utility.yul\":8534:8681   */\n      tag_150\n      jump\t// in\n    tag_245:\n        /* \"#utility.yul\":8527:8681   */\n      swap2\n      pop\n        /* \"#utility.yul\":8698:8701   */\n      dup2\n        /* \"#utility.yul\":8691:8701   */\n      swap1\n      pop\n        /* \"#utility.yul\":8328:8707   */\n      swap2\n      swap1\n      pop\n      jump\t// out\n        /* \"#utility.yul\":8713:8881   */\n    tag_151:\n        /* \"#utility.yul\":8853:8873   */\n      0x7472616e73666572207478206661696c65640000000000000000000000000000\n        /* \"#utility.yul\":8849:8850   */\n      0x00\n        /* \"#utility.yul\":8841:8847   */\n      dup3\n        /* \"#utility.yul\":8837:8851   */\n      add\n        /* \"#utility.yul\":8830:8874   */\n      mstore\n        /* \"#utility.yul\":8713:8881   */\n      pop\n      jump\t// out\n        /* \"#utility.yul\":8887:9253   */\n    tag_152:\n        /* \"#utility.yul\":9029:9032   */\n      0x00\n        /* \"#utility.yul\":9050:9117   */\n      tag_248\n        /* \"#utility.yul\":9114:9116   */\n      0x12\n        /* \"#utility.yul\":9109:9112   */\n      dup4\n        /* \"#utility.yul\":9050:9117   */\n      tag_138\n      jump\t// in\n    tag_248:\n        /* \"#utility.yul\":9043:9117   */\n      swap2\n      pop\n        /* \"#utility.yul\":9126:9219   */\n      tag_249\n        /* \"#utility.yul\":9215:9218   */\n      dup3\n        /* \"#utility.yul\":9126:9219   */\n      tag_151\n      jump\t// in\n    tag_249:\n        /* \"#utility.yul\":9244:9246   */\n      0x20\n        /* \"#utility.yul\":9239:9242   */\n      dup3\n        /* \"#utility.yul\":9235:9247   */\n      add\n        /* \"#utility.yul\":9228:9247   */\n      swap1\n      pop\n        /* \"#utility.yul\":8887:9253   */\n      swap2\n      swap1\n      pop\n      jump\t// out\n        /* \"#utility.yul\":9259:9678   */\n    tag_77:\n        /* \"#utility.yul\":9425:9429   */\n      0x00\n        /* \"#utility.yul\":9463:9465   */\n      0x20\n        /* \"#utility.yul\":9452:9461   */\n      dup3\n        /* \"#utility.yul\":9448:9466   */\n      add\n        /* \"#utility.yul\":9440:9466   */\n      swap1\n      pop\n        /* \"#utility.yul\":9512:9521   */\n      dup2\n        /* \"#utility.yul\":9506:9510   */\n      dup2\n        /* \"#utility.yul\":9502:9522   */\n      sub\n        /* \"#utility.yul\":9498:9499   */\n      0x00\n        /* \"#utility.yul\":9487:9496   */\n      dup4\n        /* \"#utility.yul\":9483:9500   */\n      add\n        /* \"#utility.yul\":9476:9523   */\n      mstore\n        /* \"#utility.yul\":9540:9671   */\n      tag_251\n        /* \"#utility.yul\":9666:9670   */\n      dup2\n        /* \"#utility.yul\":9540:9671   */\n      tag_152\n      jump\t// in\n    tag_251:\n        /* \"#utility.yul\":9532:9671   */\n      swap1\n      pop\n        /* \"#utility.yul\":9259:9678   */\n      swap2\n      swap1\n      pop\n      jump\t// out\n        /* \"#utility.yul\":9684:9855   */\n    tag_153:\n        /* \"#utility.yul\":9824:9847   */\n      0x546172676574206973206e6f7420726561636865640000000000000000000000\n        /* \"#utility.yul\":9820:9821   */\n      0x00\n        /* \"#utility.yul\":9812:9818   */\n      dup3\n        /* \"#utility.yul\":9808:9822   */\n      add\n        /* \"#utility.yul\":9801:9848   */\n      mstore\n        /* \"#utility.yul\":9684:9855   */\n      pop\n      jump\t// out\n        /* \"#utility.yul\":9861:10227   */\n    tag_154:\n        /* \"#utility.yul\":10003:10006   */\n      0x00\n        /* \"#utility.yul\":10024:10091   */\n      tag_254\n        /* \"#utility.yul\":10088:10090   */\n      0x15\n        /* \"#utility.yul\":10083:10086   */\n      dup4\n        /* \"#utility.yul\":10024:10091   */\n      tag_138\n      jump\t// in\n    tag_254:\n        /* \"#utility.yul\":10017:10091   */\n      swap2\n      pop\n        /* \"#utility.yul\":10100:10193   */\n      tag_255\n        /* \"#utility.yul\":10189:10192   */\n      dup3\n        /* \"#utility.yul\":10100:10193   */\n      tag_153\n      jump\t// in\n    tag_255:\n        /* \"#utility.yul\":10218:10220   */\n      0x20\n        /* \"#utility.yul\":10213:10216   */\n      dup3\n        /* \"#utility.yul\":10209:10221   */\n      add\n        /* \"#utility.yul\":10202:10221   */\n      swap1\n      pop\n        /* \"#utility.yul\":9861:10227   */\n      swap2\n      swap1\n      pop\n      jump\t// out\n        /* \"#utility.yul\":10233:10652   */\n    tag_89:\n        /* \"#utility.yul\":10399:10403   */\n      0x00\n        /* \"#utility.yul\":10437:10439   */\n      0x20\n        /* \"#utility.yul\":10426:10435   */\n      dup3\n        /* \"#utility.yul\":10422:10440   */\n      add\n        /* \"#utility.yul\":10414:10440   */\n      swap1\n      pop\n        /* \"#utility.yul\":10486:10495   */\n      dup2\n        /* \"#utility.yul\":10480:10484   */\n      dup2\n        /* \"#utility.yul\":10476:10496   */\n      sub\n        /* \"#utility.yul\":10472:10473   */\n      0x00\n        /* \"#utility.yul\":10461:10470   */\n      dup4\n        /* \"#utility.yul\":10457:10474   */\n      add\n        /* \"#utility.yul\":10450:10497   */\n      mstore\n        /* \"#utility.yul\":10514:10645   */\n      tag_257\n        /* \"#utility.yul\":10640:10644   */\n      dup2\n        /* \"#utility.yul\":10514:10645   */\n      tag_154\n      jump\t// in\n    tag_257:\n        /* \"#utility.yul\":10506:10645   */\n      swap1\n      pop\n        /* \"#utility.yul\":10233:10652   */\n      swap2\n      swap1\n      pop\n      jump\t// out\n        /* \"#utility.yul\":10658:10821   */\n    tag_155:\n        /* \"#utility.yul\":10798:10813   */\n      0x53656e64206d6f72652045544800000000000000000000000000000000000000\n        /* \"#utility.yul\":10794:10795   */\n      0x00\n        /* \"#utility.yul\":10786:10792   */\n      dup3\n        /* \"#utility.yul\":10782:10796   */\n      add\n        /* \"#utility.yul\":10775:10814   */\n      mstore\n        /* \"#utility.yul\":10658:10821   */\n      pop\n      jump\t// out\n        /* \"#utility.yul\":10827:11193   */\n    tag_156:\n        /* \"#utility.yul\":10969:10972   */\n      0x00\n        /* \"#utility.yul\":10990:11057   */\n      tag_260\n        /* \"#utility.yul\":11054:11056   */\n      0x0d\n        /* \"#utility.yul\":11049:11052   */\n      dup4\n        /* \"#utility.yul\":10990:11057   */\n      tag_138\n      jump\t// in\n    tag_260:\n        /* \"#utility.yul\":10983:11057   */\n      swap2\n      pop\n        /* \"#utility.yul\":11066:11159   */\n      tag_261\n        /* \"#utility.yul\":11155:11158   */\n      dup3\n        /* \"#utility.yul\":11066:11159   */\n      tag_155\n      jump\t// in\n    tag_261:\n        /* \"#utility.yul\":11184:11186   */\n      0x20\n        /* \"#utility.yul\":11179:11182   */\n      dup3\n        /* \"#utility.yul\":11175:11187   */\n      add\n        /* \"#utility.yul\":11168:11187   */\n      swap1\n      pop\n        /* \"#utility.yul\":10827:11193   */\n      swap2\n      swap1\n      pop\n      jump\t// out\n        /* \"#utility.yul\":11199:11618   */\n    tag_100:\n        /* \"#utility.yul\":11365:11369   */\n      0x00\n        /* \"#utility.yul\":11403:11405   */\n      0x20\n        /* \"#utility.yul\":11392:11401   */\n      dup3\n        /* \"#utility.yul\":11388:11406   */\n      add\n        /* \"#utility.yul\":11380:11406   */\n      swap1\n      pop\n        /* \"#utility.yul\":11452:11461   */\n      dup2\n        /* \"#utility.yul\":11446:11450   */\n      dup2\n        /* \"#utility.yul\":11442:11462   */\n      sub\n        /* \"#utility.yul\":11438:11439   */\n      0x00\n        /* \"#utility.yul\":11427:11436   */\n      dup4\n        /* \"#utility.yul\":11423:11440   */\n      add\n        /* \"#utility.yul\":11416:11463   */\n      mstore\n        /* \"#utility.yul\":11480:11611   */\n      tag_263\n        /* \"#utility.yul\":11606:11610   */\n      dup2\n        /* \"#utility.yul\":11480:11611   */\n      tag_156\n      jump\t// in\n    tag_263:\n        /* \"#utility.yul\":11472:11611   */\n      swap1\n      pop\n        /* \"#utility.yul\":11199:11618   */\n      swap2\n      swap1\n      pop\n      jump\t// out\n        /* \"#utility.yul\":11624:11789   */\n    tag_157:\n        /* \"#utility.yul\":11764:11781   */\n      0x77696e646f7720697320636c6f73650000000000000000000000000000000000\n        /* \"#utility.yul\":11760:11761   */\n      0x00\n        /* \"#utility.yul\":11752:11758   */\n      dup3\n        /* \"#utility.yul\":11748:11762   */\n      add\n        /* \"#utility.yul\":11741:11782   */\n      mstore\n        /* \"#utility.yul\":11624:11789   */\n      pop\n      jump\t// out\n        /* \"#utility.yul\":11795:12161   */\n    tag_158:\n        /* \"#utility.yul\":11937:11940   */\n      0x00\n        /* \"#utility.yul\":11958:12025   */\n      tag_266\n        /* \"#utility.yul\":12022:12024   */\n      0x0f\n        /* \"#utility.yul\":12017:12020   */\n      dup4\n        /* \"#utility.yul\":11958:12025   */\n      tag_138\n      jump\t// in\n    tag_266:\n        /* \"#utility.yul\":11951:12025   */\n      swap2\n      pop\n        /* \"#utility.yul\":12034:12127   */\n      tag_267\n        /* \"#utility.yul\":12123:12126   */\n      dup3\n        /* \"#utility.yul\":12034:12127   */\n      tag_157\n      jump\t// in\n    tag_267:\n        /* \"#utility.yul\":12152:12154   */\n      0x20\n        /* \"#utility.yul\":12147:12150   */\n      dup3\n        /* \"#utility.yul\":12143:12155   */\n      add\n        /* \"#utility.yul\":12136:12155   */\n      swap1\n      pop\n        /* \"#utility.yul\":11795:12161   */\n      swap2\n      swap1\n      pop\n      jump\t// out\n        /* \"#utility.yul\":12167:12586   */\n    tag_104:\n        /* \"#utility.yul\":12333:12337   */\n      0x00\n        /* \"#utility.yul\":12371:12373   */\n      0x20\n        /* \"#utility.yul\":12360:12369   */\n      dup3\n        /* \"#utility.yul\":12356:12374   */\n      add\n        /* \"#utility.yul\":12348:12374   */\n      swap1\n      pop\n        /* \"#utility.yul\":12420:12429   */\n      dup2\n        /* \"#utility.yul\":12414:12418   */\n      dup2\n        /* \"#utility.yul\":12410:12430   */\n      sub\n        /* \"#utility.yul\":12406:12407   */\n      0x00\n        /* \"#utility.yul\":12395:12404   */\n      dup4\n        /* \"#utility.yul\":12391:12408   */\n      add\n        /* \"#utility.yul\":12384:12431   */\n      mstore\n        /* \"#utility.yul\":12448:12579   */\n      tag_269\n        /* \"#utility.yul\":12574:12578   */\n      dup2\n        /* \"#utility.yul\":12448:12579   */\n      tag_158\n      jump\t// in\n    tag_269:\n        /* \"#utility.yul\":12440:12579   */\n      swap1\n      pop\n        /* \"#utility.yul\":12167:12586   */\n      swap2\n      swap1\n      pop\n      jump\t// out\n        /* \"#utility.yul\":12592:12697   */\n    tag_159:\n        /* \"#utility.yul\":12628:12635   */\n      0x00\n        /* \"#utility.yul\":12668:12690   */\n      0xffffffffffffffffffff\n        /* \"#utility.yul\":12661:12666   */\n      dup3\n        /* \"#utility.yul\":12657:12691   */\n      and\n        /* \"#utility.yul\":12646:12691   */\n      swap1\n      pop\n        /* \"#utility.yul\":12592:12697   */\n      swap2\n      swap1\n      pop\n      jump\t// out\n        /* \"#utility.yul\":12703:12823   */\n    tag_160:\n        /* \"#utility.yul\":12775:12798   */\n      tag_272\n        /* \"#utility.yul\":12792:12797   */\n      dup2\n        /* \"#utility.yul\":12775:12798   */\n      tag_159\n      jump\t// in\n    tag_272:\n        /* \"#utility.yul\":12768:12773   */\n      dup2\n        /* \"#utility.yul\":12765:12799   */\n      eq\n        /* \"#utility.yul\":12755:12817   */\n      tag_273\n      jumpi\n        /* \"#utility.yul\":12813:12814   */\n      0x00\n        /* \"#utility.yul\":12810:12811   */\n      dup1\n        /* \"#utility.yul\":12803:12815   */\n      revert\n        /* \"#utility.yul\":12755:12817   */\n    tag_273:\n        /* \"#utility.yul\":12703:12823   */\n      pop\n      jump\t// out\n        /* \"#utility.yul\":12829:12970   */\n    tag_161:\n        /* \"#utility.yul\":12885:12890   */\n      0x00\n        /* \"#utility.yul\":12916:12922   */\n      dup2\n        /* \"#utility.yul\":12910:12923   */\n      mload\n        /* \"#utility.yul\":12901:12923   */\n      swap1\n      pop\n        /* \"#utility.yul\":12932:12964   */\n      tag_275\n        /* \"#utility.yul\":12958:12963   */\n      dup2\n        /* \"#utility.yul\":12932:12964   */\n      tag_160\n      jump\t// in\n    tag_275:\n        /* \"#utility.yul\":12829:12970   */\n      swap3\n      swap2\n      pop\n      pop\n      jump\t// out\n        /* \"#utility.yul\":12976:13096   */\n    tag_162:\n        /* \"#utility.yul\":13048:13071   */\n      tag_277\n        /* \"#utility.yul\":13065:13070   */\n      dup2\n        /* \"#utility.yul\":13048:13071   */\n      tag_134\n      jump\t// in\n    tag_277:\n        /* \"#utility.yul\":13041:13046   */\n      dup2\n        /* \"#utility.yul\":13038:13072   */\n      eq\n        /* \"#utility.yul\":13028:13090   */\n      tag_278\n      jumpi\n        /* \"#utility.yul\":13086:13087   */\n      0x00\n        /* \"#utility.yul\":13083:13084   */\n      dup1\n        /* \"#utility.yul\":13076:13088   */\n      revert\n        /* \"#utility.yul\":13028:13090   */\n    tag_278:\n        /* \"#utility.yul\":12976:13096   */\n      pop\n      jump\t// out\n        /* \"#utility.yul\":13102:13243   */\n    tag_163:\n        /* \"#utility.yul\":13158:13163   */\n      0x00\n        /* \"#utility.yul\":13189:13195   */\n      dup2\n        /* \"#utility.yul\":13183:13196   */\n      mload\n        /* \"#utility.yul\":13174:13196   */\n      swap1\n      pop\n        /* \"#utility.yul\":13205:13237   */\n      tag_280\n        /* \"#utility.yul\":13231:13236   */\n      dup2\n        /* \"#utility.yul\":13205:13237   */\n      tag_162\n      jump\t// in\n    tag_280:\n        /* \"#utility.yul\":13102:13243   */\n      swap3\n      swap2\n      pop\n      pop\n      jump\t// out\n        /* \"#utility.yul\":13249:13392   */\n    tag_164:\n        /* \"#utility.yul\":13306:13311   */\n      0x00\n        /* \"#utility.yul\":13337:13343   */\n      dup2\n        /* \"#utility.yul\":13331:13344   */\n      mload\n        /* \"#utility.yul\":13322:13344   */\n      swap1\n      pop\n        /* \"#utility.yul\":13353:13386   */\n      tag_282\n        /* \"#utility.yul\":13380:13385   */\n      dup2\n        /* \"#utility.yul\":13353:13386   */\n      tag_136\n      jump\t// in\n    tag_282:\n        /* \"#utility.yul\":13249:13392   */\n      swap3\n      swap2\n      pop\n      pop\n      jump\t// out\n        /* \"#utility.yul\":13398:14369   */\n    tag_109:\n        /* \"#utility.yul\":13501:13507   */\n      0x00\n        /* \"#utility.yul\":13509:13515   */\n      dup1\n        /* \"#utility.yul\":13517:13523   */\n      0x00\n        /* \"#utility.yul\":13525:13531   */\n      dup1\n        /* \"#utility.yul\":13533:13539   */\n      0x00\n        /* \"#utility.yul\":13582:13585   */\n      0xa0\n        /* \"#utility.yul\":13570:13579   */\n      dup7\n        /* \"#utility.yul\":13561:13568   */\n      dup9\n        /* \"#utility.yul\":13557:13580   */\n      sub\n        /* \"#utility.yul\":13553:13586   */\n      slt\n        /* \"#utility.yul\":13550:13670   */\n      iszero\n      tag_284\n      jumpi\n        /* \"#utility.yul\":13589:13668   */\n      tag_285\n      tag_125\n      jump\t// in\n    tag_285:\n        /* \"#utility.yul\":13550:13670   */\n    tag_284:\n        /* \"#utility.yul\":13709:13710   */\n      0x00\n        /* \"#utility.yul\":13734:13797   */\n      tag_286\n        /* \"#utility.yul\":13789:13796   */\n      dup9\n        /* \"#utility.yul\":13780:13786   */\n      dup3\n        /* \"#utility.yul\":13769:13778   */\n      dup10\n        /* \"#utility.yul\":13765:13787   */\n      add\n        /* \"#utility.yul\":13734:13797   */\n      tag_161\n      jump\t// in\n    tag_286:\n        /* \"#utility.yul\":13724:13797   */\n      swap6\n      pop\n        /* \"#utility.yul\":13680:13807   */\n      pop\n        /* \"#utility.yul\":13846:13848   */\n      0x20\n        /* \"#utility.yul\":13872:13935   */\n      tag_287\n        /* \"#utility.yul\":13927:13934   */\n      dup9\n        /* \"#utility.yul\":13918:13924   */\n      dup3\n        /* \"#utility.yul\":13907:13916   */\n      dup10\n        /* \"#utility.yul\":13903:13925   */\n      add\n        /* \"#utility.yul\":13872:13935   */\n      tag_163\n      jump\t// in\n    tag_287:\n        /* \"#utility.yul\":13862:13935   */\n      swap5\n      pop\n        /* \"#utility.yul\":13817:13945   */\n      pop\n        /* \"#utility.yul\":13984:13986   */\n      0x40\n        /* \"#utility.yul\":14010:14074   */\n      tag_288\n        /* \"#utility.yul\":14066:14073   */\n      dup9\n        /* \"#utility.yul\":14057:14063   */\n      dup3\n        /* \"#utility.yul\":14046:14055   */\n      dup10\n        /* \"#utility.yul\":14042:14064   */\n      add\n        /* \"#utility.yul\":14010:14074   */\n      tag_164\n      jump\t// in\n    tag_288:\n        /* \"#utility.yul\":14000:14074   */\n      swap4\n      pop\n        /* \"#utility.yul\":13955:14084   */\n      pop\n        /* \"#utility.yul\":14123:14125   */\n      0x60\n        /* \"#utility.yul\":14149:14213   */\n      tag_289\n        /* \"#utility.yul\":14205:14212   */\n      dup9\n        /* \"#utility.yul\":14196:14202   */\n      dup3\n        /* \"#utility.yul\":14185:14194   */\n      dup10\n        /* \"#utility.yul\":14181:14203   */\n      add\n        /* \"#utility.yul\":14149:14213   */\n      tag_164\n      jump\t// in\n    tag_289:\n        /* \"#utility.yul\":14139:14213   */\n      swap3\n      pop\n        /* \"#utility.yul\":14094:14223   */\n      pop\n        /* \"#utility.yul\":14262:14265   */\n      0x80\n        /* \"#utility.yul\":14289:14352   */\n      tag_290\n        /* \"#utility.yul\":14344:14351   */\n      dup9\n        /* \"#utility.yul\":14335:14341   */\n      dup3\n        /* \"#utility.yul\":14324:14333   */\n      dup10\n        /* \"#utility.yul\":14320:14342   */\n      add\n        /* \"#utility.yul\":14289:14352   */\n      tag_161\n      jump\t// in\n    tag_290:\n        /* \"#utility.yul\":14279:14352   */\n      swap2\n      pop\n        /* \"#utility.yul\":14233:14362   */\n      pop\n        /* \"#utility.yul\":13398:14369   */\n      swap3\n      swap6\n      pop\n      swap3\n      swap6\n      swap1\n      swap4\n      pop\n      jump\t// out\n        /* \"#utility.yul\":14375:14609   */\n    tag_165:\n        /* \"#utility.yul\":14515:14549   */\n      0x796f7520646f206e6f742068617665207065726d697373696f6e20746f206361\n        /* \"#utility.yul\":14511:14512   */\n      0x00\n        /* \"#utility.yul\":14503:14509   */\n      dup3\n        /* \"#utility.yul\":14499:14513   */\n      add\n        /* \"#utility.yul\":14492:14550   */\n      mstore\n        /* \"#utility.yul\":14584:14601   */\n      0x6c6c20746869732066756e74696f6e0000000000000000000000000000000000\n        /* \"#utility.yul\":14579:14581   */\n      0x20\n        /* \"#utility.yul\":14571:14577   */\n      dup3\n        /* \"#utility.yul\":14567:14582   */\n      add\n        /* \"#utility.yul\":14560:14602   */\n      mstore\n        /* \"#utility.yul\":14375:14609   */\n      pop\n      jump\t// out\n        /* \"#utility.yul\":14615:14981   */\n    tag_166:\n        /* \"#utility.yul\":14757:14760   */\n      0x00\n        /* \"#utility.yul\":14778:14845   */\n      tag_293\n        /* \"#utility.yul\":14842:14844   */\n      0x2f\n        /* \"#utility.yul\":14837:14840   */\n      dup4\n        /* \"#utility.yul\":14778:14845   */\n      tag_138\n      jump\t// in\n    tag_293:\n        /* \"#utility.yul\":14771:14845   */\n      swap2\n      pop\n        /* \"#utility.yul\":14854:14947   */\n      tag_294\n        /* \"#utility.yul\":14943:14946   */\n      dup3\n        /* \"#utility.yul\":14854:14947   */\n      tag_165\n      jump\t// in\n    tag_294:\n        /* \"#utility.yul\":14972:14974   */\n      0x40\n        /* \"#utility.yul\":14967:14970   */\n      dup3\n        /* \"#utility.yul\":14963:14975   */\n      add\n        /* \"#utility.yul\":14956:14975   */\n      swap1\n      pop\n        /* \"#utility.yul\":14615:14981   */\n      swap2\n      swap1\n      pop\n      jump\t// out\n        /* \"#utility.yul\":14987:15406   */\n    tag_113:\n        /* \"#utility.yul\":15153:15157   */\n      0x00\n        /* \"#utility.yul\":15191:15193   */\n      0x20\n        /* \"#utility.yul\":15180:15189   */\n      dup3\n        /* \"#utility.yul\":15176:15194   */\n      add\n        /* \"#utility.yul\":15168:15194   */\n      swap1\n      pop\n        /* \"#utility.yul\":15240:15249   */\n      dup2\n        /* \"#utility.yul\":15234:15238   */\n      dup2\n        /* \"#utility.yul\":15230:15250   */\n      sub\n        /* \"#utility.yul\":15226:15227   */\n      0x00\n        /* \"#utility.yul\":15215:15224   */\n      dup4\n        /* \"#utility.yul\":15211:15228   */\n      add\n        /* \"#utility.yul\":15204:15251   */\n      mstore\n        /* \"#utility.yul\":15268:15399   */\n      tag_296\n        /* \"#utility.yul\":15394:15398   */\n      dup2\n        /* \"#utility.yul\":15268:15399   */\n      tag_166\n      jump\t// in\n    tag_296:\n        /* \"#utility.yul\":15260:15399   */\n      swap1\n      pop\n        /* \"#utility.yul\":14987:15406   */\n      swap2\n      swap1\n      pop\n      jump\t// out\n        /* \"#utility.yul\":15412:15822   */\n    tag_121:\n        /* \"#utility.yul\":15452:15459   */\n      0x00\n        /* \"#utility.yul\":15475:15495   */\n      tag_298\n        /* \"#utility.yul\":15493:15494   */\n      dup3\n        /* \"#utility.yul\":15475:15495   */\n      tag_132\n      jump\t// in\n    tag_298:\n        /* \"#utility.yul\":15470:15495   */\n      swap2\n      pop\n        /* \"#utility.yul\":15509:15529   */\n      tag_299\n        /* \"#utility.yul\":15527:15528   */\n      dup4\n        /* \"#utility.yul\":15509:15529   */\n      tag_132\n      jump\t// in\n    tag_299:\n        /* \"#utility.yul\":15504:15529   */\n      swap3\n      pop\n        /* \"#utility.yul\":15564:15565   */\n      dup3\n        /* \"#utility.yul\":15561:15562   */\n      dup3\n        /* \"#utility.yul\":15557:15566   */\n      mul\n        /* \"#utility.yul\":15586:15616   */\n      tag_300\n        /* \"#utility.yul\":15604:15615   */\n      dup2\n        /* \"#utility.yul\":15586:15616   */\n      tag_132\n      jump\t// in\n    tag_300:\n        /* \"#utility.yul\":15575:15616   */\n      swap2\n      pop\n        /* \"#utility.yul\":15765:15766   */\n      dup3\n        /* \"#utility.yul\":15756:15763   */\n      dup3\n        /* \"#utility.yul\":15752:15767   */\n      div\n        /* \"#utility.yul\":15749:15750   */\n      dup5\n        /* \"#utility.yul\":15746:15768   */\n      eq\n        /* \"#utility.yul\":15726:15727   */\n      dup4\n        /* \"#utility.yul\":15719:15728   */\n      iszero\n        /* \"#utility.yul\":15699:15782   */\n      or\n        /* \"#utility.yul\":15676:15815   */\n      tag_301\n      jumpi\n        /* \"#utility.yul\":15795:15813   */\n      tag_302\n      tag_141\n      jump\t// in\n    tag_302:\n        /* \"#utility.yul\":15676:15815   */\n    tag_301:\n        /* \"#utility.yul\":15460:15822   */\n      pop\n        /* \"#utility.yul\":15412:15822   */\n      swap3\n      swap2\n      pop\n      pop\n      jump\t// out\n        /* \"#utility.yul\":15828:16008   */\n    tag_167:\n        /* \"#utility.yul\":15876:15953   */\n      0x4e487b7100000000000000000000000000000000000000000000000000000000\n        /* \"#utility.yul\":15873:15874   */\n      0x00\n        /* \"#utility.yul\":15866:15954   */\n      mstore\n        /* \"#utility.yul\":15973:15977   */\n      0x12\n        /* \"#utility.yul\":15970:15971   */\n      0x04\n        /* \"#utility.yul\":15963:15978   */\n      mstore\n        /* \"#utility.yul\":15997:16001   */\n      0x24\n        /* \"#utility.yul\":15994:15995   */\n      0x00\n        /* \"#utility.yul\":15987:16002   */\n      revert\n        /* \"#utility.yul\":16014:16199   */\n    tag_123:\n        /* \"#utility.yul\":16054:16055   */\n      0x00\n        /* \"#utility.yul\":16071:16091   */\n      tag_305\n        /* \"#utility.yul\":16089:16090   */\n      dup3\n        /* \"#utility.yul\":16071:16091   */\n      tag_132\n      jump\t// in\n    tag_305:\n        /* \"#utility.yul\":16066:16091   */\n      swap2\n      pop\n        /* \"#utility.yul\":16105:16125   */\n      tag_306\n        /* \"#utility.yul\":16123:16124   */\n      dup4\n        /* \"#utility.yul\":16105:16125   */\n      tag_132\n      jump\t// in\n    tag_306:\n        /* \"#utility.yul\":16100:16125   */\n      swap3\n      pop\n        /* \"#utility.yul\":16144:16145   */\n      dup3\n        /* \"#utility.yul\":16134:16169   */\n      tag_307\n      jumpi\n        /* \"#utility.yul\":16149:16167   */\n      tag_308\n      tag_167\n      jump\t// in\n    tag_308:\n        /* \"#utility.yul\":16134:16169   */\n    tag_307:\n        /* \"#utility.yul\":16191:16192   */\n      dup3\n        /* \"#utility.yul\":16188:16189   */\n      dup3\n        /* \"#utility.yul\":16184:16193   */\n      div\n        /* \"#utility.yul\":16179:16193   */\n      swap1\n      pop\n        /* \"#utility.yul\":16014:16199   */\n      swap3\n      swap2\n      pop\n      pop\n      jump\t// out\n\n    auxdata: 0xa2646970667358221220d485d99936c31db4bee2a863ea5043b4eeb2be0c1a52f8772694e06286bc855064736f6c634300081a0033\n}\n",
				"bytecode": {
					"linkReferences": {},
					"object": "608060405234801561000f575f80fd5b5060405161138b38038061138b83398181016040528101906100319190610110565b73694aa1769357215de4fac081bf1f309adc32530660015f6101000a81548173ffffffffffffffffffffffffffffffffffffffff021916908373ffffffffffffffffffffffffffffffffffffffff1602179055503360025f6101000a81548173ffffffffffffffffffffffffffffffffffffffff021916908373ffffffffffffffffffffffffffffffffffffffff16021790555042600381905550806004819055505061013b565b5f80fd5b5f819050919050565b6100ef816100dd565b81146100f9575f80fd5b50565b5f8151905061010a816100e6565b92915050565b5f60208284031215610125576101246100d9565b5b5f610132848285016100fc565b91505092915050565b611243806101485f395ff3fe608060405260043610610085575f3560e01c80639f883a05116100585780639f883a0514610107578063b60d428814610143578063bea4dfb51461014d578063d39cf00614610177578063f2fde38b1461019f57610085565b806313ffff0114610089578063590e1ae3146100b15780638da5cb5b146100c75780638edd6eb6146100f1575b5f80fd5b348015610094575f80fd5b506100af60048036038101906100aa9190610ab9565b6101c7565b005b3480156100bc575f80fd5b506100c5610299565b005b3480156100d2575f80fd5b506100db6104e6565b6040516100e89190610af3565b60405180910390f35b3480156100fc575f80fd5b5061010561050b565b005b348015610112575f80fd5b5061012d60048036038101906101289190610ab9565b6106ed565b60405161013a9190610b24565b60405180910390f35b61014b610701565b005b348015610158575f80fd5b506101616107e9565b60405161016e9190610b55565b60405180910390f35b348015610182575f80fd5b5061019d60048036038101906101989190610b98565b610886565b005b3480156101aa575f80fd5b506101c560048036038101906101c09190610ab9565b61095a565b005b60025f9054906101000a900473ffffffffffffffffffffffffffffffffffffffff1673ffffffffffffffffffffffffffffffffffffffff163373ffffffffffffffffffffffffffffffffffffffff1614610256576040517f08c379a000000000000000000000000000000000000000000000000000000000815260040161024d90610c56565b60405180910390fd5b8060055f6101000a81548173ffffffffffffffffffffffffffffffffffffffff021916908373ffffffffffffffffffffffffffffffffffffffff16021790555050565b6004546003546102a99190610ca1565b4210156102eb576040517f08c379a00000000000000000000000000000000000000000000000000000000081526004016102e290610d1e565b60405180910390fd5b683635c9adc5dea000006102fe47610a2c565b1061033e576040517f08c379a000000000000000000000000000000000000000000000000000000000815260040161033590610d86565b60405180910390fd5b5f805f3373ffffffffffffffffffffffffffffffffffffffff1673ffffffffffffffffffffffffffffffffffffffff1681526020019081526020015f2054036103bc576040517f08c379a00000000000000000000000000000000000000000000000000000000081526004016103b390610dee565b60405180910390fd5b5f3373ffffffffffffffffffffffffffffffffffffffff165f803373ffffffffffffffffffffffffffffffffffffffff1673ffffffffffffffffffffffffffffffffffffffff1681526020019081526020015f205460405161041d90610e39565b5f6040518083038185875af1925050503d805f8114610457576040519150601f19603f3d011682016040523d82523d5f602084013e61045c565b606091505b505080915050806104a2576040517f08c379a000000000000000000000000000000000000000000000000000000000815260040161049990610e97565b60405180910390fd5b5f805f3373ffffffffffffffffffffffffffffffffffffffff1673ffffffffffffffffffffffffffffffffffffffff1681526020019081526020015f208190555050565b60025f9054906101000a900473ffffffffffffffffffffffffffffffffffffffff1681565b60045460035461051b9190610ca1565b42101561055d576040517f08c379a000000000000000000000000000000000000000000000000000000000815260040161055490610d1e565b60405180910390fd5b60025f9054906101000a900473ffffffffffffffffffffffffffffffffffffffff1673ffffffffffffffffffffffffffffffffffffffff163373ffffffffffffffffffffffffffffffffffffffff16146105ec576040517f08c379a00000000000000000000000000000000000000000000000000000000081526004016105e390610c56565b60405180910390fd5b683635c9adc5dea000006105ff47610a2c565b1015610640576040517f08c379a000000000000000000000000000000000000000000000000000000000815260040161063790610eff565b60405180910390fd5b5f3373ffffffffffffffffffffffffffffffffffffffff164760405161066590610e39565b5f6040518083038185875af1925050503d805f811461069f576040519150601f19603f3d011682016040523d82523d5f602084013e6106a4565b606091505b505080915050806106ea576040517f08c379a00000000000000000000000000000000000000000000000000000000081526004016106e190610e97565b60405180910390fd5b50565b5f602052805f5260405f205f915090505481565b68056bc75e2d6310000061071434610a2c565b1015610755576040517f08c379a000000000000000000000000000000000000000000000000000000000815260040161074c90610f67565b60405180910390fd5b6004546003546107659190610ca1565b42106107a6576040517f08c379a000000000000000000000000000000000000000000000000000000000815260040161079d90610fcf565b60405180910390fd5b345f803373ffffffffffffffffffffffffffffffffffffffff1673ffffffffffffffffffffffffffffffffffffffff1681526020019081526020015f2081905550565b5f8060015f9054906101000a900473ffffffffffffffffffffffffffffffffffffffff1673ffffffffffffffffffffffffffffffffffffffff1663feaf968c6040518163ffffffff1660e01b815260040160a060405180830381865afa158015610855573d5f803e3d5ffd5b505050506040513d601f19601f82011682018060405250810190610879919061106a565b5050509150508091505090565b60055f9054906101000a900473ffffffffffffffffffffffffffffffffffffffff1673ffffffffffffffffffffffffffffffffffffffff163373ffffffffffffffffffffffffffffffffffffffff1614610915576040517f08c379a000000000000000000000000000000000000000000000000000000000815260040161090c90611151565b60405180910390fd5b805f808473ffffffffffffffffffffffffffffffffffffffff1673ffffffffffffffffffffffffffffffffffffffff1681526020019081526020015f20819055505050565b60025f9054906101000a900473ffffffffffffffffffffffffffffffffffffffff1673ffffffffffffffffffffffffffffffffffffffff163373ffffffffffffffffffffffffffffffffffffffff16146109e9576040517f08c379a00000000000000000000000000000000000000000000000000000000081526004016109e090610c56565b60405180910390fd5b8060025f6101000a81548173ffffffffffffffffffffffffffffffffffffffff021916908373ffffffffffffffffffffffffffffffffffffffff16021790555050565b5f80610a366107e9565b90506305f5e1008184610a49919061116f565b610a5391906111dd565b915050919050565b5f80fd5b5f73ffffffffffffffffffffffffffffffffffffffff82169050919050565b5f610a8882610a5f565b9050919050565b610a9881610a7e565b8114610aa2575f80fd5b50565b5f81359050610ab381610a8f565b92915050565b5f60208284031215610ace57610acd610a5b565b5b5f610adb84828501610aa5565b91505092915050565b610aed81610a7e565b82525050565b5f602082019050610b065f830184610ae4565b92915050565b5f819050919050565b610b1e81610b0c565b82525050565b5f602082019050610b375f830184610b15565b92915050565b5f819050919050565b610b4f81610b3d565b82525050565b5f602082019050610b685f830184610b46565b92915050565b610b7781610b0c565b8114610b81575f80fd5b50565b5f81359050610b9281610b6e565b92915050565b5f8060408385031215610bae57610bad610a5b565b5b5f610bbb85828601610aa5565b9250506020610bcc85828601610b84565b9150509250929050565b5f82825260208201905092915050565b7f746869732066756e6374696f6e2063616e206f6e6c792062652063616c6c65645f8201527f206279206f776e65720000000000000000000000000000000000000000000000602082015250565b5f610c40602983610bd6565b9150610c4b82610be6565b604082019050919050565b5f6020820190508181035f830152610c6d81610c34565b9050919050565b7f4e487b71000000000000000000000000000000000000000000000000000000005f52601160045260245ffd5b5f610cab82610b0c565b9150610cb683610b0c565b9250828201905080821115610cce57610ccd610c74565b5b92915050565b7f77696e646f77206973206e6f7420636c6f7365000000000000000000000000005f82015250565b5f610d08601383610bd6565b9150610d1382610cd4565b602082019050919050565b5f6020820190508181035f830152610d3581610cfc565b9050919050565b7f54617267657420697320726561636865640000000000000000000000000000005f82015250565b5f610d70601183610bd6565b9150610d7b82610d3c565b602082019050919050565b5f6020820190508181035f830152610d9d81610d64565b9050919050565b7f7468657265206973206e6f2066756e6420666f7220796f7500000000000000005f82015250565b5f610dd8601883610bd6565b9150610de382610da4565b602082019050919050565b5f6020820190508181035f830152610e0581610dcc565b9050919050565b5f81905092915050565b50565b5f610e245f83610e0c565b9150610e2f82610e16565b5f82019050919050565b5f610e4382610e19565b9150819050919050565b7f7472616e73666572207478206661696c656400000000000000000000000000005f82015250565b5f610e81601283610bd6565b9150610e8c82610e4d565b602082019050919050565b5f6020820190508181035f830152610eae81610e75565b9050919050565b7f546172676574206973206e6f74207265616368656400000000000000000000005f82015250565b5f610ee9601583610bd6565b9150610ef482610eb5565b602082019050919050565b5f6020820190508181035f830152610f1681610edd565b9050919050565b7f53656e64206d6f726520455448000000000000000000000000000000000000005f82015250565b5f610f51600d83610bd6565b9150610f5c82610f1d565b602082019050919050565b5f6020820190508181035f830152610f7e81610f45565b9050919050565b7f77696e646f7720697320636c6f736500000000000000000000000000000000005f82015250565b5f610fb9600f83610bd6565b9150610fc482610f85565b602082019050919050565b5f6020820190508181035f830152610fe681610fad565b9050919050565b5f69ffffffffffffffffffff82169050919050565b61100b81610fed565b8114611015575f80fd5b50565b5f8151905061102681611002565b92915050565b61103581610b3d565b811461103f575f80fd5b50565b5f815190506110508161102c565b92915050565b5f8151905061106481610b6e565b92915050565b5f805f805f60a0868803121561108357611082610a5b565b5b5f61109088828901611018565b95505060206110a188828901611042565b94505060406110b288828901611056565b93505060606110c388828901611056565b92505060806110d488828901611018565b9150509295509295909350565b7f796f7520646f206e6f742068617665207065726d697373696f6e20746f2063615f8201527f6c6c20746869732066756e74696f6e0000000000000000000000000000000000602082015250565b5f61113b602f83610bd6565b9150611146826110e1565b604082019050919050565b5f6020820190508181035f8301526111688161112f565b9050919050565b5f61117982610b0c565b915061118483610b0c565b925082820261119281610b0c565b915082820484148315176111a9576111a8610c74565b5b5092915050565b7f4e487b71000000000000000000000000000000000000000000000000000000005f52601260045260245ffd5b5f6111e782610b0c565b91506111f283610b0c565b925082611202576112016111b0565b5b82820490509291505056fea2646970667358221220d485d99936c31db4bee2a863ea5043b4eeb2be0c1a52f8772694e06286bc855064736f6c634300081a0033",
					"opcodes": "PUSH1 0x80 PUSH1 0x40 MSTORE CALLVALUE DUP1 ISZERO PUSH2 0xF JUMPI PUSH0 DUP1 REVERT JUMPDEST POP PUSH1 0x40 MLOAD PUSH2 0x138B CODESIZE SUB DUP1 PUSH2 0x138B DUP4 CODECOPY DUP2 DUP2 ADD PUSH1 0x40 MSTORE DUP2 ADD SWAP1 PUSH2 0x31 SWAP2 SWAP1 PUSH2 0x110 JUMP JUMPDEST PUSH20 0x694AA1769357215DE4FAC081BF1F309ADC325306 PUSH1 0x1 PUSH0 PUSH2 0x100 EXP DUP2 SLOAD DUP2 PUSH20 0xFFFFFFFFFFFFFFFFFFFFFFFFFFFFFFFFFFFFFFFF MUL NOT AND SWAP1 DUP4 PUSH20 0xFFFFFFFFFFFFFFFFFFFFFFFFFFFFFFFFFFFFFFFF AND MUL OR SWAP1 SSTORE POP CALLER PUSH1 0x2 PUSH0 PUSH2 0x100 EXP DUP2 SLOAD DUP2 PUSH20 0xFFFFFFFFFFFFFFFFFFFFFFFFFFFFFFFFFFFFFFFF MUL NOT AND SWAP1 DUP4 PUSH20 0xFFFFFFFFFFFFFFFFFFFFFFFFFFFFFFFFFFFFFFFF AND MUL OR SWAP1 SSTORE POP TIMESTAMP PUSH1 0x3 DUP2 SWAP1 SSTORE POP DUP1 PUSH1 0x4 DUP2 SWAP1 SSTORE POP POP PUSH2 0x13B JUMP JUMPDEST PUSH0 DUP1 REVERT JUMPDEST PUSH0 DUP2 SWAP1 POP SWAP2 SWAP1 POP JUMP JUMPDEST PUSH2 0xEF DUP2 PUSH2 0xDD JUMP JUMPDEST DUP2 EQ PUSH2 0xF9 JUMPI PUSH0 DUP1 REVERT JUMPDEST POP JUMP JUMPDEST PUSH0 DUP2 MLOAD SWAP1 POP PUSH2 0x10A DUP2 PUSH2 0xE6 JUMP JUMPDEST SWAP3 SWAP2 POP POP JUMP JUMPDEST PUSH0 PUSH1 0x20 DUP3 DUP5 SUB SLT ISZERO PUSH2 0x125 JUMPI PUSH2 0x124 PUSH2 0xD9 JUMP JUMPDEST JUMPDEST PUSH0 PUSH2 0x132 DUP5 DUP3 DUP6 ADD PUSH2 0xFC JUMP JUMPDEST SWAP2 POP POP SWAP3 SWAP2 POP POP JUMP JUMPDEST PUSH2 0x1243 DUP1 PUSH2 0x148 PUSH0 CODECOPY PUSH0 RETURN INVALID PUSH1 0x80 PUSH1 0x40 MSTORE PUSH1 0x4 CALLDATASIZE LT PUSH2 0x85 JUMPI PUSH0 CALLDATALOAD PUSH1 0xE0 SHR DUP1 PUSH4 0x9F883A05 GT PUSH2 0x58 JUMPI DUP1 PUSH4 0x9F883A05 EQ PUSH2 0x107 JUMPI DUP1 PUSH4 0xB60D4288 EQ PUSH2 0x143 JUMPI DUP1 PUSH4 0xBEA4DFB5 EQ PUSH2 0x14D JUMPI DUP1 PUSH4 0xD39CF006 EQ PUSH2 0x177 JUMPI DUP1 PUSH4 0xF2FDE38B EQ PUSH2 0x19F JUMPI PUSH2 0x85 JUMP JUMPDEST DUP1 PUSH4 0x13FFFF01 EQ PUSH2 0x89 JUMPI DUP1 PUSH4 0x590E1AE3 EQ PUSH2 0xB1 JUMPI DUP1 PUSH4 0x8DA5CB5B EQ PUSH2 0xC7 JUMPI DUP1 PUSH4 0x8EDD6EB6 EQ PUSH2 0xF1 JUMPI JUMPDEST PUSH0 DUP1 REVERT JUMPDEST CALLVALUE DUP1 ISZERO PUSH2 0x94 JUMPI PUSH0 DUP1 REVERT JUMPDEST POP PUSH2 0xAF PUSH1 0x4 DUP1 CALLDATASIZE SUB DUP2 ADD SWAP1 PUSH2 0xAA SWAP2 SWAP1 PUSH2 0xAB9 JUMP JUMPDEST PUSH2 0x1C7 JUMP JUMPDEST STOP JUMPDEST CALLVALUE DUP1 ISZERO PUSH2 0xBC JUMPI PUSH0 DUP1 REVERT JUMPDEST POP PUSH2 0xC5 PUSH2 0x299 JUMP JUMPDEST STOP JUMPDEST CALLVALUE DUP1 ISZERO PUSH2 0xD2 JUMPI PUSH0 DUP1 REVERT JUMPDEST POP PUSH2 0xDB PUSH2 0x4E6 JUMP JUMPDEST PUSH1 0x40 MLOAD PUSH2 0xE8 SWAP2 SWAP1 PUSH2 0xAF3 JUMP JUMPDEST PUSH1 0x40 MLOAD DUP1 SWAP2 SUB SWAP1 RETURN JUMPDEST CALLVALUE DUP1 ISZERO PUSH2 0xFC JUMPI PUSH0 DUP1 REVERT JUMPDEST POP PUSH2 0x105 PUSH2 0x50B JUMP JUMPDEST STOP JUMPDEST CALLVALUE DUP1 ISZERO PUSH2 0x112 JUMPI PUSH0 DUP1 REVERT JUMPDEST POP PUSH2 0x12D PUSH1 0x4 DUP1 CALLDATASIZE SUB DUP2 ADD SWAP1 PUSH2 0x128 SWAP2 SWAP1 PUSH2 0xAB9 JUMP JUMPDEST PUSH2 0x6ED JUMP JUMPDEST PUSH1 0x40 MLOAD PUSH2 0x13A SWAP2 SWAP1 PUSH2 0xB24 JUMP JUMPDEST PUSH1 0x40 MLOAD DUP1 SWAP2 SUB SWAP1 RETURN JUMPDEST PUSH2 0x14B PUSH2 0x701 JUMP JUMPDEST STOP JUMPDEST CALLVALUE DUP1 ISZERO PUSH2 0x158 JUMPI PUSH0 DUP1 REVERT JUMPDEST POP PUSH2 0x161 PUSH2 0x7E9 JUMP JUMPDEST PUSH1 0x40 MLOAD PUSH2 0x16E SWAP2 SWAP1 PUSH2 0xB55 JUMP JUMPDEST PUSH1 0x40 MLOAD DUP1 SWAP2 SUB SWAP1 RETURN JUMPDEST CALLVALUE DUP1 ISZERO PUSH2 0x182 JUMPI PUSH0 DUP1 REVERT JUMPDEST POP PUSH2 0x19D PUSH1 0x4 DUP1 CALLDATASIZE SUB DUP2 ADD SWAP1 PUSH2 0x198 SWAP2 SWAP1 PUSH2 0xB98 JUMP JUMPDEST PUSH2 0x886 JUMP JUMPDEST STOP JUMPDEST CALLVALUE DUP1 ISZERO PUSH2 0x1AA JUMPI PUSH0 DUP1 REVERT JUMPDEST POP PUSH2 0x1C5 PUSH1 0x4 DUP1 CALLDATASIZE SUB DUP2 ADD SWAP1 PUSH2 0x1C0 SWAP2 SWAP1 PUSH2 0xAB9 JUMP JUMPDEST PUSH2 0x95A JUMP JUMPDEST STOP JUMPDEST PUSH1 0x2 PUSH0 SWAP1 SLOAD SWAP1 PUSH2 0x100 EXP SWAP1 DIV PUSH20 0xFFFFFFFFFFFFFFFFFFFFFFFFFFFFFFFFFFFFFFFF AND PUSH20 0xFFFFFFFFFFFFFFFFFFFFFFFFFFFFFFFFFFFFFFFF AND CALLER PUSH20 0xFFFFFFFFFFFFFFFFFFFFFFFFFFFFFFFFFFFFFFFF AND EQ PUSH2 0x256 JUMPI PUSH1 0x40 MLOAD PUSH32 0x8C379A000000000000000000000000000000000000000000000000000000000 DUP2 MSTORE PUSH1 0x4 ADD PUSH2 0x24D SWAP1 PUSH2 0xC56 JUMP JUMPDEST PUSH1 0x40 MLOAD DUP1 SWAP2 SUB SWAP1 REVERT JUMPDEST DUP1 PUSH1 0x5 PUSH0 PUSH2 0x100 EXP DUP2 SLOAD DUP2 PUSH20 0xFFFFFFFFFFFFFFFFFFFFFFFFFFFFFFFFFFFFFFFF MUL NOT AND SWAP1 DUP4 PUSH20 0xFFFFFFFFFFFFFFFFFFFFFFFFFFFFFFFFFFFFFFFF AND MUL OR SWAP1 SSTORE POP POP JUMP JUMPDEST PUSH1 0x4 SLOAD PUSH1 0x3 SLOAD PUSH2 0x2A9 SWAP2 SWAP1 PUSH2 0xCA1 JUMP JUMPDEST TIMESTAMP LT ISZERO PUSH2 0x2EB JUMPI PUSH1 0x40 MLOAD PUSH32 0x8C379A000000000000000000000000000000000000000000000000000000000 DUP2 MSTORE PUSH1 0x4 ADD PUSH2 0x2E2 SWAP1 PUSH2 0xD1E JUMP JUMPDEST PUSH1 0x40 MLOAD DUP1 SWAP2 SUB SWAP1 REVERT JUMPDEST PUSH9 0x3635C9ADC5DEA00000 PUSH2 0x2FE SELFBALANCE PUSH2 0xA2C JUMP JUMPDEST LT PUSH2 0x33E JUMPI PUSH1 0x40 MLOAD PUSH32 0x8C379A000000000000000000000000000000000000000000000000000000000 DUP2 MSTORE PUSH1 0x4 ADD PUSH2 0x335 SWAP1 PUSH2 0xD86 JUMP JUMPDEST PUSH1 0x40 MLOAD DUP1 SWAP2 SUB SWAP1 REVERT JUMPDEST PUSH0 DUP1 PUSH0 CALLER PUSH20 0xFFFFFFFFFFFFFFFFFFFFFFFFFFFFFFFFFFFFFFFF AND PUSH20 0xFFFFFFFFFFFFFFFFFFFFFFFFFFFFFFFFFFFFFFFF AND DUP2 MSTORE PUSH1 0x20 ADD SWAP1 DUP2 MSTORE PUSH1 0x20 ADD PUSH0 KECCAK256 SLOAD SUB PUSH2 0x3BC JUMPI PUSH1 0x40 MLOAD PUSH32 0x8C379A000000000000000000000000000000000000000000000000000000000 DUP2 MSTORE PUSH1 0x4 ADD PUSH2 0x3B3 SWAP1 PUSH2 0xDEE JUMP JUMPDEST PUSH1 0x40 MLOAD DUP1 SWAP2 SUB SWAP1 REVERT JUMPDEST PUSH0 CALLER PUSH20 0xFFFFFFFFFFFFFFFFFFFFFFFFFFFFFFFFFFFFFFFF AND PUSH0 DUP1 CALLER PUSH20 0xFFFFFFFFFFFFFFFFFFFFFFFFFFFFFFFFFFFFFFFF AND PUSH20 0xFFFFFFFFFFFFFFFFFFFFFFFFFFFFFFFFFFFFFFFF AND DUP2 MSTORE PUSH1 0x20 ADD SWAP1 DUP2 MSTORE PUSH1 0x20 ADD PUSH0 KECCAK256 SLOAD PUSH1 0x40 MLOAD PUSH2 0x41D SWAP1 PUSH2 0xE39 JUMP JUMPDEST PUSH0 PUSH1 0x40 MLOAD DUP1 DUP4 SUB DUP2 DUP6 DUP8 GAS CALL SWAP3 POP POP POP RETURNDATASIZE DUP1 PUSH0 DUP2 EQ PUSH2 0x457 JUMPI PUSH1 0x40 MLOAD SWAP2 POP PUSH1 0x1F NOT PUSH1 0x3F RETURNDATASIZE ADD AND DUP3 ADD PUSH1 0x40 MSTORE RETURNDATASIZE DUP3 MSTORE RETURNDATASIZE PUSH0 PUSH1 0x20 DUP5 ADD RETURNDATACOPY PUSH2 0x45C JUMP JUMPDEST PUSH1 0x60 SWAP2 POP JUMPDEST POP POP DUP1 SWAP2 POP POP DUP1 PUSH2 0x4A2 JUMPI PUSH1 0x40 MLOAD PUSH32 0x8C379A000000000000000000000000000000000000000000000000000000000 DUP2 MSTORE PUSH1 0x4 ADD PUSH2 0x499 SWAP1 PUSH2 0xE97 JUMP JUMPDEST PUSH1 0x40 MLOAD DUP1 SWAP2 SUB SWAP1 REVERT JUMPDEST PUSH0 DUP1 PUSH0 CALLER PUSH20 0xFFFFFFFFFFFFFFFFFFFFFFFFFFFFFFFFFFFFFFFF AND PUSH20 0xFFFFFFFFFFFFFFFFFFFFFFFFFFFFFFFFFFFFFFFF AND DUP2 MSTORE PUSH1 0x20 ADD SWAP1 DUP2 MSTORE PUSH1 0x20 ADD PUSH0 KECCAK256 DUP2 SWAP1 SSTORE POP POP JUMP JUMPDEST PUSH1 0x2 PUSH0 SWAP1 SLOAD SWAP1 PUSH2 0x100 EXP SWAP1 DIV PUSH20 0xFFFFFFFFFFFFFFFFFFFFFFFFFFFFFFFFFFFFFFFF AND DUP2 JUMP JUMPDEST PUSH1 0x4 SLOAD PUSH1 0x3 SLOAD PUSH2 0x51B SWAP2 SWAP1 PUSH2 0xCA1 JUMP JUMPDEST TIMESTAMP LT ISZERO PUSH2 0x55D JUMPI PUSH1 0x40 MLOAD PUSH32 0x8C379A000000000000000000000000000000000000000000000000000000000 DUP2 MSTORE PUSH1 0x4 ADD PUSH2 0x554 SWAP1 PUSH2 0xD1E JUMP JUMPDEST PUSH1 0x40 MLOAD DUP1 SWAP2 SUB SWAP1 REVERT JUMPDEST PUSH1 0x2 PUSH0 SWAP1 SLOAD SWAP1 PUSH2 0x100 EXP SWAP1 DIV PUSH20 0xFFFFFFFFFFFFFFFFFFFFFFFFFFFFFFFFFFFFFFFF AND PUSH20 0xFFFFFFFFFFFFFFFFFFFFFFFFFFFFFFFFFFFFFFFF AND CALLER PUSH20 0xFFFFFFFFFFFFFFFFFFFFFFFFFFFFFFFFFFFFFFFF AND EQ PUSH2 0x5EC JUMPI PUSH1 0x40 MLOAD PUSH32 0x8C379A000000000000000000000000000000000000000000000000000000000 DUP2 MSTORE PUSH1 0x4 ADD PUSH2 0x5E3 SWAP1 PUSH2 0xC56 JUMP JUMPDEST PUSH1 0x40 MLOAD DUP1 SWAP2 SUB SWAP1 REVERT JUMPDEST PUSH9 0x3635C9ADC5DEA00000 PUSH2 0x5FF SELFBALANCE PUSH2 0xA2C JUMP JUMPDEST LT ISZERO PUSH2 0x640 JUMPI PUSH1 0x40 MLOAD PUSH32 0x8C379A000000000000000000000000000000000000000000000000000000000 DUP2 MSTORE PUSH1 0x4 ADD PUSH2 0x637 SWAP1 PUSH2 0xEFF JUMP JUMPDEST PUSH1 0x40 MLOAD DUP1 SWAP2 SUB SWAP1 REVERT JUMPDEST PUSH0 CALLER PUSH20 0xFFFFFFFFFFFFFFFFFFFFFFFFFFFFFFFFFFFFFFFF AND SELFBALANCE PUSH1 0x40 MLOAD PUSH2 0x665 SWAP1 PUSH2 0xE39 JUMP JUMPDEST PUSH0 PUSH1 0x40 MLOAD DUP1 DUP4 SUB DUP2 DUP6 DUP8 GAS CALL SWAP3 POP POP POP RETURNDATASIZE DUP1 PUSH0 DUP2 EQ PUSH2 0x69F JUMPI PUSH1 0x40 MLOAD SWAP2 POP PUSH1 0x1F NOT PUSH1 0x3F RETURNDATASIZE ADD AND DUP3 ADD PUSH1 0x40 MSTORE RETURNDATASIZE DUP3 MSTORE RETURNDATASIZE PUSH0 PUSH1 0x20 DUP5 ADD RETURNDATACOPY PUSH2 0x6A4 JUMP JUMPDEST PUSH1 0x60 SWAP2 POP JUMPDEST POP POP DUP1 SWAP2 POP POP DUP1 PUSH2 0x6EA JUMPI PUSH1 0x40 MLOAD PUSH32 0x8C379A000000000000000000000000000000000000000000000000000000000 DUP2 MSTORE PUSH1 0x4 ADD PUSH2 0x6E1 SWAP1 PUSH2 0xE97 JUMP JUMPDEST PUSH1 0x40 MLOAD DUP1 SWAP2 SUB SWAP1 REVERT JUMPDEST POP JUMP JUMPDEST PUSH0 PUSH1 0x20 MSTORE DUP1 PUSH0 MSTORE PUSH1 0x40 PUSH0 KECCAK256 PUSH0 SWAP2 POP SWAP1 POP SLOAD DUP2 JUMP JUMPDEST PUSH9 0x56BC75E2D63100000 PUSH2 0x714 CALLVALUE PUSH2 0xA2C JUMP JUMPDEST LT ISZERO PUSH2 0x755 JUMPI PUSH1 0x40 MLOAD PUSH32 0x8C379A000000000000000000000000000000000000000000000000000000000 DUP2 MSTORE PUSH1 0x4 ADD PUSH2 0x74C SWAP1 PUSH2 0xF67 JUMP JUMPDEST PUSH1 0x40 MLOAD DUP1 SWAP2 SUB SWAP1 REVERT JUMPDEST PUSH1 0x4 SLOAD PUSH1 0x3 SLOAD PUSH2 0x765 SWAP2 SWAP1 PUSH2 0xCA1 JUMP JUMPDEST TIMESTAMP LT PUSH2 0x7A6 JUMPI PUSH1 0x40 MLOAD PUSH32 0x8C379A000000000000000000000000000000000000000000000000000000000 DUP2 MSTORE PUSH1 0x4 ADD PUSH2 0x79D SWAP1 PUSH2 0xFCF JUMP JUMPDEST PUSH1 0x40 MLOAD DUP1 SWAP2 SUB SWAP1 REVERT JUMPDEST CALLVALUE PUSH0 DUP1 CALLER PUSH20 0xFFFFFFFFFFFFFFFFFFFFFFFFFFFFFFFFFFFFFFFF AND PUSH20 0xFFFFFFFFFFFFFFFFFFFFFFFFFFFFFFFFFFFFFFFF AND DUP2 MSTORE PUSH1 0x20 ADD SWAP1 DUP2 MSTORE PUSH1 0x20 ADD PUSH0 KECCAK256 DUP2 SWAP1 SSTORE POP JUMP JUMPDEST PUSH0 DUP1 PUSH1 0x1 PUSH0 SWAP1 SLOAD SWAP1 PUSH2 0x100 EXP SWAP1 DIV PUSH20 0xFFFFFFFFFFFFFFFFFFFFFFFFFFFFFFFFFFFFFFFF AND PUSH20 0xFFFFFFFFFFFFFFFFFFFFFFFFFFFFFFFFFFFFFFFF AND PUSH4 0xFEAF968C PUSH1 0x40 MLOAD DUP2 PUSH4 0xFFFFFFFF AND PUSH1 0xE0 SHL DUP2 MSTORE PUSH1 0x4 ADD PUSH1 0xA0 PUSH1 0x40 MLOAD DUP1 DUP4 SUB DUP2 DUP7 GAS STATICCALL ISZERO DUP1 ISZERO PUSH2 0x855 JUMPI RETURNDATASIZE PUSH0 DUP1 RETURNDATACOPY RETURNDATASIZE PUSH0 REVERT JUMPDEST POP POP POP POP PUSH1 0x40 MLOAD RETURNDATASIZE PUSH1 0x1F NOT PUSH1 0x1F DUP3 ADD AND DUP3 ADD DUP1 PUSH1 0x40 MSTORE POP DUP2 ADD SWAP1 PUSH2 0x879 SWAP2 SWAP1 PUSH2 0x106A JUMP JUMPDEST POP POP POP SWAP2 POP POP DUP1 SWAP2 POP POP SWAP1 JUMP JUMPDEST PUSH1 0x5 PUSH0 SWAP1 SLOAD SWAP1 PUSH2 0x100 EXP SWAP1 DIV PUSH20 0xFFFFFFFFFFFFFFFFFFFFFFFFFFFFFFFFFFFFFFFF AND PUSH20 0xFFFFFFFFFFFFFFFFFFFFFFFFFFFFFFFFFFFFFFFF AND CALLER PUSH20 0xFFFFFFFFFFFFFFFFFFFFFFFFFFFFFFFFFFFFFFFF AND EQ PUSH2 0x915 JUMPI PUSH1 0x40 MLOAD PUSH32 0x8C379A000000000000000000000000000000000000000000000000000000000 DUP2 MSTORE PUSH1 0x4 ADD PUSH2 0x90C SWAP1 PUSH2 0x1151 JUMP JUMPDEST PUSH1 0x40 MLOAD DUP1 SWAP2 SUB SWAP1 REVERT JUMPDEST DUP1 PUSH0 DUP1 DUP5 PUSH20 0xFFFFFFFFFFFFFFFFFFFFFFFFFFFFFFFFFFFFFFFF AND PUSH20 0xFFFFFFFFFFFFFFFFFFFFFFFFFFFFFFFFFFFFFFFF AND DUP2 MSTORE PUSH1 0x20 ADD SWAP1 DUP2 MSTORE PUSH1 0x20 ADD PUSH0 KECCAK256 DUP2 SWAP1 SSTORE POP POP POP JUMP JUMPDEST PUSH1 0x2 PUSH0 SWAP1 SLOAD SWAP1 PUSH2 0x100 EXP SWAP1 DIV PUSH20 0xFFFFFFFFFFFFFFFFFFFFFFFFFFFFFFFFFFFFFFFF AND PUSH20 0xFFFFFFFFFFFFFFFFFFFFFFFFFFFFFFFFFFFFFFFF AND CALLER PUSH20 0xFFFFFFFFFFFFFFFFFFFFFFFFFFFFFFFFFFFFFFFF AND EQ PUSH2 0x9E9 JUMPI PUSH1 0x40 MLOAD PUSH32 0x8C379A000000000000000000000000000000000000000000000000000000000 DUP2 MSTORE PUSH1 0x4 ADD PUSH2 0x9E0 SWAP1 PUSH2 0xC56 JUMP JUMPDEST PUSH1 0x40 MLOAD DUP1 SWAP2 SUB SWAP1 REVERT JUMPDEST DUP1 PUSH1 0x2 PUSH0 PUSH2 0x100 EXP DUP2 SLOAD DUP2 PUSH20 0xFFFFFFFFFFFFFFFFFFFFFFFFFFFFFFFFFFFFFFFF MUL NOT AND SWAP1 DUP4 PUSH20 0xFFFFFFFFFFFFFFFFFFFFFFFFFFFFFFFFFFFFFFFF AND MUL OR SWAP1 SSTORE POP POP JUMP JUMPDEST PUSH0 DUP1 PUSH2 0xA36 PUSH2 0x7E9 JUMP JUMPDEST SWAP1 POP PUSH4 0x5F5E100 DUP2 DUP5 PUSH2 0xA49 SWAP2 SWAP1 PUSH2 0x116F JUMP JUMPDEST PUSH2 0xA53 SWAP2 SWAP1 PUSH2 0x11DD JUMP JUMPDEST SWAP2 POP POP SWAP2 SWAP1 POP JUMP JUMPDEST PUSH0 DUP1 REVERT JUMPDEST PUSH0 PUSH20 0xFFFFFFFFFFFFFFFFFFFFFFFFFFFFFFFFFFFFFFFF DUP3 AND SWAP1 POP SWAP2 SWAP1 POP JUMP JUMPDEST PUSH0 PUSH2 0xA88 DUP3 PUSH2 0xA5F JUMP JUMPDEST SWAP1 POP SWAP2 SWAP1 POP JUMP JUMPDEST PUSH2 0xA98 DUP2 PUSH2 0xA7E JUMP JUMPDEST DUP2 EQ PUSH2 0xAA2 JUMPI PUSH0 DUP1 REVERT JUMPDEST POP JUMP JUMPDEST PUSH0 DUP2 CALLDATALOAD SWAP1 POP PUSH2 0xAB3 DUP2 PUSH2 0xA8F JUMP JUMPDEST SWAP3 SWAP2 POP POP JUMP JUMPDEST PUSH0 PUSH1 0x20 DUP3 DUP5 SUB SLT ISZERO PUSH2 0xACE JUMPI PUSH2 0xACD PUSH2 0xA5B JUMP JUMPDEST JUMPDEST PUSH0 PUSH2 0xADB DUP5 DUP3 DUP6 ADD PUSH2 0xAA5 JUMP JUMPDEST SWAP2 POP POP SWAP3 SWAP2 POP POP JUMP JUMPDEST PUSH2 0xAED DUP2 PUSH2 0xA7E JUMP JUMPDEST DUP3 MSTORE POP POP JUMP JUMPDEST PUSH0 PUSH1 0x20 DUP3 ADD SWAP1 POP PUSH2 0xB06 PUSH0 DUP4 ADD DUP5 PUSH2 0xAE4 JUMP JUMPDEST SWAP3 SWAP2 POP POP JUMP JUMPDEST PUSH0 DUP2 SWAP1 POP SWAP2 SWAP1 POP JUMP JUMPDEST PUSH2 0xB1E DUP2 PUSH2 0xB0C JUMP JUMPDEST DUP3 MSTORE POP POP JUMP JUMPDEST PUSH0 PUSH1 0x20 DUP3 ADD SWAP1 POP PUSH2 0xB37 PUSH0 DUP4 ADD DUP5 PUSH2 0xB15 JUMP JUMPDEST SWAP3 SWAP2 POP POP JUMP JUMPDEST PUSH0 DUP2 SWAP1 POP SWAP2 SWAP1 POP JUMP JUMPDEST PUSH2 0xB4F DUP2 PUSH2 0xB3D JUMP JUMPDEST DUP3 MSTORE POP POP JUMP JUMPDEST PUSH0 PUSH1 0x20 DUP3 ADD SWAP1 POP PUSH2 0xB68 PUSH0 DUP4 ADD DUP5 PUSH2 0xB46 JUMP JUMPDEST SWAP3 SWAP2 POP POP JUMP JUMPDEST PUSH2 0xB77 DUP2 PUSH2 0xB0C JUMP JUMPDEST DUP2 EQ PUSH2 0xB81 JUMPI PUSH0 DUP1 REVERT JUMPDEST POP JUMP JUMPDEST PUSH0 DUP2 CALLDATALOAD SWAP1 POP PUSH2 0xB92 DUP2 PUSH2 0xB6E JUMP JUMPDEST SWAP3 SWAP2 POP POP JUMP JUMPDEST PUSH0 DUP1 PUSH1 0x40 DUP4 DUP6 SUB SLT ISZERO PUSH2 0xBAE JUMPI PUSH2 0xBAD PUSH2 0xA5B JUMP JUMPDEST JUMPDEST PUSH0 PUSH2 0xBBB DUP6 DUP3 DUP7 ADD PUSH2 0xAA5 JUMP JUMPDEST SWAP3 POP POP PUSH1 0x20 PUSH2 0xBCC DUP6 DUP3 DUP7 ADD PUSH2 0xB84 JUMP JUMPDEST SWAP2 POP POP SWAP3 POP SWAP3 SWAP1 POP JUMP JUMPDEST PUSH0 DUP3 DUP3 MSTORE PUSH1 0x20 DUP3 ADD SWAP1 POP SWAP3 SWAP2 POP POP JUMP JUMPDEST PUSH32 0x746869732066756E6374696F6E2063616E206F6E6C792062652063616C6C6564 PUSH0 DUP3 ADD MSTORE PUSH32 0x206279206F776E65720000000000000000000000000000000000000000000000 PUSH1 0x20 DUP3 ADD MSTORE POP JUMP JUMPDEST PUSH0 PUSH2 0xC40 PUSH1 0x29 DUP4 PUSH2 0xBD6 JUMP JUMPDEST SWAP2 POP PUSH2 0xC4B DUP3 PUSH2 0xBE6 JUMP JUMPDEST PUSH1 0x40 DUP3 ADD SWAP1 POP SWAP2 SWAP1 POP JUMP JUMPDEST PUSH0 PUSH1 0x20 DUP3 ADD SWAP1 POP DUP2 DUP2 SUB PUSH0 DUP4 ADD MSTORE PUSH2 0xC6D DUP2 PUSH2 0xC34 JUMP JUMPDEST SWAP1 POP SWAP2 SWAP1 POP JUMP JUMPDEST PUSH32 0x4E487B7100000000000000000000000000000000000000000000000000000000 PUSH0 MSTORE PUSH1 0x11 PUSH1 0x4 MSTORE PUSH1 0x24 PUSH0 REVERT JUMPDEST PUSH0 PUSH2 0xCAB DUP3 PUSH2 0xB0C JUMP JUMPDEST SWAP2 POP PUSH2 0xCB6 DUP4 PUSH2 0xB0C JUMP JUMPDEST SWAP3 POP DUP3 DUP3 ADD SWAP1 POP DUP1 DUP3 GT ISZERO PUSH2 0xCCE JUMPI PUSH2 0xCCD PUSH2 0xC74 JUMP JUMPDEST JUMPDEST SWAP3 SWAP2 POP POP JUMP JUMPDEST PUSH32 0x77696E646F77206973206E6F7420636C6F736500000000000000000000000000 PUSH0 DUP3 ADD MSTORE POP JUMP JUMPDEST PUSH0 PUSH2 0xD08 PUSH1 0x13 DUP4 PUSH2 0xBD6 JUMP JUMPDEST SWAP2 POP PUSH2 0xD13 DUP3 PUSH2 0xCD4 JUMP JUMPDEST PUSH1 0x20 DUP3 ADD SWAP1 POP SWAP2 SWAP1 POP JUMP JUMPDEST PUSH0 PUSH1 0x20 DUP3 ADD SWAP1 POP DUP2 DUP2 SUB PUSH0 DUP4 ADD MSTORE PUSH2 0xD35 DUP2 PUSH2 0xCFC JUMP JUMPDEST SWAP1 POP SWAP2 SWAP1 POP JUMP JUMPDEST PUSH32 0x5461726765742069732072656163686564000000000000000000000000000000 PUSH0 DUP3 ADD MSTORE POP JUMP JUMPDEST PUSH0 PUSH2 0xD70 PUSH1 0x11 DUP4 PUSH2 0xBD6 JUMP JUMPDEST SWAP2 POP PUSH2 0xD7B DUP3 PUSH2 0xD3C JUMP JUMPDEST PUSH1 0x20 DUP3 ADD SWAP1 POP SWAP2 SWAP1 POP JUMP JUMPDEST PUSH0 PUSH1 0x20 DUP3 ADD SWAP1 POP DUP2 DUP2 SUB PUSH0 DUP4 ADD MSTORE PUSH2 0xD9D DUP2 PUSH2 0xD64 JUMP JUMPDEST SWAP1 POP SWAP2 SWAP1 POP JUMP JUMPDEST PUSH32 0x7468657265206973206E6F2066756E6420666F7220796F750000000000000000 PUSH0 DUP3 ADD MSTORE POP JUMP JUMPDEST PUSH0 PUSH2 0xDD8 PUSH1 0x18 DUP4 PUSH2 0xBD6 JUMP JUMPDEST SWAP2 POP PUSH2 0xDE3 DUP3 PUSH2 0xDA4 JUMP JUMPDEST PUSH1 0x20 DUP3 ADD SWAP1 POP SWAP2 SWAP1 POP JUMP JUMPDEST PUSH0 PUSH1 0x20 DUP3 ADD SWAP1 POP DUP2 DUP2 SUB PUSH0 DUP4 ADD MSTORE PUSH2 0xE05 DUP2 PUSH2 0xDCC JUMP JUMPDEST SWAP1 POP SWAP2 SWAP1 POP JUMP JUMPDEST PUSH0 DUP2 SWAP1 POP SWAP3 SWAP2 POP POP JUMP JUMPDEST POP JUMP JUMPDEST PUSH0 PUSH2 0xE24 PUSH0 DUP4 PUSH2 0xE0C JUMP JUMPDEST SWAP2 POP PUSH2 0xE2F DUP3 PUSH2 0xE16 JUMP JUMPDEST PUSH0 DUP3 ADD SWAP1 POP SWAP2 SWAP1 POP JUMP JUMPDEST PUSH0 PUSH2 0xE43 DUP3 PUSH2 0xE19 JUMP JUMPDEST SWAP2 POP DUP2 SWAP1 POP SWAP2 SWAP1 POP JUMP JUMPDEST PUSH32 0x7472616E73666572207478206661696C65640000000000000000000000000000 PUSH0 DUP3 ADD MSTORE POP JUMP JUMPDEST PUSH0 PUSH2 0xE81 PUSH1 0x12 DUP4 PUSH2 0xBD6 JUMP JUMPDEST SWAP2 POP PUSH2 0xE8C DUP3 PUSH2 0xE4D JUMP JUMPDEST PUSH1 0x20 DUP3 ADD SWAP1 POP SWAP2 SWAP1 POP JUMP JUMPDEST PUSH0 PUSH1 0x20 DUP3 ADD SWAP1 POP DUP2 DUP2 SUB PUSH0 DUP4 ADD MSTORE PUSH2 0xEAE DUP2 PUSH2 0xE75 JUMP JUMPDEST SWAP1 POP SWAP2 SWAP1 POP JUMP JUMPDEST PUSH32 0x546172676574206973206E6F7420726561636865640000000000000000000000 PUSH0 DUP3 ADD MSTORE POP JUMP JUMPDEST PUSH0 PUSH2 0xEE9 PUSH1 0x15 DUP4 PUSH2 0xBD6 JUMP JUMPDEST SWAP2 POP PUSH2 0xEF4 DUP3 PUSH2 0xEB5 JUMP JUMPDEST PUSH1 0x20 DUP3 ADD SWAP1 POP SWAP2 SWAP1 POP JUMP JUMPDEST PUSH0 PUSH1 0x20 DUP3 ADD SWAP1 POP DUP2 DUP2 SUB PUSH0 DUP4 ADD MSTORE PUSH2 0xF16 DUP2 PUSH2 0xEDD JUMP JUMPDEST SWAP1 POP SWAP2 SWAP1 POP JUMP JUMPDEST PUSH32 0x53656E64206D6F72652045544800000000000000000000000000000000000000 PUSH0 DUP3 ADD MSTORE POP JUMP JUMPDEST PUSH0 PUSH2 0xF51 PUSH1 0xD DUP4 PUSH2 0xBD6 JUMP JUMPDEST SWAP2 POP PUSH2 0xF5C DUP3 PUSH2 0xF1D JUMP JUMPDEST PUSH1 0x20 DUP3 ADD SWAP1 POP SWAP2 SWAP1 POP JUMP JUMPDEST PUSH0 PUSH1 0x20 DUP3 ADD SWAP1 POP DUP2 DUP2 SUB PUSH0 DUP4 ADD MSTORE PUSH2 0xF7E DUP2 PUSH2 0xF45 JUMP JUMPDEST SWAP1 POP SWAP2 SWAP1 POP JUMP JUMPDEST PUSH32 0x77696E646F7720697320636C6F73650000000000000000000000000000000000 PUSH0 DUP3 ADD MSTORE POP JUMP JUMPDEST PUSH0 PUSH2 0xFB9 PUSH1 0xF DUP4 PUSH2 0xBD6 JUMP JUMPDEST SWAP2 POP PUSH2 0xFC4 DUP3 PUSH2 0xF85 JUMP JUMPDEST PUSH1 0x20 DUP3 ADD SWAP1 POP SWAP2 SWAP1 POP JUMP JUMPDEST PUSH0 PUSH1 0x20 DUP3 ADD SWAP1 POP DUP2 DUP2 SUB PUSH0 DUP4 ADD MSTORE PUSH2 0xFE6 DUP2 PUSH2 0xFAD JUMP JUMPDEST SWAP1 POP SWAP2 SWAP1 POP JUMP JUMPDEST PUSH0 PUSH10 0xFFFFFFFFFFFFFFFFFFFF DUP3 AND SWAP1 POP SWAP2 SWAP1 POP JUMP JUMPDEST PUSH2 0x100B DUP2 PUSH2 0xFED JUMP JUMPDEST DUP2 EQ PUSH2 0x1015 JUMPI PUSH0 DUP1 REVERT JUMPDEST POP JUMP JUMPDEST PUSH0 DUP2 MLOAD SWAP1 POP PUSH2 0x1026 DUP2 PUSH2 0x1002 JUMP JUMPDEST SWAP3 SWAP2 POP POP JUMP JUMPDEST PUSH2 0x1035 DUP2 PUSH2 0xB3D JUMP JUMPDEST DUP2 EQ PUSH2 0x103F JUMPI PUSH0 DUP1 REVERT JUMPDEST POP JUMP JUMPDEST PUSH0 DUP2 MLOAD SWAP1 POP PUSH2 0x1050 DUP2 PUSH2 0x102C JUMP JUMPDEST SWAP3 SWAP2 POP POP JUMP JUMPDEST PUSH0 DUP2 MLOAD SWAP1 POP PUSH2 0x1064 DUP2 PUSH2 0xB6E JUMP JUMPDEST SWAP3 SWAP2 POP POP JUMP JUMPDEST PUSH0 DUP1 PUSH0 DUP1 PUSH0 PUSH1 0xA0 DUP7 DUP9 SUB SLT ISZERO PUSH2 0x1083 JUMPI PUSH2 0x1082 PUSH2 0xA5B JUMP JUMPDEST JUMPDEST PUSH0 PUSH2 0x1090 DUP9 DUP3 DUP10 ADD PUSH2 0x1018 JUMP JUMPDEST SWAP6 POP POP PUSH1 0x20 PUSH2 0x10A1 DUP9 DUP3 DUP10 ADD PUSH2 0x1042 JUMP JUMPDEST SWAP5 POP POP PUSH1 0x40 PUSH2 0x10B2 DUP9 DUP3 DUP10 ADD PUSH2 0x1056 JUMP JUMPDEST SWAP4 POP POP PUSH1 0x60 PUSH2 0x10C3 DUP9 DUP3 DUP10 ADD PUSH2 0x1056 JUMP JUMPDEST SWAP3 POP POP PUSH1 0x80 PUSH2 0x10D4 DUP9 DUP3 DUP10 ADD PUSH2 0x1018 JUMP JUMPDEST SWAP2 POP POP SWAP3 SWAP6 POP SWAP3 SWAP6 SWAP1 SWAP4 POP JUMP JUMPDEST PUSH32 0x796F7520646F206E6F742068617665207065726D697373696F6E20746F206361 PUSH0 DUP3 ADD MSTORE PUSH32 0x6C6C20746869732066756E74696F6E0000000000000000000000000000000000 PUSH1 0x20 DUP3 ADD MSTORE POP JUMP JUMPDEST PUSH0 PUSH2 0x113B PUSH1 0x2F DUP4 PUSH2 0xBD6 JUMP JUMPDEST SWAP2 POP PUSH2 0x1146 DUP3 PUSH2 0x10E1 JUMP JUMPDEST PUSH1 0x40 DUP3 ADD SWAP1 POP SWAP2 SWAP1 POP JUMP JUMPDEST PUSH0 PUSH1 0x20 DUP3 ADD SWAP1 POP DUP2 DUP2 SUB PUSH0 DUP4 ADD MSTORE PUSH2 0x1168 DUP2 PUSH2 0x112F JUMP JUMPDEST SWAP1 POP SWAP2 SWAP1 POP JUMP JUMPDEST PUSH0 PUSH2 0x1179 DUP3 PUSH2 0xB0C JUMP JUMPDEST SWAP2 POP PUSH2 0x1184 DUP4 PUSH2 0xB0C JUMP JUMPDEST SWAP3 POP DUP3 DUP3 MUL PUSH2 0x1192 DUP2 PUSH2 0xB0C JUMP JUMPDEST SWAP2 POP DUP3 DUP3 DIV DUP5 EQ DUP4 ISZERO OR PUSH2 0x11A9 JUMPI PUSH2 0x11A8 PUSH2 0xC74 JUMP JUMPDEST JUMPDEST POP SWAP3 SWAP2 POP POP JUMP JUMPDEST PUSH32 0x4E487B7100000000000000000000000000000000000000000000000000000000 PUSH0 MSTORE PUSH1 0x12 PUSH1 0x4 MSTORE PUSH1 0x24 PUSH0 REVERT JUMPDEST PUSH0 PUSH2 0x11E7 DUP3 PUSH2 0xB0C JUMP JUMPDEST SWAP2 POP PUSH2 0x11F2 DUP4 PUSH2 0xB0C JUMP JUMPDEST SWAP3 POP DUP3 PUSH2 0x1202 JUMPI PUSH2 0x1201 PUSH2 0x11B0 JUMP JUMPDEST JUMPDEST DUP3 DUP3 DIV SWAP1 POP SWAP3 SWAP2 POP POP JUMP INVALID LOG2 PUSH5 0x6970667358 0x22 SLT KECCAK256 0xD4 DUP6 0xD9 SWAP10 CALLDATASIZE 0xC3 SAR 0xB4 0xBE 0xE2 0xA8 PUSH4 0xEA5043B4 0xEE 0xB2 0xBE 0xC BYTE MSTORE 0xF8 PUSH24 0x2694E06286BC855064736F6C634300081A00330000000000 "
				},
				"gasEstimates": {
					"creation": {
						"codeDepositCost": "935000",
						"executionCost": "infinite",
						"totalCost": "infinite"
					},
					"external": {
						"fund()": "infinite",
						"fundersToAmount(address)": "2801",
						"getChainlinkDataFeedLatestAnswer()": "infinite",
						"getFund()": "infinite",
						"owner()": "2553",
						"refund()": "infinite",
						"setErc20Addr(address)": "26885",
						"setFunderToAmount(address,uint256)": "25057",
						"transferOwnership(address)": "26972"
					},
					"internal": {
						"convertEthToUsd(uint256)": "infinite"
					}
				},
				"methodIdentifiers": {
					"fund()": "b60d4288",
					"fundersToAmount(address)": "9f883a05",
					"getChainlinkDataFeedLatestAnswer()": "bea4dfb5",
					"getFund()": "8edd6eb6",
					"owner()": "8da5cb5b",
					"refund()": "590e1ae3",
					"setErc20Addr(address)": "13ffff01",
					"setFunderToAmount(address,uint256)": "d39cf006",
					"transferOwnership(address)": "f2fde38b"
				}
			},
			"storageLayout": {
				"storage": [
					{
						"astId": 53,
						"contract": "fundme/FundMe.sol:FundMe",
						"label": "fundersToAmount",
						"offset": 0,
						"slot": "0",
						"type": "t_mapping(t_address,t_uint256)"
					},
					{
						"astId": 56,
						"contract": "fundme/FundMe.sol:FundMe",
						"label": "dataFeed",
						"offset": 0,
						"slot": "1",
						"type": "t_contract(AggregatorV3Interface)45"
					},
					{
						"astId": 72,
						"contract": "fundme/FundMe.sol:FundMe",
						"label": "owner",
						"offset": 0,
						"slot": "2",
						"type": "t_address"
					},
					{
						"astId": 74,
						"contract": "fundme/FundMe.sol:FundMe",
						"label": "deploymentTimestamp",
						"offset": 0,
						"slot": "3",
						"type": "t_uint256"
					},
					{
						"astId": 76,
						"contract": "fundme/FundMe.sol:FundMe",
						"label": "lockTime",
						"offset": 0,
						"slot": "4",
						"type": "t_uint256"
					},
					{
						"astId": 78,
						"contract": "fundme/FundMe.sol:FundMe",
						"label": "erc20Addr",
						"offset": 0,
						"slot": "5",
						"type": "t_address"
					}
				],
				"types": {
					"t_address": {
						"encoding": "inplace",
						"label": "address",
						"numberOfBytes": "20"
					},
					"t_contract(AggregatorV3Interface)45": {
						"encoding": "inplace",
						"label": "contract AggregatorV3Interface",
						"numberOfBytes": "20"
					},
					"t_mapping(t_address,t_uint256)": {
						"encoding": "mapping",
						"key": "t_address",
						"label": "mapping(address => uint256)",
						"numberOfBytes": "32",
						"value": "t_uint256"
					},
					"t_uint256": {
						"encoding": "inplace",
						"label": "uint256",
						"numberOfBytes": "32"
					}
				}
			},
			"userdoc": {
				"kind": "user",
				"methods": {},
				"version": 1
			}
		}
	}
}