{
	"fundme/FundMe.sol": {
		"FundMe": {
			"abi": [
				{
					"inputs": [
						{
							"internalType": "uint256",
							"name": "_lockTime",
							"type": "uint256"
						}
					],
					"stateMutability": "nonpayable",
					"type": "constructor"
				},
				{
					"inputs": [],
					"name": "fund",
					"outputs": [],
					"stateMutability": "payable",
					"type": "function"
				},
				{
					"inputs": [
						{
							"internalType": "address",
							"name": "",
							"type": "address"
						}
					],
					"name": "fundersToAmount",
					"outputs": [
						{
							"internalType": "uint256",
							"name": "",
							"type": "uint256"
						}
					],
					"stateMutability": "view",
					"type": "function"
				},
				{
					"inputs": [],
					"name": "getChainlinkDataFeedLatestAnswer",
					"outputs": [
						{
							"internalType": "int256",
							"name": "",
							"type": "int256"
						}
					],
					"stateMutability": "view",
					"type": "function"
				},
				{
					"inputs": [],
					"name": "getFund",
					"outputs": [],
					"stateMutability": "nonpayable",
					"type": "function"
				},
				{
					"inputs": [],
					"name": "owner",
					"outputs": [
						{
							"internalType": "address",
							"name": "",
							"type": "address"
						}
					],
					"stateMutability": "view",
					"type": "function"
				},
				{
					"inputs": [],
					"name": "refund",
					"outputs": [],
					"stateMutability": "nonpayable",
					"type": "function"
				},
				{
					"inputs": [
						{
							"internalType": "address",
							"name": "newOwner",
							"type": "address"
						}
					],
					"name": "transferOwnership",
					"outputs": [],
					"stateMutability": "nonpayable",
					"type": "function"
				}
			],
			"devdoc": {
				"kind": "dev",
				"methods": {},
				"version": 1
			},
			"evm": {
				"assembly": "    /* \"fundme/FundMe.sol\":630:7981  contract FundMe {... */\n  mstore(0x40, 0x80)\n    /* \"fundme/FundMe.sol\":1542:2582  constructor(uint256 _lockTime) {... */\n  callvalue\n  dup1\n  iszero\n  tag_1\n  jumpi\n  0x00\n  dup1\n  revert\ntag_1:\n  pop\n  mload(0x40)\n  sub(codesize, bytecodeSize)\n  dup1\n  bytecodeSize\n  dup4\n  codecopy\n  dup2\n  dup2\n  add\n  0x40\n  mstore\n  dup2\n  add\n  swap1\n  tag_2\n  swap2\n  swap1\n  tag_3\n  jump\t// in\ntag_2:\n    /* \"fundme/FundMe.sol\":2067:2109  0x694AA1769357215DE4FAC081bf1f309aDC325306 */\n  0x694aa1769357215de4fac081bf1f309adc325306\n    /* \"fundme/FundMe.sol\":2034:2042  dataFeed */\n  0x01\n  0x00\n    /* \"fundme/FundMe.sol\":2034:2110  dataFeed = AggregatorV3Interface(0x694AA1769357215DE4FAC081bf1f309aDC325306) */\n  0x0100\n  exp\n  dup2\n  sload\n  dup2\n  0xffffffffffffffffffffffffffffffffffffffff\n  mul\n  not\n  and\n  swap1\n  dup4\n  0xffffffffffffffffffffffffffffffffffffffff\n  and\n  mul\n  or\n  swap1\n  sstore\n  pop\n    /* \"fundme/FundMe.sol\":2261:2271  msg.sender */\n  caller\n    /* \"fundme/FundMe.sol\":2253:2258  owner */\n  0x02\n  0x00\n    /* \"fundme/FundMe.sol\":2253:2271  owner = msg.sender */\n  0x0100\n  exp\n  dup2\n  sload\n  dup2\n  0xffffffffffffffffffffffffffffffffffffffff\n  mul\n  not\n  and\n  swap1\n  dup4\n  0xffffffffffffffffffffffffffffffffffffffff\n  and\n  mul\n  or\n  swap1\n  sstore\n  pop\n    /* \"fundme/FundMe.sol\":2528:2543  block.timestamp */\n  timestamp\n    /* \"fundme/FundMe.sol\":2506:2525  deploymentTimestamp */\n  0x03\n    /* \"fundme/FundMe.sol\":2506:2543  deploymentTimestamp = block.timestamp */\n  dup2\n  swap1\n  sstore\n  pop\n    /* \"fundme/FundMe.sol\":2565:2574  _lockTime */\n  dup1\n    /* \"fundme/FundMe.sol\":2554:2562  lockTime */\n  0x04\n    /* \"fundme/FundMe.sol\":2554:2574  lockTime = _lockTime */\n  dup2\n  swap1\n  sstore\n  pop\n    /* \"fundme/FundMe.sol\":1542:2582  constructor(uint256 _lockTime) {... */\n  pop\n    /* \"fundme/FundMe.sol\":630:7981  contract FundMe {... */\n  jump(tag_6)\n    /* \"#utility.yul\":88:205   */\ntag_8:\n    /* \"#utility.yul\":197:198   */\n  0x00\n    /* \"#utility.yul\":194:195   */\n  dup1\n    /* \"#utility.yul\":187:199   */\n  revert\n    /* \"#utility.yul\":334:411   */\ntag_10:\n    /* \"#utility.yul\":371:378   */\n  0x00\n    /* \"#utility.yul\":400:405   */\n  dup2\n    /* \"#utility.yul\":389:405   */\n  swap1\n  pop\n    /* \"#utility.yul\":334:411   */\n  swap2\n  swap1\n  pop\n  jump\t// out\n    /* \"#utility.yul\":417:539   */\ntag_11:\n    /* \"#utility.yul\":490:514   */\n  tag_19\n    /* \"#utility.yul\":508:513   */\n  dup2\n    /* \"#utility.yul\":490:514   */\n  tag_10\n  jump\t// in\ntag_19:\n    /* \"#utility.yul\":483:488   */\n  dup2\n    /* \"#utility.yul\":480:515   */\n  eq\n    /* \"#utility.yul\":470:533   */\n  tag_20\n  jumpi\n    /* \"#utility.yul\":529:530   */\n  0x00\n    /* \"#utility.yul\":526:527   */\n  dup1\n    /* \"#utility.yul\":519:531   */\n  revert\n    /* \"#utility.yul\":470:533   */\ntag_20:\n    /* \"#utility.yul\":417:539   */\n  pop\n  jump\t// out\n    /* \"#utility.yul\":545:688   */\ntag_12:\n    /* \"#utility.yul\":602:607   */\n  0x00\n    /* \"#utility.yul\":633:639   */\n  dup2\n    /* \"#utility.yul\":627:640   */\n  mload\n    /* \"#utility.yul\":618:640   */\n  swap1\n  pop\n    /* \"#utility.yul\":649:682   */\n  tag_22\n    /* \"#utility.yul\":676:681   */\n  dup2\n    /* \"#utility.yul\":649:682   */\n  tag_11\n  jump\t// in\ntag_22:\n    /* \"#utility.yul\":545:688   */\n  swap3\n  swap2\n  pop\n  pop\n  jump\t// out\n    /* \"#utility.yul\":694:1045   */\ntag_3:\n    /* \"#utility.yul\":764:770   */\n  0x00\n    /* \"#utility.yul\":813:815   */\n  0x20\n    /* \"#utility.yul\":801:810   */\n  dup3\n    /* \"#utility.yul\":792:799   */\n  dup5\n    /* \"#utility.yul\":788:811   */\n  sub\n    /* \"#utility.yul\":784:816   */\n  slt\n    /* \"#utility.yul\":781:900   */\n  iszero\n  tag_24\n  jumpi\n    /* \"#utility.yul\":819:898   */\n  tag_25\n  tag_8\n  jump\t// in\ntag_25:\n    /* \"#utility.yul\":781:900   */\ntag_24:\n    /* \"#utility.yul\":939:940   */\n  0x00\n    /* \"#utility.yul\":964:1028   */\n  tag_26\n    /* \"#utility.yul\":1020:1027   */\n  dup5\n    /* \"#utility.yul\":1011:1017   */\n  dup3\n    /* \"#utility.yul\":1000:1009   */\n  dup6\n    /* \"#utility.yul\":996:1018   */\n  add\n    /* \"#utility.yul\":964:1028   */\n  tag_12\n  jump\t// in\ntag_26:\n    /* \"#utility.yul\":954:1028   */\n  swap2\n  pop\n    /* \"#utility.yul\":910:1038   */\n  pop\n    /* \"#utility.yul\":694:1045   */\n  swap3\n  swap2\n  pop\n  pop\n  jump\t// out\n    /* \"fundme/FundMe.sol\":630:7981  contract FundMe {... */\ntag_6:\n  dataSize(sub_0)\n  dup1\n  dataOffset(sub_0)\n  0x00\n  codecopy\n  0x00\n  return\nstop\n\nsub_0: assembly {\n        /* \"fundme/FundMe.sol\":630:7981  contract FundMe {... */\n      mstore(0x40, 0x80)\n      jumpi(tag_1, lt(calldatasize, 0x04))\n      shr(0xe0, calldataload(0x00))\n      dup1\n      0x9f883a05\n      gt\n      tag_9\n      jumpi\n      dup1\n      0x9f883a05\n      eq\n      tag_5\n      jumpi\n      dup1\n      0xb60d4288\n      eq\n      tag_6\n      jumpi\n      dup1\n      0xbea4dfb5\n      eq\n      tag_7\n      jumpi\n      dup1\n      0xf2fde38b\n      eq\n      tag_8\n      jumpi\n      jump(tag_1)\n    tag_9:\n      dup1\n      0x590e1ae3\n      eq\n      tag_2\n      jumpi\n      dup1\n      0x8da5cb5b\n      eq\n      tag_3\n      jumpi\n      dup1\n      0x8edd6eb6\n      eq\n      tag_4\n      jumpi\n    tag_1:\n      0x00\n      dup1\n      revert\n        /* \"fundme/FundMe.sol\":7170:7976  function refund() external {... */\n    tag_2:\n      callvalue\n      dup1\n      iszero\n      tag_10\n      jumpi\n      0x00\n      dup1\n      revert\n    tag_10:\n      pop\n      tag_11\n      tag_12\n      jump\t// in\n    tag_11:\n      stop\n        /* \"fundme/FundMe.sol\":1364:1384  address public owner */\n    tag_3:\n      callvalue\n      dup1\n      iszero\n      tag_13\n      jumpi\n      0x00\n      dup1\n      revert\n    tag_13:\n      pop\n      tag_14\n      tag_15\n      jump\t// in\n    tag_14:\n      mload(0x40)\n      tag_16\n      swap2\n      swap1\n      tag_17\n      jump\t// in\n    tag_16:\n      mload(0x40)\n      dup1\n      swap2\n      sub\n      swap1\n      return\n        /* \"fundme/FundMe.sol\":5007:7078  function getFund() external {... */\n    tag_4:\n      callvalue\n      dup1\n      iszero\n      tag_18\n      jumpi\n      0x00\n      dup1\n      revert\n    tag_18:\n      pop\n      tag_19\n      tag_20\n      jump\t// in\n    tag_19:\n      stop\n        /* \"fundme/FundMe.sol\":655:705  mapping(address => uint256) public fundersToAmount */\n    tag_5:\n      callvalue\n      dup1\n      iszero\n      tag_21\n      jumpi\n      0x00\n      dup1\n      revert\n    tag_21:\n      pop\n      tag_22\n      0x04\n      dup1\n      calldatasize\n      sub\n      dup2\n      add\n      swap1\n      tag_23\n      swap2\n      swap1\n      tag_24\n      jump\t// in\n    tag_23:\n      tag_25\n      jump\t// in\n    tag_22:\n      mload(0x40)\n      tag_26\n      swap2\n      swap1\n      tag_27\n      jump\t// in\n    tag_26:\n      mload(0x40)\n      dup1\n      swap2\n      sub\n      swap1\n      return\n        /* \"fundme/FundMe.sol\":2925:3573  function fund() external payable {... */\n    tag_6:\n      tag_28\n      tag_29\n      jump\t// in\n    tag_28:\n      stop\n        /* \"fundme/FundMe.sol\":3702:4050  function getChainlinkDataFeedLatestAnswer() public view returns (int) {... */\n    tag_7:\n      callvalue\n      dup1\n      iszero\n      tag_30\n      jumpi\n      0x00\n      dup1\n      revert\n    tag_30:\n      pop\n      tag_31\n      tag_32\n      jump\t// in\n    tag_31:\n      mload(0x40)\n      tag_33\n      swap2\n      swap1\n      tag_34\n      jump\t// in\n    tag_33:\n      mload(0x40)\n      dup1\n      swap2\n      sub\n      swap1\n      return\n        /* \"fundme/FundMe.sol\":4621:4859  function transferOwnership(address newOwner) public {... */\n    tag_8:\n      callvalue\n      dup1\n      iszero\n      tag_35\n      jumpi\n      0x00\n      dup1\n      revert\n    tag_35:\n      pop\n      tag_36\n      0x04\n      dup1\n      calldatasize\n      sub\n      dup2\n      add\n      swap1\n      tag_37\n      swap2\n      swap1\n      tag_24\n      jump\t// in\n    tag_37:\n      tag_38\n      jump\t// in\n    tag_36:\n      stop\n        /* \"fundme/FundMe.sol\":7170:7976  function refund() external {... */\n    tag_12:\n        /* \"fundme/FundMe.sol\":1316:1331  1000 * 10 ** 18 */\n      0x3635c9adc5dea00000\n        /* \"fundme/FundMe.sol\":7216:7254  convertEthToUsd(address(this).balance) */\n      tag_40\n        /* \"fundme/FundMe.sol\":7232:7253  address(this).balance */\n      selfbalance\n        /* \"fundme/FundMe.sol\":7216:7231  convertEthToUsd */\n      tag_41\n        /* \"fundme/FundMe.sol\":7216:7254  convertEthToUsd(address(this).balance) */\n      jump\t// in\n    tag_40:\n        /* \"fundme/FundMe.sol\":7216:7263  convertEthToUsd(address(this).balance) < TARGET */\n      lt\n        /* \"fundme/FundMe.sol\":7208:7285  require(convertEthToUsd(address(this).balance) < TARGET, \"Target is reached\") */\n      tag_42\n      jumpi\n      mload(0x40)\n      0x08c379a000000000000000000000000000000000000000000000000000000000\n      dup2\n      mstore\n      0x04\n      add\n      tag_43\n      swap1\n      tag_44\n      jump\t// in\n    tag_43:\n      mload(0x40)\n      dup1\n      swap2\n      sub\n      swap1\n      revert\n    tag_42:\n        /* \"fundme/FundMe.sol\":7426:7427  0 */\n      0x00\n        /* \"fundme/FundMe.sol\":7395:7410  fundersToAmount */\n      dup1\n        /* \"fundme/FundMe.sol\":7395:7422  fundersToAmount[msg.sender] */\n      0x00\n        /* \"fundme/FundMe.sol\":7411:7421  msg.sender */\n      caller\n        /* \"fundme/FundMe.sol\":7395:7422  fundersToAmount[msg.sender] */\n      0xffffffffffffffffffffffffffffffffffffffff\n      and\n      0xffffffffffffffffffffffffffffffffffffffff\n      and\n      dup2\n      mstore\n      0x20\n      add\n      swap1\n      dup2\n      mstore\n      0x20\n      add\n      0x00\n      keccak256\n      sload\n        /* \"fundme/FundMe.sol\":7395:7427  fundersToAmount[msg.sender] != 0 */\n      sub\n        /* \"fundme/FundMe.sol\":7387:7456  require(fundersToAmount[msg.sender] != 0, \"there is no fund for you\") */\n      tag_45\n      jumpi\n      mload(0x40)\n      0x08c379a000000000000000000000000000000000000000000000000000000000\n      dup2\n      mstore\n      0x04\n      add\n      tag_46\n      swap1\n      tag_47\n      jump\t// in\n    tag_46:\n      mload(0x40)\n      dup1\n      swap2\n      sub\n      swap1\n      revert\n    tag_45:\n        /* \"fundme/FundMe.sol\":7516:7524  lockTime */\n      sload(0x04)\n        /* \"fundme/FundMe.sol\":7494:7513  deploymentTimestamp */\n      sload(0x03)\n        /* \"fundme/FundMe.sol\":7494:7524  deploymentTimestamp + lockTime */\n      tag_48\n      swap2\n      swap1\n      tag_49\n      jump\t// in\n    tag_48:\n        /* \"fundme/FundMe.sol\":7475:7490  block.timestamp */\n      timestamp\n        /* \"fundme/FundMe.sol\":7475:7524  block.timestamp >= deploymentTimestamp + lockTime */\n      lt\n      iszero\n        /* \"fundme/FundMe.sol\":7467:7548  require(block.timestamp >= deploymentTimestamp + lockTime, \"window is not close\") */\n      tag_50\n      jumpi\n      mload(0x40)\n      0x08c379a000000000000000000000000000000000000000000000000000000000\n      dup2\n      mstore\n      0x04\n      add\n      tag_51\n      swap1\n      tag_52\n      jump\t// in\n    tag_51:\n      mload(0x40)\n      dup1\n      swap2\n      sub\n      swap1\n      revert\n    tag_50:\n        /* \"fundme/FundMe.sol\":7561:7573  bool success */\n      0x00\n        /* \"fundme/FundMe.sol\":7652:7662  msg.sender */\n      caller\n        /* \"fundme/FundMe.sol\":7644:7668  payable(msg.sender).call */\n      0xffffffffffffffffffffffffffffffffffffffff\n      and\n        /* \"fundme/FundMe.sol\":7676:7691  fundersToAmount */\n      0x00\n        /* \"fundme/FundMe.sol\":7676:7703  fundersToAmount[msg.sender] */\n      dup1\n        /* \"fundme/FundMe.sol\":7692:7702  msg.sender */\n      caller\n        /* \"fundme/FundMe.sol\":7676:7703  fundersToAmount[msg.sender] */\n      0xffffffffffffffffffffffffffffffffffffffff\n      and\n      0xffffffffffffffffffffffffffffffffffffffff\n      and\n      dup2\n      mstore\n      0x20\n      add\n      swap1\n      dup2\n      mstore\n      0x20\n      add\n      0x00\n      keccak256\n      sload\n        /* \"fundme/FundMe.sol\":7644:7708  payable(msg.sender).call{value: fundersToAmount[msg.sender]}(\"\") */\n      mload(0x40)\n      tag_53\n      swap1\n      tag_54\n      jump\t// in\n    tag_53:\n      0x00\n      mload(0x40)\n      dup1\n      dup4\n      sub\n      dup2\n      dup6\n      dup8\n      gas\n      call\n      swap3\n      pop\n      pop\n      pop\n      returndatasize\n      dup1\n      0x00\n      dup2\n      eq\n      tag_57\n      jumpi\n      mload(0x40)\n      swap2\n      pop\n      and(add(returndatasize, 0x3f), not(0x1f))\n      dup3\n      add\n      0x40\n      mstore\n      returndatasize\n      dup3\n      mstore\n      returndatasize\n      0x00\n      0x20\n      dup5\n      add\n      returndatacopy\n      jump(tag_56)\n    tag_57:\n      0x60\n      swap2\n      pop\n    tag_56:\n      pop\n        /* \"fundme/FundMe.sol\":7630:7708  (success, ) = payable(msg.sender).call{value: fundersToAmount[msg.sender]}(\"\") */\n      pop\n      dup1\n      swap2\n      pop\n      pop\n        /* \"fundme/FundMe.sol\":7831:7838  success */\n      dup1\n        /* \"fundme/FundMe.sol\":7823:7861  require(success, \"transfer tx failed\") */\n      tag_58\n      jumpi\n      mload(0x40)\n      0x08c379a000000000000000000000000000000000000000000000000000000000\n      dup2\n      mstore\n      0x04\n      add\n      tag_59\n      swap1\n      tag_60\n      jump\t// in\n    tag_59:\n      mload(0x40)\n      dup1\n      swap2\n      sub\n      swap1\n      revert\n    tag_58:\n        /* \"fundme/FundMe.sol\":7967:7968  0 */\n      0x00\n        /* \"fundme/FundMe.sol\":7937:7952  fundersToAmount */\n      dup1\n        /* \"fundme/FundMe.sol\":7937:7964  fundersToAmount[msg.sender] */\n      0x00\n        /* \"fundme/FundMe.sol\":7953:7963  msg.sender */\n      caller\n        /* \"fundme/FundMe.sol\":7937:7964  fundersToAmount[msg.sender] */\n      0xffffffffffffffffffffffffffffffffffffffff\n      and\n      0xffffffffffffffffffffffffffffffffffffffff\n      and\n      dup2\n      mstore\n      0x20\n      add\n      swap1\n      dup2\n      mstore\n      0x20\n      add\n      0x00\n      keccak256\n        /* \"fundme/FundMe.sol\":7937:7968  fundersToAmount[msg.sender] = 0 */\n      dup2\n      swap1\n      sstore\n      pop\n        /* \"fundme/FundMe.sol\":7197:7976  {... */\n      pop\n        /* \"fundme/FundMe.sol\":7170:7976  function refund() external {... */\n      jump\t// out\n        /* \"fundme/FundMe.sol\":1364:1384  address public owner */\n    tag_15:\n      0x02\n      0x00\n      swap1\n      sload\n      swap1\n      0x0100\n      exp\n      swap1\n      div\n      0xffffffffffffffffffffffffffffffffffffffff\n      and\n      dup2\n      jump\t// out\n        /* \"fundme/FundMe.sol\":5007:7078  function getFund() external {... */\n    tag_20:\n        /* \"fundme/FundMe.sol\":1316:1331  1000 * 10 ** 18 */\n      0x3635c9adc5dea00000\n        /* \"fundme/FundMe.sol\":5198:5236  convertEthToUsd(address(this).balance) */\n      tag_62\n        /* \"fundme/FundMe.sol\":5214:5235  address(this).balance */\n      selfbalance\n        /* \"fundme/FundMe.sol\":5198:5213  convertEthToUsd */\n      tag_41\n        /* \"fundme/FundMe.sol\":5198:5236  convertEthToUsd(address(this).balance) */\n      jump\t// in\n    tag_62:\n        /* \"fundme/FundMe.sol\":5198:5273  convertEthToUsd(address(this).balance) /*balance的单位是wei*/ >= TARGET */\n      lt\n      iszero\n        /* \"fundme/FundMe.sol\":5190:5299  require(convertEthToUsd(address(this).balance) /*balance的单位是wei*/ >= TARGET, \"Target is not reached\") */\n      tag_63\n      jumpi\n      mload(0x40)\n      0x08c379a000000000000000000000000000000000000000000000000000000000\n      dup2\n      mstore\n      0x04\n      add\n      tag_64\n      swap1\n      tag_65\n      jump\t// in\n    tag_64:\n      mload(0x40)\n      dup1\n      swap2\n      sub\n      swap1\n      revert\n    tag_63:\n        /* \"fundme/FundMe.sol\":5378:5383  owner */\n      0x02\n      0x00\n      swap1\n      sload\n      swap1\n      0x0100\n      exp\n      swap1\n      div\n      0xffffffffffffffffffffffffffffffffffffffff\n      and\n        /* \"fundme/FundMe.sol\":5364:5383  msg.sender == owner */\n      0xffffffffffffffffffffffffffffffffffffffff\n      and\n        /* \"fundme/FundMe.sol\":5364:5374  msg.sender */\n      caller\n        /* \"fundme/FundMe.sol\":5364:5383  msg.sender == owner */\n      0xffffffffffffffffffffffffffffffffffffffff\n      and\n      eq\n        /* \"fundme/FundMe.sol\":5356:5429  require(msg.sender == owner, \"this function can only be called by owner\") */\n      tag_66\n      jumpi\n      mload(0x40)\n      0x08c379a000000000000000000000000000000000000000000000000000000000\n      dup2\n      mstore\n      0x04\n      add\n      tag_67\n      swap1\n      tag_68\n      jump\t// in\n    tag_67:\n      mload(0x40)\n      dup1\n      swap2\n      sub\n      swap1\n      revert\n    tag_66:\n        /* \"fundme/FundMe.sol\":5489:5497  lockTime */\n      sload(0x04)\n        /* \"fundme/FundMe.sol\":5467:5486  deploymentTimestamp */\n      sload(0x03)\n        /* \"fundme/FundMe.sol\":5467:5497  deploymentTimestamp + lockTime */\n      tag_69\n      swap2\n      swap1\n      tag_49\n      jump\t// in\n    tag_69:\n        /* \"fundme/FundMe.sol\":5448:5463  block.timestamp */\n      timestamp\n        /* \"fundme/FundMe.sol\":5448:5497  block.timestamp >= deploymentTimestamp + lockTime */\n      lt\n      iszero\n        /* \"fundme/FundMe.sol\":5440:5521  require(block.timestamp >= deploymentTimestamp + lockTime, \"window is not close\") */\n      tag_70\n      jumpi\n      mload(0x40)\n      0x08c379a000000000000000000000000000000000000000000000000000000000\n      dup2\n      mstore\n      0x04\n      add\n      tag_71\n      swap1\n      tag_52\n      jump\t// in\n    tag_71:\n      mload(0x40)\n      dup1\n      swap2\n      sub\n      swap1\n      revert\n    tag_70:\n        /* \"fundme/FundMe.sol\":6715:6727  bool success */\n      0x00\n        /* \"fundme/FundMe.sol\":6760:6770  msg.sender */\n      caller\n        /* \"fundme/FundMe.sol\":6752:6776  payable(msg.sender).call */\n      0xffffffffffffffffffffffffffffffffffffffff\n      and\n        /* \"fundme/FundMe.sol\":6784:6805  address(this).balance */\n      selfbalance\n        /* \"fundme/FundMe.sol\":6752:6810  payable(msg.sender).call{value: address(this).balance}(\"\") */\n      mload(0x40)\n      tag_72\n      swap1\n      tag_54\n      jump\t// in\n    tag_72:\n      0x00\n      mload(0x40)\n      dup1\n      dup4\n      sub\n      dup2\n      dup6\n      dup8\n      gas\n      call\n      swap3\n      pop\n      pop\n      pop\n      returndatasize\n      dup1\n      0x00\n      dup2\n      eq\n      tag_75\n      jumpi\n      mload(0x40)\n      swap2\n      pop\n      and(add(returndatasize, 0x3f), not(0x1f))\n      dup3\n      add\n      0x40\n      mstore\n      returndatasize\n      dup3\n      mstore\n      returndatasize\n      0x00\n      0x20\n      dup5\n      add\n      returndatacopy\n      jump(tag_74)\n    tag_75:\n      0x60\n      swap2\n      pop\n    tag_74:\n      pop\n        /* \"fundme/FundMe.sol\":6738:6810  (success, ) = payable(msg.sender).call{value: address(this).balance}(\"\") */\n      pop\n      dup1\n      swap2\n      pop\n      pop\n        /* \"fundme/FundMe.sol\":6933:6940  success */\n      dup1\n        /* \"fundme/FundMe.sol\":6925:6963  require(success, \"transfer tx failed\") */\n      tag_76\n      jumpi\n      mload(0x40)\n      0x08c379a000000000000000000000000000000000000000000000000000000000\n      dup2\n      mstore\n      0x04\n      add\n      tag_77\n      swap1\n      tag_60\n      jump\t// in\n    tag_77:\n      mload(0x40)\n      dup1\n      swap2\n      sub\n      swap1\n      revert\n    tag_76:\n        /* \"fundme/FundMe.sol\":5035:7078  {... */\n      pop\n        /* \"fundme/FundMe.sol\":5007:7078  function getFund() external {... */\n      jump\t// out\n        /* \"fundme/FundMe.sol\":655:705  mapping(address => uint256) public fundersToAmount */\n    tag_25:\n      mstore(0x20, 0x00)\n      dup1\n      0x00\n      mstore\n      keccak256(0x00, 0x40)\n      0x00\n      swap2\n      pop\n      swap1\n      pop\n      sload\n      dup2\n      jump\t// out\n        /* \"fundme/FundMe.sol\":2925:3573  function fund() external payable {... */\n    tag_29:\n        /* \"fundme/FundMe.sol\":1086:1100  100 * 10 ** 18 */\n      0x056bc75e2d63100000\n        /* \"fundme/FundMe.sol\":3192:3218  convertEthToUsd(msg.value) */\n      tag_79\n        /* \"fundme/FundMe.sol\":3208:3217  msg.value */\n      callvalue\n        /* \"fundme/FundMe.sol\":3192:3207  convertEthToUsd */\n      tag_41\n        /* \"fundme/FundMe.sol\":3192:3218  convertEthToUsd(msg.value) */\n      jump\t// in\n    tag_79:\n        /* \"fundme/FundMe.sol\":3192:3235  convertEthToUsd(msg.value) >= MINIMUM_VALUE */\n      lt\n      iszero\n        /* \"fundme/FundMe.sol\":3184:3253  require(convertEthToUsd(msg.value) >= MINIMUM_VALUE, \"Send more ETH\") */\n      tag_80\n      jumpi\n      mload(0x40)\n      0x08c379a000000000000000000000000000000000000000000000000000000000\n      dup2\n      mstore\n      0x04\n      add\n      tag_81\n      swap1\n      tag_82\n      jump\t// in\n    tag_81:\n      mload(0x40)\n      dup1\n      swap2\n      sub\n      swap1\n      revert\n    tag_80:\n        /* \"fundme/FundMe.sol\":3415:3423  lockTime */\n      sload(0x04)\n        /* \"fundme/FundMe.sol\":3393:3412  deploymentTimestamp */\n      sload(0x03)\n        /* \"fundme/FundMe.sol\":3393:3423  deploymentTimestamp + lockTime */\n      tag_83\n      swap2\n      swap1\n      tag_49\n      jump\t// in\n    tag_83:\n        /* \"fundme/FundMe.sol\":3375:3390  block.timestamp */\n      timestamp\n        /* \"fundme/FundMe.sol\":3375:3423  block.timestamp < deploymentTimestamp + lockTime */\n      lt\n        /* \"fundme/FundMe.sol\":3367:3443  require(block.timestamp < deploymentTimestamp + lockTime, \"window is close\") */\n      tag_84\n      jumpi\n      mload(0x40)\n      0x08c379a000000000000000000000000000000000000000000000000000000000\n      dup2\n      mstore\n      0x04\n      add\n      tag_85\n      swap1\n      tag_86\n      jump\t// in\n    tag_85:\n      mload(0x40)\n      dup1\n      swap2\n      sub\n      swap1\n      revert\n    tag_84:\n        /* \"fundme/FundMe.sol\":3556:3565  msg.value */\n      callvalue\n        /* \"fundme/FundMe.sol\":3526:3541  fundersToAmount */\n      0x00\n        /* \"fundme/FundMe.sol\":3526:3553  fundersToAmount[msg.sender] */\n      dup1\n        /* \"fundme/FundMe.sol\":3542:3552  msg.sender */\n      caller\n        /* \"fundme/FundMe.sol\":3526:3553  fundersToAmount[msg.sender] */\n      0xffffffffffffffffffffffffffffffffffffffff\n      and\n      0xffffffffffffffffffffffffffffffffffffffff\n      and\n      dup2\n      mstore\n      0x20\n      add\n      swap1\n      dup2\n      mstore\n      0x20\n      add\n      0x00\n      keccak256\n        /* \"fundme/FundMe.sol\":3526:3565  fundersToAmount[msg.sender] = msg.value */\n      dup2\n      swap1\n      sstore\n      pop\n        /* \"fundme/FundMe.sol\":2925:3573  function fund() external payable {... */\n      jump\t// out\n        /* \"fundme/FundMe.sol\":3702:4050  function getChainlinkDataFeedLatestAnswer() public view returns (int) {... */\n    tag_32:\n        /* \"fundme/FundMe.sol\":3767:3770  int */\n      0x00\n        /* \"fundme/FundMe.sol\":3861:3871  int answer */\n      dup1\n        /* \"fundme/FundMe.sol\":3992:4000  dataFeed */\n      0x01\n      0x00\n      swap1\n      sload\n      swap1\n      0x0100\n      exp\n      swap1\n      div\n      0xffffffffffffffffffffffffffffffffffffffff\n      and\n        /* \"fundme/FundMe.sol\":3992:4016  dataFeed.latestRoundData */\n      0xffffffffffffffffffffffffffffffffffffffff\n      and\n      0xfeaf968c\n        /* \"fundme/FundMe.sol\":3992:4018  dataFeed.latestRoundData() */\n      mload(0x40)\n      dup2\n      0xffffffff\n      and\n      0xe0\n      shl\n      dup2\n      mstore\n      0x04\n      add\n      0xa0\n      mload(0x40)\n      dup1\n      dup4\n      sub\n      dup2\n      dup7\n      gas\n      staticcall\n      iszero\n      dup1\n      iszero\n      tag_89\n      jumpi\n      returndatasize\n      0x00\n      dup1\n      returndatacopy\n      revert(0x00, returndatasize)\n    tag_89:\n      pop\n      pop\n      pop\n      pop\n      mload(0x40)\n      returndatasize\n      not(0x1f)\n      0x1f\n      dup3\n      add\n      and\n      dup3\n      add\n      dup1\n      0x40\n      mstore\n      pop\n      dup2\n      add\n      swap1\n      tag_90\n      swap2\n      swap1\n      tag_91\n      jump\t// in\n    tag_90:\n        /* \"fundme/FundMe.sol\":3811:4018  (... */\n      pop\n      pop\n      pop\n      swap2\n      pop\n      pop\n        /* \"fundme/FundMe.sol\":4036:4042  answer */\n      dup1\n        /* \"fundme/FundMe.sol\":4029:4042  return answer */\n      swap2\n      pop\n      pop\n        /* \"fundme/FundMe.sol\":3702:4050  function getChainlinkDataFeedLatestAnswer() public view returns (int) {... */\n      swap1\n      jump\t// out\n        /* \"fundme/FundMe.sol\":4621:4859  function transferOwnership(address newOwner) public {... */\n    tag_38:\n        /* \"fundme/FundMe.sol\":4773:4778  owner */\n      0x02\n      0x00\n      swap1\n      sload\n      swap1\n      0x0100\n      exp\n      swap1\n      div\n      0xffffffffffffffffffffffffffffffffffffffff\n      and\n        /* \"fundme/FundMe.sol\":4759:4778  msg.sender == owner */\n      0xffffffffffffffffffffffffffffffffffffffff\n      and\n        /* \"fundme/FundMe.sol\":4759:4769  msg.sender */\n      caller\n        /* \"fundme/FundMe.sol\":4759:4778  msg.sender == owner */\n      0xffffffffffffffffffffffffffffffffffffffff\n      and\n      eq\n        /* \"fundme/FundMe.sol\":4751:4824  require(msg.sender == owner, \"this function can only be called by owner\") */\n      tag_93\n      jumpi\n      mload(0x40)\n      0x08c379a000000000000000000000000000000000000000000000000000000000\n      dup2\n      mstore\n      0x04\n      add\n      tag_94\n      swap1\n      tag_68\n      jump\t// in\n    tag_94:\n      mload(0x40)\n      dup1\n      swap2\n      sub\n      swap1\n      revert\n    tag_93:\n        /* \"fundme/FundMe.sol\":4843:4851  newOwner */\n      dup1\n        /* \"fundme/FundMe.sol\":4835:4840  owner */\n      0x02\n      0x00\n        /* \"fundme/FundMe.sol\":4835:4851  owner = newOwner */\n      0x0100\n      exp\n      dup2\n      sload\n      dup2\n      0xffffffffffffffffffffffffffffffffffffffff\n      mul\n      not\n      and\n      swap1\n      dup4\n      0xffffffffffffffffffffffffffffffffffffffff\n      and\n      mul\n      or\n      swap1\n      sstore\n      pop\n        /* \"fundme/FundMe.sol\":4621:4859  function transferOwnership(address newOwner) public {... */\n      pop\n      jump\t// out\n        /* \"fundme/FundMe.sol\":4100:4583  function convertEthToUsd(uint256 ethAmount) internal view returns (uint256) {... */\n    tag_41:\n        /* \"fundme/FundMe.sol\":4167:4174  uint256 */\n      0x00\n        /* \"fundme/FundMe.sol\":4228:4244  uint256 ethPrice */\n      dup1\n        /* \"fundme/FundMe.sol\":4255:4289  getChainlinkDataFeedLatestAnswer() */\n      tag_96\n        /* \"fundme/FundMe.sol\":4255:4287  getChainlinkDataFeedLatestAnswer */\n      tag_32\n        /* \"fundme/FundMe.sol\":4255:4289  getChainlinkDataFeedLatestAnswer() */\n      jump\t// in\n    tag_96:\n        /* \"fundme/FundMe.sol\":4228:4290  uint256 ethPrice = uint256(getChainlinkDataFeedLatestAnswer()) */\n      swap1\n      pop\n        /* \"fundme/FundMe.sol\":4565:4572  10 ** 8 */\n      0x05f5e100\n        /* \"fundme/FundMe.sol\":4553:4561  ethPrice */\n      dup2\n        /* \"fundme/FundMe.sol\":4541:4550  ethAmount */\n      dup5\n        /* \"fundme/FundMe.sol\":4541:4561  ethAmount * ethPrice */\n      tag_97\n      swap2\n      swap1\n      tag_98\n      jump\t// in\n    tag_97:\n        /* \"fundme/FundMe.sol\":4541:4573  ethAmount * ethPrice / (10 ** 8) */\n      tag_99\n      swap2\n      swap1\n      tag_100\n      jump\t// in\n    tag_99:\n        /* \"fundme/FundMe.sol\":4534:4573  return ethAmount * ethPrice / (10 ** 8) */\n      swap2\n      pop\n      pop\n        /* \"fundme/FundMe.sol\":4100:4583  function convertEthToUsd(uint256 ethAmount) internal view returns (uint256) {... */\n      swap2\n      swap1\n      pop\n      jump\t// out\n        /* \"#utility.yul\":7:133   */\n    tag_101:\n        /* \"#utility.yul\":44:51   */\n      0x00\n        /* \"#utility.yul\":84:126   */\n      0xffffffffffffffffffffffffffffffffffffffff\n        /* \"#utility.yul\":77:82   */\n      dup3\n        /* \"#utility.yul\":73:127   */\n      and\n        /* \"#utility.yul\":62:127   */\n      swap1\n      pop\n        /* \"#utility.yul\":7:133   */\n      swap2\n      swap1\n      pop\n      jump\t// out\n        /* \"#utility.yul\":139:235   */\n    tag_102:\n        /* \"#utility.yul\":176:183   */\n      0x00\n        /* \"#utility.yul\":205:229   */\n      tag_145\n        /* \"#utility.yul\":223:228   */\n      dup3\n        /* \"#utility.yul\":205:229   */\n      tag_101\n      jump\t// in\n    tag_145:\n        /* \"#utility.yul\":194:229   */\n      swap1\n      pop\n        /* \"#utility.yul\":139:235   */\n      swap2\n      swap1\n      pop\n      jump\t// out\n        /* \"#utility.yul\":241:359   */\n    tag_103:\n        /* \"#utility.yul\":328:352   */\n      tag_147\n        /* \"#utility.yul\":346:351   */\n      dup2\n        /* \"#utility.yul\":328:352   */\n      tag_102\n      jump\t// in\n    tag_147:\n        /* \"#utility.yul\":323:326   */\n      dup3\n        /* \"#utility.yul\":316:353   */\n      mstore\n        /* \"#utility.yul\":241:359   */\n      pop\n      pop\n      jump\t// out\n        /* \"#utility.yul\":365:587   */\n    tag_17:\n        /* \"#utility.yul\":458:462   */\n      0x00\n        /* \"#utility.yul\":496:498   */\n      0x20\n        /* \"#utility.yul\":485:494   */\n      dup3\n        /* \"#utility.yul\":481:499   */\n      add\n        /* \"#utility.yul\":473:499   */\n      swap1\n      pop\n        /* \"#utility.yul\":509:580   */\n      tag_149\n        /* \"#utility.yul\":577:578   */\n      0x00\n        /* \"#utility.yul\":566:575   */\n      dup4\n        /* \"#utility.yul\":562:579   */\n      add\n        /* \"#utility.yul\":553:559   */\n      dup5\n        /* \"#utility.yul\":509:580   */\n      tag_103\n      jump\t// in\n    tag_149:\n        /* \"#utility.yul\":365:587   */\n      swap3\n      swap2\n      pop\n      pop\n      jump\t// out\n        /* \"#utility.yul\":674:791   */\n    tag_105:\n        /* \"#utility.yul\":783:784   */\n      0x00\n        /* \"#utility.yul\":780:781   */\n      dup1\n        /* \"#utility.yul\":773:785   */\n      revert\n        /* \"#utility.yul\":920:1042   */\n    tag_107:\n        /* \"#utility.yul\":993:1017   */\n      tag_154\n        /* \"#utility.yul\":1011:1016   */\n      dup2\n        /* \"#utility.yul\":993:1017   */\n      tag_102\n      jump\t// in\n    tag_154:\n        /* \"#utility.yul\":986:991   */\n      dup2\n        /* \"#utility.yul\":983:1018   */\n      eq\n        /* \"#utility.yul\":973:1036   */\n      tag_155\n      jumpi\n        /* \"#utility.yul\":1032:1033   */\n      0x00\n        /* \"#utility.yul\":1029:1030   */\n      dup1\n        /* \"#utility.yul\":1022:1034   */\n      revert\n        /* \"#utility.yul\":973:1036   */\n    tag_155:\n        /* \"#utility.yul\":920:1042   */\n      pop\n      jump\t// out\n        /* \"#utility.yul\":1048:1187   */\n    tag_108:\n        /* \"#utility.yul\":1094:1099   */\n      0x00\n        /* \"#utility.yul\":1132:1138   */\n      dup2\n        /* \"#utility.yul\":1119:1139   */\n      calldataload\n        /* \"#utility.yul\":1110:1139   */\n      swap1\n      pop\n        /* \"#utility.yul\":1148:1181   */\n      tag_157\n        /* \"#utility.yul\":1175:1180   */\n      dup2\n        /* \"#utility.yul\":1148:1181   */\n      tag_107\n      jump\t// in\n    tag_157:\n        /* \"#utility.yul\":1048:1187   */\n      swap3\n      swap2\n      pop\n      pop\n      jump\t// out\n        /* \"#utility.yul\":1193:1522   */\n    tag_24:\n        /* \"#utility.yul\":1252:1258   */\n      0x00\n        /* \"#utility.yul\":1301:1303   */\n      0x20\n        /* \"#utility.yul\":1289:1298   */\n      dup3\n        /* \"#utility.yul\":1280:1287   */\n      dup5\n        /* \"#utility.yul\":1276:1299   */\n      sub\n        /* \"#utility.yul\":1272:1304   */\n      slt\n        /* \"#utility.yul\":1269:1388   */\n      iszero\n      tag_159\n      jumpi\n        /* \"#utility.yul\":1307:1386   */\n      tag_160\n      tag_105\n      jump\t// in\n    tag_160:\n        /* \"#utility.yul\":1269:1388   */\n    tag_159:\n        /* \"#utility.yul\":1427:1428   */\n      0x00\n        /* \"#utility.yul\":1452:1505   */\n      tag_161\n        /* \"#utility.yul\":1497:1504   */\n      dup5\n        /* \"#utility.yul\":1488:1494   */\n      dup3\n        /* \"#utility.yul\":1477:1486   */\n      dup6\n        /* \"#utility.yul\":1473:1495   */\n      add\n        /* \"#utility.yul\":1452:1505   */\n      tag_108\n      jump\t// in\n    tag_161:\n        /* \"#utility.yul\":1442:1505   */\n      swap2\n      pop\n        /* \"#utility.yul\":1398:1515   */\n      pop\n        /* \"#utility.yul\":1193:1522   */\n      swap3\n      swap2\n      pop\n      pop\n      jump\t// out\n        /* \"#utility.yul\":1528:1605   */\n    tag_109:\n        /* \"#utility.yul\":1565:1572   */\n      0x00\n        /* \"#utility.yul\":1594:1599   */\n      dup2\n        /* \"#utility.yul\":1583:1599   */\n      swap1\n      pop\n        /* \"#utility.yul\":1528:1605   */\n      swap2\n      swap1\n      pop\n      jump\t// out\n        /* \"#utility.yul\":1611:1729   */\n    tag_110:\n        /* \"#utility.yul\":1698:1722   */\n      tag_164\n        /* \"#utility.yul\":1716:1721   */\n      dup2\n        /* \"#utility.yul\":1698:1722   */\n      tag_109\n      jump\t// in\n    tag_164:\n        /* \"#utility.yul\":1693:1696   */\n      dup3\n        /* \"#utility.yul\":1686:1723   */\n      mstore\n        /* \"#utility.yul\":1611:1729   */\n      pop\n      pop\n      jump\t// out\n        /* \"#utility.yul\":1735:1957   */\n    tag_27:\n        /* \"#utility.yul\":1828:1832   */\n      0x00\n        /* \"#utility.yul\":1866:1868   */\n      0x20\n        /* \"#utility.yul\":1855:1864   */\n      dup3\n        /* \"#utility.yul\":1851:1869   */\n      add\n        /* \"#utility.yul\":1843:1869   */\n      swap1\n      pop\n        /* \"#utility.yul\":1879:1950   */\n      tag_166\n        /* \"#utility.yul\":1947:1948   */\n      0x00\n        /* \"#utility.yul\":1936:1945   */\n      dup4\n        /* \"#utility.yul\":1932:1949   */\n      add\n        /* \"#utility.yul\":1923:1929   */\n      dup5\n        /* \"#utility.yul\":1879:1950   */\n      tag_110\n      jump\t// in\n    tag_166:\n        /* \"#utility.yul\":1735:1957   */\n      swap3\n      swap2\n      pop\n      pop\n      jump\t// out\n        /* \"#utility.yul\":1963:2039   */\n    tag_111:\n        /* \"#utility.yul\":1999:2006   */\n      0x00\n        /* \"#utility.yul\":2028:2033   */\n      dup2\n        /* \"#utility.yul\":2017:2033   */\n      swap1\n      pop\n        /* \"#utility.yul\":1963:2039   */\n      swap2\n      swap1\n      pop\n      jump\t// out\n        /* \"#utility.yul\":2045:2160   */\n    tag_112:\n        /* \"#utility.yul\":2130:2153   */\n      tag_169\n        /* \"#utility.yul\":2147:2152   */\n      dup2\n        /* \"#utility.yul\":2130:2153   */\n      tag_111\n      jump\t// in\n    tag_169:\n        /* \"#utility.yul\":2125:2128   */\n      dup3\n        /* \"#utility.yul\":2118:2154   */\n      mstore\n        /* \"#utility.yul\":2045:2160   */\n      pop\n      pop\n      jump\t// out\n        /* \"#utility.yul\":2166:2384   */\n    tag_34:\n        /* \"#utility.yul\":2257:2261   */\n      0x00\n        /* \"#utility.yul\":2295:2297   */\n      0x20\n        /* \"#utility.yul\":2284:2293   */\n      dup3\n        /* \"#utility.yul\":2280:2298   */\n      add\n        /* \"#utility.yul\":2272:2298   */\n      swap1\n      pop\n        /* \"#utility.yul\":2308:2377   */\n      tag_171\n        /* \"#utility.yul\":2374:2375   */\n      0x00\n        /* \"#utility.yul\":2363:2372   */\n      dup4\n        /* \"#utility.yul\":2359:2376   */\n      add\n        /* \"#utility.yul\":2350:2356   */\n      dup5\n        /* \"#utility.yul\":2308:2377   */\n      tag_112\n      jump\t// in\n    tag_171:\n        /* \"#utility.yul\":2166:2384   */\n      swap3\n      swap2\n      pop\n      pop\n      jump\t// out\n        /* \"#utility.yul\":2390:2559   */\n    tag_113:\n        /* \"#utility.yul\":2474:2485   */\n      0x00\n        /* \"#utility.yul\":2508:2514   */\n      dup3\n        /* \"#utility.yul\":2503:2506   */\n      dup3\n        /* \"#utility.yul\":2496:2515   */\n      mstore\n        /* \"#utility.yul\":2548:2552   */\n      0x20\n        /* \"#utility.yul\":2543:2546   */\n      dup3\n        /* \"#utility.yul\":2539:2553   */\n      add\n        /* \"#utility.yul\":2524:2553   */\n      swap1\n      pop\n        /* \"#utility.yul\":2390:2559   */\n      swap3\n      swap2\n      pop\n      pop\n      jump\t// out\n        /* \"#utility.yul\":2565:2732   */\n    tag_114:\n        /* \"#utility.yul\":2705:2724   */\n      0x5461726765742069732072656163686564000000000000000000000000000000\n        /* \"#utility.yul\":2701:2702   */\n      0x00\n        /* \"#utility.yul\":2693:2699   */\n      dup3\n        /* \"#utility.yul\":2689:2703   */\n      add\n        /* \"#utility.yul\":2682:2725   */\n      mstore\n        /* \"#utility.yul\":2565:2732   */\n      pop\n      jump\t// out\n        /* \"#utility.yul\":2738:3104   */\n    tag_115:\n        /* \"#utility.yul\":2880:2883   */\n      0x00\n        /* \"#utility.yul\":2901:2968   */\n      tag_175\n        /* \"#utility.yul\":2965:2967   */\n      0x11\n        /* \"#utility.yul\":2960:2963   */\n      dup4\n        /* \"#utility.yul\":2901:2968   */\n      tag_113\n      jump\t// in\n    tag_175:\n        /* \"#utility.yul\":2894:2968   */\n      swap2\n      pop\n        /* \"#utility.yul\":2977:3070   */\n      tag_176\n        /* \"#utility.yul\":3066:3069   */\n      dup3\n        /* \"#utility.yul\":2977:3070   */\n      tag_114\n      jump\t// in\n    tag_176:\n        /* \"#utility.yul\":3095:3097   */\n      0x20\n        /* \"#utility.yul\":3090:3093   */\n      dup3\n        /* \"#utility.yul\":3086:3098   */\n      add\n        /* \"#utility.yul\":3079:3098   */\n      swap1\n      pop\n        /* \"#utility.yul\":2738:3104   */\n      swap2\n      swap1\n      pop\n      jump\t// out\n        /* \"#utility.yul\":3110:3529   */\n    tag_44:\n        /* \"#utility.yul\":3276:3280   */\n      0x00\n        /* \"#utility.yul\":3314:3316   */\n      0x20\n        /* \"#utility.yul\":3303:3312   */\n      dup3\n        /* \"#utility.yul\":3299:3317   */\n      add\n        /* \"#utility.yul\":3291:3317   */\n      swap1\n      pop\n        /* \"#utility.yul\":3363:3372   */\n      dup2\n        /* \"#utility.yul\":3357:3361   */\n      dup2\n        /* \"#utility.yul\":3353:3373   */\n      sub\n        /* \"#utility.yul\":3349:3350   */\n      0x00\n        /* \"#utility.yul\":3338:3347   */\n      dup4\n        /* \"#utility.yul\":3334:3351   */\n      add\n        /* \"#utility.yul\":3327:3374   */\n      mstore\n        /* \"#utility.yul\":3391:3522   */\n      tag_178\n        /* \"#utility.yul\":3517:3521   */\n      dup2\n        /* \"#utility.yul\":3391:3522   */\n      tag_115\n      jump\t// in\n    tag_178:\n        /* \"#utility.yul\":3383:3522   */\n      swap1\n      pop\n        /* \"#utility.yul\":3110:3529   */\n      swap2\n      swap1\n      pop\n      jump\t// out\n        /* \"#utility.yul\":3535:3709   */\n    tag_116:\n        /* \"#utility.yul\":3675:3701   */\n      0x7468657265206973206e6f2066756e6420666f7220796f750000000000000000\n        /* \"#utility.yul\":3671:3672   */\n      0x00\n        /* \"#utility.yul\":3663:3669   */\n      dup3\n        /* \"#utility.yul\":3659:3673   */\n      add\n        /* \"#utility.yul\":3652:3702   */\n      mstore\n        /* \"#utility.yul\":3535:3709   */\n      pop\n      jump\t// out\n        /* \"#utility.yul\":3715:4081   */\n    tag_117:\n        /* \"#utility.yul\":3857:3860   */\n      0x00\n        /* \"#utility.yul\":3878:3945   */\n      tag_181\n        /* \"#utility.yul\":3942:3944   */\n      0x18\n        /* \"#utility.yul\":3937:3940   */\n      dup4\n        /* \"#utility.yul\":3878:3945   */\n      tag_113\n      jump\t// in\n    tag_181:\n        /* \"#utility.yul\":3871:3945   */\n      swap2\n      pop\n        /* \"#utility.yul\":3954:4047   */\n      tag_182\n        /* \"#utility.yul\":4043:4046   */\n      dup3\n        /* \"#utility.yul\":3954:4047   */\n      tag_116\n      jump\t// in\n    tag_182:\n        /* \"#utility.yul\":4072:4074   */\n      0x20\n        /* \"#utility.yul\":4067:4070   */\n      dup3\n        /* \"#utility.yul\":4063:4075   */\n      add\n        /* \"#utility.yul\":4056:4075   */\n      swap1\n      pop\n        /* \"#utility.yul\":3715:4081   */\n      swap2\n      swap1\n      pop\n      jump\t// out\n        /* \"#utility.yul\":4087:4506   */\n    tag_47:\n        /* \"#utility.yul\":4253:4257   */\n      0x00\n        /* \"#utility.yul\":4291:4293   */\n      0x20\n        /* \"#utility.yul\":4280:4289   */\n      dup3\n        /* \"#utility.yul\":4276:4294   */\n      add\n        /* \"#utility.yul\":4268:4294   */\n      swap1\n      pop\n        /* \"#utility.yul\":4340:4349   */\n      dup2\n        /* \"#utility.yul\":4334:4338   */\n      dup2\n        /* \"#utility.yul\":4330:4350   */\n      sub\n        /* \"#utility.yul\":4326:4327   */\n      0x00\n        /* \"#utility.yul\":4315:4324   */\n      dup4\n        /* \"#utility.yul\":4311:4328   */\n      add\n        /* \"#utility.yul\":4304:4351   */\n      mstore\n        /* \"#utility.yul\":4368:4499   */\n      tag_184\n        /* \"#utility.yul\":4494:4498   */\n      dup2\n        /* \"#utility.yul\":4368:4499   */\n      tag_117\n      jump\t// in\n    tag_184:\n        /* \"#utility.yul\":4360:4499   */\n      swap1\n      pop\n        /* \"#utility.yul\":4087:4506   */\n      swap2\n      swap1\n      pop\n      jump\t// out\n        /* \"#utility.yul\":4512:4692   */\n    tag_118:\n        /* \"#utility.yul\":4560:4637   */\n      0x4e487b7100000000000000000000000000000000000000000000000000000000\n        /* \"#utility.yul\":4557:4558   */\n      0x00\n        /* \"#utility.yul\":4550:4638   */\n      mstore\n        /* \"#utility.yul\":4657:4661   */\n      0x11\n        /* \"#utility.yul\":4654:4655   */\n      0x04\n        /* \"#utility.yul\":4647:4662   */\n      mstore\n        /* \"#utility.yul\":4681:4685   */\n      0x24\n        /* \"#utility.yul\":4678:4679   */\n      0x00\n        /* \"#utility.yul\":4671:4686   */\n      revert\n        /* \"#utility.yul\":4698:4889   */\n    tag_49:\n        /* \"#utility.yul\":4738:4741   */\n      0x00\n        /* \"#utility.yul\":4757:4777   */\n      tag_187\n        /* \"#utility.yul\":4775:4776   */\n      dup3\n        /* \"#utility.yul\":4757:4777   */\n      tag_109\n      jump\t// in\n    tag_187:\n        /* \"#utility.yul\":4752:4777   */\n      swap2\n      pop\n        /* \"#utility.yul\":4791:4811   */\n      tag_188\n        /* \"#utility.yul\":4809:4810   */\n      dup4\n        /* \"#utility.yul\":4791:4811   */\n      tag_109\n      jump\t// in\n    tag_188:\n        /* \"#utility.yul\":4786:4811   */\n      swap3\n      pop\n        /* \"#utility.yul\":4834:4835   */\n      dup3\n        /* \"#utility.yul\":4831:4832   */\n      dup3\n        /* \"#utility.yul\":4827:4836   */\n      add\n        /* \"#utility.yul\":4820:4836   */\n      swap1\n      pop\n        /* \"#utility.yul\":4855:4858   */\n      dup1\n        /* \"#utility.yul\":4852:4853   */\n      dup3\n        /* \"#utility.yul\":4849:4859   */\n      gt\n        /* \"#utility.yul\":4846:4882   */\n      iszero\n      tag_189\n      jumpi\n        /* \"#utility.yul\":4862:4880   */\n      tag_190\n      tag_118\n      jump\t// in\n    tag_190:\n        /* \"#utility.yul\":4846:4882   */\n    tag_189:\n        /* \"#utility.yul\":4698:4889   */\n      swap3\n      swap2\n      pop\n      pop\n      jump\t// out\n        /* \"#utility.yul\":4895:5064   */\n    tag_119:\n        /* \"#utility.yul\":5035:5056   */\n      0x77696e646f77206973206e6f7420636c6f736500000000000000000000000000\n        /* \"#utility.yul\":5031:5032   */\n      0x00\n        /* \"#utility.yul\":5023:5029   */\n      dup3\n        /* \"#utility.yul\":5019:5033   */\n      add\n        /* \"#utility.yul\":5012:5057   */\n      mstore\n        /* \"#utility.yul\":4895:5064   */\n      pop\n      jump\t// out\n        /* \"#utility.yul\":5070:5436   */\n    tag_120:\n        /* \"#utility.yul\":5212:5215   */\n      0x00\n        /* \"#utility.yul\":5233:5300   */\n      tag_193\n        /* \"#utility.yul\":5297:5299   */\n      0x13\n        /* \"#utility.yul\":5292:5295   */\n      dup4\n        /* \"#utility.yul\":5233:5300   */\n      tag_113\n      jump\t// in\n    tag_193:\n        /* \"#utility.yul\":5226:5300   */\n      swap2\n      pop\n        /* \"#utility.yul\":5309:5402   */\n      tag_194\n        /* \"#utility.yul\":5398:5401   */\n      dup3\n        /* \"#utility.yul\":5309:5402   */\n      tag_119\n      jump\t// in\n    tag_194:\n        /* \"#utility.yul\":5427:5429   */\n      0x20\n        /* \"#utility.yul\":5422:5425   */\n      dup3\n        /* \"#utility.yul\":5418:5430   */\n      add\n        /* \"#utility.yul\":5411:5430   */\n      swap1\n      pop\n        /* \"#utility.yul\":5070:5436   */\n      swap2\n      swap1\n      pop\n      jump\t// out\n        /* \"#utility.yul\":5442:5861   */\n    tag_52:\n        /* \"#utility.yul\":5608:5612   */\n      0x00\n        /* \"#utility.yul\":5646:5648   */\n      0x20\n        /* \"#utility.yul\":5635:5644   */\n      dup3\n        /* \"#utility.yul\":5631:5649   */\n      add\n        /* \"#utility.yul\":5623:5649   */\n      swap1\n      pop\n        /* \"#utility.yul\":5695:5704   */\n      dup2\n        /* \"#utility.yul\":5689:5693   */\n      dup2\n        /* \"#utility.yul\":5685:5705   */\n      sub\n        /* \"#utility.yul\":5681:5682   */\n      0x00\n        /* \"#utility.yul\":5670:5679   */\n      dup4\n        /* \"#utility.yul\":5666:5683   */\n      add\n        /* \"#utility.yul\":5659:5706   */\n      mstore\n        /* \"#utility.yul\":5723:5854   */\n      tag_196\n        /* \"#utility.yul\":5849:5853   */\n      dup2\n        /* \"#utility.yul\":5723:5854   */\n      tag_120\n      jump\t// in\n    tag_196:\n        /* \"#utility.yul\":5715:5854   */\n      swap1\n      pop\n        /* \"#utility.yul\":5442:5861   */\n      swap2\n      swap1\n      pop\n      jump\t// out\n        /* \"#utility.yul\":5867:6014   */\n    tag_121:\n        /* \"#utility.yul\":5968:5979   */\n      0x00\n        /* \"#utility.yul\":6005:6008   */\n      dup2\n        /* \"#utility.yul\":5990:6008   */\n      swap1\n      pop\n        /* \"#utility.yul\":5867:6014   */\n      swap3\n      swap2\n      pop\n      pop\n      jump\t// out\n        /* \"#utility.yul\":6020:6134   */\n    tag_122:\n      pop\n      jump\t// out\n        /* \"#utility.yul\":6140:6538   */\n    tag_123:\n        /* \"#utility.yul\":6299:6302   */\n      0x00\n        /* \"#utility.yul\":6320:6403   */\n      tag_200\n        /* \"#utility.yul\":6401:6402   */\n      0x00\n        /* \"#utility.yul\":6396:6399   */\n      dup4\n        /* \"#utility.yul\":6320:6403   */\n      tag_121\n      jump\t// in\n    tag_200:\n        /* \"#utility.yul\":6313:6403   */\n      swap2\n      pop\n        /* \"#utility.yul\":6412:6505   */\n      tag_201\n        /* \"#utility.yul\":6501:6504   */\n      dup3\n        /* \"#utility.yul\":6412:6505   */\n      tag_122\n      jump\t// in\n    tag_201:\n        /* \"#utility.yul\":6530:6531   */\n      0x00\n        /* \"#utility.yul\":6525:6528   */\n      dup3\n        /* \"#utility.yul\":6521:6532   */\n      add\n        /* \"#utility.yul\":6514:6532   */\n      swap1\n      pop\n        /* \"#utility.yul\":6140:6538   */\n      swap2\n      swap1\n      pop\n      jump\t// out\n        /* \"#utility.yul\":6544:6923   */\n    tag_54:\n        /* \"#utility.yul\":6728:6731   */\n      0x00\n        /* \"#utility.yul\":6750:6897   */\n      tag_203\n        /* \"#utility.yul\":6893:6896   */\n      dup3\n        /* \"#utility.yul\":6750:6897   */\n      tag_123\n      jump\t// in\n    tag_203:\n        /* \"#utility.yul\":6743:6897   */\n      swap2\n      pop\n        /* \"#utility.yul\":6914:6917   */\n      dup2\n        /* \"#utility.yul\":6907:6917   */\n      swap1\n      pop\n        /* \"#utility.yul\":6544:6923   */\n      swap2\n      swap1\n      pop\n      jump\t// out\n        /* \"#utility.yul\":6929:7097   */\n    tag_124:\n        /* \"#utility.yul\":7069:7089   */\n      0x7472616e73666572207478206661696c65640000000000000000000000000000\n        /* \"#utility.yul\":7065:7066   */\n      0x00\n        /* \"#utility.yul\":7057:7063   */\n      dup3\n        /* \"#utility.yul\":7053:7067   */\n      add\n        /* \"#utility.yul\":7046:7090   */\n      mstore\n        /* \"#utility.yul\":6929:7097   */\n      pop\n      jump\t// out\n        /* \"#utility.yul\":7103:7469   */\n    tag_125:\n        /* \"#utility.yul\":7245:7248   */\n      0x00\n        /* \"#utility.yul\":7266:7333   */\n      tag_206\n        /* \"#utility.yul\":7330:7332   */\n      0x12\n        /* \"#utility.yul\":7325:7328   */\n      dup4\n        /* \"#utility.yul\":7266:7333   */\n      tag_113\n      jump\t// in\n    tag_206:\n        /* \"#utility.yul\":7259:7333   */\n      swap2\n      pop\n        /* \"#utility.yul\":7342:7435   */\n      tag_207\n        /* \"#utility.yul\":7431:7434   */\n      dup3\n        /* \"#utility.yul\":7342:7435   */\n      tag_124\n      jump\t// in\n    tag_207:\n        /* \"#utility.yul\":7460:7462   */\n      0x20\n        /* \"#utility.yul\":7455:7458   */\n      dup3\n        /* \"#utility.yul\":7451:7463   */\n      add\n        /* \"#utility.yul\":7444:7463   */\n      swap1\n      pop\n        /* \"#utility.yul\":7103:7469   */\n      swap2\n      swap1\n      pop\n      jump\t// out\n        /* \"#utility.yul\":7475:7894   */\n    tag_60:\n        /* \"#utility.yul\":7641:7645   */\n      0x00\n        /* \"#utility.yul\":7679:7681   */\n      0x20\n        /* \"#utility.yul\":7668:7677   */\n      dup3\n        /* \"#utility.yul\":7664:7682   */\n      add\n        /* \"#utility.yul\":7656:7682   */\n      swap1\n      pop\n        /* \"#utility.yul\":7728:7737   */\n      dup2\n        /* \"#utility.yul\":7722:7726   */\n      dup2\n        /* \"#utility.yul\":7718:7738   */\n      sub\n        /* \"#utility.yul\":7714:7715   */\n      0x00\n        /* \"#utility.yul\":7703:7712   */\n      dup4\n        /* \"#utility.yul\":7699:7716   */\n      add\n        /* \"#utility.yul\":7692:7739   */\n      mstore\n        /* \"#utility.yul\":7756:7887   */\n      tag_209\n        /* \"#utility.yul\":7882:7886   */\n      dup2\n        /* \"#utility.yul\":7756:7887   */\n      tag_125\n      jump\t// in\n    tag_209:\n        /* \"#utility.yul\":7748:7887   */\n      swap1\n      pop\n        /* \"#utility.yul\":7475:7894   */\n      swap2\n      swap1\n      pop\n      jump\t// out\n        /* \"#utility.yul\":7900:8071   */\n    tag_126:\n        /* \"#utility.yul\":8040:8063   */\n      0x546172676574206973206e6f7420726561636865640000000000000000000000\n        /* \"#utility.yul\":8036:8037   */\n      0x00\n        /* \"#utility.yul\":8028:8034   */\n      dup3\n        /* \"#utility.yul\":8024:8038   */\n      add\n        /* \"#utility.yul\":8017:8064   */\n      mstore\n        /* \"#utility.yul\":7900:8071   */\n      pop\n      jump\t// out\n        /* \"#utility.yul\":8077:8443   */\n    tag_127:\n        /* \"#utility.yul\":8219:8222   */\n      0x00\n        /* \"#utility.yul\":8240:8307   */\n      tag_212\n        /* \"#utility.yul\":8304:8306   */\n      0x15\n        /* \"#utility.yul\":8299:8302   */\n      dup4\n        /* \"#utility.yul\":8240:8307   */\n      tag_113\n      jump\t// in\n    tag_212:\n        /* \"#utility.yul\":8233:8307   */\n      swap2\n      pop\n        /* \"#utility.yul\":8316:8409   */\n      tag_213\n        /* \"#utility.yul\":8405:8408   */\n      dup3\n        /* \"#utility.yul\":8316:8409   */\n      tag_126\n      jump\t// in\n    tag_213:\n        /* \"#utility.yul\":8434:8436   */\n      0x20\n        /* \"#utility.yul\":8429:8432   */\n      dup3\n        /* \"#utility.yul\":8425:8437   */\n      add\n        /* \"#utility.yul\":8418:8437   */\n      swap1\n      pop\n        /* \"#utility.yul\":8077:8443   */\n      swap2\n      swap1\n      pop\n      jump\t// out\n        /* \"#utility.yul\":8449:8868   */\n    tag_65:\n        /* \"#utility.yul\":8615:8619   */\n      0x00\n        /* \"#utility.yul\":8653:8655   */\n      0x20\n        /* \"#utility.yul\":8642:8651   */\n      dup3\n        /* \"#utility.yul\":8638:8656   */\n      add\n        /* \"#utility.yul\":8630:8656   */\n      swap1\n      pop\n        /* \"#utility.yul\":8702:8711   */\n      dup2\n        /* \"#utility.yul\":8696:8700   */\n      dup2\n        /* \"#utility.yul\":8692:8712   */\n      sub\n        /* \"#utility.yul\":8688:8689   */\n      0x00\n        /* \"#utility.yul\":8677:8686   */\n      dup4\n        /* \"#utility.yul\":8673:8690   */\n      add\n        /* \"#utility.yul\":8666:8713   */\n      mstore\n        /* \"#utility.yul\":8730:8861   */\n      tag_215\n        /* \"#utility.yul\":8856:8860   */\n      dup2\n        /* \"#utility.yul\":8730:8861   */\n      tag_127\n      jump\t// in\n    tag_215:\n        /* \"#utility.yul\":8722:8861   */\n      swap1\n      pop\n        /* \"#utility.yul\":8449:8868   */\n      swap2\n      swap1\n      pop\n      jump\t// out\n        /* \"#utility.yul\":8874:9102   */\n    tag_128:\n        /* \"#utility.yul\":9014:9048   */\n      0x746869732066756e6374696f6e2063616e206f6e6c792062652063616c6c6564\n        /* \"#utility.yul\":9010:9011   */\n      0x00\n        /* \"#utility.yul\":9002:9008   */\n      dup3\n        /* \"#utility.yul\":8998:9012   */\n      add\n        /* \"#utility.yul\":8991:9049   */\n      mstore\n        /* \"#utility.yul\":9083:9094   */\n      0x206279206f776e65720000000000000000000000000000000000000000000000\n        /* \"#utility.yul\":9078:9080   */\n      0x20\n        /* \"#utility.yul\":9070:9076   */\n      dup3\n        /* \"#utility.yul\":9066:9081   */\n      add\n        /* \"#utility.yul\":9059:9095   */\n      mstore\n        /* \"#utility.yul\":8874:9102   */\n      pop\n      jump\t// out\n        /* \"#utility.yul\":9108:9474   */\n    tag_129:\n        /* \"#utility.yul\":9250:9253   */\n      0x00\n        /* \"#utility.yul\":9271:9338   */\n      tag_218\n        /* \"#utility.yul\":9335:9337   */\n      0x29\n        /* \"#utility.yul\":9330:9333   */\n      dup4\n        /* \"#utility.yul\":9271:9338   */\n      tag_113\n      jump\t// in\n    tag_218:\n        /* \"#utility.yul\":9264:9338   */\n      swap2\n      pop\n        /* \"#utility.yul\":9347:9440   */\n      tag_219\n        /* \"#utility.yul\":9436:9439   */\n      dup3\n        /* \"#utility.yul\":9347:9440   */\n      tag_128\n      jump\t// in\n    tag_219:\n        /* \"#utility.yul\":9465:9467   */\n      0x40\n        /* \"#utility.yul\":9460:9463   */\n      dup3\n        /* \"#utility.yul\":9456:9468   */\n      add\n        /* \"#utility.yul\":9449:9468   */\n      swap1\n      pop\n        /* \"#utility.yul\":9108:9474   */\n      swap2\n      swap1\n      pop\n      jump\t// out\n        /* \"#utility.yul\":9480:9899   */\n    tag_68:\n        /* \"#utility.yul\":9646:9650   */\n      0x00\n        /* \"#utility.yul\":9684:9686   */\n      0x20\n        /* \"#utility.yul\":9673:9682   */\n      dup3\n        /* \"#utility.yul\":9669:9687   */\n      add\n        /* \"#utility.yul\":9661:9687   */\n      swap1\n      pop\n        /* \"#utility.yul\":9733:9742   */\n      dup2\n        /* \"#utility.yul\":9727:9731   */\n      dup2\n        /* \"#utility.yul\":9723:9743   */\n      sub\n        /* \"#utility.yul\":9719:9720   */\n      0x00\n        /* \"#utility.yul\":9708:9717   */\n      dup4\n        /* \"#utility.yul\":9704:9721   */\n      add\n        /* \"#utility.yul\":9697:9744   */\n      mstore\n        /* \"#utility.yul\":9761:9892   */\n      tag_221\n        /* \"#utility.yul\":9887:9891   */\n      dup2\n        /* \"#utility.yul\":9761:9892   */\n      tag_129\n      jump\t// in\n    tag_221:\n        /* \"#utility.yul\":9753:9892   */\n      swap1\n      pop\n        /* \"#utility.yul\":9480:9899   */\n      swap2\n      swap1\n      pop\n      jump\t// out\n        /* \"#utility.yul\":9905:10068   */\n    tag_130:\n        /* \"#utility.yul\":10045:10060   */\n      0x53656e64206d6f72652045544800000000000000000000000000000000000000\n        /* \"#utility.yul\":10041:10042   */\n      0x00\n        /* \"#utility.yul\":10033:10039   */\n      dup3\n        /* \"#utility.yul\":10029:10043   */\n      add\n        /* \"#utility.yul\":10022:10061   */\n      mstore\n        /* \"#utility.yul\":9905:10068   */\n      pop\n      jump\t// out\n        /* \"#utility.yul\":10074:10440   */\n    tag_131:\n        /* \"#utility.yul\":10216:10219   */\n      0x00\n        /* \"#utility.yul\":10237:10304   */\n      tag_224\n        /* \"#utility.yul\":10301:10303   */\n      0x0d\n        /* \"#utility.yul\":10296:10299   */\n      dup4\n        /* \"#utility.yul\":10237:10304   */\n      tag_113\n      jump\t// in\n    tag_224:\n        /* \"#utility.yul\":10230:10304   */\n      swap2\n      pop\n        /* \"#utility.yul\":10313:10406   */\n      tag_225\n        /* \"#utility.yul\":10402:10405   */\n      dup3\n        /* \"#utility.yul\":10313:10406   */\n      tag_130\n      jump\t// in\n    tag_225:\n        /* \"#utility.yul\":10431:10433   */\n      0x20\n        /* \"#utility.yul\":10426:10429   */\n      dup3\n        /* \"#utility.yul\":10422:10434   */\n      add\n        /* \"#utility.yul\":10415:10434   */\n      swap1\n      pop\n        /* \"#utility.yul\":10074:10440   */\n      swap2\n      swap1\n      pop\n      jump\t// out\n        /* \"#utility.yul\":10446:10865   */\n    tag_82:\n        /* \"#utility.yul\":10612:10616   */\n      0x00\n        /* \"#utility.yul\":10650:10652   */\n      0x20\n        /* \"#utility.yul\":10639:10648   */\n      dup3\n        /* \"#utility.yul\":10635:10653   */\n      add\n        /* \"#utility.yul\":10627:10653   */\n      swap1\n      pop\n        /* \"#utility.yul\":10699:10708   */\n      dup2\n        /* \"#utility.yul\":10693:10697   */\n      dup2\n        /* \"#utility.yul\":10689:10709   */\n      sub\n        /* \"#utility.yul\":10685:10686   */\n      0x00\n        /* \"#utility.yul\":10674:10683   */\n      dup4\n        /* \"#utility.yul\":10670:10687   */\n      add\n        /* \"#utility.yul\":10663:10710   */\n      mstore\n        /* \"#utility.yul\":10727:10858   */\n      tag_227\n        /* \"#utility.yul\":10853:10857   */\n      dup2\n        /* \"#utility.yul\":10727:10858   */\n      tag_131\n      jump\t// in\n    tag_227:\n        /* \"#utility.yul\":10719:10858   */\n      swap1\n      pop\n        /* \"#utility.yul\":10446:10865   */\n      swap2\n      swap1\n      pop\n      jump\t// out\n        /* \"#utility.yul\":10871:11036   */\n    tag_132:\n        /* \"#utility.yul\":11011:11028   */\n      0x77696e646f7720697320636c6f73650000000000000000000000000000000000\n        /* \"#utility.yul\":11007:11008   */\n      0x00\n        /* \"#utility.yul\":10999:11005   */\n      dup3\n        /* \"#utility.yul\":10995:11009   */\n      add\n        /* \"#utility.yul\":10988:11029   */\n      mstore\n        /* \"#utility.yul\":10871:11036   */\n      pop\n      jump\t// out\n        /* \"#utility.yul\":11042:11408   */\n    tag_133:\n        /* \"#utility.yul\":11184:11187   */\n      0x00\n        /* \"#utility.yul\":11205:11272   */\n      tag_230\n        /* \"#utility.yul\":11269:11271   */\n      0x0f\n        /* \"#utility.yul\":11264:11267   */\n      dup4\n        /* \"#utility.yul\":11205:11272   */\n      tag_113\n      jump\t// in\n    tag_230:\n        /* \"#utility.yul\":11198:11272   */\n      swap2\n      pop\n        /* \"#utility.yul\":11281:11374   */\n      tag_231\n        /* \"#utility.yul\":11370:11373   */\n      dup3\n        /* \"#utility.yul\":11281:11374   */\n      tag_132\n      jump\t// in\n    tag_231:\n        /* \"#utility.yul\":11399:11401   */\n      0x20\n        /* \"#utility.yul\":11394:11397   */\n      dup3\n        /* \"#utility.yul\":11390:11402   */\n      add\n        /* \"#utility.yul\":11383:11402   */\n      swap1\n      pop\n        /* \"#utility.yul\":11042:11408   */\n      swap2\n      swap1\n      pop\n      jump\t// out\n        /* \"#utility.yul\":11414:11833   */\n    tag_86:\n        /* \"#utility.yul\":11580:11584   */\n      0x00\n        /* \"#utility.yul\":11618:11620   */\n      0x20\n        /* \"#utility.yul\":11607:11616   */\n      dup3\n        /* \"#utility.yul\":11603:11621   */\n      add\n        /* \"#utility.yul\":11595:11621   */\n      swap1\n      pop\n        /* \"#utility.yul\":11667:11676   */\n      dup2\n        /* \"#utility.yul\":11661:11665   */\n      dup2\n        /* \"#utility.yul\":11657:11677   */\n      sub\n        /* \"#utility.yul\":11653:11654   */\n      0x00\n        /* \"#utility.yul\":11642:11651   */\n      dup4\n        /* \"#utility.yul\":11638:11655   */\n      add\n        /* \"#utility.yul\":11631:11678   */\n      mstore\n        /* \"#utility.yul\":11695:11826   */\n      tag_233\n        /* \"#utility.yul\":11821:11825   */\n      dup2\n        /* \"#utility.yul\":11695:11826   */\n      tag_133\n      jump\t// in\n    tag_233:\n        /* \"#utility.yul\":11687:11826   */\n      swap1\n      pop\n        /* \"#utility.yul\":11414:11833   */\n      swap2\n      swap1\n      pop\n      jump\t// out\n        /* \"#utility.yul\":11839:11944   */\n    tag_134:\n        /* \"#utility.yul\":11875:11882   */\n      0x00\n        /* \"#utility.yul\":11915:11937   */\n      0xffffffffffffffffffff\n        /* \"#utility.yul\":11908:11913   */\n      dup3\n        /* \"#utility.yul\":11904:11938   */\n      and\n        /* \"#utility.yul\":11893:11938   */\n      swap1\n      pop\n        /* \"#utility.yul\":11839:11944   */\n      swap2\n      swap1\n      pop\n      jump\t// out\n        /* \"#utility.yul\":11950:12070   */\n    tag_135:\n        /* \"#utility.yul\":12022:12045   */\n      tag_236\n        /* \"#utility.yul\":12039:12044   */\n      dup2\n        /* \"#utility.yul\":12022:12045   */\n      tag_134\n      jump\t// in\n    tag_236:\n        /* \"#utility.yul\":12015:12020   */\n      dup2\n        /* \"#utility.yul\":12012:12046   */\n      eq\n        /* \"#utility.yul\":12002:12064   */\n      tag_237\n      jumpi\n        /* \"#utility.yul\":12060:12061   */\n      0x00\n        /* \"#utility.yul\":12057:12058   */\n      dup1\n        /* \"#utility.yul\":12050:12062   */\n      revert\n        /* \"#utility.yul\":12002:12064   */\n    tag_237:\n        /* \"#utility.yul\":11950:12070   */\n      pop\n      jump\t// out\n        /* \"#utility.yul\":12076:12217   */\n    tag_136:\n        /* \"#utility.yul\":12132:12137   */\n      0x00\n        /* \"#utility.yul\":12163:12169   */\n      dup2\n        /* \"#utility.yul\":12157:12170   */\n      mload\n        /* \"#utility.yul\":12148:12170   */\n      swap1\n      pop\n        /* \"#utility.yul\":12179:12211   */\n      tag_239\n        /* \"#utility.yul\":12205:12210   */\n      dup2\n        /* \"#utility.yul\":12179:12211   */\n      tag_135\n      jump\t// in\n    tag_239:\n        /* \"#utility.yul\":12076:12217   */\n      swap3\n      swap2\n      pop\n      pop\n      jump\t// out\n        /* \"#utility.yul\":12223:12343   */\n    tag_137:\n        /* \"#utility.yul\":12295:12318   */\n      tag_241\n        /* \"#utility.yul\":12312:12317   */\n      dup2\n        /* \"#utility.yul\":12295:12318   */\n      tag_111\n      jump\t// in\n    tag_241:\n        /* \"#utility.yul\":12288:12293   */\n      dup2\n        /* \"#utility.yul\":12285:12319   */\n      eq\n        /* \"#utility.yul\":12275:12337   */\n      tag_242\n      jumpi\n        /* \"#utility.yul\":12333:12334   */\n      0x00\n        /* \"#utility.yul\":12330:12331   */\n      dup1\n        /* \"#utility.yul\":12323:12335   */\n      revert\n        /* \"#utility.yul\":12275:12337   */\n    tag_242:\n        /* \"#utility.yul\":12223:12343   */\n      pop\n      jump\t// out\n        /* \"#utility.yul\":12349:12490   */\n    tag_138:\n        /* \"#utility.yul\":12405:12410   */\n      0x00\n        /* \"#utility.yul\":12436:12442   */\n      dup2\n        /* \"#utility.yul\":12430:12443   */\n      mload\n        /* \"#utility.yul\":12421:12443   */\n      swap1\n      pop\n        /* \"#utility.yul\":12452:12484   */\n      tag_244\n        /* \"#utility.yul\":12478:12483   */\n      dup2\n        /* \"#utility.yul\":12452:12484   */\n      tag_137\n      jump\t// in\n    tag_244:\n        /* \"#utility.yul\":12349:12490   */\n      swap3\n      swap2\n      pop\n      pop\n      jump\t// out\n        /* \"#utility.yul\":12496:12618   */\n    tag_139:\n        /* \"#utility.yul\":12569:12593   */\n      tag_246\n        /* \"#utility.yul\":12587:12592   */\n      dup2\n        /* \"#utility.yul\":12569:12593   */\n      tag_109\n      jump\t// in\n    tag_246:\n        /* \"#utility.yul\":12562:12567   */\n      dup2\n        /* \"#utility.yul\":12559:12594   */\n      eq\n        /* \"#utility.yul\":12549:12612   */\n      tag_247\n      jumpi\n        /* \"#utility.yul\":12608:12609   */\n      0x00\n        /* \"#utility.yul\":12605:12606   */\n      dup1\n        /* \"#utility.yul\":12598:12610   */\n      revert\n        /* \"#utility.yul\":12549:12612   */\n    tag_247:\n        /* \"#utility.yul\":12496:12618   */\n      pop\n      jump\t// out\n        /* \"#utility.yul\":12624:12767   */\n    tag_140:\n        /* \"#utility.yul\":12681:12686   */\n      0x00\n        /* \"#utility.yul\":12712:12718   */\n      dup2\n        /* \"#utility.yul\":12706:12719   */\n      mload\n        /* \"#utility.yul\":12697:12719   */\n      swap1\n      pop\n        /* \"#utility.yul\":12728:12761   */\n      tag_249\n        /* \"#utility.yul\":12755:12760   */\n      dup2\n        /* \"#utility.yul\":12728:12761   */\n      tag_139\n      jump\t// in\n    tag_249:\n        /* \"#utility.yul\":12624:12767   */\n      swap3\n      swap2\n      pop\n      pop\n      jump\t// out\n        /* \"#utility.yul\":12773:13744   */\n    tag_91:\n        /* \"#utility.yul\":12876:12882   */\n      0x00\n        /* \"#utility.yul\":12884:12890   */\n      dup1\n        /* \"#utility.yul\":12892:12898   */\n      0x00\n        /* \"#utility.yul\":12900:12906   */\n      dup1\n        /* \"#utility.yul\":12908:12914   */\n      0x00\n        /* \"#utility.yul\":12957:12960   */\n      0xa0\n        /* \"#utility.yul\":12945:12954   */\n      dup7\n        /* \"#utility.yul\":12936:12943   */\n      dup9\n        /* \"#utility.yul\":12932:12955   */\n      sub\n        /* \"#utility.yul\":12928:12961   */\n      slt\n        /* \"#utility.yul\":12925:13045   */\n      iszero\n      tag_251\n      jumpi\n        /* \"#utility.yul\":12964:13043   */\n      tag_252\n      tag_105\n      jump\t// in\n    tag_252:\n        /* \"#utility.yul\":12925:13045   */\n    tag_251:\n        /* \"#utility.yul\":13084:13085   */\n      0x00\n        /* \"#utility.yul\":13109:13172   */\n      tag_253\n        /* \"#utility.yul\":13164:13171   */\n      dup9\n        /* \"#utility.yul\":13155:13161   */\n      dup3\n        /* \"#utility.yul\":13144:13153   */\n      dup10\n        /* \"#utility.yul\":13140:13162   */\n      add\n        /* \"#utility.yul\":13109:13172   */\n      tag_136\n      jump\t// in\n    tag_253:\n        /* \"#utility.yul\":13099:13172   */\n      swap6\n      pop\n        /* \"#utility.yul\":13055:13182   */\n      pop\n        /* \"#utility.yul\":13221:13223   */\n      0x20\n        /* \"#utility.yul\":13247:13310   */\n      tag_254\n        /* \"#utility.yul\":13302:13309   */\n      dup9\n        /* \"#utility.yul\":13293:13299   */\n      dup3\n        /* \"#utility.yul\":13282:13291   */\n      dup10\n        /* \"#utility.yul\":13278:13300   */\n      add\n        /* \"#utility.yul\":13247:13310   */\n      tag_138\n      jump\t// in\n    tag_254:\n        /* \"#utility.yul\":13237:13310   */\n      swap5\n      pop\n        /* \"#utility.yul\":13192:13320   */\n      pop\n        /* \"#utility.yul\":13359:13361   */\n      0x40\n        /* \"#utility.yul\":13385:13449   */\n      tag_255\n        /* \"#utility.yul\":13441:13448   */\n      dup9\n        /* \"#utility.yul\":13432:13438   */\n      dup3\n        /* \"#utility.yul\":13421:13430   */\n      dup10\n        /* \"#utility.yul\":13417:13439   */\n      add\n        /* \"#utility.yul\":13385:13449   */\n      tag_140\n      jump\t// in\n    tag_255:\n        /* \"#utility.yul\":13375:13449   */\n      swap4\n      pop\n        /* \"#utility.yul\":13330:13459   */\n      pop\n        /* \"#utility.yul\":13498:13500   */\n      0x60\n        /* \"#utility.yul\":13524:13588   */\n      tag_256\n        /* \"#utility.yul\":13580:13587   */\n      dup9\n        /* \"#utility.yul\":13571:13577   */\n      dup3\n        /* \"#utility.yul\":13560:13569   */\n      dup10\n        /* \"#utility.yul\":13556:13578   */\n      add\n        /* \"#utility.yul\":13524:13588   */\n      tag_140\n      jump\t// in\n    tag_256:\n        /* \"#utility.yul\":13514:13588   */\n      swap3\n      pop\n        /* \"#utility.yul\":13469:13598   */\n      pop\n        /* \"#utility.yul\":13637:13640   */\n      0x80\n        /* \"#utility.yul\":13664:13727   */\n      tag_257\n        /* \"#utility.yul\":13719:13726   */\n      dup9\n        /* \"#utility.yul\":13710:13716   */\n      dup3\n        /* \"#utility.yul\":13699:13708   */\n      dup10\n        /* \"#utility.yul\":13695:13717   */\n      add\n        /* \"#utility.yul\":13664:13727   */\n      tag_136\n      jump\t// in\n    tag_257:\n        /* \"#utility.yul\":13654:13727   */\n      swap2\n      pop\n        /* \"#utility.yul\":13608:13737   */\n      pop\n        /* \"#utility.yul\":12773:13744   */\n      swap3\n      swap6\n      pop\n      swap3\n      swap6\n      swap1\n      swap4\n      pop\n      jump\t// out\n        /* \"#utility.yul\":13750:14160   */\n    tag_98:\n        /* \"#utility.yul\":13790:13797   */\n      0x00\n        /* \"#utility.yul\":13813:13833   */\n      tag_259\n        /* \"#utility.yul\":13831:13832   */\n      dup3\n        /* \"#utility.yul\":13813:13833   */\n      tag_109\n      jump\t// in\n    tag_259:\n        /* \"#utility.yul\":13808:13833   */\n      swap2\n      pop\n        /* \"#utility.yul\":13847:13867   */\n      tag_260\n        /* \"#utility.yul\":13865:13866   */\n      dup4\n        /* \"#utility.yul\":13847:13867   */\n      tag_109\n      jump\t// in\n    tag_260:\n        /* \"#utility.yul\":13842:13867   */\n      swap3\n      pop\n        /* \"#utility.yul\":13902:13903   */\n      dup3\n        /* \"#utility.yul\":13899:13900   */\n      dup3\n        /* \"#utility.yul\":13895:13904   */\n      mul\n        /* \"#utility.yul\":13924:13954   */\n      tag_261\n        /* \"#utility.yul\":13942:13953   */\n      dup2\n        /* \"#utility.yul\":13924:13954   */\n      tag_109\n      jump\t// in\n    tag_261:\n        /* \"#utility.yul\":13913:13954   */\n      swap2\n      pop\n        /* \"#utility.yul\":14103:14104   */\n      dup3\n        /* \"#utility.yul\":14094:14101   */\n      dup3\n        /* \"#utility.yul\":14090:14105   */\n      div\n        /* \"#utility.yul\":14087:14088   */\n      dup5\n        /* \"#utility.yul\":14084:14106   */\n      eq\n        /* \"#utility.yul\":14064:14065   */\n      dup4\n        /* \"#utility.yul\":14057:14066   */\n      iszero\n        /* \"#utility.yul\":14037:14120   */\n      or\n        /* \"#utility.yul\":14014:14153   */\n      tag_262\n      jumpi\n        /* \"#utility.yul\":14133:14151   */\n      tag_263\n      tag_118\n      jump\t// in\n    tag_263:\n        /* \"#utility.yul\":14014:14153   */\n    tag_262:\n        /* \"#utility.yul\":13798:14160   */\n      pop\n        /* \"#utility.yul\":13750:14160   */\n      swap3\n      swap2\n      pop\n      pop\n      jump\t// out\n        /* \"#utility.yul\":14166:14346   */\n    tag_141:\n        /* \"#utility.yul\":14214:14291   */\n      0x4e487b7100000000000000000000000000000000000000000000000000000000\n        /* \"#utility.yul\":14211:14212   */\n      0x00\n        /* \"#utility.yul\":14204:14292   */\n      mstore\n        /* \"#utility.yul\":14311:14315   */\n      0x12\n        /* \"#utility.yul\":14308:14309   */\n      0x04\n        /* \"#utility.yul\":14301:14316   */\n      mstore\n        /* \"#utility.yul\":14335:14339   */\n      0x24\n        /* \"#utility.yul\":14332:14333   */\n      0x00\n        /* \"#utility.yul\":14325:14340   */\n      revert\n        /* \"#utility.yul\":14352:14537   */\n    tag_100:\n        /* \"#utility.yul\":14392:14393   */\n      0x00\n        /* \"#utility.yul\":14409:14429   */\n      tag_266\n        /* \"#utility.yul\":14427:14428   */\n      dup3\n        /* \"#utility.yul\":14409:14429   */\n      tag_109\n      jump\t// in\n    tag_266:\n        /* \"#utility.yul\":14404:14429   */\n      swap2\n      pop\n        /* \"#utility.yul\":14443:14463   */\n      tag_267\n        /* \"#utility.yul\":14461:14462   */\n      dup4\n        /* \"#utility.yul\":14443:14463   */\n      tag_109\n      jump\t// in\n    tag_267:\n        /* \"#utility.yul\":14438:14463   */\n      swap3\n      pop\n        /* \"#utility.yul\":14482:14483   */\n      dup3\n        /* \"#utility.yul\":14472:14507   */\n      tag_268\n      jumpi\n        /* \"#utility.yul\":14487:14505   */\n      tag_269\n      tag_141\n      jump\t// in\n    tag_269:\n        /* \"#utility.yul\":14472:14507   */\n    tag_268:\n        /* \"#utility.yul\":14529:14530   */\n      dup3\n        /* \"#utility.yul\":14526:14527   */\n      dup3\n        /* \"#utility.yul\":14522:14531   */\n      div\n        /* \"#utility.yul\":14517:14531   */\n      swap1\n      pop\n        /* \"#utility.yul\":14352:14537   */\n      swap3\n      swap2\n      pop\n      pop\n      jump\t// out\n\n    auxdata: 0xa26469706673582212207fc15ee5423bd1328c56ffd5dd009d6242cd411bfe1b7abc5e0f74b88fb1346064736f6c634300081a0033\n}\n",
				"bytecode": {
					"linkReferences": {},
					"object": "608060405234801561000f575f80fd5b5060405161109f38038061109f83398181016040528101906100319190610110565b73694aa1769357215de4fac081bf1f309adc32530660015f6101000a81548173ffffffffffffffffffffffffffffffffffffffff021916908373ffffffffffffffffffffffffffffffffffffffff1602179055503360025f6101000a81548173ffffffffffffffffffffffffffffffffffffffff021916908373ffffffffffffffffffffffffffffffffffffffff16021790555042600381905550806004819055505061013b565b5f80fd5b5f819050919050565b6100ef816100dd565b81146100f9575f80fd5b50565b5f8151905061010a816100e6565b92915050565b5f60208284031215610125576101246100d9565b5b5f610132848285016100fc565b91505092915050565b610f57806101485f395ff3fe60806040526004361061006f575f3560e01c80639f883a051161004d5780639f883a05146100c9578063b60d428814610105578063bea4dfb51461010f578063f2fde38b146101395761006f565b8063590e1ae3146100735780638da5cb5b146100895780638edd6eb6146100b3575b5f80fd5b34801561007e575f80fd5b50610087610161565b005b348015610094575f80fd5b5061009d6103ae565b6040516100aa919061088e565b60405180910390f35b3480156100be575f80fd5b506100c76103d3565b005b3480156100d4575f80fd5b506100ef60048036038101906100ea91906108d5565b6105b5565b6040516100fc9190610918565b60405180910390f35b61010d6105c9565b005b34801561011a575f80fd5b506101236106b1565b6040516101309190610949565b60405180910390f35b348015610144575f80fd5b5061015f600480360381019061015a91906108d5565b61074e565b005b683635c9adc5dea0000061017447610820565b106101b4576040517f08c379a00000000000000000000000000000000000000000000000000000000081526004016101ab906109bc565b60405180910390fd5b5f805f3373ffffffffffffffffffffffffffffffffffffffff1673ffffffffffffffffffffffffffffffffffffffff1681526020019081526020015f205403610232576040517f08c379a000000000000000000000000000000000000000000000000000000000815260040161022990610a24565b60405180910390fd5b6004546003546102429190610a6f565b421015610284576040517f08c379a000000000000000000000000000000000000000000000000000000000815260040161027b90610aec565b60405180910390fd5b5f3373ffffffffffffffffffffffffffffffffffffffff165f803373ffffffffffffffffffffffffffffffffffffffff1673ffffffffffffffffffffffffffffffffffffffff1681526020019081526020015f20546040516102e590610b37565b5f6040518083038185875af1925050503d805f811461031f576040519150601f19603f3d011682016040523d82523d5f602084013e610324565b606091505b5050809150508061036a576040517f08c379a000000000000000000000000000000000000000000000000000000000815260040161036190610b95565b60405180910390fd5b5f805f3373ffffffffffffffffffffffffffffffffffffffff1673ffffffffffffffffffffffffffffffffffffffff1681526020019081526020015f208190555050565b60025f9054906101000a900473ffffffffffffffffffffffffffffffffffffffff1681565b683635c9adc5dea000006103e647610820565b1015610427576040517f08c379a000000000000000000000000000000000000000000000000000000000815260040161041e90610bfd565b60405180910390fd5b60025f9054906101000a900473ffffffffffffffffffffffffffffffffffffffff1673ffffffffffffffffffffffffffffffffffffffff163373ffffffffffffffffffffffffffffffffffffffff16146104b6576040517f08c379a00000000000000000000000000000000000000000000000000000000081526004016104ad90610c8b565b60405180910390fd5b6004546003546104c69190610a6f565b421015610508576040517f08c379a00000000000000000000000000000000000000000000000000000000081526004016104ff90610aec565b60405180910390fd5b5f3373ffffffffffffffffffffffffffffffffffffffff164760405161052d90610b37565b5f6040518083038185875af1925050503d805f8114610567576040519150601f19603f3d011682016040523d82523d5f602084013e61056c565b606091505b505080915050806105b2576040517f08c379a00000000000000000000000000000000000000000000000000000000081526004016105a990610b95565b60405180910390fd5b50565b5f602052805f5260405f205f915090505481565b68056bc75e2d631000006105dc34610820565b101561061d576040517f08c379a000000000000000000000000000000000000000000000000000000000815260040161061490610cf3565b60405180910390fd5b60045460035461062d9190610a6f565b421061066e576040517f08c379a000000000000000000000000000000000000000000000000000000000815260040161066590610d5b565b60405180910390fd5b345f803373ffffffffffffffffffffffffffffffffffffffff1673ffffffffffffffffffffffffffffffffffffffff1681526020019081526020015f2081905550565b5f8060015f9054906101000a900473ffffffffffffffffffffffffffffffffffffffff1673ffffffffffffffffffffffffffffffffffffffff1663feaf968c6040518163ffffffff1660e01b815260040160a060405180830381865afa15801561071d573d5f803e3d5ffd5b505050506040513d601f19601f820116820180604052508101906107419190610e0c565b5050509150508091505090565b60025f9054906101000a900473ffffffffffffffffffffffffffffffffffffffff1673ffffffffffffffffffffffffffffffffffffffff163373ffffffffffffffffffffffffffffffffffffffff16146107dd576040517f08c379a00000000000000000000000000000000000000000000000000000000081526004016107d490610c8b565b60405180910390fd5b8060025f6101000a81548173ffffffffffffffffffffffffffffffffffffffff021916908373ffffffffffffffffffffffffffffffffffffffff16021790555050565b5f8061082a6106b1565b90506305f5e100818461083d9190610e83565b6108479190610ef1565b915050919050565b5f73ffffffffffffffffffffffffffffffffffffffff82169050919050565b5f6108788261084f565b9050919050565b6108888161086e565b82525050565b5f6020820190506108a15f83018461087f565b92915050565b5f80fd5b6108b48161086e565b81146108be575f80fd5b50565b5f813590506108cf816108ab565b92915050565b5f602082840312156108ea576108e96108a7565b5b5f6108f7848285016108c1565b91505092915050565b5f819050919050565b61091281610900565b82525050565b5f60208201905061092b5f830184610909565b92915050565b5f819050919050565b61094381610931565b82525050565b5f60208201905061095c5f83018461093a565b92915050565b5f82825260208201905092915050565b7f54617267657420697320726561636865640000000000000000000000000000005f82015250565b5f6109a6601183610962565b91506109b182610972565b602082019050919050565b5f6020820190508181035f8301526109d38161099a565b9050919050565b7f7468657265206973206e6f2066756e6420666f7220796f7500000000000000005f82015250565b5f610a0e601883610962565b9150610a19826109da565b602082019050919050565b5f6020820190508181035f830152610a3b81610a02565b9050919050565b7f4e487b71000000000000000000000000000000000000000000000000000000005f52601160045260245ffd5b5f610a7982610900565b9150610a8483610900565b9250828201905080821115610a9c57610a9b610a42565b5b92915050565b7f77696e646f77206973206e6f7420636c6f7365000000000000000000000000005f82015250565b5f610ad6601383610962565b9150610ae182610aa2565b602082019050919050565b5f6020820190508181035f830152610b0381610aca565b9050919050565b5f81905092915050565b50565b5f610b225f83610b0a565b9150610b2d82610b14565b5f82019050919050565b5f610b4182610b17565b9150819050919050565b7f7472616e73666572207478206661696c656400000000000000000000000000005f82015250565b5f610b7f601283610962565b9150610b8a82610b4b565b602082019050919050565b5f6020820190508181035f830152610bac81610b73565b9050919050565b7f546172676574206973206e6f74207265616368656400000000000000000000005f82015250565b5f610be7601583610962565b9150610bf282610bb3565b602082019050919050565b5f6020820190508181035f830152610c1481610bdb565b9050919050565b7f746869732066756e6374696f6e2063616e206f6e6c792062652063616c6c65645f8201527f206279206f776e65720000000000000000000000000000000000000000000000602082015250565b5f610c75602983610962565b9150610c8082610c1b565b604082019050919050565b5f6020820190508181035f830152610ca281610c69565b9050919050565b7f53656e64206d6f726520455448000000000000000000000000000000000000005f82015250565b5f610cdd600d83610962565b9150610ce882610ca9565b602082019050919050565b5f6020820190508181035f830152610d0a81610cd1565b9050919050565b7f77696e646f7720697320636c6f736500000000000000000000000000000000005f82015250565b5f610d45600f83610962565b9150610d5082610d11565b602082019050919050565b5f6020820190508181035f830152610d7281610d39565b9050919050565b5f69ffffffffffffffffffff82169050919050565b610d9781610d79565b8114610da1575f80fd5b50565b5f81519050610db281610d8e565b92915050565b610dc181610931565b8114610dcb575f80fd5b50565b5f81519050610ddc81610db8565b92915050565b610deb81610900565b8114610df5575f80fd5b50565b5f81519050610e0681610de2565b92915050565b5f805f805f60a08688031215610e2557610e246108a7565b5b5f610e3288828901610da4565b9550506020610e4388828901610dce565b9450506040610e5488828901610df8565b9350506060610e6588828901610df8565b9250506080610e7688828901610da4565b9150509295509295909350565b5f610e8d82610900565b9150610e9883610900565b9250828202610ea681610900565b91508282048414831517610ebd57610ebc610a42565b5b5092915050565b7f4e487b71000000000000000000000000000000000000000000000000000000005f52601260045260245ffd5b5f610efb82610900565b9150610f0683610900565b925082610f1657610f15610ec4565b5b82820490509291505056fea26469706673582212207fc15ee5423bd1328c56ffd5dd009d6242cd411bfe1b7abc5e0f74b88fb1346064736f6c634300081a0033",
					"opcodes": "PUSH1 0x80 PUSH1 0x40 MSTORE CALLVALUE DUP1 ISZERO PUSH2 0xF JUMPI PUSH0 DUP1 REVERT JUMPDEST POP PUSH1 0x40 MLOAD PUSH2 0x109F CODESIZE SUB DUP1 PUSH2 0x109F DUP4 CODECOPY DUP2 DUP2 ADD PUSH1 0x40 MSTORE DUP2 ADD SWAP1 PUSH2 0x31 SWAP2 SWAP1 PUSH2 0x110 JUMP JUMPDEST PUSH20 0x694AA1769357215DE4FAC081BF1F309ADC325306 PUSH1 0x1 PUSH0 PUSH2 0x100 EXP DUP2 SLOAD DUP2 PUSH20 0xFFFFFFFFFFFFFFFFFFFFFFFFFFFFFFFFFFFFFFFF MUL NOT AND SWAP1 DUP4 PUSH20 0xFFFFFFFFFFFFFFFFFFFFFFFFFFFFFFFFFFFFFFFF AND MUL OR SWAP1 SSTORE POP CALLER PUSH1 0x2 PUSH0 PUSH2 0x100 EXP DUP2 SLOAD DUP2 PUSH20 0xFFFFFFFFFFFFFFFFFFFFFFFFFFFFFFFFFFFFFFFF MUL NOT AND SWAP1 DUP4 PUSH20 0xFFFFFFFFFFFFFFFFFFFFFFFFFFFFFFFFFFFFFFFF AND MUL OR SWAP1 SSTORE POP TIMESTAMP PUSH1 0x3 DUP2 SWAP1 SSTORE POP DUP1 PUSH1 0x4 DUP2 SWAP1 SSTORE POP POP PUSH2 0x13B JUMP JUMPDEST PUSH0 DUP1 REVERT JUMPDEST PUSH0 DUP2 SWAP1 POP SWAP2 SWAP1 POP JUMP JUMPDEST PUSH2 0xEF DUP2 PUSH2 0xDD JUMP JUMPDEST DUP2 EQ PUSH2 0xF9 JUMPI PUSH0 DUP1 REVERT JUMPDEST POP JUMP JUMPDEST PUSH0 DUP2 MLOAD SWAP1 POP PUSH2 0x10A DUP2 PUSH2 0xE6 JUMP JUMPDEST SWAP3 SWAP2 POP POP JUMP JUMPDEST PUSH0 PUSH1 0x20 DUP3 DUP5 SUB SLT ISZERO PUSH2 0x125 JUMPI PUSH2 0x124 PUSH2 0xD9 JUMP JUMPDEST JUMPDEST PUSH0 PUSH2 0x132 DUP5 DUP3 DUP6 ADD PUSH2 0xFC JUMP JUMPDEST SWAP2 POP POP SWAP3 SWAP2 POP POP JUMP JUMPDEST PUSH2 0xF57 DUP1 PUSH2 0x148 PUSH0 CODECOPY PUSH0 RETURN INVALID PUSH1 0x80 PUSH1 0x40 MSTORE PUSH1 0x4 CALLDATASIZE LT PUSH2 0x6F JUMPI PUSH0 CALLDATALOAD PUSH1 0xE0 SHR DUP1 PUSH4 0x9F883A05 GT PUSH2 0x4D JUMPI DUP1 PUSH4 0x9F883A05 EQ PUSH2 0xC9 JUMPI DUP1 PUSH4 0xB60D4288 EQ PUSH2 0x105 JUMPI DUP1 PUSH4 0xBEA4DFB5 EQ PUSH2 0x10F JUMPI DUP1 PUSH4 0xF2FDE38B EQ PUSH2 0x139 JUMPI PUSH2 0x6F JUMP JUMPDEST DUP1 PUSH4 0x590E1AE3 EQ PUSH2 0x73 JUMPI DUP1 PUSH4 0x8DA5CB5B EQ PUSH2 0x89 JUMPI DUP1 PUSH4 0x8EDD6EB6 EQ PUSH2 0xB3 JUMPI JUMPDEST PUSH0 DUP1 REVERT JUMPDEST CALLVALUE DUP1 ISZERO PUSH2 0x7E JUMPI PUSH0 DUP1 REVERT JUMPDEST POP PUSH2 0x87 PUSH2 0x161 JUMP JUMPDEST STOP JUMPDEST CALLVALUE DUP1 ISZERO PUSH2 0x94 JUMPI PUSH0 DUP1 REVERT JUMPDEST POP PUSH2 0x9D PUSH2 0x3AE JUMP JUMPDEST PUSH1 0x40 MLOAD PUSH2 0xAA SWAP2 SWAP1 PUSH2 0x88E JUMP JUMPDEST PUSH1 0x40 MLOAD DUP1 SWAP2 SUB SWAP1 RETURN JUMPDEST CALLVALUE DUP1 ISZERO PUSH2 0xBE JUMPI PUSH0 DUP1 REVERT JUMPDEST POP PUSH2 0xC7 PUSH2 0x3D3 JUMP JUMPDEST STOP JUMPDEST CALLVALUE DUP1 ISZERO PUSH2 0xD4 JUMPI PUSH0 DUP1 REVERT JUMPDEST POP PUSH2 0xEF PUSH1 0x4 DUP1 CALLDATASIZE SUB DUP2 ADD SWAP1 PUSH2 0xEA SWAP2 SWAP1 PUSH2 0x8D5 JUMP JUMPDEST PUSH2 0x5B5 JUMP JUMPDEST PUSH1 0x40 MLOAD PUSH2 0xFC SWAP2 SWAP1 PUSH2 0x918 JUMP JUMPDEST PUSH1 0x40 MLOAD DUP1 SWAP2 SUB SWAP1 RETURN JUMPDEST PUSH2 0x10D PUSH2 0x5C9 JUMP JUMPDEST STOP JUMPDEST CALLVALUE DUP1 ISZERO PUSH2 0x11A JUMPI PUSH0 DUP1 REVERT JUMPDEST POP PUSH2 0x123 PUSH2 0x6B1 JUMP JUMPDEST PUSH1 0x40 MLOAD PUSH2 0x130 SWAP2 SWAP1 PUSH2 0x949 JUMP JUMPDEST PUSH1 0x40 MLOAD DUP1 SWAP2 SUB SWAP1 RETURN JUMPDEST CALLVALUE DUP1 ISZERO PUSH2 0x144 JUMPI PUSH0 DUP1 REVERT JUMPDEST POP PUSH2 0x15F PUSH1 0x4 DUP1 CALLDATASIZE SUB DUP2 ADD SWAP1 PUSH2 0x15A SWAP2 SWAP1 PUSH2 0x8D5 JUMP JUMPDEST PUSH2 0x74E JUMP JUMPDEST STOP JUMPDEST PUSH9 0x3635C9ADC5DEA00000 PUSH2 0x174 SELFBALANCE PUSH2 0x820 JUMP JUMPDEST LT PUSH2 0x1B4 JUMPI PUSH1 0x40 MLOAD PUSH32 0x8C379A000000000000000000000000000000000000000000000000000000000 DUP2 MSTORE PUSH1 0x4 ADD PUSH2 0x1AB SWAP1 PUSH2 0x9BC JUMP JUMPDEST PUSH1 0x40 MLOAD DUP1 SWAP2 SUB SWAP1 REVERT JUMPDEST PUSH0 DUP1 PUSH0 CALLER PUSH20 0xFFFFFFFFFFFFFFFFFFFFFFFFFFFFFFFFFFFFFFFF AND PUSH20 0xFFFFFFFFFFFFFFFFFFFFFFFFFFFFFFFFFFFFFFFF AND DUP2 MSTORE PUSH1 0x20 ADD SWAP1 DUP2 MSTORE PUSH1 0x20 ADD PUSH0 KECCAK256 SLOAD SUB PUSH2 0x232 JUMPI PUSH1 0x40 MLOAD PUSH32 0x8C379A000000000000000000000000000000000000000000000000000000000 DUP2 MSTORE PUSH1 0x4 ADD PUSH2 0x229 SWAP1 PUSH2 0xA24 JUMP JUMPDEST PUSH1 0x40 MLOAD DUP1 SWAP2 SUB SWAP1 REVERT JUMPDEST PUSH1 0x4 SLOAD PUSH1 0x3 SLOAD PUSH2 0x242 SWAP2 SWAP1 PUSH2 0xA6F JUMP JUMPDEST TIMESTAMP LT ISZERO PUSH2 0x284 JUMPI PUSH1 0x40 MLOAD PUSH32 0x8C379A000000000000000000000000000000000000000000000000000000000 DUP2 MSTORE PUSH1 0x4 ADD PUSH2 0x27B SWAP1 PUSH2 0xAEC JUMP JUMPDEST PUSH1 0x40 MLOAD DUP1 SWAP2 SUB SWAP1 REVERT JUMPDEST PUSH0 CALLER PUSH20 0xFFFFFFFFFFFFFFFFFFFFFFFFFFFFFFFFFFFFFFFF AND PUSH0 DUP1 CALLER PUSH20 0xFFFFFFFFFFFFFFFFFFFFFFFFFFFFFFFFFFFFFFFF AND PUSH20 0xFFFFFFFFFFFFFFFFFFFFFFFFFFFFFFFFFFFFFFFF AND DUP2 MSTORE PUSH1 0x20 ADD SWAP1 DUP2 MSTORE PUSH1 0x20 ADD PUSH0 KECCAK256 SLOAD PUSH1 0x40 MLOAD PUSH2 0x2E5 SWAP1 PUSH2 0xB37 JUMP JUMPDEST PUSH0 PUSH1 0x40 MLOAD DUP1 DUP4 SUB DUP2 DUP6 DUP8 GAS CALL SWAP3 POP POP POP RETURNDATASIZE DUP1 PUSH0 DUP2 EQ PUSH2 0x31F JUMPI PUSH1 0x40 MLOAD SWAP2 POP PUSH1 0x1F NOT PUSH1 0x3F RETURNDATASIZE ADD AND DUP3 ADD PUSH1 0x40 MSTORE RETURNDATASIZE DUP3 MSTORE RETURNDATASIZE PUSH0 PUSH1 0x20 DUP5 ADD RETURNDATACOPY PUSH2 0x324 JUMP JUMPDEST PUSH1 0x60 SWAP2 POP JUMPDEST POP POP DUP1 SWAP2 POP POP DUP1 PUSH2 0x36A JUMPI PUSH1 0x40 MLOAD PUSH32 0x8C379A000000000000000000000000000000000000000000000000000000000 DUP2 MSTORE PUSH1 0x4 ADD PUSH2 0x361 SWAP1 PUSH2 0xB95 JUMP JUMPDEST PUSH1 0x40 MLOAD DUP1 SWAP2 SUB SWAP1 REVERT JUMPDEST PUSH0 DUP1 PUSH0 CALLER PUSH20 0xFFFFFFFFFFFFFFFFFFFFFFFFFFFFFFFFFFFFFFFF AND PUSH20 0xFFFFFFFFFFFFFFFFFFFFFFFFFFFFFFFFFFFFFFFF AND DUP2 MSTORE PUSH1 0x20 ADD SWAP1 DUP2 MSTORE PUSH1 0x20 ADD PUSH0 KECCAK256 DUP2 SWAP1 SSTORE POP POP JUMP JUMPDEST PUSH1 0x2 PUSH0 SWAP1 SLOAD SWAP1 PUSH2 0x100 EXP SWAP1 DIV PUSH20 0xFFFFFFFFFFFFFFFFFFFFFFFFFFFFFFFFFFFFFFFF AND DUP2 JUMP JUMPDEST PUSH9 0x3635C9ADC5DEA00000 PUSH2 0x3E6 SELFBALANCE PUSH2 0x820 JUMP JUMPDEST LT ISZERO PUSH2 0x427 JUMPI PUSH1 0x40 MLOAD PUSH32 0x8C379A000000000000000000000000000000000000000000000000000000000 DUP2 MSTORE PUSH1 0x4 ADD PUSH2 0x41E SWAP1 PUSH2 0xBFD JUMP JUMPDEST PUSH1 0x40 MLOAD DUP1 SWAP2 SUB SWAP1 REVERT JUMPDEST PUSH1 0x2 PUSH0 SWAP1 SLOAD SWAP1 PUSH2 0x100 EXP SWAP1 DIV PUSH20 0xFFFFFFFFFFFFFFFFFFFFFFFFFFFFFFFFFFFFFFFF AND PUSH20 0xFFFFFFFFFFFFFFFFFFFFFFFFFFFFFFFFFFFFFFFF AND CALLER PUSH20 0xFFFFFFFFFFFFFFFFFFFFFFFFFFFFFFFFFFFFFFFF AND EQ PUSH2 0x4B6 JUMPI PUSH1 0x40 MLOAD PUSH32 0x8C379A000000000000000000000000000000000000000000000000000000000 DUP2 MSTORE PUSH1 0x4 ADD PUSH2 0x4AD SWAP1 PUSH2 0xC8B JUMP JUMPDEST PUSH1 0x40 MLOAD DUP1 SWAP2 SUB SWAP1 REVERT JUMPDEST PUSH1 0x4 SLOAD PUSH1 0x3 SLOAD PUSH2 0x4C6 SWAP2 SWAP1 PUSH2 0xA6F JUMP JUMPDEST TIMESTAMP LT ISZERO PUSH2 0x508 JUMPI PUSH1 0x40 MLOAD PUSH32 0x8C379A000000000000000000000000000000000000000000000000000000000 DUP2 MSTORE PUSH1 0x4 ADD PUSH2 0x4FF SWAP1 PUSH2 0xAEC JUMP JUMPDEST PUSH1 0x40 MLOAD DUP1 SWAP2 SUB SWAP1 REVERT JUMPDEST PUSH0 CALLER PUSH20 0xFFFFFFFFFFFFFFFFFFFFFFFFFFFFFFFFFFFFFFFF AND SELFBALANCE PUSH1 0x40 MLOAD PUSH2 0x52D SWAP1 PUSH2 0xB37 JUMP JUMPDEST PUSH0 PUSH1 0x40 MLOAD DUP1 DUP4 SUB DUP2 DUP6 DUP8 GAS CALL SWAP3 POP POP POP RETURNDATASIZE DUP1 PUSH0 DUP2 EQ PUSH2 0x567 JUMPI PUSH1 0x40 MLOAD SWAP2 POP PUSH1 0x1F NOT PUSH1 0x3F RETURNDATASIZE ADD AND DUP3 ADD PUSH1 0x40 MSTORE RETURNDATASIZE DUP3 MSTORE RETURNDATASIZE PUSH0 PUSH1 0x20 DUP5 ADD RETURNDATACOPY PUSH2 0x56C JUMP JUMPDEST PUSH1 0x60 SWAP2 POP JUMPDEST POP POP DUP1 SWAP2 POP POP DUP1 PUSH2 0x5B2 JUMPI PUSH1 0x40 MLOAD PUSH32 0x8C379A000000000000000000000000000000000000000000000000000000000 DUP2 MSTORE PUSH1 0x4 ADD PUSH2 0x5A9 SWAP1 PUSH2 0xB95 JUMP JUMPDEST PUSH1 0x40 MLOAD DUP1 SWAP2 SUB SWAP1 REVERT JUMPDEST POP JUMP JUMPDEST PUSH0 PUSH1 0x20 MSTORE DUP1 PUSH0 MSTORE PUSH1 0x40 PUSH0 KECCAK256 PUSH0 SWAP2 POP SWAP1 POP SLOAD DUP2 JUMP JUMPDEST PUSH9 0x56BC75E2D63100000 PUSH2 0x5DC CALLVALUE PUSH2 0x820 JUMP JUMPDEST LT ISZERO PUSH2 0x61D JUMPI PUSH1 0x40 MLOAD PUSH32 0x8C379A000000000000000000000000000000000000000000000000000000000 DUP2 MSTORE PUSH1 0x4 ADD PUSH2 0x614 SWAP1 PUSH2 0xCF3 JUMP JUMPDEST PUSH1 0x40 MLOAD DUP1 SWAP2 SUB SWAP1 REVERT JUMPDEST PUSH1 0x4 SLOAD PUSH1 0x3 SLOAD PUSH2 0x62D SWAP2 SWAP1 PUSH2 0xA6F JUMP JUMPDEST TIMESTAMP LT PUSH2 0x66E JUMPI PUSH1 0x40 MLOAD PUSH32 0x8C379A000000000000000000000000000000000000000000000000000000000 DUP2 MSTORE PUSH1 0x4 ADD PUSH2 0x665 SWAP1 PUSH2 0xD5B JUMP JUMPDEST PUSH1 0x40 MLOAD DUP1 SWAP2 SUB SWAP1 REVERT JUMPDEST CALLVALUE PUSH0 DUP1 CALLER PUSH20 0xFFFFFFFFFFFFFFFFFFFFFFFFFFFFFFFFFFFFFFFF AND PUSH20 0xFFFFFFFFFFFFFFFFFFFFFFFFFFFFFFFFFFFFFFFF AND DUP2 MSTORE PUSH1 0x20 ADD SWAP1 DUP2 MSTORE PUSH1 0x20 ADD PUSH0 KECCAK256 DUP2 SWAP1 SSTORE POP JUMP JUMPDEST PUSH0 DUP1 PUSH1 0x1 PUSH0 SWAP1 SLOAD SWAP1 PUSH2 0x100 EXP SWAP1 DIV PUSH20 0xFFFFFFFFFFFFFFFFFFFFFFFFFFFFFFFFFFFFFFFF AND PUSH20 0xFFFFFFFFFFFFFFFFFFFFFFFFFFFFFFFFFFFFFFFF AND PUSH4 0xFEAF968C PUSH1 0x40 MLOAD DUP2 PUSH4 0xFFFFFFFF AND PUSH1 0xE0 SHL DUP2 MSTORE PUSH1 0x4 ADD PUSH1 0xA0 PUSH1 0x40 MLOAD DUP1 DUP4 SUB DUP2 DUP7 GAS STATICCALL ISZERO DUP1 ISZERO PUSH2 0x71D JUMPI RETURNDATASIZE PUSH0 DUP1 RETURNDATACOPY RETURNDATASIZE PUSH0 REVERT JUMPDEST POP POP POP POP PUSH1 0x40 MLOAD RETURNDATASIZE PUSH1 0x1F NOT PUSH1 0x1F DUP3 ADD AND DUP3 ADD DUP1 PUSH1 0x40 MSTORE POP DUP2 ADD SWAP1 PUSH2 0x741 SWAP2 SWAP1 PUSH2 0xE0C JUMP JUMPDEST POP POP POP SWAP2 POP POP DUP1 SWAP2 POP POP SWAP1 JUMP JUMPDEST PUSH1 0x2 PUSH0 SWAP1 SLOAD SWAP1 PUSH2 0x100 EXP SWAP1 DIV PUSH20 0xFFFFFFFFFFFFFFFFFFFFFFFFFFFFFFFFFFFFFFFF AND PUSH20 0xFFFFFFFFFFFFFFFFFFFFFFFFFFFFFFFFFFFFFFFF AND CALLER PUSH20 0xFFFFFFFFFFFFFFFFFFFFFFFFFFFFFFFFFFFFFFFF AND EQ PUSH2 0x7DD JUMPI PUSH1 0x40 MLOAD PUSH32 0x8C379A000000000000000000000000000000000000000000000000000000000 DUP2 MSTORE PUSH1 0x4 ADD PUSH2 0x7D4 SWAP1 PUSH2 0xC8B JUMP JUMPDEST PUSH1 0x40 MLOAD DUP1 SWAP2 SUB SWAP1 REVERT JUMPDEST DUP1 PUSH1 0x2 PUSH0 PUSH2 0x100 EXP DUP2 SLOAD DUP2 PUSH20 0xFFFFFFFFFFFFFFFFFFFFFFFFFFFFFFFFFFFFFFFF MUL NOT AND SWAP1 DUP4 PUSH20 0xFFFFFFFFFFFFFFFFFFFFFFFFFFFFFFFFFFFFFFFF AND MUL OR SWAP1 SSTORE POP POP JUMP JUMPDEST PUSH0 DUP1 PUSH2 0x82A PUSH2 0x6B1 JUMP JUMPDEST SWAP1 POP PUSH4 0x5F5E100 DUP2 DUP5 PUSH2 0x83D SWAP2 SWAP1 PUSH2 0xE83 JUMP JUMPDEST PUSH2 0x847 SWAP2 SWAP1 PUSH2 0xEF1 JUMP JUMPDEST SWAP2 POP POP SWAP2 SWAP1 POP JUMP JUMPDEST PUSH0 PUSH20 0xFFFFFFFFFFFFFFFFFFFFFFFFFFFFFFFFFFFFFFFF DUP3 AND SWAP1 POP SWAP2 SWAP1 POP JUMP JUMPDEST PUSH0 PUSH2 0x878 DUP3 PUSH2 0x84F JUMP JUMPDEST SWAP1 POP SWAP2 SWAP1 POP JUMP JUMPDEST PUSH2 0x888 DUP2 PUSH2 0x86E JUMP JUMPDEST DUP3 MSTORE POP POP JUMP JUMPDEST PUSH0 PUSH1 0x20 DUP3 ADD SWAP1 POP PUSH2 0x8A1 PUSH0 DUP4 ADD DUP5 PUSH2 0x87F JUMP JUMPDEST SWAP3 SWAP2 POP POP JUMP JUMPDEST PUSH0 DUP1 REVERT JUMPDEST PUSH2 0x8B4 DUP2 PUSH2 0x86E JUMP JUMPDEST DUP2 EQ PUSH2 0x8BE JUMPI PUSH0 DUP1 REVERT JUMPDEST POP JUMP JUMPDEST PUSH0 DUP2 CALLDATALOAD SWAP1 POP PUSH2 0x8CF DUP2 PUSH2 0x8AB JUMP JUMPDEST SWAP3 SWAP2 POP POP JUMP JUMPDEST PUSH0 PUSH1 0x20 DUP3 DUP5 SUB SLT ISZERO PUSH2 0x8EA JUMPI PUSH2 0x8E9 PUSH2 0x8A7 JUMP JUMPDEST JUMPDEST PUSH0 PUSH2 0x8F7 DUP5 DUP3 DUP6 ADD PUSH2 0x8C1 JUMP JUMPDEST SWAP2 POP POP SWAP3 SWAP2 POP POP JUMP JUMPDEST PUSH0 DUP2 SWAP1 POP SWAP2 SWAP1 POP JUMP JUMPDEST PUSH2 0x912 DUP2 PUSH2 0x900 JUMP JUMPDEST DUP3 MSTORE POP POP JUMP JUMPDEST PUSH0 PUSH1 0x20 DUP3 ADD SWAP1 POP PUSH2 0x92B PUSH0 DUP4 ADD DUP5 PUSH2 0x909 JUMP JUMPDEST SWAP3 SWAP2 POP POP JUMP JUMPDEST PUSH0 DUP2 SWAP1 POP SWAP2 SWAP1 POP JUMP JUMPDEST PUSH2 0x943 DUP2 PUSH2 0x931 JUMP JUMPDEST DUP3 MSTORE POP POP JUMP JUMPDEST PUSH0 PUSH1 0x20 DUP3 ADD SWAP1 POP PUSH2 0x95C PUSH0 DUP4 ADD DUP5 PUSH2 0x93A JUMP JUMPDEST SWAP3 SWAP2 POP POP JUMP JUMPDEST PUSH0 DUP3 DUP3 MSTORE PUSH1 0x20 DUP3 ADD SWAP1 POP SWAP3 SWAP2 POP POP JUMP JUMPDEST PUSH32 0x5461726765742069732072656163686564000000000000000000000000000000 PUSH0 DUP3 ADD MSTORE POP JUMP JUMPDEST PUSH0 PUSH2 0x9A6 PUSH1 0x11 DUP4 PUSH2 0x962 JUMP JUMPDEST SWAP2 POP PUSH2 0x9B1 DUP3 PUSH2 0x972 JUMP JUMPDEST PUSH1 0x20 DUP3 ADD SWAP1 POP SWAP2 SWAP1 POP JUMP JUMPDEST PUSH0 PUSH1 0x20 DUP3 ADD SWAP1 POP DUP2 DUP2 SUB PUSH0 DUP4 ADD MSTORE PUSH2 0x9D3 DUP2 PUSH2 0x99A JUMP JUMPDEST SWAP1 POP SWAP2 SWAP1 POP JUMP JUMPDEST PUSH32 0x7468657265206973206E6F2066756E6420666F7220796F750000000000000000 PUSH0 DUP3 ADD MSTORE POP JUMP JUMPDEST PUSH0 PUSH2 0xA0E PUSH1 0x18 DUP4 PUSH2 0x962 JUMP JUMPDEST SWAP2 POP PUSH2 0xA19 DUP3 PUSH2 0x9DA JUMP JUMPDEST PUSH1 0x20 DUP3 ADD SWAP1 POP SWAP2 SWAP1 POP JUMP JUMPDEST PUSH0 PUSH1 0x20 DUP3 ADD SWAP1 POP DUP2 DUP2 SUB PUSH0 DUP4 ADD MSTORE PUSH2 0xA3B DUP2 PUSH2 0xA02 JUMP JUMPDEST SWAP1 POP SWAP2 SWAP1 POP JUMP JUMPDEST PUSH32 0x4E487B7100000000000000000000000000000000000000000000000000000000 PUSH0 MSTORE PUSH1 0x11 PUSH1 0x4 MSTORE PUSH1 0x24 PUSH0 REVERT JUMPDEST PUSH0 PUSH2 0xA79 DUP3 PUSH2 0x900 JUMP JUMPDEST SWAP2 POP PUSH2 0xA84 DUP4 PUSH2 0x900 JUMP JUMPDEST SWAP3 POP DUP3 DUP3 ADD SWAP1 POP DUP1 DUP3 GT ISZERO PUSH2 0xA9C JUMPI PUSH2 0xA9B PUSH2 0xA42 JUMP JUMPDEST JUMPDEST SWAP3 SWAP2 POP POP JUMP JUMPDEST PUSH32 0x77696E646F77206973206E6F7420636C6F736500000000000000000000000000 PUSH0 DUP3 ADD MSTORE POP JUMP JUMPDEST PUSH0 PUSH2 0xAD6 PUSH1 0x13 DUP4 PUSH2 0x962 JUMP JUMPDEST SWAP2 POP PUSH2 0xAE1 DUP3 PUSH2 0xAA2 JUMP JUMPDEST PUSH1 0x20 DUP3 ADD SWAP1 POP SWAP2 SWAP1 POP JUMP JUMPDEST PUSH0 PUSH1 0x20 DUP3 ADD SWAP1 POP DUP2 DUP2 SUB PUSH0 DUP4 ADD MSTORE PUSH2 0xB03 DUP2 PUSH2 0xACA JUMP JUMPDEST SWAP1 POP SWAP2 SWAP1 POP JUMP JUMPDEST PUSH0 DUP2 SWAP1 POP SWAP3 SWAP2 POP POP JUMP JUMPDEST POP JUMP JUMPDEST PUSH0 PUSH2 0xB22 PUSH0 DUP4 PUSH2 0xB0A JUMP JUMPDEST SWAP2 POP PUSH2 0xB2D DUP3 PUSH2 0xB14 JUMP JUMPDEST PUSH0 DUP3 ADD SWAP1 POP SWAP2 SWAP1 POP JUMP JUMPDEST PUSH0 PUSH2 0xB41 DUP3 PUSH2 0xB17 JUMP JUMPDEST SWAP2 POP DUP2 SWAP1 POP SWAP2 SWAP1 POP JUMP JUMPDEST PUSH32 0x7472616E73666572207478206661696C65640000000000000000000000000000 PUSH0 DUP3 ADD MSTORE POP JUMP JUMPDEST PUSH0 PUSH2 0xB7F PUSH1 0x12 DUP4 PUSH2 0x962 JUMP JUMPDEST SWAP2 POP PUSH2 0xB8A DUP3 PUSH2 0xB4B JUMP JUMPDEST PUSH1 0x20 DUP3 ADD SWAP1 POP SWAP2 SWAP1 POP JUMP JUMPDEST PUSH0 PUSH1 0x20 DUP3 ADD SWAP1 POP DUP2 DUP2 SUB PUSH0 DUP4 ADD MSTORE PUSH2 0xBAC DUP2 PUSH2 0xB73 JUMP JUMPDEST SWAP1 POP SWAP2 SWAP1 POP JUMP JUMPDEST PUSH32 0x546172676574206973206E6F7420726561636865640000000000000000000000 PUSH0 DUP3 ADD MSTORE POP JUMP JUMPDEST PUSH0 PUSH2 0xBE7 PUSH1 0x15 DUP4 PUSH2 0x962 JUMP JUMPDEST SWAP2 POP PUSH2 0xBF2 DUP3 PUSH2 0xBB3 JUMP JUMPDEST PUSH1 0x20 DUP3 ADD SWAP1 POP SWAP2 SWAP1 POP JUMP JUMPDEST PUSH0 PUSH1 0x20 DUP3 ADD SWAP1 POP DUP2 DUP2 SUB PUSH0 DUP4 ADD MSTORE PUSH2 0xC14 DUP2 PUSH2 0xBDB JUMP JUMPDEST SWAP1 POP SWAP2 SWAP1 POP JUMP JUMPDEST PUSH32 0x746869732066756E6374696F6E2063616E206F6E6C792062652063616C6C6564 PUSH0 DUP3 ADD MSTORE PUSH32 0x206279206F776E65720000000000000000000000000000000000000000000000 PUSH1 0x20 DUP3 ADD MSTORE POP JUMP JUMPDEST PUSH0 PUSH2 0xC75 PUSH1 0x29 DUP4 PUSH2 0x962 JUMP JUMPDEST SWAP2 POP PUSH2 0xC80 DUP3 PUSH2 0xC1B JUMP JUMPDEST PUSH1 0x40 DUP3 ADD SWAP1 POP SWAP2 SWAP1 POP JUMP JUMPDEST PUSH0 PUSH1 0x20 DUP3 ADD SWAP1 POP DUP2 DUP2 SUB PUSH0 DUP4 ADD MSTORE PUSH2 0xCA2 DUP2 PUSH2 0xC69 JUMP JUMPDEST SWAP1 POP SWAP2 SWAP1 POP JUMP JUMPDEST PUSH32 0x53656E64206D6F72652045544800000000000000000000000000000000000000 PUSH0 DUP3 ADD MSTORE POP JUMP JUMPDEST PUSH0 PUSH2 0xCDD PUSH1 0xD DUP4 PUSH2 0x962 JUMP JUMPDEST SWAP2 POP PUSH2 0xCE8 DUP3 PUSH2 0xCA9 JUMP JUMPDEST PUSH1 0x20 DUP3 ADD SWAP1 POP SWAP2 SWAP1 POP JUMP JUMPDEST PUSH0 PUSH1 0x20 DUP3 ADD SWAP1 POP DUP2 DUP2 SUB PUSH0 DUP4 ADD MSTORE PUSH2 0xD0A DUP2 PUSH2 0xCD1 JUMP JUMPDEST SWAP1 POP SWAP2 SWAP1 POP JUMP JUMPDEST PUSH32 0x77696E646F7720697320636C6F73650000000000000000000000000000000000 PUSH0 DUP3 ADD MSTORE POP JUMP JUMPDEST PUSH0 PUSH2 0xD45 PUSH1 0xF DUP4 PUSH2 0x962 JUMP JUMPDEST SWAP2 POP PUSH2 0xD50 DUP3 PUSH2 0xD11 JUMP JUMPDEST PUSH1 0x20 DUP3 ADD SWAP1 POP SWAP2 SWAP1 POP JUMP JUMPDEST PUSH0 PUSH1 0x20 DUP3 ADD SWAP1 POP DUP2 DUP2 SUB PUSH0 DUP4 ADD MSTORE PUSH2 0xD72 DUP2 PUSH2 0xD39 JUMP JUMPDEST SWAP1 POP SWAP2 SWAP1 POP JUMP JUMPDEST PUSH0 PUSH10 0xFFFFFFFFFFFFFFFFFFFF DUP3 AND SWAP1 POP SWAP2 SWAP1 POP JUMP JUMPDEST PUSH2 0xD97 DUP2 PUSH2 0xD79 JUMP JUMPDEST DUP2 EQ PUSH2 0xDA1 JUMPI PUSH0 DUP1 REVERT JUMPDEST POP JUMP JUMPDEST PUSH0 DUP2 MLOAD SWAP1 POP PUSH2 0xDB2 DUP2 PUSH2 0xD8E JUMP JUMPDEST SWAP3 SWAP2 POP POP JUMP JUMPDEST PUSH2 0xDC1 DUP2 PUSH2 0x931 JUMP JUMPDEST DUP2 EQ PUSH2 0xDCB JUMPI PUSH0 DUP1 REVERT JUMPDEST POP JUMP JUMPDEST PUSH0 DUP2 MLOAD SWAP1 POP PUSH2 0xDDC DUP2 PUSH2 0xDB8 JUMP JUMPDEST SWAP3 SWAP2 POP POP JUMP JUMPDEST PUSH2 0xDEB DUP2 PUSH2 0x900 JUMP JUMPDEST DUP2 EQ PUSH2 0xDF5 JUMPI PUSH0 DUP1 REVERT JUMPDEST POP JUMP JUMPDEST PUSH0 DUP2 MLOAD SWAP1 POP PUSH2 0xE06 DUP2 PUSH2 0xDE2 JUMP JUMPDEST SWAP3 SWAP2 POP POP JUMP JUMPDEST PUSH0 DUP1 PUSH0 DUP1 PUSH0 PUSH1 0xA0 DUP7 DUP9 SUB SLT ISZERO PUSH2 0xE25 JUMPI PUSH2 0xE24 PUSH2 0x8A7 JUMP JUMPDEST JUMPDEST PUSH0 PUSH2 0xE32 DUP9 DUP3 DUP10 ADD PUSH2 0xDA4 JUMP JUMPDEST SWAP6 POP POP PUSH1 0x20 PUSH2 0xE43 DUP9 DUP3 DUP10 ADD PUSH2 0xDCE JUMP JUMPDEST SWAP5 POP POP PUSH1 0x40 PUSH2 0xE54 DUP9 DUP3 DUP10 ADD PUSH2 0xDF8 JUMP JUMPDEST SWAP4 POP POP PUSH1 0x60 PUSH2 0xE65 DUP9 DUP3 DUP10 ADD PUSH2 0xDF8 JUMP JUMPDEST SWAP3 POP POP PUSH1 0x80 PUSH2 0xE76 DUP9 DUP3 DUP10 ADD PUSH2 0xDA4 JUMP JUMPDEST SWAP2 POP POP SWAP3 SWAP6 POP SWAP3 SWAP6 SWAP1 SWAP4 POP JUMP JUMPDEST PUSH0 PUSH2 0xE8D DUP3 PUSH2 0x900 JUMP JUMPDEST SWAP2 POP PUSH2 0xE98 DUP4 PUSH2 0x900 JUMP JUMPDEST SWAP3 POP DUP3 DUP3 MUL PUSH2 0xEA6 DUP2 PUSH2 0x900 JUMP JUMPDEST SWAP2 POP DUP3 DUP3 DIV DUP5 EQ DUP4 ISZERO OR PUSH2 0xEBD JUMPI PUSH2 0xEBC PUSH2 0xA42 JUMP JUMPDEST JUMPDEST POP SWAP3 SWAP2 POP POP JUMP JUMPDEST PUSH32 0x4E487B7100000000000000000000000000000000000000000000000000000000 PUSH0 MSTORE PUSH1 0x12 PUSH1 0x4 MSTORE PUSH1 0x24 PUSH0 REVERT JUMPDEST PUSH0 PUSH2 0xEFB DUP3 PUSH2 0x900 JUMP JUMPDEST SWAP2 POP PUSH2 0xF06 DUP4 PUSH2 0x900 JUMP JUMPDEST SWAP3 POP DUP3 PUSH2 0xF16 JUMPI PUSH2 0xF15 PUSH2 0xEC4 JUMP JUMPDEST JUMPDEST DUP3 DUP3 DIV SWAP1 POP SWAP3 SWAP2 POP POP JUMP INVALID LOG2 PUSH5 0x6970667358 0x22 SLT KECCAK256 PUSH32 0xC15EE5423BD1328C56FFD5DD009D6242CD411BFE1B7ABC5E0F74B88FB1346064 PUSH20 0x6F6C634300081A00330000000000000000000000 "
				},
				"gasEstimates": {
					"creation": {
						"codeDepositCost": "785400",
						"executionCost": "infinite",
						"totalCost": "infinite"
					},
					"external": {
						"fund()": "infinite",
						"fundersToAmount(address)": "2801",
						"getChainlinkDataFeedLatestAnswer()": "infinite",
						"getFund()": "infinite",
						"owner()": "2531",
						"refund()": "infinite",
						"transferOwnership(address)": "26950"
					},
					"internal": {
						"convertEthToUsd(uint256)": "infinite"
					}
				},
				"methodIdentifiers": {
					"fund()": "b60d4288",
					"fundersToAmount(address)": "9f883a05",
					"getChainlinkDataFeedLatestAnswer()": "bea4dfb5",
					"getFund()": "8edd6eb6",
					"owner()": "8da5cb5b",
					"refund()": "590e1ae3",
					"transferOwnership(address)": "f2fde38b"
				}
			},
			"storageLayout": {
				"storage": [
					{
						"astId": 53,
						"contract": "fundme/FundMe.sol:FundMe",
						"label": "fundersToAmount",
						"offset": 0,
						"slot": "0",
						"type": "t_mapping(t_address,t_uint256)"
					},
					{
						"astId": 56,
						"contract": "fundme/FundMe.sol:FundMe",
						"label": "dataFeed",
						"offset": 0,
						"slot": "1",
						"type": "t_contract(AggregatorV3Interface)45"
					},
					{
						"astId": 72,
						"contract": "fundme/FundMe.sol:FundMe",
						"label": "owner",
						"offset": 0,
						"slot": "2",
						"type": "t_address"
					},
					{
						"astId": 74,
						"contract": "fundme/FundMe.sol:FundMe",
						"label": "deploymentTimestamp",
						"offset": 0,
						"slot": "3",
						"type": "t_uint256"
					},
					{
						"astId": 76,
						"contract": "fundme/FundMe.sol:FundMe",
						"label": "lockTime",
						"offset": 0,
						"slot": "4",
						"type": "t_uint256"
					}
				],
				"types": {
					"t_address": {
						"encoding": "inplace",
						"label": "address",
						"numberOfBytes": "20"
					},
					"t_contract(AggregatorV3Interface)45": {
						"encoding": "inplace",
						"label": "contract AggregatorV3Interface",
						"numberOfBytes": "20"
					},
					"t_mapping(t_address,t_uint256)": {
						"encoding": "mapping",
						"key": "t_address",
						"label": "mapping(address => uint256)",
						"numberOfBytes": "32",
						"value": "t_uint256"
					},
					"t_uint256": {
						"encoding": "inplace",
						"label": "uint256",
						"numberOfBytes": "32"
					}
				}
			},
			"userdoc": {
				"kind": "user",
				"methods": {},
				"version": 1
			}
		}
	}
}