{
	"fundme/FundTokenERC20_flattened.sol": {
		"FundMe": {
			"abi": [
				{
					"inputs": [
						{
							"internalType": "uint256",
							"name": "_lockTime",
							"type": "uint256"
						}
					],
					"stateMutability": "nonpayable",
					"type": "constructor"
				},
				{
					"inputs": [],
					"name": "fund",
					"outputs": [],
					"stateMutability": "payable",
					"type": "function"
				},
				{
					"inputs": [
						{
							"internalType": "address",
							"name": "",
							"type": "address"
						}
					],
					"name": "fundersToAmount",
					"outputs": [
						{
							"internalType": "uint256",
							"name": "",
							"type": "uint256"
						}
					],
					"stateMutability": "view",
					"type": "function"
				},
				{
					"inputs": [],
					"name": "getChainlinkDataFeedLatestAnswer",
					"outputs": [
						{
							"internalType": "int256",
							"name": "",
							"type": "int256"
						}
					],
					"stateMutability": "view",
					"type": "function"
				},
				{
					"inputs": [],
					"name": "getFund",
					"outputs": [],
					"stateMutability": "nonpayable",
					"type": "function"
				},
				{
					"inputs": [],
					"name": "getFundSuccess",
					"outputs": [
						{
							"internalType": "bool",
							"name": "",
							"type": "bool"
						}
					],
					"stateMutability": "view",
					"type": "function"
				},
				{
					"inputs": [],
					"name": "owner",
					"outputs": [
						{
							"internalType": "address",
							"name": "",
							"type": "address"
						}
					],
					"stateMutability": "view",
					"type": "function"
				},
				{
					"inputs": [],
					"name": "refund",
					"outputs": [],
					"stateMutability": "nonpayable",
					"type": "function"
				},
				{
					"inputs": [
						{
							"internalType": "address",
							"name": "_erc20Addr",
							"type": "address"
						}
					],
					"name": "setErc20Addr",
					"outputs": [],
					"stateMutability": "nonpayable",
					"type": "function"
				},
				{
					"inputs": [
						{
							"internalType": "address",
							"name": "funder",
							"type": "address"
						},
						{
							"internalType": "uint256",
							"name": "amountToUpdate",
							"type": "uint256"
						}
					],
					"name": "setFunderToAmount",
					"outputs": [],
					"stateMutability": "nonpayable",
					"type": "function"
				},
				{
					"inputs": [
						{
							"internalType": "address",
							"name": "newOwner",
							"type": "address"
						}
					],
					"name": "transferOwnership",
					"outputs": [],
					"stateMutability": "nonpayable",
					"type": "function"
				}
			],
			"devdoc": {
				"kind": "dev",
				"methods": {},
				"version": 1
			},
			"evm": {
				"assembly": "    /* \"fundme/FundTokenERC20_flattened.sol\":22943:31391  contract FundMe {... */\n  mstore(0x40, 0x80)\n    /* \"fundme/FundTokenERC20_flattened.sol\":23896:23901  false */\n  0x00\n    /* \"fundme/FundTokenERC20_flattened.sol\":23867:23901  bool public getFundSuccess = false */\n  0x05\n  exp(0x0100, 0x14)\n  dup2\n  sload\n  dup2\n  0xff\n  mul\n  not\n  and\n  swap1\n  dup4\n  iszero\n  iszero\n  mul\n  or\n  swap1\n  sstore\n  pop\n    /* \"fundme/FundTokenERC20_flattened.sol\":23943:24968  constructor(uint256 _lockTime) {... */\n  callvalue\n  dup1\n  iszero\n  tag_1\n  jumpi\n  0x00\n  dup1\n  revert\ntag_1:\n  pop\n  mload(0x40)\n  sub(codesize, bytecodeSize)\n  dup1\n  bytecodeSize\n  dup4\n  codecopy\n  dup2\n  dup2\n  add\n  0x40\n  mstore\n  dup2\n  add\n  swap1\n  tag_2\n  swap2\n  swap1\n  tag_3\n  jump\t// in\ntag_2:\n    /* \"fundme/FundTokenERC20_flattened.sol\":24464:24506  0x694AA1769357215DE4FAC081bf1f309aDC325306 */\n  0x694aa1769357215de4fac081bf1f309adc325306\n    /* \"fundme/FundTokenERC20_flattened.sol\":24431:24439  dataFeed */\n  0x01\n  0x00\n    /* \"fundme/FundTokenERC20_flattened.sol\":24431:24507  dataFeed = AggregatorV3Interface(0x694AA1769357215DE4FAC081bf1f309aDC325306) */\n  0x0100\n  exp\n  dup2\n  sload\n  dup2\n  0xffffffffffffffffffffffffffffffffffffffff\n  mul\n  not\n  and\n  swap1\n  dup4\n  0xffffffffffffffffffffffffffffffffffffffff\n  and\n  mul\n  or\n  swap1\n  sstore\n  pop\n    /* \"fundme/FundTokenERC20_flattened.sol\":24655:24665  msg.sender */\n  caller\n    /* \"fundme/FundTokenERC20_flattened.sol\":24647:24652  owner */\n  0x02\n  0x00\n    /* \"fundme/FundTokenERC20_flattened.sol\":24647:24665  owner = msg.sender */\n  0x0100\n  exp\n  dup2\n  sload\n  dup2\n  0xffffffffffffffffffffffffffffffffffffffff\n  mul\n  not\n  and\n  swap1\n  dup4\n  0xffffffffffffffffffffffffffffffffffffffff\n  and\n  mul\n  or\n  swap1\n  sstore\n  pop\n    /* \"fundme/FundTokenERC20_flattened.sol\":24916:24931  block.timestamp */\n  timestamp\n    /* \"fundme/FundTokenERC20_flattened.sol\":24894:24913  deploymentTimestamp */\n  0x03\n    /* \"fundme/FundTokenERC20_flattened.sol\":24894:24931  deploymentTimestamp = block.timestamp */\n  dup2\n  swap1\n  sstore\n  pop\n    /* \"fundme/FundTokenERC20_flattened.sol\":24952:24961  _lockTime */\n  dup1\n    /* \"fundme/FundTokenERC20_flattened.sol\":24941:24949  lockTime */\n  0x04\n    /* \"fundme/FundTokenERC20_flattened.sol\":24941:24961  lockTime = _lockTime */\n  dup2\n  swap1\n  sstore\n  pop\n    /* \"fundme/FundTokenERC20_flattened.sol\":23943:24968  constructor(uint256 _lockTime) {... */\n  pop\n    /* \"fundme/FundTokenERC20_flattened.sol\":22943:31391  contract FundMe {... */\n  jump(tag_6)\n    /* \"#utility.yul\":88:205   */\ntag_8:\n    /* \"#utility.yul\":197:198   */\n  0x00\n    /* \"#utility.yul\":194:195   */\n  dup1\n    /* \"#utility.yul\":187:199   */\n  revert\n    /* \"#utility.yul\":334:411   */\ntag_10:\n    /* \"#utility.yul\":371:378   */\n  0x00\n    /* \"#utility.yul\":400:405   */\n  dup2\n    /* \"#utility.yul\":389:405   */\n  swap1\n  pop\n    /* \"#utility.yul\":334:411   */\n  swap2\n  swap1\n  pop\n  jump\t// out\n    /* \"#utility.yul\":417:539   */\ntag_11:\n    /* \"#utility.yul\":490:514   */\n  tag_19\n    /* \"#utility.yul\":508:513   */\n  dup2\n    /* \"#utility.yul\":490:514   */\n  tag_10\n  jump\t// in\ntag_19:\n    /* \"#utility.yul\":483:488   */\n  dup2\n    /* \"#utility.yul\":480:515   */\n  eq\n    /* \"#utility.yul\":470:533   */\n  tag_20\n  jumpi\n    /* \"#utility.yul\":529:530   */\n  0x00\n    /* \"#utility.yul\":526:527   */\n  dup1\n    /* \"#utility.yul\":519:531   */\n  revert\n    /* \"#utility.yul\":470:533   */\ntag_20:\n    /* \"#utility.yul\":417:539   */\n  pop\n  jump\t// out\n    /* \"#utility.yul\":545:688   */\ntag_12:\n    /* \"#utility.yul\":602:607   */\n  0x00\n    /* \"#utility.yul\":633:639   */\n  dup2\n    /* \"#utility.yul\":627:640   */\n  mload\n    /* \"#utility.yul\":618:640   */\n  swap1\n  pop\n    /* \"#utility.yul\":649:682   */\n  tag_22\n    /* \"#utility.yul\":676:681   */\n  dup2\n    /* \"#utility.yul\":649:682   */\n  tag_11\n  jump\t// in\ntag_22:\n    /* \"#utility.yul\":545:688   */\n  swap3\n  swap2\n  pop\n  pop\n  jump\t// out\n    /* \"#utility.yul\":694:1045   */\ntag_3:\n    /* \"#utility.yul\":764:770   */\n  0x00\n    /* \"#utility.yul\":813:815   */\n  0x20\n    /* \"#utility.yul\":801:810   */\n  dup3\n    /* \"#utility.yul\":792:799   */\n  dup5\n    /* \"#utility.yul\":788:811   */\n  sub\n    /* \"#utility.yul\":784:816   */\n  slt\n    /* \"#utility.yul\":781:900   */\n  iszero\n  tag_24\n  jumpi\n    /* \"#utility.yul\":819:898   */\n  tag_25\n  tag_8\n  jump\t// in\ntag_25:\n    /* \"#utility.yul\":781:900   */\ntag_24:\n    /* \"#utility.yul\":939:940   */\n  0x00\n    /* \"#utility.yul\":964:1028   */\n  tag_26\n    /* \"#utility.yul\":1020:1027   */\n  dup5\n    /* \"#utility.yul\":1011:1017   */\n  dup3\n    /* \"#utility.yul\":1000:1009   */\n  dup6\n    /* \"#utility.yul\":996:1018   */\n  add\n    /* \"#utility.yul\":964:1028   */\n  tag_12\n  jump\t// in\ntag_26:\n    /* \"#utility.yul\":954:1028   */\n  swap2\n  pop\n    /* \"#utility.yul\":910:1038   */\n  pop\n    /* \"#utility.yul\":694:1045   */\n  swap3\n  swap2\n  pop\n  pop\n  jump\t// out\n    /* \"fundme/FundTokenERC20_flattened.sol\":22943:31391  contract FundMe {... */\ntag_6:\n  dataSize(sub_0)\n  dup1\n  dataOffset(sub_0)\n  0x00\n  codecopy\n  0x00\n  return\nstop\n\nsub_0: assembly {\n        /* \"fundme/FundTokenERC20_flattened.sol\":22943:31391  contract FundMe {... */\n      mstore(0x40, 0x80)\n      jumpi(tag_1, lt(calldatasize, 0x04))\n      shr(0xe0, calldataload(0x00))\n      dup1\n      0xb60d4288\n      gt\n      tag_12\n      jumpi\n      dup1\n      0xb60d4288\n      eq\n      tag_7\n      jumpi\n      dup1\n      0xbea4dfb5\n      eq\n      tag_8\n      jumpi\n      dup1\n      0xd39cf006\n      eq\n      tag_9\n      jumpi\n      dup1\n      0xda4658e0\n      eq\n      tag_10\n      jumpi\n      dup1\n      0xf2fde38b\n      eq\n      tag_11\n      jumpi\n      jump(tag_1)\n    tag_12:\n      dup1\n      0x13ffff01\n      eq\n      tag_2\n      jumpi\n      dup1\n      0x590e1ae3\n      eq\n      tag_3\n      jumpi\n      dup1\n      0x8da5cb5b\n      eq\n      tag_4\n      jumpi\n      dup1\n      0x8edd6eb6\n      eq\n      tag_5\n      jumpi\n      dup1\n      0x9f883a05\n      eq\n      tag_6\n      jumpi\n    tag_1:\n      0x00\n      dup1\n      revert\n        /* \"fundme/FundTokenERC20_flattened.sol\":30553:30651  function setErc20Addr(address _erc20Addr) public onlyOwner {... */\n    tag_2:\n      callvalue\n      dup1\n      iszero\n      tag_13\n      jumpi\n      0x00\n      dup1\n      revert\n    tag_13:\n      pop\n      tag_14\n      0x04\n      dup1\n      calldatasize\n      sub\n      dup2\n      add\n      swap1\n      tag_15\n      swap2\n      swap1\n      tag_16\n      jump\t// in\n    tag_15:\n      tag_17\n      jump\t// in\n    tag_14:\n      stop\n        /* \"fundme/FundTokenERC20_flattened.sol\":29386:30101  function refund() external windowClose {... */\n    tag_3:\n      callvalue\n      dup1\n      iszero\n      tag_18\n      jumpi\n      0x00\n      dup1\n      revert\n    tag_18:\n      pop\n      tag_19\n      tag_20\n      jump\t// in\n    tag_19:\n      stop\n        /* \"fundme/FundTokenERC20_flattened.sol\":23661:23681  address public owner */\n    tag_4:\n      callvalue\n      dup1\n      iszero\n      tag_21\n      jumpi\n      0x00\n      dup1\n      revert\n    tag_21:\n      pop\n      tag_22\n      tag_23\n      jump\t// in\n    tag_22:\n      mload(0x40)\n      tag_24\n      swap2\n      swap1\n      tag_25\n      jump\t// in\n    tag_24:\n      mload(0x40)\n      dup1\n      swap2\n      sub\n      swap1\n      return\n        /* \"fundme/FundTokenERC20_flattened.sol\":27336:29263  function getFund() external windowClose onlyOwner {... */\n    tag_5:\n      callvalue\n      dup1\n      iszero\n      tag_26\n      jumpi\n      0x00\n      dup1\n      revert\n    tag_26:\n      pop\n      tag_27\n      tag_28\n      jump\t// in\n    tag_27:\n      stop\n        /* \"fundme/FundTokenERC20_flattened.sol\":22966:23016  mapping(address => uint256) public fundersToAmount */\n    tag_6:\n      callvalue\n      dup1\n      iszero\n      tag_29\n      jumpi\n      0x00\n      dup1\n      revert\n    tag_29:\n      pop\n      tag_30\n      0x04\n      dup1\n      calldatasize\n      sub\n      dup2\n      add\n      swap1\n      tag_31\n      swap2\n      swap1\n      tag_16\n      jump\t// in\n    tag_31:\n      tag_32\n      jump\t// in\n    tag_30:\n      mload(0x40)\n      tag_33\n      swap2\n      swap1\n      tag_34\n      jump\t// in\n    tag_33:\n      mload(0x40)\n      dup1\n      swap2\n      sub\n      swap1\n      return\n        /* \"fundme/FundTokenERC20_flattened.sol\":25305:25943  function fund() external payable {... */\n    tag_7:\n      tag_35\n      tag_36\n      jump\t// in\n    tag_35:\n      stop\n        /* \"fundme/FundTokenERC20_flattened.sol\":26067:26405  function getChainlinkDataFeedLatestAnswer() public view returns (int) {... */\n    tag_8:\n      callvalue\n      dup1\n      iszero\n      tag_37\n      jumpi\n      0x00\n      dup1\n      revert\n    tag_37:\n      pop\n      tag_38\n      tag_39\n      jump\t// in\n    tag_38:\n      mload(0x40)\n      tag_40\n      swap2\n      swap1\n      tag_41\n      jump\t// in\n    tag_40:\n      mload(0x40)\n      dup1\n      swap2\n      sub\n      swap1\n      return\n        /* \"fundme/FundTokenERC20_flattened.sol\":30139:30454  function setFunderToAmount(address funder, uint256 amountToUpdate) external {... */\n    tag_9:\n      callvalue\n      dup1\n      iszero\n      tag_42\n      jumpi\n      0x00\n      dup1\n      revert\n    tag_42:\n      pop\n      tag_43\n      0x04\n      dup1\n      calldatasize\n      sub\n      dup2\n      add\n      swap1\n      tag_44\n      swap2\n      swap1\n      tag_45\n      jump\t// in\n    tag_44:\n      tag_46\n      jump\t// in\n    tag_43:\n      stop\n        /* \"fundme/FundTokenERC20_flattened.sol\":23867:23901  bool public getFundSuccess = false */\n    tag_10:\n      callvalue\n      dup1\n      iszero\n      tag_47\n      jumpi\n      0x00\n      dup1\n      revert\n    tag_47:\n      pop\n      tag_48\n      tag_49\n      jump\t// in\n    tag_48:\n      mload(0x40)\n      tag_50\n      swap2\n      swap1\n      tag_51\n      jump\t// in\n    tag_50:\n      mload(0x40)\n      dup1\n      swap2\n      sub\n      swap1\n      return\n        /* \"fundme/FundTokenERC20_flattened.sol\":26962:27123  function transferOwnership(address newOwner) public onlyOwner {... */\n    tag_11:\n      callvalue\n      dup1\n      iszero\n      tag_52\n      jumpi\n      0x00\n      dup1\n      revert\n    tag_52:\n      pop\n      tag_53\n      0x04\n      dup1\n      calldatasize\n      sub\n      dup2\n      add\n      swap1\n      tag_54\n      swap2\n      swap1\n      tag_16\n      jump\t// in\n    tag_54:\n      tag_55\n      jump\t// in\n    tag_53:\n      stop\n        /* \"fundme/FundTokenERC20_flattened.sol\":30553:30651  function setErc20Addr(address _erc20Addr) public onlyOwner {... */\n    tag_17:\n        /* \"fundme/FundTokenERC20_flattened.sol\":31157:31162  owner */\n      0x02\n      0x00\n      swap1\n      sload\n      swap1\n      0x0100\n      exp\n      swap1\n      div\n      0xffffffffffffffffffffffffffffffffffffffff\n      and\n        /* \"fundme/FundTokenERC20_flattened.sol\":31143:31162  msg.sender == owner */\n      0xffffffffffffffffffffffffffffffffffffffff\n      and\n        /* \"fundme/FundTokenERC20_flattened.sol\":31143:31153  msg.sender */\n      caller\n        /* \"fundme/FundTokenERC20_flattened.sol\":31143:31162  msg.sender == owner */\n      0xffffffffffffffffffffffffffffffffffffffff\n      and\n      eq\n        /* \"fundme/FundTokenERC20_flattened.sol\":31135:31208  require(msg.sender == owner, \"this function can only be called by owner\") */\n      tag_57\n      jumpi\n      mload(0x40)\n      0x08c379a000000000000000000000000000000000000000000000000000000000\n      dup2\n      mstore\n      0x04\n      add\n      tag_58\n      swap1\n      tag_59\n      jump\t// in\n    tag_58:\n      mload(0x40)\n      dup1\n      swap2\n      sub\n      swap1\n      revert\n    tag_57:\n        /* \"fundme/FundTokenERC20_flattened.sol\":30634:30644  _erc20Addr */\n      dup1\n        /* \"fundme/FundTokenERC20_flattened.sol\":30622:30631  erc20Addr */\n      0x05\n      0x00\n        /* \"fundme/FundTokenERC20_flattened.sol\":30622:30644  erc20Addr = _erc20Addr */\n      0x0100\n      exp\n      dup2\n      sload\n      dup2\n      0xffffffffffffffffffffffffffffffffffffffff\n      mul\n      not\n      and\n      swap1\n      dup4\n      0xffffffffffffffffffffffffffffffffffffffff\n      and\n      mul\n      or\n      swap1\n      sstore\n      pop\n        /* \"fundme/FundTokenERC20_flattened.sol\":30553:30651  function setErc20Addr(address _erc20Addr) public onlyOwner {... */\n      pop\n      jump\t// out\n        /* \"fundme/FundTokenERC20_flattened.sol\":29386:30101  function refund() external windowClose {... */\n    tag_20:\n        /* \"fundme/FundTokenERC20_flattened.sol\":30856:30864  lockTime */\n      sload(0x04)\n        /* \"fundme/FundTokenERC20_flattened.sol\":30834:30853  deploymentTimestamp */\n      sload(0x03)\n        /* \"fundme/FundTokenERC20_flattened.sol\":30834:30864  deploymentTimestamp + lockTime */\n      tag_62\n      swap2\n      swap1\n      tag_63\n      jump\t// in\n    tag_62:\n        /* \"fundme/FundTokenERC20_flattened.sol\":30815:30830  block.timestamp */\n      timestamp\n        /* \"fundme/FundTokenERC20_flattened.sol\":30815:30864  block.timestamp >= deploymentTimestamp + lockTime */\n      lt\n      iszero\n        /* \"fundme/FundTokenERC20_flattened.sol\":30807:30888  require(block.timestamp >= deploymentTimestamp + lockTime, \"window is not close\") */\n      tag_64\n      jumpi\n      mload(0x40)\n      0x08c379a000000000000000000000000000000000000000000000000000000000\n      dup2\n      mstore\n      0x04\n      add\n      tag_65\n      swap1\n      tag_66\n      jump\t// in\n    tag_65:\n      mload(0x40)\n      dup1\n      swap2\n      sub\n      swap1\n      revert\n    tag_64:\n        /* \"fundme/FundTokenERC20_flattened.sol\":23616:23631  1000 * 10 ** 18 */\n      0x3635c9adc5dea00000\n        /* \"fundme/FundTokenERC20_flattened.sol\":29443:29481  convertEthToUsd(address(this).balance) */\n      tag_68\n        /* \"fundme/FundTokenERC20_flattened.sol\":29459:29480  address(this).balance */\n      selfbalance\n        /* \"fundme/FundTokenERC20_flattened.sol\":29443:29458  convertEthToUsd */\n      tag_69\n        /* \"fundme/FundTokenERC20_flattened.sol\":29443:29481  convertEthToUsd(address(this).balance) */\n      jump\t// in\n    tag_68:\n        /* \"fundme/FundTokenERC20_flattened.sol\":29443:29490  convertEthToUsd(address(this).balance) < TARGET */\n      lt\n        /* \"fundme/FundTokenERC20_flattened.sol\":29435:29512  require(convertEthToUsd(address(this).balance) < TARGET, \"Target is reached\") */\n      tag_70\n      jumpi\n      mload(0x40)\n      0x08c379a000000000000000000000000000000000000000000000000000000000\n      dup2\n      mstore\n      0x04\n      add\n      tag_71\n      swap1\n      tag_72\n      jump\t// in\n    tag_71:\n      mload(0x40)\n      dup1\n      swap2\n      sub\n      swap1\n      revert\n    tag_70:\n        /* \"fundme/FundTokenERC20_flattened.sol\":29651:29652  0 */\n      0x00\n        /* \"fundme/FundTokenERC20_flattened.sol\":29620:29635  fundersToAmount */\n      dup1\n        /* \"fundme/FundTokenERC20_flattened.sol\":29620:29647  fundersToAmount[msg.sender] */\n      0x00\n        /* \"fundme/FundTokenERC20_flattened.sol\":29636:29646  msg.sender */\n      caller\n        /* \"fundme/FundTokenERC20_flattened.sol\":29620:29647  fundersToAmount[msg.sender] */\n      0xffffffffffffffffffffffffffffffffffffffff\n      and\n      0xffffffffffffffffffffffffffffffffffffffff\n      and\n      dup2\n      mstore\n      0x20\n      add\n      swap1\n      dup2\n      mstore\n      0x20\n      add\n      0x00\n      keccak256\n      sload\n        /* \"fundme/FundTokenERC20_flattened.sol\":29620:29652  fundersToAmount[msg.sender] != 0 */\n      sub\n        /* \"fundme/FundTokenERC20_flattened.sol\":29612:29681  require(fundersToAmount[msg.sender] != 0, \"there is no fund for you\") */\n      tag_73\n      jumpi\n      mload(0x40)\n      0x08c379a000000000000000000000000000000000000000000000000000000000\n      dup2\n      mstore\n      0x04\n      add\n      tag_74\n      swap1\n      tag_75\n      jump\t// in\n    tag_74:\n      mload(0x40)\n      dup1\n      swap2\n      sub\n      swap1\n      revert\n    tag_73:\n        /* \"fundme/FundTokenERC20_flattened.sol\":29692:29704  bool success */\n      0x00\n        /* \"fundme/FundTokenERC20_flattened.sol\":29781:29791  msg.sender */\n      caller\n        /* \"fundme/FundTokenERC20_flattened.sol\":29773:29797  payable(msg.sender).call */\n      0xffffffffffffffffffffffffffffffffffffffff\n      and\n        /* \"fundme/FundTokenERC20_flattened.sol\":29805:29820  fundersToAmount */\n      0x00\n        /* \"fundme/FundTokenERC20_flattened.sol\":29805:29832  fundersToAmount[msg.sender] */\n      dup1\n        /* \"fundme/FundTokenERC20_flattened.sol\":29821:29831  msg.sender */\n      caller\n        /* \"fundme/FundTokenERC20_flattened.sol\":29805:29832  fundersToAmount[msg.sender] */\n      0xffffffffffffffffffffffffffffffffffffffff\n      and\n      0xffffffffffffffffffffffffffffffffffffffff\n      and\n      dup2\n      mstore\n      0x20\n      add\n      swap1\n      dup2\n      mstore\n      0x20\n      add\n      0x00\n      keccak256\n      sload\n        /* \"fundme/FundTokenERC20_flattened.sol\":29773:29837  payable(msg.sender).call{value: fundersToAmount[msg.sender]}(\"\") */\n      mload(0x40)\n      tag_76\n      swap1\n      tag_77\n      jump\t// in\n    tag_76:\n      0x00\n      mload(0x40)\n      dup1\n      dup4\n      sub\n      dup2\n      dup6\n      dup8\n      gas\n      call\n      swap3\n      pop\n      pop\n      pop\n      returndatasize\n      dup1\n      0x00\n      dup2\n      eq\n      tag_80\n      jumpi\n      mload(0x40)\n      swap2\n      pop\n      and(add(returndatasize, 0x3f), not(0x1f))\n      dup3\n      add\n      0x40\n      mstore\n      returndatasize\n      dup3\n      mstore\n      returndatasize\n      0x00\n      0x20\n      dup5\n      add\n      returndatacopy\n      jump(tag_79)\n    tag_80:\n      0x60\n      swap2\n      pop\n    tag_79:\n      pop\n        /* \"fundme/FundTokenERC20_flattened.sol\":29759:29837  (success, ) = payable(msg.sender).call{value: fundersToAmount[msg.sender]}(\"\") */\n      pop\n      dup1\n      swap2\n      pop\n      pop\n        /* \"fundme/FundTokenERC20_flattened.sol\":29959:29966  success */\n      dup1\n        /* \"fundme/FundTokenERC20_flattened.sol\":29951:29989  require(success, \"transfer tx failed\") */\n      tag_81\n      jumpi\n      mload(0x40)\n      0x08c379a000000000000000000000000000000000000000000000000000000000\n      dup2\n      mstore\n      0x04\n      add\n      tag_82\n      swap1\n      tag_83\n      jump\t// in\n    tag_82:\n      mload(0x40)\n      dup1\n      swap2\n      sub\n      swap1\n      revert\n    tag_81:\n        /* \"fundme/FundTokenERC20_flattened.sol\":30093:30094  0 */\n      0x00\n        /* \"fundme/FundTokenERC20_flattened.sol\":30063:30078  fundersToAmount */\n      dup1\n        /* \"fundme/FundTokenERC20_flattened.sol\":30063:30090  fundersToAmount[msg.sender] */\n      0x00\n        /* \"fundme/FundTokenERC20_flattened.sol\":30079:30089  msg.sender */\n      caller\n        /* \"fundme/FundTokenERC20_flattened.sol\":30063:30090  fundersToAmount[msg.sender] */\n      0xffffffffffffffffffffffffffffffffffffffff\n      and\n      0xffffffffffffffffffffffffffffffffffffffff\n      and\n      dup2\n      mstore\n      0x20\n      add\n      swap1\n      dup2\n      mstore\n      0x20\n      add\n      0x00\n      keccak256\n        /* \"fundme/FundTokenERC20_flattened.sol\":30063:30094  fundersToAmount[msg.sender] = 0 */\n      dup2\n      swap1\n      sstore\n      pop\n        /* \"fundme/FundTokenERC20_flattened.sol\":29425:30101  {... */\n      pop\n        /* \"fundme/FundTokenERC20_flattened.sol\":29386:30101  function refund() external windowClose {... */\n      jump\t// out\n        /* \"fundme/FundTokenERC20_flattened.sol\":23661:23681  address public owner */\n    tag_23:\n      0x02\n      0x00\n      swap1\n      sload\n      swap1\n      0x0100\n      exp\n      swap1\n      div\n      0xffffffffffffffffffffffffffffffffffffffff\n      and\n      dup2\n      jump\t// out\n        /* \"fundme/FundTokenERC20_flattened.sol\":27336:29263  function getFund() external windowClose onlyOwner {... */\n    tag_28:\n        /* \"fundme/FundTokenERC20_flattened.sol\":30856:30864  lockTime */\n      sload(0x04)\n        /* \"fundme/FundTokenERC20_flattened.sol\":30834:30853  deploymentTimestamp */\n      sload(0x03)\n        /* \"fundme/FundTokenERC20_flattened.sol\":30834:30864  deploymentTimestamp + lockTime */\n      tag_85\n      swap2\n      swap1\n      tag_63\n      jump\t// in\n    tag_85:\n        /* \"fundme/FundTokenERC20_flattened.sol\":30815:30830  block.timestamp */\n      timestamp\n        /* \"fundme/FundTokenERC20_flattened.sol\":30815:30864  block.timestamp >= deploymentTimestamp + lockTime */\n      lt\n      iszero\n        /* \"fundme/FundTokenERC20_flattened.sol\":30807:30888  require(block.timestamp >= deploymentTimestamp + lockTime, \"window is not close\") */\n      tag_86\n      jumpi\n      mload(0x40)\n      0x08c379a000000000000000000000000000000000000000000000000000000000\n      dup2\n      mstore\n      0x04\n      add\n      tag_87\n      swap1\n      tag_66\n      jump\t// in\n    tag_87:\n      mload(0x40)\n      dup1\n      swap2\n      sub\n      swap1\n      revert\n    tag_86:\n        /* \"fundme/FundTokenERC20_flattened.sol\":31157:31162  owner */\n      0x02\n      0x00\n      swap1\n      sload\n      swap1\n      0x0100\n      exp\n      swap1\n      div\n      0xffffffffffffffffffffffffffffffffffffffff\n      and\n        /* \"fundme/FundTokenERC20_flattened.sol\":31143:31162  msg.sender == owner */\n      0xffffffffffffffffffffffffffffffffffffffff\n      and\n        /* \"fundme/FundTokenERC20_flattened.sol\":31143:31153  msg.sender */\n      caller\n        /* \"fundme/FundTokenERC20_flattened.sol\":31143:31162  msg.sender == owner */\n      0xffffffffffffffffffffffffffffffffffffffff\n      and\n      eq\n        /* \"fundme/FundTokenERC20_flattened.sol\":31135:31208  require(msg.sender == owner, \"this function can only be called by owner\") */\n      tag_89\n      jumpi\n      mload(0x40)\n      0x08c379a000000000000000000000000000000000000000000000000000000000\n      dup2\n      mstore\n      0x04\n      add\n      tag_90\n      swap1\n      tag_59\n      jump\t// in\n    tag_90:\n      mload(0x40)\n      dup1\n      swap2\n      sub\n      swap1\n      revert\n    tag_89:\n        /* \"fundme/FundTokenERC20_flattened.sol\":23616:23631  1000 * 10 ** 18 */\n      0x3635c9adc5dea00000\n        /* \"fundme/FundTokenERC20_flattened.sol\":27547:27585  convertEthToUsd(address(this).balance) */\n      tag_92\n        /* \"fundme/FundTokenERC20_flattened.sol\":27563:27584  address(this).balance */\n      selfbalance\n        /* \"fundme/FundTokenERC20_flattened.sol\":27547:27562  convertEthToUsd */\n      tag_69\n        /* \"fundme/FundTokenERC20_flattened.sol\":27547:27585  convertEthToUsd(address(this).balance) */\n      jump\t// in\n    tag_92:\n        /* \"fundme/FundTokenERC20_flattened.sol\":27547:27622  convertEthToUsd(address(this).balance) /*balance的单位是wei*/ >= TARGET */\n      lt\n      iszero\n        /* \"fundme/FundTokenERC20_flattened.sol\":27539:27648  require(convertEthToUsd(address(this).balance) /*balance的单位是wei*/ >= TARGET, \"Target is not reached\") */\n      tag_93\n      jumpi\n      mload(0x40)\n      0x08c379a000000000000000000000000000000000000000000000000000000000\n      dup2\n      mstore\n      0x04\n      add\n      tag_94\n      swap1\n      tag_95\n      jump\t// in\n    tag_94:\n      mload(0x40)\n      dup1\n      swap2\n      sub\n      swap1\n      revert\n    tag_93:\n        /* \"fundme/FundTokenERC20_flattened.sol\":28828:28840  bool success */\n      0x00\n        /* \"fundme/FundTokenERC20_flattened.sol\":28872:28882  msg.sender */\n      caller\n        /* \"fundme/FundTokenERC20_flattened.sol\":28864:28888  payable(msg.sender).call */\n      0xffffffffffffffffffffffffffffffffffffffff\n      and\n        /* \"fundme/FundTokenERC20_flattened.sol\":28896:28917  address(this).balance */\n      selfbalance\n        /* \"fundme/FundTokenERC20_flattened.sol\":28864:28922  payable(msg.sender).call{value: address(this).balance}(\"\") */\n      mload(0x40)\n      tag_96\n      swap1\n      tag_77\n      jump\t// in\n    tag_96:\n      0x00\n      mload(0x40)\n      dup1\n      dup4\n      sub\n      dup2\n      dup6\n      dup8\n      gas\n      call\n      swap3\n      pop\n      pop\n      pop\n      returndatasize\n      dup1\n      0x00\n      dup2\n      eq\n      tag_99\n      jumpi\n      mload(0x40)\n      swap2\n      pop\n      and(add(returndatasize, 0x3f), not(0x1f))\n      dup3\n      add\n      0x40\n      mstore\n      returndatasize\n      dup3\n      mstore\n      returndatasize\n      0x00\n      0x20\n      dup5\n      add\n      returndatacopy\n      jump(tag_98)\n    tag_99:\n      0x60\n      swap2\n      pop\n    tag_98:\n      pop\n        /* \"fundme/FundTokenERC20_flattened.sol\":28850:28922  (success, ) = payable(msg.sender).call{value: address(this).balance}(\"\") */\n      pop\n      dup1\n      swap2\n      pop\n      pop\n        /* \"fundme/FundTokenERC20_flattened.sol\":29044:29051  success */\n      dup1\n        /* \"fundme/FundTokenERC20_flattened.sol\":29036:29074  require(success, \"transfer tx failed\") */\n      tag_100\n      jumpi\n      mload(0x40)\n      0x08c379a000000000000000000000000000000000000000000000000000000000\n      dup2\n      mstore\n      0x04\n      add\n      tag_101\n      swap1\n      tag_83\n      jump\t// in\n    tag_101:\n      mload(0x40)\n      dup1\n      swap2\n      sub\n      swap1\n      revert\n    tag_100:\n        /* \"fundme/FundTokenERC20_flattened.sol\":29252:29256  true */\n      0x01\n        /* \"fundme/FundTokenERC20_flattened.sol\":29235:29249  getFundSuccess */\n      0x05\n      0x14\n        /* \"fundme/FundTokenERC20_flattened.sol\":29235:29256  getFundSuccess = true */\n      0x0100\n      exp\n      dup2\n      sload\n      dup2\n      0xff\n      mul\n      not\n      and\n      swap1\n      dup4\n      iszero\n      iszero\n      mul\n      or\n      swap1\n      sstore\n      pop\n        /* \"fundme/FundTokenERC20_flattened.sol\":27386:29263  {... */\n      pop\n        /* \"fundme/FundTokenERC20_flattened.sol\":27336:29263  function getFund() external windowClose onlyOwner {... */\n      jump\t// out\n        /* \"fundme/FundTokenERC20_flattened.sol\":22966:23016  mapping(address => uint256) public fundersToAmount */\n    tag_32:\n      mstore(0x20, 0x00)\n      dup1\n      0x00\n      mstore\n      keccak256(0x00, 0x40)\n      0x00\n      swap2\n      pop\n      swap1\n      pop\n      sload\n      dup2\n      jump\t// out\n        /* \"fundme/FundTokenERC20_flattened.sol\":25305:25943  function fund() external payable {... */\n    tag_36:\n        /* \"fundme/FundTokenERC20_flattened.sol\":23390:23404  100 * 10 ** 18 */\n      0x056bc75e2d63100000\n        /* \"fundme/FundTokenERC20_flattened.sol\":25568:25594  convertEthToUsd(msg.value) */\n      tag_103\n        /* \"fundme/FundTokenERC20_flattened.sol\":25584:25593  msg.value */\n      callvalue\n        /* \"fundme/FundTokenERC20_flattened.sol\":25568:25583  convertEthToUsd */\n      tag_69\n        /* \"fundme/FundTokenERC20_flattened.sol\":25568:25594  convertEthToUsd(msg.value) */\n      jump\t// in\n    tag_103:\n        /* \"fundme/FundTokenERC20_flattened.sol\":25568:25611  convertEthToUsd(msg.value) >= MINIMUM_VALUE */\n      lt\n      iszero\n        /* \"fundme/FundTokenERC20_flattened.sol\":25560:25629  require(convertEthToUsd(msg.value) >= MINIMUM_VALUE, \"Send more ETH\") */\n      tag_104\n      jumpi\n      mload(0x40)\n      0x08c379a000000000000000000000000000000000000000000000000000000000\n      dup2\n      mstore\n      0x04\n      add\n      tag_105\n      swap1\n      tag_106\n      jump\t// in\n    tag_105:\n      mload(0x40)\n      dup1\n      swap2\n      sub\n      swap1\n      revert\n    tag_104:\n        /* \"fundme/FundTokenERC20_flattened.sol\":25789:25797  lockTime */\n      sload(0x04)\n        /* \"fundme/FundTokenERC20_flattened.sol\":25767:25786  deploymentTimestamp */\n      sload(0x03)\n        /* \"fundme/FundTokenERC20_flattened.sol\":25767:25797  deploymentTimestamp + lockTime */\n      tag_107\n      swap2\n      swap1\n      tag_63\n      jump\t// in\n    tag_107:\n        /* \"fundme/FundTokenERC20_flattened.sol\":25749:25764  block.timestamp */\n      timestamp\n        /* \"fundme/FundTokenERC20_flattened.sol\":25749:25797  block.timestamp < deploymentTimestamp + lockTime */\n      lt\n        /* \"fundme/FundTokenERC20_flattened.sol\":25741:25817  require(block.timestamp < deploymentTimestamp + lockTime, \"window is close\") */\n      tag_108\n      jumpi\n      mload(0x40)\n      0x08c379a000000000000000000000000000000000000000000000000000000000\n      dup2\n      mstore\n      0x04\n      add\n      tag_109\n      swap1\n      tag_110\n      jump\t// in\n    tag_109:\n      mload(0x40)\n      dup1\n      swap2\n      sub\n      swap1\n      revert\n    tag_108:\n        /* \"fundme/FundTokenERC20_flattened.sol\":25927:25936  msg.value */\n      callvalue\n        /* \"fundme/FundTokenERC20_flattened.sol\":25897:25912  fundersToAmount */\n      0x00\n        /* \"fundme/FundTokenERC20_flattened.sol\":25897:25924  fundersToAmount[msg.sender] */\n      dup1\n        /* \"fundme/FundTokenERC20_flattened.sol\":25913:25923  msg.sender */\n      caller\n        /* \"fundme/FundTokenERC20_flattened.sol\":25897:25924  fundersToAmount[msg.sender] */\n      0xffffffffffffffffffffffffffffffffffffffff\n      and\n      0xffffffffffffffffffffffffffffffffffffffff\n      and\n      dup2\n      mstore\n      0x20\n      add\n      swap1\n      dup2\n      mstore\n      0x20\n      add\n      0x00\n      keccak256\n        /* \"fundme/FundTokenERC20_flattened.sol\":25897:25936  fundersToAmount[msg.sender] = msg.value */\n      dup2\n      swap1\n      sstore\n      pop\n        /* \"fundme/FundTokenERC20_flattened.sol\":25305:25943  function fund() external payable {... */\n      jump\t// out\n        /* \"fundme/FundTokenERC20_flattened.sol\":26067:26405  function getChainlinkDataFeedLatestAnswer() public view returns (int) {... */\n    tag_39:\n        /* \"fundme/FundTokenERC20_flattened.sol\":26132:26135  int */\n      0x00\n        /* \"fundme/FundTokenERC20_flattened.sol\":26222:26232  int answer */\n      dup1\n        /* \"fundme/FundTokenERC20_flattened.sol\":26349:26357  dataFeed */\n      0x01\n      0x00\n      swap1\n      sload\n      swap1\n      0x0100\n      exp\n      swap1\n      div\n      0xffffffffffffffffffffffffffffffffffffffff\n      and\n        /* \"fundme/FundTokenERC20_flattened.sol\":26349:26373  dataFeed.latestRoundData */\n      0xffffffffffffffffffffffffffffffffffffffff\n      and\n      0xfeaf968c\n        /* \"fundme/FundTokenERC20_flattened.sol\":26349:26375  dataFeed.latestRoundData() */\n      mload(0x40)\n      dup2\n      0xffffffff\n      and\n      0xe0\n      shl\n      dup2\n      mstore\n      0x04\n      add\n      0xa0\n      mload(0x40)\n      dup1\n      dup4\n      sub\n      dup2\n      dup7\n      gas\n      staticcall\n      iszero\n      dup1\n      iszero\n      tag_113\n      jumpi\n      returndatasize\n      0x00\n      dup1\n      returndatacopy\n      revert(0x00, returndatasize)\n    tag_113:\n      pop\n      pop\n      pop\n      pop\n      mload(0x40)\n      returndatasize\n      not(0x1f)\n      0x1f\n      dup3\n      add\n      and\n      dup3\n      add\n      dup1\n      0x40\n      mstore\n      pop\n      dup2\n      add\n      swap1\n      tag_114\n      swap2\n      swap1\n      tag_115\n      jump\t// in\n    tag_114:\n        /* \"fundme/FundTokenERC20_flattened.sol\":26174:26375  (... */\n      pop\n      pop\n      pop\n      swap2\n      pop\n      pop\n        /* \"fundme/FundTokenERC20_flattened.sol\":26392:26398  answer */\n      dup1\n        /* \"fundme/FundTokenERC20_flattened.sol\":26385:26398  return answer */\n      swap2\n      pop\n      pop\n        /* \"fundme/FundTokenERC20_flattened.sol\":26067:26405  function getChainlinkDataFeedLatestAnswer() public view returns (int) {... */\n      swap1\n      jump\t// out\n        /* \"fundme/FundTokenERC20_flattened.sol\":30139:30454  function setFunderToAmount(address funder, uint256 amountToUpdate) external {... */\n    tag_46:\n        /* \"fundme/FundTokenERC20_flattened.sol\":30336:30345  erc20Addr */\n      0x05\n      0x00\n      swap1\n      sload\n      swap1\n      0x0100\n      exp\n      swap1\n      div\n      0xffffffffffffffffffffffffffffffffffffffff\n      and\n        /* \"fundme/FundTokenERC20_flattened.sol\":30322:30345  msg.sender == erc20Addr */\n      0xffffffffffffffffffffffffffffffffffffffff\n      and\n        /* \"fundme/FundTokenERC20_flattened.sol\":30322:30332  msg.sender */\n      caller\n        /* \"fundme/FundTokenERC20_flattened.sol\":30322:30345  msg.sender == erc20Addr */\n      0xffffffffffffffffffffffffffffffffffffffff\n      and\n      eq\n        /* \"fundme/FundTokenERC20_flattened.sol\":30314:30397  require(msg.sender == erc20Addr, \"you do not have permission to call this funtion\") */\n      tag_117\n      jumpi\n      mload(0x40)\n      0x08c379a000000000000000000000000000000000000000000000000000000000\n      dup2\n      mstore\n      0x04\n      add\n      tag_118\n      swap1\n      tag_119\n      jump\t// in\n    tag_118:\n      mload(0x40)\n      dup1\n      swap2\n      sub\n      swap1\n      revert\n    tag_117:\n        /* \"fundme/FundTokenERC20_flattened.sol\":30433:30447  amountToUpdate */\n      dup1\n        /* \"fundme/FundTokenERC20_flattened.sol\":30407:30422  fundersToAmount */\n      0x00\n        /* \"fundme/FundTokenERC20_flattened.sol\":30407:30430  fundersToAmount[funder] */\n      dup1\n        /* \"fundme/FundTokenERC20_flattened.sol\":30423:30429  funder */\n      dup5\n        /* \"fundme/FundTokenERC20_flattened.sol\":30407:30430  fundersToAmount[funder] */\n      0xffffffffffffffffffffffffffffffffffffffff\n      and\n      0xffffffffffffffffffffffffffffffffffffffff\n      and\n      dup2\n      mstore\n      0x20\n      add\n      swap1\n      dup2\n      mstore\n      0x20\n      add\n      0x00\n      keccak256\n        /* \"fundme/FundTokenERC20_flattened.sol\":30407:30447  fundersToAmount[funder] = amountToUpdate */\n      dup2\n      swap1\n      sstore\n      pop\n        /* \"fundme/FundTokenERC20_flattened.sol\":30139:30454  function setFunderToAmount(address funder, uint256 amountToUpdate) external {... */\n      pop\n      pop\n      jump\t// out\n        /* \"fundme/FundTokenERC20_flattened.sol\":23867:23901  bool public getFundSuccess = false */\n    tag_49:\n      0x05\n      0x14\n      swap1\n      sload\n      swap1\n      0x0100\n      exp\n      swap1\n      div\n      0xff\n      and\n      dup2\n      jump\t// out\n        /* \"fundme/FundTokenERC20_flattened.sol\":26962:27123  function transferOwnership(address newOwner) public onlyOwner {... */\n    tag_55:\n        /* \"fundme/FundTokenERC20_flattened.sol\":31157:31162  owner */\n      0x02\n      0x00\n      swap1\n      sload\n      swap1\n      0x0100\n      exp\n      swap1\n      div\n      0xffffffffffffffffffffffffffffffffffffffff\n      and\n        /* \"fundme/FundTokenERC20_flattened.sol\":31143:31162  msg.sender == owner */\n      0xffffffffffffffffffffffffffffffffffffffff\n      and\n        /* \"fundme/FundTokenERC20_flattened.sol\":31143:31153  msg.sender */\n      caller\n        /* \"fundme/FundTokenERC20_flattened.sol\":31143:31162  msg.sender == owner */\n      0xffffffffffffffffffffffffffffffffffffffff\n      and\n      eq\n        /* \"fundme/FundTokenERC20_flattened.sol\":31135:31208  require(msg.sender == owner, \"this function can only be called by owner\") */\n      tag_121\n      jumpi\n      mload(0x40)\n      0x08c379a000000000000000000000000000000000000000000000000000000000\n      dup2\n      mstore\n      0x04\n      add\n      tag_122\n      swap1\n      tag_59\n      jump\t// in\n    tag_122:\n      mload(0x40)\n      dup1\n      swap2\n      sub\n      swap1\n      revert\n    tag_121:\n        /* \"fundme/FundTokenERC20_flattened.sol\":27108:27116  newOwner */\n      dup1\n        /* \"fundme/FundTokenERC20_flattened.sol\":27100:27105  owner */\n      0x02\n      0x00\n        /* \"fundme/FundTokenERC20_flattened.sol\":27100:27116  owner = newOwner */\n      0x0100\n      exp\n      dup2\n      sload\n      dup2\n      0xffffffffffffffffffffffffffffffffffffffff\n      mul\n      not\n      and\n      swap1\n      dup4\n      0xffffffffffffffffffffffffffffffffffffffff\n      and\n      mul\n      or\n      swap1\n      sstore\n      pop\n        /* \"fundme/FundTokenERC20_flattened.sol\":26962:27123  function transferOwnership(address newOwner) public onlyOwner {... */\n      pop\n      jump\t// out\n        /* \"fundme/FundTokenERC20_flattened.sol\":26452:26927  function convertEthToUsd(uint256 ethAmount) internal view returns (uint256) {... */\n    tag_69:\n        /* \"fundme/FundTokenERC20_flattened.sol\":26519:26526  uint256 */\n      0x00\n        /* \"fundme/FundTokenERC20_flattened.sol\":26578:26594  uint256 ethPrice */\n      dup1\n        /* \"fundme/FundTokenERC20_flattened.sol\":26605:26639  getChainlinkDataFeedLatestAnswer() */\n      tag_125\n        /* \"fundme/FundTokenERC20_flattened.sol\":26605:26637  getChainlinkDataFeedLatestAnswer */\n      tag_39\n        /* \"fundme/FundTokenERC20_flattened.sol\":26605:26639  getChainlinkDataFeedLatestAnswer() */\n      jump\t// in\n    tag_125:\n        /* \"fundme/FundTokenERC20_flattened.sol\":26578:26640  uint256 ethPrice = uint256(getChainlinkDataFeedLatestAnswer()) */\n      swap1\n      pop\n        /* \"fundme/FundTokenERC20_flattened.sol\":26911:26918  10 ** 8 */\n      0x05f5e100\n        /* \"fundme/FundTokenERC20_flattened.sol\":26899:26907  ethPrice */\n      dup2\n        /* \"fundme/FundTokenERC20_flattened.sol\":26887:26896  ethAmount */\n      dup5\n        /* \"fundme/FundTokenERC20_flattened.sol\":26887:26907  ethAmount * ethPrice */\n      tag_126\n      swap2\n      swap1\n      tag_127\n      jump\t// in\n    tag_126:\n        /* \"fundme/FundTokenERC20_flattened.sol\":26887:26919  ethAmount * ethPrice / (10 ** 8) */\n      tag_128\n      swap2\n      swap1\n      tag_129\n      jump\t// in\n    tag_128:\n        /* \"fundme/FundTokenERC20_flattened.sol\":26880:26919  return ethAmount * ethPrice / (10 ** 8) */\n      swap2\n      pop\n      pop\n        /* \"fundme/FundTokenERC20_flattened.sol\":26452:26927  function convertEthToUsd(uint256 ethAmount) internal view returns (uint256) {... */\n      swap2\n      swap1\n      pop\n      jump\t// out\n        /* \"#utility.yul\":88:205   */\n    tag_131:\n        /* \"#utility.yul\":197:198   */\n      0x00\n        /* \"#utility.yul\":194:195   */\n      dup1\n        /* \"#utility.yul\":187:199   */\n      revert\n        /* \"#utility.yul\":334:460   */\n    tag_133:\n        /* \"#utility.yul\":371:378   */\n      0x00\n        /* \"#utility.yul\":411:453   */\n      0xffffffffffffffffffffffffffffffffffffffff\n        /* \"#utility.yul\":404:409   */\n      dup3\n        /* \"#utility.yul\":400:454   */\n      and\n        /* \"#utility.yul\":389:454   */\n      swap1\n      pop\n        /* \"#utility.yul\":334:460   */\n      swap2\n      swap1\n      pop\n      jump\t// out\n        /* \"#utility.yul\":466:562   */\n    tag_134:\n        /* \"#utility.yul\":503:510   */\n      0x00\n        /* \"#utility.yul\":532:556   */\n      tag_182\n        /* \"#utility.yul\":550:555   */\n      dup3\n        /* \"#utility.yul\":532:556   */\n      tag_133\n      jump\t// in\n    tag_182:\n        /* \"#utility.yul\":521:556   */\n      swap1\n      pop\n        /* \"#utility.yul\":466:562   */\n      swap2\n      swap1\n      pop\n      jump\t// out\n        /* \"#utility.yul\":568:690   */\n    tag_135:\n        /* \"#utility.yul\":641:665   */\n      tag_184\n        /* \"#utility.yul\":659:664   */\n      dup2\n        /* \"#utility.yul\":641:665   */\n      tag_134\n      jump\t// in\n    tag_184:\n        /* \"#utility.yul\":634:639   */\n      dup2\n        /* \"#utility.yul\":631:666   */\n      eq\n        /* \"#utility.yul\":621:684   */\n      tag_185\n      jumpi\n        /* \"#utility.yul\":680:681   */\n      0x00\n        /* \"#utility.yul\":677:678   */\n      dup1\n        /* \"#utility.yul\":670:682   */\n      revert\n        /* \"#utility.yul\":621:684   */\n    tag_185:\n        /* \"#utility.yul\":568:690   */\n      pop\n      jump\t// out\n        /* \"#utility.yul\":696:835   */\n    tag_136:\n        /* \"#utility.yul\":742:747   */\n      0x00\n        /* \"#utility.yul\":780:786   */\n      dup2\n        /* \"#utility.yul\":767:787   */\n      calldataload\n        /* \"#utility.yul\":758:787   */\n      swap1\n      pop\n        /* \"#utility.yul\":796:829   */\n      tag_187\n        /* \"#utility.yul\":823:828   */\n      dup2\n        /* \"#utility.yul\":796:829   */\n      tag_135\n      jump\t// in\n    tag_187:\n        /* \"#utility.yul\":696:835   */\n      swap3\n      swap2\n      pop\n      pop\n      jump\t// out\n        /* \"#utility.yul\":841:1170   */\n    tag_16:\n        /* \"#utility.yul\":900:906   */\n      0x00\n        /* \"#utility.yul\":949:951   */\n      0x20\n        /* \"#utility.yul\":937:946   */\n      dup3\n        /* \"#utility.yul\":928:935   */\n      dup5\n        /* \"#utility.yul\":924:947   */\n      sub\n        /* \"#utility.yul\":920:952   */\n      slt\n        /* \"#utility.yul\":917:1036   */\n      iszero\n      tag_189\n      jumpi\n        /* \"#utility.yul\":955:1034   */\n      tag_190\n      tag_131\n      jump\t// in\n    tag_190:\n        /* \"#utility.yul\":917:1036   */\n    tag_189:\n        /* \"#utility.yul\":1075:1076   */\n      0x00\n        /* \"#utility.yul\":1100:1153   */\n      tag_191\n        /* \"#utility.yul\":1145:1152   */\n      dup5\n        /* \"#utility.yul\":1136:1142   */\n      dup3\n        /* \"#utility.yul\":1125:1134   */\n      dup6\n        /* \"#utility.yul\":1121:1143   */\n      add\n        /* \"#utility.yul\":1100:1153   */\n      tag_136\n      jump\t// in\n    tag_191:\n        /* \"#utility.yul\":1090:1153   */\n      swap2\n      pop\n        /* \"#utility.yul\":1046:1163   */\n      pop\n        /* \"#utility.yul\":841:1170   */\n      swap3\n      swap2\n      pop\n      pop\n      jump\t// out\n        /* \"#utility.yul\":1176:1294   */\n    tag_137:\n        /* \"#utility.yul\":1263:1287   */\n      tag_193\n        /* \"#utility.yul\":1281:1286   */\n      dup2\n        /* \"#utility.yul\":1263:1287   */\n      tag_134\n      jump\t// in\n    tag_193:\n        /* \"#utility.yul\":1258:1261   */\n      dup3\n        /* \"#utility.yul\":1251:1288   */\n      mstore\n        /* \"#utility.yul\":1176:1294   */\n      pop\n      pop\n      jump\t// out\n        /* \"#utility.yul\":1300:1522   */\n    tag_25:\n        /* \"#utility.yul\":1393:1397   */\n      0x00\n        /* \"#utility.yul\":1431:1433   */\n      0x20\n        /* \"#utility.yul\":1420:1429   */\n      dup3\n        /* \"#utility.yul\":1416:1434   */\n      add\n        /* \"#utility.yul\":1408:1434   */\n      swap1\n      pop\n        /* \"#utility.yul\":1444:1515   */\n      tag_195\n        /* \"#utility.yul\":1512:1513   */\n      0x00\n        /* \"#utility.yul\":1501:1510   */\n      dup4\n        /* \"#utility.yul\":1497:1514   */\n      add\n        /* \"#utility.yul\":1488:1494   */\n      dup5\n        /* \"#utility.yul\":1444:1515   */\n      tag_137\n      jump\t// in\n    tag_195:\n        /* \"#utility.yul\":1300:1522   */\n      swap3\n      swap2\n      pop\n      pop\n      jump\t// out\n        /* \"#utility.yul\":1528:1605   */\n    tag_138:\n        /* \"#utility.yul\":1565:1572   */\n      0x00\n        /* \"#utility.yul\":1594:1599   */\n      dup2\n        /* \"#utility.yul\":1583:1599   */\n      swap1\n      pop\n        /* \"#utility.yul\":1528:1605   */\n      swap2\n      swap1\n      pop\n      jump\t// out\n        /* \"#utility.yul\":1611:1729   */\n    tag_139:\n        /* \"#utility.yul\":1698:1722   */\n      tag_198\n        /* \"#utility.yul\":1716:1721   */\n      dup2\n        /* \"#utility.yul\":1698:1722   */\n      tag_138\n      jump\t// in\n    tag_198:\n        /* \"#utility.yul\":1693:1696   */\n      dup3\n        /* \"#utility.yul\":1686:1723   */\n      mstore\n        /* \"#utility.yul\":1611:1729   */\n      pop\n      pop\n      jump\t// out\n        /* \"#utility.yul\":1735:1957   */\n    tag_34:\n        /* \"#utility.yul\":1828:1832   */\n      0x00\n        /* \"#utility.yul\":1866:1868   */\n      0x20\n        /* \"#utility.yul\":1855:1864   */\n      dup3\n        /* \"#utility.yul\":1851:1869   */\n      add\n        /* \"#utility.yul\":1843:1869   */\n      swap1\n      pop\n        /* \"#utility.yul\":1879:1950   */\n      tag_200\n        /* \"#utility.yul\":1947:1948   */\n      0x00\n        /* \"#utility.yul\":1936:1945   */\n      dup4\n        /* \"#utility.yul\":1932:1949   */\n      add\n        /* \"#utility.yul\":1923:1929   */\n      dup5\n        /* \"#utility.yul\":1879:1950   */\n      tag_139\n      jump\t// in\n    tag_200:\n        /* \"#utility.yul\":1735:1957   */\n      swap3\n      swap2\n      pop\n      pop\n      jump\t// out\n        /* \"#utility.yul\":1963:2039   */\n    tag_140:\n        /* \"#utility.yul\":1999:2006   */\n      0x00\n        /* \"#utility.yul\":2028:2033   */\n      dup2\n        /* \"#utility.yul\":2017:2033   */\n      swap1\n      pop\n        /* \"#utility.yul\":1963:2039   */\n      swap2\n      swap1\n      pop\n      jump\t// out\n        /* \"#utility.yul\":2045:2160   */\n    tag_141:\n        /* \"#utility.yul\":2130:2153   */\n      tag_203\n        /* \"#utility.yul\":2147:2152   */\n      dup2\n        /* \"#utility.yul\":2130:2153   */\n      tag_140\n      jump\t// in\n    tag_203:\n        /* \"#utility.yul\":2125:2128   */\n      dup3\n        /* \"#utility.yul\":2118:2154   */\n      mstore\n        /* \"#utility.yul\":2045:2160   */\n      pop\n      pop\n      jump\t// out\n        /* \"#utility.yul\":2166:2384   */\n    tag_41:\n        /* \"#utility.yul\":2257:2261   */\n      0x00\n        /* \"#utility.yul\":2295:2297   */\n      0x20\n        /* \"#utility.yul\":2284:2293   */\n      dup3\n        /* \"#utility.yul\":2280:2298   */\n      add\n        /* \"#utility.yul\":2272:2298   */\n      swap1\n      pop\n        /* \"#utility.yul\":2308:2377   */\n      tag_205\n        /* \"#utility.yul\":2374:2375   */\n      0x00\n        /* \"#utility.yul\":2363:2372   */\n      dup4\n        /* \"#utility.yul\":2359:2376   */\n      add\n        /* \"#utility.yul\":2350:2356   */\n      dup5\n        /* \"#utility.yul\":2308:2377   */\n      tag_141\n      jump\t// in\n    tag_205:\n        /* \"#utility.yul\":2166:2384   */\n      swap3\n      swap2\n      pop\n      pop\n      jump\t// out\n        /* \"#utility.yul\":2390:2512   */\n    tag_142:\n        /* \"#utility.yul\":2463:2487   */\n      tag_207\n        /* \"#utility.yul\":2481:2486   */\n      dup2\n        /* \"#utility.yul\":2463:2487   */\n      tag_138\n      jump\t// in\n    tag_207:\n        /* \"#utility.yul\":2456:2461   */\n      dup2\n        /* \"#utility.yul\":2453:2488   */\n      eq\n        /* \"#utility.yul\":2443:2506   */\n      tag_208\n      jumpi\n        /* \"#utility.yul\":2502:2503   */\n      0x00\n        /* \"#utility.yul\":2499:2500   */\n      dup1\n        /* \"#utility.yul\":2492:2504   */\n      revert\n        /* \"#utility.yul\":2443:2506   */\n    tag_208:\n        /* \"#utility.yul\":2390:2512   */\n      pop\n      jump\t// out\n        /* \"#utility.yul\":2518:2657   */\n    tag_143:\n        /* \"#utility.yul\":2564:2569   */\n      0x00\n        /* \"#utility.yul\":2602:2608   */\n      dup2\n        /* \"#utility.yul\":2589:2609   */\n      calldataload\n        /* \"#utility.yul\":2580:2609   */\n      swap1\n      pop\n        /* \"#utility.yul\":2618:2651   */\n      tag_210\n        /* \"#utility.yul\":2645:2650   */\n      dup2\n        /* \"#utility.yul\":2618:2651   */\n      tag_142\n      jump\t// in\n    tag_210:\n        /* \"#utility.yul\":2518:2657   */\n      swap3\n      swap2\n      pop\n      pop\n      jump\t// out\n        /* \"#utility.yul\":2663:3137   */\n    tag_45:\n        /* \"#utility.yul\":2731:2737   */\n      0x00\n        /* \"#utility.yul\":2739:2745   */\n      dup1\n        /* \"#utility.yul\":2788:2790   */\n      0x40\n        /* \"#utility.yul\":2776:2785   */\n      dup4\n        /* \"#utility.yul\":2767:2774   */\n      dup6\n        /* \"#utility.yul\":2763:2786   */\n      sub\n        /* \"#utility.yul\":2759:2791   */\n      slt\n        /* \"#utility.yul\":2756:2875   */\n      iszero\n      tag_212\n      jumpi\n        /* \"#utility.yul\":2794:2873   */\n      tag_213\n      tag_131\n      jump\t// in\n    tag_213:\n        /* \"#utility.yul\":2756:2875   */\n    tag_212:\n        /* \"#utility.yul\":2914:2915   */\n      0x00\n        /* \"#utility.yul\":2939:2992   */\n      tag_214\n        /* \"#utility.yul\":2984:2991   */\n      dup6\n        /* \"#utility.yul\":2975:2981   */\n      dup3\n        /* \"#utility.yul\":2964:2973   */\n      dup7\n        /* \"#utility.yul\":2960:2982   */\n      add\n        /* \"#utility.yul\":2939:2992   */\n      tag_136\n      jump\t// in\n    tag_214:\n        /* \"#utility.yul\":2929:2992   */\n      swap3\n      pop\n        /* \"#utility.yul\":2885:3002   */\n      pop\n        /* \"#utility.yul\":3041:3043   */\n      0x20\n        /* \"#utility.yul\":3067:3120   */\n      tag_215\n        /* \"#utility.yul\":3112:3119   */\n      dup6\n        /* \"#utility.yul\":3103:3109   */\n      dup3\n        /* \"#utility.yul\":3092:3101   */\n      dup7\n        /* \"#utility.yul\":3088:3110   */\n      add\n        /* \"#utility.yul\":3067:3120   */\n      tag_143\n      jump\t// in\n    tag_215:\n        /* \"#utility.yul\":3057:3120   */\n      swap2\n      pop\n        /* \"#utility.yul\":3012:3130   */\n      pop\n        /* \"#utility.yul\":2663:3137   */\n      swap3\n      pop\n      swap3\n      swap1\n      pop\n      jump\t// out\n        /* \"#utility.yul\":3143:3233   */\n    tag_144:\n        /* \"#utility.yul\":3177:3184   */\n      0x00\n        /* \"#utility.yul\":3220:3225   */\n      dup2\n        /* \"#utility.yul\":3213:3226   */\n      iszero\n        /* \"#utility.yul\":3206:3227   */\n      iszero\n        /* \"#utility.yul\":3195:3227   */\n      swap1\n      pop\n        /* \"#utility.yul\":3143:3233   */\n      swap2\n      swap1\n      pop\n      jump\t// out\n        /* \"#utility.yul\":3239:3348   */\n    tag_145:\n        /* \"#utility.yul\":3320:3341   */\n      tag_218\n        /* \"#utility.yul\":3335:3340   */\n      dup2\n        /* \"#utility.yul\":3320:3341   */\n      tag_144\n      jump\t// in\n    tag_218:\n        /* \"#utility.yul\":3315:3318   */\n      dup3\n        /* \"#utility.yul\":3308:3342   */\n      mstore\n        /* \"#utility.yul\":3239:3348   */\n      pop\n      pop\n      jump\t// out\n        /* \"#utility.yul\":3354:3564   */\n    tag_51:\n        /* \"#utility.yul\":3441:3445   */\n      0x00\n        /* \"#utility.yul\":3479:3481   */\n      0x20\n        /* \"#utility.yul\":3468:3477   */\n      dup3\n        /* \"#utility.yul\":3464:3482   */\n      add\n        /* \"#utility.yul\":3456:3482   */\n      swap1\n      pop\n        /* \"#utility.yul\":3492:3557   */\n      tag_220\n        /* \"#utility.yul\":3554:3555   */\n      0x00\n        /* \"#utility.yul\":3543:3552   */\n      dup4\n        /* \"#utility.yul\":3539:3556   */\n      add\n        /* \"#utility.yul\":3530:3536   */\n      dup5\n        /* \"#utility.yul\":3492:3557   */\n      tag_145\n      jump\t// in\n    tag_220:\n        /* \"#utility.yul\":3354:3564   */\n      swap3\n      swap2\n      pop\n      pop\n      jump\t// out\n        /* \"#utility.yul\":3570:3739   */\n    tag_146:\n        /* \"#utility.yul\":3654:3665   */\n      0x00\n        /* \"#utility.yul\":3688:3694   */\n      dup3\n        /* \"#utility.yul\":3683:3686   */\n      dup3\n        /* \"#utility.yul\":3676:3695   */\n      mstore\n        /* \"#utility.yul\":3728:3732   */\n      0x20\n        /* \"#utility.yul\":3723:3726   */\n      dup3\n        /* \"#utility.yul\":3719:3733   */\n      add\n        /* \"#utility.yul\":3704:3733   */\n      swap1\n      pop\n        /* \"#utility.yul\":3570:3739   */\n      swap3\n      swap2\n      pop\n      pop\n      jump\t// out\n        /* \"#utility.yul\":3745:3973   */\n    tag_147:\n        /* \"#utility.yul\":3885:3919   */\n      0x746869732066756e6374696f6e2063616e206f6e6c792062652063616c6c6564\n        /* \"#utility.yul\":3881:3882   */\n      0x00\n        /* \"#utility.yul\":3873:3879   */\n      dup3\n        /* \"#utility.yul\":3869:3883   */\n      add\n        /* \"#utility.yul\":3862:3920   */\n      mstore\n        /* \"#utility.yul\":3954:3965   */\n      0x206279206f776e65720000000000000000000000000000000000000000000000\n        /* \"#utility.yul\":3949:3951   */\n      0x20\n        /* \"#utility.yul\":3941:3947   */\n      dup3\n        /* \"#utility.yul\":3937:3952   */\n      add\n        /* \"#utility.yul\":3930:3966   */\n      mstore\n        /* \"#utility.yul\":3745:3973   */\n      pop\n      jump\t// out\n        /* \"#utility.yul\":3979:4345   */\n    tag_148:\n        /* \"#utility.yul\":4121:4124   */\n      0x00\n        /* \"#utility.yul\":4142:4209   */\n      tag_224\n        /* \"#utility.yul\":4206:4208   */\n      0x29\n        /* \"#utility.yul\":4201:4204   */\n      dup4\n        /* \"#utility.yul\":4142:4209   */\n      tag_146\n      jump\t// in\n    tag_224:\n        /* \"#utility.yul\":4135:4209   */\n      swap2\n      pop\n        /* \"#utility.yul\":4218:4311   */\n      tag_225\n        /* \"#utility.yul\":4307:4310   */\n      dup3\n        /* \"#utility.yul\":4218:4311   */\n      tag_147\n      jump\t// in\n    tag_225:\n        /* \"#utility.yul\":4336:4338   */\n      0x40\n        /* \"#utility.yul\":4331:4334   */\n      dup3\n        /* \"#utility.yul\":4327:4339   */\n      add\n        /* \"#utility.yul\":4320:4339   */\n      swap1\n      pop\n        /* \"#utility.yul\":3979:4345   */\n      swap2\n      swap1\n      pop\n      jump\t// out\n        /* \"#utility.yul\":4351:4770   */\n    tag_59:\n        /* \"#utility.yul\":4517:4521   */\n      0x00\n        /* \"#utility.yul\":4555:4557   */\n      0x20\n        /* \"#utility.yul\":4544:4553   */\n      dup3\n        /* \"#utility.yul\":4540:4558   */\n      add\n        /* \"#utility.yul\":4532:4558   */\n      swap1\n      pop\n        /* \"#utility.yul\":4604:4613   */\n      dup2\n        /* \"#utility.yul\":4598:4602   */\n      dup2\n        /* \"#utility.yul\":4594:4614   */\n      sub\n        /* \"#utility.yul\":4590:4591   */\n      0x00\n        /* \"#utility.yul\":4579:4588   */\n      dup4\n        /* \"#utility.yul\":4575:4592   */\n      add\n        /* \"#utility.yul\":4568:4615   */\n      mstore\n        /* \"#utility.yul\":4632:4763   */\n      tag_227\n        /* \"#utility.yul\":4758:4762   */\n      dup2\n        /* \"#utility.yul\":4632:4763   */\n      tag_148\n      jump\t// in\n    tag_227:\n        /* \"#utility.yul\":4624:4763   */\n      swap1\n      pop\n        /* \"#utility.yul\":4351:4770   */\n      swap2\n      swap1\n      pop\n      jump\t// out\n        /* \"#utility.yul\":4776:4956   */\n    tag_149:\n        /* \"#utility.yul\":4824:4901   */\n      0x4e487b7100000000000000000000000000000000000000000000000000000000\n        /* \"#utility.yul\":4821:4822   */\n      0x00\n        /* \"#utility.yul\":4814:4902   */\n      mstore\n        /* \"#utility.yul\":4921:4925   */\n      0x11\n        /* \"#utility.yul\":4918:4919   */\n      0x04\n        /* \"#utility.yul\":4911:4926   */\n      mstore\n        /* \"#utility.yul\":4945:4949   */\n      0x24\n        /* \"#utility.yul\":4942:4943   */\n      0x00\n        /* \"#utility.yul\":4935:4950   */\n      revert\n        /* \"#utility.yul\":4962:5153   */\n    tag_63:\n        /* \"#utility.yul\":5002:5005   */\n      0x00\n        /* \"#utility.yul\":5021:5041   */\n      tag_230\n        /* \"#utility.yul\":5039:5040   */\n      dup3\n        /* \"#utility.yul\":5021:5041   */\n      tag_138\n      jump\t// in\n    tag_230:\n        /* \"#utility.yul\":5016:5041   */\n      swap2\n      pop\n        /* \"#utility.yul\":5055:5075   */\n      tag_231\n        /* \"#utility.yul\":5073:5074   */\n      dup4\n        /* \"#utility.yul\":5055:5075   */\n      tag_138\n      jump\t// in\n    tag_231:\n        /* \"#utility.yul\":5050:5075   */\n      swap3\n      pop\n        /* \"#utility.yul\":5098:5099   */\n      dup3\n        /* \"#utility.yul\":5095:5096   */\n      dup3\n        /* \"#utility.yul\":5091:5100   */\n      add\n        /* \"#utility.yul\":5084:5100   */\n      swap1\n      pop\n        /* \"#utility.yul\":5119:5122   */\n      dup1\n        /* \"#utility.yul\":5116:5117   */\n      dup3\n        /* \"#utility.yul\":5113:5123   */\n      gt\n        /* \"#utility.yul\":5110:5146   */\n      iszero\n      tag_232\n      jumpi\n        /* \"#utility.yul\":5126:5144   */\n      tag_233\n      tag_149\n      jump\t// in\n    tag_233:\n        /* \"#utility.yul\":5110:5146   */\n    tag_232:\n        /* \"#utility.yul\":4962:5153   */\n      swap3\n      swap2\n      pop\n      pop\n      jump\t// out\n        /* \"#utility.yul\":5159:5328   */\n    tag_150:\n        /* \"#utility.yul\":5299:5320   */\n      0x77696e646f77206973206e6f7420636c6f736500000000000000000000000000\n        /* \"#utility.yul\":5295:5296   */\n      0x00\n        /* \"#utility.yul\":5287:5293   */\n      dup3\n        /* \"#utility.yul\":5283:5297   */\n      add\n        /* \"#utility.yul\":5276:5321   */\n      mstore\n        /* \"#utility.yul\":5159:5328   */\n      pop\n      jump\t// out\n        /* \"#utility.yul\":5334:5700   */\n    tag_151:\n        /* \"#utility.yul\":5476:5479   */\n      0x00\n        /* \"#utility.yul\":5497:5564   */\n      tag_236\n        /* \"#utility.yul\":5561:5563   */\n      0x13\n        /* \"#utility.yul\":5556:5559   */\n      dup4\n        /* \"#utility.yul\":5497:5564   */\n      tag_146\n      jump\t// in\n    tag_236:\n        /* \"#utility.yul\":5490:5564   */\n      swap2\n      pop\n        /* \"#utility.yul\":5573:5666   */\n      tag_237\n        /* \"#utility.yul\":5662:5665   */\n      dup3\n        /* \"#utility.yul\":5573:5666   */\n      tag_150\n      jump\t// in\n    tag_237:\n        /* \"#utility.yul\":5691:5693   */\n      0x20\n        /* \"#utility.yul\":5686:5689   */\n      dup3\n        /* \"#utility.yul\":5682:5694   */\n      add\n        /* \"#utility.yul\":5675:5694   */\n      swap1\n      pop\n        /* \"#utility.yul\":5334:5700   */\n      swap2\n      swap1\n      pop\n      jump\t// out\n        /* \"#utility.yul\":5706:6125   */\n    tag_66:\n        /* \"#utility.yul\":5872:5876   */\n      0x00\n        /* \"#utility.yul\":5910:5912   */\n      0x20\n        /* \"#utility.yul\":5899:5908   */\n      dup3\n        /* \"#utility.yul\":5895:5913   */\n      add\n        /* \"#utility.yul\":5887:5913   */\n      swap1\n      pop\n        /* \"#utility.yul\":5959:5968   */\n      dup2\n        /* \"#utility.yul\":5953:5957   */\n      dup2\n        /* \"#utility.yul\":5949:5969   */\n      sub\n        /* \"#utility.yul\":5945:5946   */\n      0x00\n        /* \"#utility.yul\":5934:5943   */\n      dup4\n        /* \"#utility.yul\":5930:5947   */\n      add\n        /* \"#utility.yul\":5923:5970   */\n      mstore\n        /* \"#utility.yul\":5987:6118   */\n      tag_239\n        /* \"#utility.yul\":6113:6117   */\n      dup2\n        /* \"#utility.yul\":5987:6118   */\n      tag_151\n      jump\t// in\n    tag_239:\n        /* \"#utility.yul\":5979:6118   */\n      swap1\n      pop\n        /* \"#utility.yul\":5706:6125   */\n      swap2\n      swap1\n      pop\n      jump\t// out\n        /* \"#utility.yul\":6131:6298   */\n    tag_152:\n        /* \"#utility.yul\":6271:6290   */\n      0x5461726765742069732072656163686564000000000000000000000000000000\n        /* \"#utility.yul\":6267:6268   */\n      0x00\n        /* \"#utility.yul\":6259:6265   */\n      dup3\n        /* \"#utility.yul\":6255:6269   */\n      add\n        /* \"#utility.yul\":6248:6291   */\n      mstore\n        /* \"#utility.yul\":6131:6298   */\n      pop\n      jump\t// out\n        /* \"#utility.yul\":6304:6670   */\n    tag_153:\n        /* \"#utility.yul\":6446:6449   */\n      0x00\n        /* \"#utility.yul\":6467:6534   */\n      tag_242\n        /* \"#utility.yul\":6531:6533   */\n      0x11\n        /* \"#utility.yul\":6526:6529   */\n      dup4\n        /* \"#utility.yul\":6467:6534   */\n      tag_146\n      jump\t// in\n    tag_242:\n        /* \"#utility.yul\":6460:6534   */\n      swap2\n      pop\n        /* \"#utility.yul\":6543:6636   */\n      tag_243\n        /* \"#utility.yul\":6632:6635   */\n      dup3\n        /* \"#utility.yul\":6543:6636   */\n      tag_152\n      jump\t// in\n    tag_243:\n        /* \"#utility.yul\":6661:6663   */\n      0x20\n        /* \"#utility.yul\":6656:6659   */\n      dup3\n        /* \"#utility.yul\":6652:6664   */\n      add\n        /* \"#utility.yul\":6645:6664   */\n      swap1\n      pop\n        /* \"#utility.yul\":6304:6670   */\n      swap2\n      swap1\n      pop\n      jump\t// out\n        /* \"#utility.yul\":6676:7095   */\n    tag_72:\n        /* \"#utility.yul\":6842:6846   */\n      0x00\n        /* \"#utility.yul\":6880:6882   */\n      0x20\n        /* \"#utility.yul\":6869:6878   */\n      dup3\n        /* \"#utility.yul\":6865:6883   */\n      add\n        /* \"#utility.yul\":6857:6883   */\n      swap1\n      pop\n        /* \"#utility.yul\":6929:6938   */\n      dup2\n        /* \"#utility.yul\":6923:6927   */\n      dup2\n        /* \"#utility.yul\":6919:6939   */\n      sub\n        /* \"#utility.yul\":6915:6916   */\n      0x00\n        /* \"#utility.yul\":6904:6913   */\n      dup4\n        /* \"#utility.yul\":6900:6917   */\n      add\n        /* \"#utility.yul\":6893:6940   */\n      mstore\n        /* \"#utility.yul\":6957:7088   */\n      tag_245\n        /* \"#utility.yul\":7083:7087   */\n      dup2\n        /* \"#utility.yul\":6957:7088   */\n      tag_153\n      jump\t// in\n    tag_245:\n        /* \"#utility.yul\":6949:7088   */\n      swap1\n      pop\n        /* \"#utility.yul\":6676:7095   */\n      swap2\n      swap1\n      pop\n      jump\t// out\n        /* \"#utility.yul\":7101:7275   */\n    tag_154:\n        /* \"#utility.yul\":7241:7267   */\n      0x7468657265206973206e6f2066756e6420666f7220796f750000000000000000\n        /* \"#utility.yul\":7237:7238   */\n      0x00\n        /* \"#utility.yul\":7229:7235   */\n      dup3\n        /* \"#utility.yul\":7225:7239   */\n      add\n        /* \"#utility.yul\":7218:7268   */\n      mstore\n        /* \"#utility.yul\":7101:7275   */\n      pop\n      jump\t// out\n        /* \"#utility.yul\":7281:7647   */\n    tag_155:\n        /* \"#utility.yul\":7423:7426   */\n      0x00\n        /* \"#utility.yul\":7444:7511   */\n      tag_248\n        /* \"#utility.yul\":7508:7510   */\n      0x18\n        /* \"#utility.yul\":7503:7506   */\n      dup4\n        /* \"#utility.yul\":7444:7511   */\n      tag_146\n      jump\t// in\n    tag_248:\n        /* \"#utility.yul\":7437:7511   */\n      swap2\n      pop\n        /* \"#utility.yul\":7520:7613   */\n      tag_249\n        /* \"#utility.yul\":7609:7612   */\n      dup3\n        /* \"#utility.yul\":7520:7613   */\n      tag_154\n      jump\t// in\n    tag_249:\n        /* \"#utility.yul\":7638:7640   */\n      0x20\n        /* \"#utility.yul\":7633:7636   */\n      dup3\n        /* \"#utility.yul\":7629:7641   */\n      add\n        /* \"#utility.yul\":7622:7641   */\n      swap1\n      pop\n        /* \"#utility.yul\":7281:7647   */\n      swap2\n      swap1\n      pop\n      jump\t// out\n        /* \"#utility.yul\":7653:8072   */\n    tag_75:\n        /* \"#utility.yul\":7819:7823   */\n      0x00\n        /* \"#utility.yul\":7857:7859   */\n      0x20\n        /* \"#utility.yul\":7846:7855   */\n      dup3\n        /* \"#utility.yul\":7842:7860   */\n      add\n        /* \"#utility.yul\":7834:7860   */\n      swap1\n      pop\n        /* \"#utility.yul\":7906:7915   */\n      dup2\n        /* \"#utility.yul\":7900:7904   */\n      dup2\n        /* \"#utility.yul\":7896:7916   */\n      sub\n        /* \"#utility.yul\":7892:7893   */\n      0x00\n        /* \"#utility.yul\":7881:7890   */\n      dup4\n        /* \"#utility.yul\":7877:7894   */\n      add\n        /* \"#utility.yul\":7870:7917   */\n      mstore\n        /* \"#utility.yul\":7934:8065   */\n      tag_251\n        /* \"#utility.yul\":8060:8064   */\n      dup2\n        /* \"#utility.yul\":7934:8065   */\n      tag_155\n      jump\t// in\n    tag_251:\n        /* \"#utility.yul\":7926:8065   */\n      swap1\n      pop\n        /* \"#utility.yul\":7653:8072   */\n      swap2\n      swap1\n      pop\n      jump\t// out\n        /* \"#utility.yul\":8078:8225   */\n    tag_156:\n        /* \"#utility.yul\":8179:8190   */\n      0x00\n        /* \"#utility.yul\":8216:8219   */\n      dup2\n        /* \"#utility.yul\":8201:8219   */\n      swap1\n      pop\n        /* \"#utility.yul\":8078:8225   */\n      swap3\n      swap2\n      pop\n      pop\n      jump\t// out\n        /* \"#utility.yul\":8231:8345   */\n    tag_157:\n      pop\n      jump\t// out\n        /* \"#utility.yul\":8351:8749   */\n    tag_158:\n        /* \"#utility.yul\":8510:8513   */\n      0x00\n        /* \"#utility.yul\":8531:8614   */\n      tag_255\n        /* \"#utility.yul\":8612:8613   */\n      0x00\n        /* \"#utility.yul\":8607:8610   */\n      dup4\n        /* \"#utility.yul\":8531:8614   */\n      tag_156\n      jump\t// in\n    tag_255:\n        /* \"#utility.yul\":8524:8614   */\n      swap2\n      pop\n        /* \"#utility.yul\":8623:8716   */\n      tag_256\n        /* \"#utility.yul\":8712:8715   */\n      dup3\n        /* \"#utility.yul\":8623:8716   */\n      tag_157\n      jump\t// in\n    tag_256:\n        /* \"#utility.yul\":8741:8742   */\n      0x00\n        /* \"#utility.yul\":8736:8739   */\n      dup3\n        /* \"#utility.yul\":8732:8743   */\n      add\n        /* \"#utility.yul\":8725:8743   */\n      swap1\n      pop\n        /* \"#utility.yul\":8351:8749   */\n      swap2\n      swap1\n      pop\n      jump\t// out\n        /* \"#utility.yul\":8755:9134   */\n    tag_77:\n        /* \"#utility.yul\":8939:8942   */\n      0x00\n        /* \"#utility.yul\":8961:9108   */\n      tag_258\n        /* \"#utility.yul\":9104:9107   */\n      dup3\n        /* \"#utility.yul\":8961:9108   */\n      tag_158\n      jump\t// in\n    tag_258:\n        /* \"#utility.yul\":8954:9108   */\n      swap2\n      pop\n        /* \"#utility.yul\":9125:9128   */\n      dup2\n        /* \"#utility.yul\":9118:9128   */\n      swap1\n      pop\n        /* \"#utility.yul\":8755:9134   */\n      swap2\n      swap1\n      pop\n      jump\t// out\n        /* \"#utility.yul\":9140:9308   */\n    tag_159:\n        /* \"#utility.yul\":9280:9300   */\n      0x7472616e73666572207478206661696c65640000000000000000000000000000\n        /* \"#utility.yul\":9276:9277   */\n      0x00\n        /* \"#utility.yul\":9268:9274   */\n      dup3\n        /* \"#utility.yul\":9264:9278   */\n      add\n        /* \"#utility.yul\":9257:9301   */\n      mstore\n        /* \"#utility.yul\":9140:9308   */\n      pop\n      jump\t// out\n        /* \"#utility.yul\":9314:9680   */\n    tag_160:\n        /* \"#utility.yul\":9456:9459   */\n      0x00\n        /* \"#utility.yul\":9477:9544   */\n      tag_261\n        /* \"#utility.yul\":9541:9543   */\n      0x12\n        /* \"#utility.yul\":9536:9539   */\n      dup4\n        /* \"#utility.yul\":9477:9544   */\n      tag_146\n      jump\t// in\n    tag_261:\n        /* \"#utility.yul\":9470:9544   */\n      swap2\n      pop\n        /* \"#utility.yul\":9553:9646   */\n      tag_262\n        /* \"#utility.yul\":9642:9645   */\n      dup3\n        /* \"#utility.yul\":9553:9646   */\n      tag_159\n      jump\t// in\n    tag_262:\n        /* \"#utility.yul\":9671:9673   */\n      0x20\n        /* \"#utility.yul\":9666:9669   */\n      dup3\n        /* \"#utility.yul\":9662:9674   */\n      add\n        /* \"#utility.yul\":9655:9674   */\n      swap1\n      pop\n        /* \"#utility.yul\":9314:9680   */\n      swap2\n      swap1\n      pop\n      jump\t// out\n        /* \"#utility.yul\":9686:10105   */\n    tag_83:\n        /* \"#utility.yul\":9852:9856   */\n      0x00\n        /* \"#utility.yul\":9890:9892   */\n      0x20\n        /* \"#utility.yul\":9879:9888   */\n      dup3\n        /* \"#utility.yul\":9875:9893   */\n      add\n        /* \"#utility.yul\":9867:9893   */\n      swap1\n      pop\n        /* \"#utility.yul\":9939:9948   */\n      dup2\n        /* \"#utility.yul\":9933:9937   */\n      dup2\n        /* \"#utility.yul\":9929:9949   */\n      sub\n        /* \"#utility.yul\":9925:9926   */\n      0x00\n        /* \"#utility.yul\":9914:9923   */\n      dup4\n        /* \"#utility.yul\":9910:9927   */\n      add\n        /* \"#utility.yul\":9903:9950   */\n      mstore\n        /* \"#utility.yul\":9967:10098   */\n      tag_264\n        /* \"#utility.yul\":10093:10097   */\n      dup2\n        /* \"#utility.yul\":9967:10098   */\n      tag_160\n      jump\t// in\n    tag_264:\n        /* \"#utility.yul\":9959:10098   */\n      swap1\n      pop\n        /* \"#utility.yul\":9686:10105   */\n      swap2\n      swap1\n      pop\n      jump\t// out\n        /* \"#utility.yul\":10111:10282   */\n    tag_161:\n        /* \"#utility.yul\":10251:10274   */\n      0x546172676574206973206e6f7420726561636865640000000000000000000000\n        /* \"#utility.yul\":10247:10248   */\n      0x00\n        /* \"#utility.yul\":10239:10245   */\n      dup3\n        /* \"#utility.yul\":10235:10249   */\n      add\n        /* \"#utility.yul\":10228:10275   */\n      mstore\n        /* \"#utility.yul\":10111:10282   */\n      pop\n      jump\t// out\n        /* \"#utility.yul\":10288:10654   */\n    tag_162:\n        /* \"#utility.yul\":10430:10433   */\n      0x00\n        /* \"#utility.yul\":10451:10518   */\n      tag_267\n        /* \"#utility.yul\":10515:10517   */\n      0x15\n        /* \"#utility.yul\":10510:10513   */\n      dup4\n        /* \"#utility.yul\":10451:10518   */\n      tag_146\n      jump\t// in\n    tag_267:\n        /* \"#utility.yul\":10444:10518   */\n      swap2\n      pop\n        /* \"#utility.yul\":10527:10620   */\n      tag_268\n        /* \"#utility.yul\":10616:10619   */\n      dup3\n        /* \"#utility.yul\":10527:10620   */\n      tag_161\n      jump\t// in\n    tag_268:\n        /* \"#utility.yul\":10645:10647   */\n      0x20\n        /* \"#utility.yul\":10640:10643   */\n      dup3\n        /* \"#utility.yul\":10636:10648   */\n      add\n        /* \"#utility.yul\":10629:10648   */\n      swap1\n      pop\n        /* \"#utility.yul\":10288:10654   */\n      swap2\n      swap1\n      pop\n      jump\t// out\n        /* \"#utility.yul\":10660:11079   */\n    tag_95:\n        /* \"#utility.yul\":10826:10830   */\n      0x00\n        /* \"#utility.yul\":10864:10866   */\n      0x20\n        /* \"#utility.yul\":10853:10862   */\n      dup3\n        /* \"#utility.yul\":10849:10867   */\n      add\n        /* \"#utility.yul\":10841:10867   */\n      swap1\n      pop\n        /* \"#utility.yul\":10913:10922   */\n      dup2\n        /* \"#utility.yul\":10907:10911   */\n      dup2\n        /* \"#utility.yul\":10903:10923   */\n      sub\n        /* \"#utility.yul\":10899:10900   */\n      0x00\n        /* \"#utility.yul\":10888:10897   */\n      dup4\n        /* \"#utility.yul\":10884:10901   */\n      add\n        /* \"#utility.yul\":10877:10924   */\n      mstore\n        /* \"#utility.yul\":10941:11072   */\n      tag_270\n        /* \"#utility.yul\":11067:11071   */\n      dup2\n        /* \"#utility.yul\":10941:11072   */\n      tag_162\n      jump\t// in\n    tag_270:\n        /* \"#utility.yul\":10933:11072   */\n      swap1\n      pop\n        /* \"#utility.yul\":10660:11079   */\n      swap2\n      swap1\n      pop\n      jump\t// out\n        /* \"#utility.yul\":11085:11248   */\n    tag_163:\n        /* \"#utility.yul\":11225:11240   */\n      0x53656e64206d6f72652045544800000000000000000000000000000000000000\n        /* \"#utility.yul\":11221:11222   */\n      0x00\n        /* \"#utility.yul\":11213:11219   */\n      dup3\n        /* \"#utility.yul\":11209:11223   */\n      add\n        /* \"#utility.yul\":11202:11241   */\n      mstore\n        /* \"#utility.yul\":11085:11248   */\n      pop\n      jump\t// out\n        /* \"#utility.yul\":11254:11620   */\n    tag_164:\n        /* \"#utility.yul\":11396:11399   */\n      0x00\n        /* \"#utility.yul\":11417:11484   */\n      tag_273\n        /* \"#utility.yul\":11481:11483   */\n      0x0d\n        /* \"#utility.yul\":11476:11479   */\n      dup4\n        /* \"#utility.yul\":11417:11484   */\n      tag_146\n      jump\t// in\n    tag_273:\n        /* \"#utility.yul\":11410:11484   */\n      swap2\n      pop\n        /* \"#utility.yul\":11493:11586   */\n      tag_274\n        /* \"#utility.yul\":11582:11585   */\n      dup3\n        /* \"#utility.yul\":11493:11586   */\n      tag_163\n      jump\t// in\n    tag_274:\n        /* \"#utility.yul\":11611:11613   */\n      0x20\n        /* \"#utility.yul\":11606:11609   */\n      dup3\n        /* \"#utility.yul\":11602:11614   */\n      add\n        /* \"#utility.yul\":11595:11614   */\n      swap1\n      pop\n        /* \"#utility.yul\":11254:11620   */\n      swap2\n      swap1\n      pop\n      jump\t// out\n        /* \"#utility.yul\":11626:12045   */\n    tag_106:\n        /* \"#utility.yul\":11792:11796   */\n      0x00\n        /* \"#utility.yul\":11830:11832   */\n      0x20\n        /* \"#utility.yul\":11819:11828   */\n      dup3\n        /* \"#utility.yul\":11815:11833   */\n      add\n        /* \"#utility.yul\":11807:11833   */\n      swap1\n      pop\n        /* \"#utility.yul\":11879:11888   */\n      dup2\n        /* \"#utility.yul\":11873:11877   */\n      dup2\n        /* \"#utility.yul\":11869:11889   */\n      sub\n        /* \"#utility.yul\":11865:11866   */\n      0x00\n        /* \"#utility.yul\":11854:11863   */\n      dup4\n        /* \"#utility.yul\":11850:11867   */\n      add\n        /* \"#utility.yul\":11843:11890   */\n      mstore\n        /* \"#utility.yul\":11907:12038   */\n      tag_276\n        /* \"#utility.yul\":12033:12037   */\n      dup2\n        /* \"#utility.yul\":11907:12038   */\n      tag_164\n      jump\t// in\n    tag_276:\n        /* \"#utility.yul\":11899:12038   */\n      swap1\n      pop\n        /* \"#utility.yul\":11626:12045   */\n      swap2\n      swap1\n      pop\n      jump\t// out\n        /* \"#utility.yul\":12051:12216   */\n    tag_165:\n        /* \"#utility.yul\":12191:12208   */\n      0x77696e646f7720697320636c6f73650000000000000000000000000000000000\n        /* \"#utility.yul\":12187:12188   */\n      0x00\n        /* \"#utility.yul\":12179:12185   */\n      dup3\n        /* \"#utility.yul\":12175:12189   */\n      add\n        /* \"#utility.yul\":12168:12209   */\n      mstore\n        /* \"#utility.yul\":12051:12216   */\n      pop\n      jump\t// out\n        /* \"#utility.yul\":12222:12588   */\n    tag_166:\n        /* \"#utility.yul\":12364:12367   */\n      0x00\n        /* \"#utility.yul\":12385:12452   */\n      tag_279\n        /* \"#utility.yul\":12449:12451   */\n      0x0f\n        /* \"#utility.yul\":12444:12447   */\n      dup4\n        /* \"#utility.yul\":12385:12452   */\n      tag_146\n      jump\t// in\n    tag_279:\n        /* \"#utility.yul\":12378:12452   */\n      swap2\n      pop\n        /* \"#utility.yul\":12461:12554   */\n      tag_280\n        /* \"#utility.yul\":12550:12553   */\n      dup3\n        /* \"#utility.yul\":12461:12554   */\n      tag_165\n      jump\t// in\n    tag_280:\n        /* \"#utility.yul\":12579:12581   */\n      0x20\n        /* \"#utility.yul\":12574:12577   */\n      dup3\n        /* \"#utility.yul\":12570:12582   */\n      add\n        /* \"#utility.yul\":12563:12582   */\n      swap1\n      pop\n        /* \"#utility.yul\":12222:12588   */\n      swap2\n      swap1\n      pop\n      jump\t// out\n        /* \"#utility.yul\":12594:13013   */\n    tag_110:\n        /* \"#utility.yul\":12760:12764   */\n      0x00\n        /* \"#utility.yul\":12798:12800   */\n      0x20\n        /* \"#utility.yul\":12787:12796   */\n      dup3\n        /* \"#utility.yul\":12783:12801   */\n      add\n        /* \"#utility.yul\":12775:12801   */\n      swap1\n      pop\n        /* \"#utility.yul\":12847:12856   */\n      dup2\n        /* \"#utility.yul\":12841:12845   */\n      dup2\n        /* \"#utility.yul\":12837:12857   */\n      sub\n        /* \"#utility.yul\":12833:12834   */\n      0x00\n        /* \"#utility.yul\":12822:12831   */\n      dup4\n        /* \"#utility.yul\":12818:12835   */\n      add\n        /* \"#utility.yul\":12811:12858   */\n      mstore\n        /* \"#utility.yul\":12875:13006   */\n      tag_282\n        /* \"#utility.yul\":13001:13005   */\n      dup2\n        /* \"#utility.yul\":12875:13006   */\n      tag_166\n      jump\t// in\n    tag_282:\n        /* \"#utility.yul\":12867:13006   */\n      swap1\n      pop\n        /* \"#utility.yul\":12594:13013   */\n      swap2\n      swap1\n      pop\n      jump\t// out\n        /* \"#utility.yul\":13019:13124   */\n    tag_167:\n        /* \"#utility.yul\":13055:13062   */\n      0x00\n        /* \"#utility.yul\":13095:13117   */\n      0xffffffffffffffffffff\n        /* \"#utility.yul\":13088:13093   */\n      dup3\n        /* \"#utility.yul\":13084:13118   */\n      and\n        /* \"#utility.yul\":13073:13118   */\n      swap1\n      pop\n        /* \"#utility.yul\":13019:13124   */\n      swap2\n      swap1\n      pop\n      jump\t// out\n        /* \"#utility.yul\":13130:13250   */\n    tag_168:\n        /* \"#utility.yul\":13202:13225   */\n      tag_285\n        /* \"#utility.yul\":13219:13224   */\n      dup2\n        /* \"#utility.yul\":13202:13225   */\n      tag_167\n      jump\t// in\n    tag_285:\n        /* \"#utility.yul\":13195:13200   */\n      dup2\n        /* \"#utility.yul\":13192:13226   */\n      eq\n        /* \"#utility.yul\":13182:13244   */\n      tag_286\n      jumpi\n        /* \"#utility.yul\":13240:13241   */\n      0x00\n        /* \"#utility.yul\":13237:13238   */\n      dup1\n        /* \"#utility.yul\":13230:13242   */\n      revert\n        /* \"#utility.yul\":13182:13244   */\n    tag_286:\n        /* \"#utility.yul\":13130:13250   */\n      pop\n      jump\t// out\n        /* \"#utility.yul\":13256:13397   */\n    tag_169:\n        /* \"#utility.yul\":13312:13317   */\n      0x00\n        /* \"#utility.yul\":13343:13349   */\n      dup2\n        /* \"#utility.yul\":13337:13350   */\n      mload\n        /* \"#utility.yul\":13328:13350   */\n      swap1\n      pop\n        /* \"#utility.yul\":13359:13391   */\n      tag_288\n        /* \"#utility.yul\":13385:13390   */\n      dup2\n        /* \"#utility.yul\":13359:13391   */\n      tag_168\n      jump\t// in\n    tag_288:\n        /* \"#utility.yul\":13256:13397   */\n      swap3\n      swap2\n      pop\n      pop\n      jump\t// out\n        /* \"#utility.yul\":13403:13523   */\n    tag_170:\n        /* \"#utility.yul\":13475:13498   */\n      tag_290\n        /* \"#utility.yul\":13492:13497   */\n      dup2\n        /* \"#utility.yul\":13475:13498   */\n      tag_140\n      jump\t// in\n    tag_290:\n        /* \"#utility.yul\":13468:13473   */\n      dup2\n        /* \"#utility.yul\":13465:13499   */\n      eq\n        /* \"#utility.yul\":13455:13517   */\n      tag_291\n      jumpi\n        /* \"#utility.yul\":13513:13514   */\n      0x00\n        /* \"#utility.yul\":13510:13511   */\n      dup1\n        /* \"#utility.yul\":13503:13515   */\n      revert\n        /* \"#utility.yul\":13455:13517   */\n    tag_291:\n        /* \"#utility.yul\":13403:13523   */\n      pop\n      jump\t// out\n        /* \"#utility.yul\":13529:13670   */\n    tag_171:\n        /* \"#utility.yul\":13585:13590   */\n      0x00\n        /* \"#utility.yul\":13616:13622   */\n      dup2\n        /* \"#utility.yul\":13610:13623   */\n      mload\n        /* \"#utility.yul\":13601:13623   */\n      swap1\n      pop\n        /* \"#utility.yul\":13632:13664   */\n      tag_293\n        /* \"#utility.yul\":13658:13663   */\n      dup2\n        /* \"#utility.yul\":13632:13664   */\n      tag_170\n      jump\t// in\n    tag_293:\n        /* \"#utility.yul\":13529:13670   */\n      swap3\n      swap2\n      pop\n      pop\n      jump\t// out\n        /* \"#utility.yul\":13676:13819   */\n    tag_172:\n        /* \"#utility.yul\":13733:13738   */\n      0x00\n        /* \"#utility.yul\":13764:13770   */\n      dup2\n        /* \"#utility.yul\":13758:13771   */\n      mload\n        /* \"#utility.yul\":13749:13771   */\n      swap1\n      pop\n        /* \"#utility.yul\":13780:13813   */\n      tag_295\n        /* \"#utility.yul\":13807:13812   */\n      dup2\n        /* \"#utility.yul\":13780:13813   */\n      tag_142\n      jump\t// in\n    tag_295:\n        /* \"#utility.yul\":13676:13819   */\n      swap3\n      swap2\n      pop\n      pop\n      jump\t// out\n        /* \"#utility.yul\":13825:14796   */\n    tag_115:\n        /* \"#utility.yul\":13928:13934   */\n      0x00\n        /* \"#utility.yul\":13936:13942   */\n      dup1\n        /* \"#utility.yul\":13944:13950   */\n      0x00\n        /* \"#utility.yul\":13952:13958   */\n      dup1\n        /* \"#utility.yul\":13960:13966   */\n      0x00\n        /* \"#utility.yul\":14009:14012   */\n      0xa0\n        /* \"#utility.yul\":13997:14006   */\n      dup7\n        /* \"#utility.yul\":13988:13995   */\n      dup9\n        /* \"#utility.yul\":13984:14007   */\n      sub\n        /* \"#utility.yul\":13980:14013   */\n      slt\n        /* \"#utility.yul\":13977:14097   */\n      iszero\n      tag_297\n      jumpi\n        /* \"#utility.yul\":14016:14095   */\n      tag_298\n      tag_131\n      jump\t// in\n    tag_298:\n        /* \"#utility.yul\":13977:14097   */\n    tag_297:\n        /* \"#utility.yul\":14136:14137   */\n      0x00\n        /* \"#utility.yul\":14161:14224   */\n      tag_299\n        /* \"#utility.yul\":14216:14223   */\n      dup9\n        /* \"#utility.yul\":14207:14213   */\n      dup3\n        /* \"#utility.yul\":14196:14205   */\n      dup10\n        /* \"#utility.yul\":14192:14214   */\n      add\n        /* \"#utility.yul\":14161:14224   */\n      tag_169\n      jump\t// in\n    tag_299:\n        /* \"#utility.yul\":14151:14224   */\n      swap6\n      pop\n        /* \"#utility.yul\":14107:14234   */\n      pop\n        /* \"#utility.yul\":14273:14275   */\n      0x20\n        /* \"#utility.yul\":14299:14362   */\n      tag_300\n        /* \"#utility.yul\":14354:14361   */\n      dup9\n        /* \"#utility.yul\":14345:14351   */\n      dup3\n        /* \"#utility.yul\":14334:14343   */\n      dup10\n        /* \"#utility.yul\":14330:14352   */\n      add\n        /* \"#utility.yul\":14299:14362   */\n      tag_171\n      jump\t// in\n    tag_300:\n        /* \"#utility.yul\":14289:14362   */\n      swap5\n      pop\n        /* \"#utility.yul\":14244:14372   */\n      pop\n        /* \"#utility.yul\":14411:14413   */\n      0x40\n        /* \"#utility.yul\":14437:14501   */\n      tag_301\n        /* \"#utility.yul\":14493:14500   */\n      dup9\n        /* \"#utility.yul\":14484:14490   */\n      dup3\n        /* \"#utility.yul\":14473:14482   */\n      dup10\n        /* \"#utility.yul\":14469:14491   */\n      add\n        /* \"#utility.yul\":14437:14501   */\n      tag_172\n      jump\t// in\n    tag_301:\n        /* \"#utility.yul\":14427:14501   */\n      swap4\n      pop\n        /* \"#utility.yul\":14382:14511   */\n      pop\n        /* \"#utility.yul\":14550:14552   */\n      0x60\n        /* \"#utility.yul\":14576:14640   */\n      tag_302\n        /* \"#utility.yul\":14632:14639   */\n      dup9\n        /* \"#utility.yul\":14623:14629   */\n      dup3\n        /* \"#utility.yul\":14612:14621   */\n      dup10\n        /* \"#utility.yul\":14608:14630   */\n      add\n        /* \"#utility.yul\":14576:14640   */\n      tag_172\n      jump\t// in\n    tag_302:\n        /* \"#utility.yul\":14566:14640   */\n      swap3\n      pop\n        /* \"#utility.yul\":14521:14650   */\n      pop\n        /* \"#utility.yul\":14689:14692   */\n      0x80\n        /* \"#utility.yul\":14716:14779   */\n      tag_303\n        /* \"#utility.yul\":14771:14778   */\n      dup9\n        /* \"#utility.yul\":14762:14768   */\n      dup3\n        /* \"#utility.yul\":14751:14760   */\n      dup10\n        /* \"#utility.yul\":14747:14769   */\n      add\n        /* \"#utility.yul\":14716:14779   */\n      tag_169\n      jump\t// in\n    tag_303:\n        /* \"#utility.yul\":14706:14779   */\n      swap2\n      pop\n        /* \"#utility.yul\":14660:14789   */\n      pop\n        /* \"#utility.yul\":13825:14796   */\n      swap3\n      swap6\n      pop\n      swap3\n      swap6\n      swap1\n      swap4\n      pop\n      jump\t// out\n        /* \"#utility.yul\":14802:15036   */\n    tag_173:\n        /* \"#utility.yul\":14942:14976   */\n      0x796f7520646f206e6f742068617665207065726d697373696f6e20746f206361\n        /* \"#utility.yul\":14938:14939   */\n      0x00\n        /* \"#utility.yul\":14930:14936   */\n      dup3\n        /* \"#utility.yul\":14926:14940   */\n      add\n        /* \"#utility.yul\":14919:14977   */\n      mstore\n        /* \"#utility.yul\":15011:15028   */\n      0x6c6c20746869732066756e74696f6e0000000000000000000000000000000000\n        /* \"#utility.yul\":15006:15008   */\n      0x20\n        /* \"#utility.yul\":14998:15004   */\n      dup3\n        /* \"#utility.yul\":14994:15009   */\n      add\n        /* \"#utility.yul\":14987:15029   */\n      mstore\n        /* \"#utility.yul\":14802:15036   */\n      pop\n      jump\t// out\n        /* \"#utility.yul\":15042:15408   */\n    tag_174:\n        /* \"#utility.yul\":15184:15187   */\n      0x00\n        /* \"#utility.yul\":15205:15272   */\n      tag_306\n        /* \"#utility.yul\":15269:15271   */\n      0x2f\n        /* \"#utility.yul\":15264:15267   */\n      dup4\n        /* \"#utility.yul\":15205:15272   */\n      tag_146\n      jump\t// in\n    tag_306:\n        /* \"#utility.yul\":15198:15272   */\n      swap2\n      pop\n        /* \"#utility.yul\":15281:15374   */\n      tag_307\n        /* \"#utility.yul\":15370:15373   */\n      dup3\n        /* \"#utility.yul\":15281:15374   */\n      tag_173\n      jump\t// in\n    tag_307:\n        /* \"#utility.yul\":15399:15401   */\n      0x40\n        /* \"#utility.yul\":15394:15397   */\n      dup3\n        /* \"#utility.yul\":15390:15402   */\n      add\n        /* \"#utility.yul\":15383:15402   */\n      swap1\n      pop\n        /* \"#utility.yul\":15042:15408   */\n      swap2\n      swap1\n      pop\n      jump\t// out\n        /* \"#utility.yul\":15414:15833   */\n    tag_119:\n        /* \"#utility.yul\":15580:15584   */\n      0x00\n        /* \"#utility.yul\":15618:15620   */\n      0x20\n        /* \"#utility.yul\":15607:15616   */\n      dup3\n        /* \"#utility.yul\":15603:15621   */\n      add\n        /* \"#utility.yul\":15595:15621   */\n      swap1\n      pop\n        /* \"#utility.yul\":15667:15676   */\n      dup2\n        /* \"#utility.yul\":15661:15665   */\n      dup2\n        /* \"#utility.yul\":15657:15677   */\n      sub\n        /* \"#utility.yul\":15653:15654   */\n      0x00\n        /* \"#utility.yul\":15642:15651   */\n      dup4\n        /* \"#utility.yul\":15638:15655   */\n      add\n        /* \"#utility.yul\":15631:15678   */\n      mstore\n        /* \"#utility.yul\":15695:15826   */\n      tag_309\n        /* \"#utility.yul\":15821:15825   */\n      dup2\n        /* \"#utility.yul\":15695:15826   */\n      tag_174\n      jump\t// in\n    tag_309:\n        /* \"#utility.yul\":15687:15826   */\n      swap1\n      pop\n        /* \"#utility.yul\":15414:15833   */\n      swap2\n      swap1\n      pop\n      jump\t// out\n        /* \"#utility.yul\":15839:16249   */\n    tag_127:\n        /* \"#utility.yul\":15879:15886   */\n      0x00\n        /* \"#utility.yul\":15902:15922   */\n      tag_311\n        /* \"#utility.yul\":15920:15921   */\n      dup3\n        /* \"#utility.yul\":15902:15922   */\n      tag_138\n      jump\t// in\n    tag_311:\n        /* \"#utility.yul\":15897:15922   */\n      swap2\n      pop\n        /* \"#utility.yul\":15936:15956   */\n      tag_312\n        /* \"#utility.yul\":15954:15955   */\n      dup4\n        /* \"#utility.yul\":15936:15956   */\n      tag_138\n      jump\t// in\n    tag_312:\n        /* \"#utility.yul\":15931:15956   */\n      swap3\n      pop\n        /* \"#utility.yul\":15991:15992   */\n      dup3\n        /* \"#utility.yul\":15988:15989   */\n      dup3\n        /* \"#utility.yul\":15984:15993   */\n      mul\n        /* \"#utility.yul\":16013:16043   */\n      tag_313\n        /* \"#utility.yul\":16031:16042   */\n      dup2\n        /* \"#utility.yul\":16013:16043   */\n      tag_138\n      jump\t// in\n    tag_313:\n        /* \"#utility.yul\":16002:16043   */\n      swap2\n      pop\n        /* \"#utility.yul\":16192:16193   */\n      dup3\n        /* \"#utility.yul\":16183:16190   */\n      dup3\n        /* \"#utility.yul\":16179:16194   */\n      div\n        /* \"#utility.yul\":16176:16177   */\n      dup5\n        /* \"#utility.yul\":16173:16195   */\n      eq\n        /* \"#utility.yul\":16153:16154   */\n      dup4\n        /* \"#utility.yul\":16146:16155   */\n      iszero\n        /* \"#utility.yul\":16126:16209   */\n      or\n        /* \"#utility.yul\":16103:16242   */\n      tag_314\n      jumpi\n        /* \"#utility.yul\":16222:16240   */\n      tag_315\n      tag_149\n      jump\t// in\n    tag_315:\n        /* \"#utility.yul\":16103:16242   */\n    tag_314:\n        /* \"#utility.yul\":15887:16249   */\n      pop\n        /* \"#utility.yul\":15839:16249   */\n      swap3\n      swap2\n      pop\n      pop\n      jump\t// out\n        /* \"#utility.yul\":16255:16435   */\n    tag_175:\n        /* \"#utility.yul\":16303:16380   */\n      0x4e487b7100000000000000000000000000000000000000000000000000000000\n        /* \"#utility.yul\":16300:16301   */\n      0x00\n        /* \"#utility.yul\":16293:16381   */\n      mstore\n        /* \"#utility.yul\":16400:16404   */\n      0x12\n        /* \"#utility.yul\":16397:16398   */\n      0x04\n        /* \"#utility.yul\":16390:16405   */\n      mstore\n        /* \"#utility.yul\":16424:16428   */\n      0x24\n        /* \"#utility.yul\":16421:16422   */\n      0x00\n        /* \"#utility.yul\":16414:16429   */\n      revert\n        /* \"#utility.yul\":16441:16626   */\n    tag_129:\n        /* \"#utility.yul\":16481:16482   */\n      0x00\n        /* \"#utility.yul\":16498:16518   */\n      tag_318\n        /* \"#utility.yul\":16516:16517   */\n      dup3\n        /* \"#utility.yul\":16498:16518   */\n      tag_138\n      jump\t// in\n    tag_318:\n        /* \"#utility.yul\":16493:16518   */\n      swap2\n      pop\n        /* \"#utility.yul\":16532:16552   */\n      tag_319\n        /* \"#utility.yul\":16550:16551   */\n      dup4\n        /* \"#utility.yul\":16532:16552   */\n      tag_138\n      jump\t// in\n    tag_319:\n        /* \"#utility.yul\":16527:16552   */\n      swap3\n      pop\n        /* \"#utility.yul\":16571:16572   */\n      dup3\n        /* \"#utility.yul\":16561:16596   */\n      tag_320\n      jumpi\n        /* \"#utility.yul\":16576:16594   */\n      tag_321\n      tag_175\n      jump\t// in\n    tag_321:\n        /* \"#utility.yul\":16561:16596   */\n    tag_320:\n        /* \"#utility.yul\":16618:16619   */\n      dup3\n        /* \"#utility.yul\":16615:16616   */\n      dup3\n        /* \"#utility.yul\":16611:16620   */\n      div\n        /* \"#utility.yul\":16606:16620   */\n      swap1\n      pop\n        /* \"#utility.yul\":16441:16626   */\n      swap3\n      swap2\n      pop\n      pop\n      jump\t// out\n\n    auxdata: 0xa2646970667358221220abdd61b521d17c283ab0bb5d4c9f2381f10f470c0047a64e76f86350921c595564736f6c634300081a0033\n}\n",
				"bytecode": {
					"linkReferences": {},
					"object": "60806040525f600560146101000a81548160ff021916908315150217905550348015610029575f80fd5b5060405161143b38038061143b833981810160405281019061004b919061012a565b73694aa1769357215de4fac081bf1f309adc32530660015f6101000a81548173ffffffffffffffffffffffffffffffffffffffff021916908373ffffffffffffffffffffffffffffffffffffffff1602179055503360025f6101000a81548173ffffffffffffffffffffffffffffffffffffffff021916908373ffffffffffffffffffffffffffffffffffffffff160217905550426003819055508060048190555050610155565b5f80fd5b5f819050919050565b610109816100f7565b8114610113575f80fd5b50565b5f8151905061012481610100565b92915050565b5f6020828403121561013f5761013e6100f3565b5b5f61014c84828501610116565b91505092915050565b6112d9806101625f395ff3fe608060405260043610610090575f3560e01c8063b60d428811610058578063b60d42881461014e578063bea4dfb514610158578063d39cf00614610182578063da4658e0146101aa578063f2fde38b146101d457610090565b806313ffff0114610094578063590e1ae3146100bc5780638da5cb5b146100d25780638edd6eb6146100fc5780639f883a0514610112575b5f80fd5b34801561009f575f80fd5b506100ba60048036038101906100b59190610b1c565b6101fc565b005b3480156100c7575f80fd5b506100d06102ce565b005b3480156100dd575f80fd5b506100e661051b565b6040516100f39190610b56565b60405180910390f35b348015610107575f80fd5b50610110610540565b005b34801561011d575f80fd5b5061013860048036038101906101339190610b1c565b61073d565b6040516101459190610b87565b60405180910390f35b610156610751565b005b348015610163575f80fd5b5061016c610839565b6040516101799190610bb8565b60405180910390f35b34801561018d575f80fd5b506101a860048036038101906101a39190610bfb565b6108d6565b005b3480156101b5575f80fd5b506101be6109aa565b6040516101cb9190610c53565b60405180910390f35b3480156101df575f80fd5b506101fa60048036038101906101f59190610b1c565b6109bd565b005b60025f9054906101000a900473ffffffffffffffffffffffffffffffffffffffff1673ffffffffffffffffffffffffffffffffffffffff163373ffffffffffffffffffffffffffffffffffffffff161461028b576040517f08c379a000000000000000000000000000000000000000000000000000000000815260040161028290610cec565b60405180910390fd5b8060055f6101000a81548173ffffffffffffffffffffffffffffffffffffffff021916908373ffffffffffffffffffffffffffffffffffffffff16021790555050565b6004546003546102de9190610d37565b421015610320576040517f08c379a000000000000000000000000000000000000000000000000000000000815260040161031790610db4565b60405180910390fd5b683635c9adc5dea0000061033347610a8f565b10610373576040517f08c379a000000000000000000000000000000000000000000000000000000000815260040161036a90610e1c565b60405180910390fd5b5f805f3373ffffffffffffffffffffffffffffffffffffffff1673ffffffffffffffffffffffffffffffffffffffff1681526020019081526020015f2054036103f1576040517f08c379a00000000000000000000000000000000000000000000000000000000081526004016103e890610e84565b60405180910390fd5b5f3373ffffffffffffffffffffffffffffffffffffffff165f803373ffffffffffffffffffffffffffffffffffffffff1673ffffffffffffffffffffffffffffffffffffffff1681526020019081526020015f205460405161045290610ecf565b5f6040518083038185875af1925050503d805f811461048c576040519150601f19603f3d011682016040523d82523d5f602084013e610491565b606091505b505080915050806104d7576040517f08c379a00000000000000000000000000000000000000000000000000000000081526004016104ce90610f2d565b60405180910390fd5b5f805f3373ffffffffffffffffffffffffffffffffffffffff1673ffffffffffffffffffffffffffffffffffffffff1681526020019081526020015f208190555050565b60025f9054906101000a900473ffffffffffffffffffffffffffffffffffffffff1681565b6004546003546105509190610d37565b421015610592576040517f08c379a000000000000000000000000000000000000000000000000000000000815260040161058990610db4565b60405180910390fd5b60025f9054906101000a900473ffffffffffffffffffffffffffffffffffffffff1673ffffffffffffffffffffffffffffffffffffffff163373ffffffffffffffffffffffffffffffffffffffff1614610621576040517f08c379a000000000000000000000000000000000000000000000000000000000815260040161061890610cec565b60405180910390fd5b683635c9adc5dea0000061063447610a8f565b1015610675576040517f08c379a000000000000000000000000000000000000000000000000000000000815260040161066c90610f95565b60405180910390fd5b5f3373ffffffffffffffffffffffffffffffffffffffff164760405161069a90610ecf565b5f6040518083038185875af1925050503d805f81146106d4576040519150601f19603f3d011682016040523d82523d5f602084013e6106d9565b606091505b5050809150508061071f576040517f08c379a000000000000000000000000000000000000000000000000000000000815260040161071690610f2d565b60405180910390fd5b6001600560146101000a81548160ff02191690831515021790555050565b5f602052805f5260405f205f915090505481565b68056bc75e2d6310000061076434610a8f565b10156107a5576040517f08c379a000000000000000000000000000000000000000000000000000000000815260040161079c90610ffd565b60405180910390fd5b6004546003546107b59190610d37565b42106107f6576040517f08c379a00000000000000000000000000000000000000000000000000000000081526004016107ed90611065565b60405180910390fd5b345f803373ffffffffffffffffffffffffffffffffffffffff1673ffffffffffffffffffffffffffffffffffffffff1681526020019081526020015f2081905550565b5f8060015f9054906101000a900473ffffffffffffffffffffffffffffffffffffffff1673ffffffffffffffffffffffffffffffffffffffff1663feaf968c6040518163ffffffff1660e01b815260040160a060405180830381865afa1580156108a5573d5f803e3d5ffd5b505050506040513d601f19601f820116820180604052508101906108c99190611100565b5050509150508091505090565b60055f9054906101000a900473ffffffffffffffffffffffffffffffffffffffff1673ffffffffffffffffffffffffffffffffffffffff163373ffffffffffffffffffffffffffffffffffffffff1614610965576040517f08c379a000000000000000000000000000000000000000000000000000000000815260040161095c906111e7565b60405180910390fd5b805f808473ffffffffffffffffffffffffffffffffffffffff1673ffffffffffffffffffffffffffffffffffffffff1681526020019081526020015f20819055505050565b600560149054906101000a900460ff1681565b60025f9054906101000a900473ffffffffffffffffffffffffffffffffffffffff1673ffffffffffffffffffffffffffffffffffffffff163373ffffffffffffffffffffffffffffffffffffffff1614610a4c576040517f08c379a0000000000000000000000000000000000000000000000000000000008152600401610a4390610cec565b60405180910390fd5b8060025f6101000a81548173ffffffffffffffffffffffffffffffffffffffff021916908373ffffffffffffffffffffffffffffffffffffffff16021790555050565b5f80610a99610839565b90506305f5e1008184610aac9190611205565b610ab69190611273565b915050919050565b5f80fd5b5f73ffffffffffffffffffffffffffffffffffffffff82169050919050565b5f610aeb82610ac2565b9050919050565b610afb81610ae1565b8114610b05575f80fd5b50565b5f81359050610b1681610af2565b92915050565b5f60208284031215610b3157610b30610abe565b5b5f610b3e84828501610b08565b91505092915050565b610b5081610ae1565b82525050565b5f602082019050610b695f830184610b47565b92915050565b5f819050919050565b610b8181610b6f565b82525050565b5f602082019050610b9a5f830184610b78565b92915050565b5f819050919050565b610bb281610ba0565b82525050565b5f602082019050610bcb5f830184610ba9565b92915050565b610bda81610b6f565b8114610be4575f80fd5b50565b5f81359050610bf581610bd1565b92915050565b5f8060408385031215610c1157610c10610abe565b5b5f610c1e85828601610b08565b9250506020610c2f85828601610be7565b9150509250929050565b5f8115159050919050565b610c4d81610c39565b82525050565b5f602082019050610c665f830184610c44565b92915050565b5f82825260208201905092915050565b7f746869732066756e6374696f6e2063616e206f6e6c792062652063616c6c65645f8201527f206279206f776e65720000000000000000000000000000000000000000000000602082015250565b5f610cd6602983610c6c565b9150610ce182610c7c565b604082019050919050565b5f6020820190508181035f830152610d0381610cca565b9050919050565b7f4e487b71000000000000000000000000000000000000000000000000000000005f52601160045260245ffd5b5f610d4182610b6f565b9150610d4c83610b6f565b9250828201905080821115610d6457610d63610d0a565b5b92915050565b7f77696e646f77206973206e6f7420636c6f7365000000000000000000000000005f82015250565b5f610d9e601383610c6c565b9150610da982610d6a565b602082019050919050565b5f6020820190508181035f830152610dcb81610d92565b9050919050565b7f54617267657420697320726561636865640000000000000000000000000000005f82015250565b5f610e06601183610c6c565b9150610e1182610dd2565b602082019050919050565b5f6020820190508181035f830152610e3381610dfa565b9050919050565b7f7468657265206973206e6f2066756e6420666f7220796f7500000000000000005f82015250565b5f610e6e601883610c6c565b9150610e7982610e3a565b602082019050919050565b5f6020820190508181035f830152610e9b81610e62565b9050919050565b5f81905092915050565b50565b5f610eba5f83610ea2565b9150610ec582610eac565b5f82019050919050565b5f610ed982610eaf565b9150819050919050565b7f7472616e73666572207478206661696c656400000000000000000000000000005f82015250565b5f610f17601283610c6c565b9150610f2282610ee3565b602082019050919050565b5f6020820190508181035f830152610f4481610f0b565b9050919050565b7f546172676574206973206e6f74207265616368656400000000000000000000005f82015250565b5f610f7f601583610c6c565b9150610f8a82610f4b565b602082019050919050565b5f6020820190508181035f830152610fac81610f73565b9050919050565b7f53656e64206d6f726520455448000000000000000000000000000000000000005f82015250565b5f610fe7600d83610c6c565b9150610ff282610fb3565b602082019050919050565b5f6020820190508181035f83015261101481610fdb565b9050919050565b7f77696e646f7720697320636c6f736500000000000000000000000000000000005f82015250565b5f61104f600f83610c6c565b915061105a8261101b565b602082019050919050565b5f6020820190508181035f83015261107c81611043565b9050919050565b5f69ffffffffffffffffffff82169050919050565b6110a181611083565b81146110ab575f80fd5b50565b5f815190506110bc81611098565b92915050565b6110cb81610ba0565b81146110d5575f80fd5b50565b5f815190506110e6816110c2565b92915050565b5f815190506110fa81610bd1565b92915050565b5f805f805f60a0868803121561111957611118610abe565b5b5f611126888289016110ae565b9550506020611137888289016110d8565b9450506040611148888289016110ec565b9350506060611159888289016110ec565b925050608061116a888289016110ae565b9150509295509295909350565b7f796f7520646f206e6f742068617665207065726d697373696f6e20746f2063615f8201527f6c6c20746869732066756e74696f6e0000000000000000000000000000000000602082015250565b5f6111d1602f83610c6c565b91506111dc82611177565b604082019050919050565b5f6020820190508181035f8301526111fe816111c5565b9050919050565b5f61120f82610b6f565b915061121a83610b6f565b925082820261122881610b6f565b9150828204841483151761123f5761123e610d0a565b5b5092915050565b7f4e487b71000000000000000000000000000000000000000000000000000000005f52601260045260245ffd5b5f61127d82610b6f565b915061128883610b6f565b92508261129857611297611246565b5b82820490509291505056fea2646970667358221220abdd61b521d17c283ab0bb5d4c9f2381f10f470c0047a64e76f86350921c595564736f6c634300081a0033",
					"opcodes": "PUSH1 0x80 PUSH1 0x40 MSTORE PUSH0 PUSH1 0x5 PUSH1 0x14 PUSH2 0x100 EXP DUP2 SLOAD DUP2 PUSH1 0xFF MUL NOT AND SWAP1 DUP4 ISZERO ISZERO MUL OR SWAP1 SSTORE POP CALLVALUE DUP1 ISZERO PUSH2 0x29 JUMPI PUSH0 DUP1 REVERT JUMPDEST POP PUSH1 0x40 MLOAD PUSH2 0x143B CODESIZE SUB DUP1 PUSH2 0x143B DUP4 CODECOPY DUP2 DUP2 ADD PUSH1 0x40 MSTORE DUP2 ADD SWAP1 PUSH2 0x4B SWAP2 SWAP1 PUSH2 0x12A JUMP JUMPDEST PUSH20 0x694AA1769357215DE4FAC081BF1F309ADC325306 PUSH1 0x1 PUSH0 PUSH2 0x100 EXP DUP2 SLOAD DUP2 PUSH20 0xFFFFFFFFFFFFFFFFFFFFFFFFFFFFFFFFFFFFFFFF MUL NOT AND SWAP1 DUP4 PUSH20 0xFFFFFFFFFFFFFFFFFFFFFFFFFFFFFFFFFFFFFFFF AND MUL OR SWAP1 SSTORE POP CALLER PUSH1 0x2 PUSH0 PUSH2 0x100 EXP DUP2 SLOAD DUP2 PUSH20 0xFFFFFFFFFFFFFFFFFFFFFFFFFFFFFFFFFFFFFFFF MUL NOT AND SWAP1 DUP4 PUSH20 0xFFFFFFFFFFFFFFFFFFFFFFFFFFFFFFFFFFFFFFFF AND MUL OR SWAP1 SSTORE POP TIMESTAMP PUSH1 0x3 DUP2 SWAP1 SSTORE POP DUP1 PUSH1 0x4 DUP2 SWAP1 SSTORE POP POP PUSH2 0x155 JUMP JUMPDEST PUSH0 DUP1 REVERT JUMPDEST PUSH0 DUP2 SWAP1 POP SWAP2 SWAP1 POP JUMP JUMPDEST PUSH2 0x109 DUP2 PUSH2 0xF7 JUMP JUMPDEST DUP2 EQ PUSH2 0x113 JUMPI PUSH0 DUP1 REVERT JUMPDEST POP JUMP JUMPDEST PUSH0 DUP2 MLOAD SWAP1 POP PUSH2 0x124 DUP2 PUSH2 0x100 JUMP JUMPDEST SWAP3 SWAP2 POP POP JUMP JUMPDEST PUSH0 PUSH1 0x20 DUP3 DUP5 SUB SLT ISZERO PUSH2 0x13F JUMPI PUSH2 0x13E PUSH2 0xF3 JUMP JUMPDEST JUMPDEST PUSH0 PUSH2 0x14C DUP5 DUP3 DUP6 ADD PUSH2 0x116 JUMP JUMPDEST SWAP2 POP POP SWAP3 SWAP2 POP POP JUMP JUMPDEST PUSH2 0x12D9 DUP1 PUSH2 0x162 PUSH0 CODECOPY PUSH0 RETURN INVALID PUSH1 0x80 PUSH1 0x40 MSTORE PUSH1 0x4 CALLDATASIZE LT PUSH2 0x90 JUMPI PUSH0 CALLDATALOAD PUSH1 0xE0 SHR DUP1 PUSH4 0xB60D4288 GT PUSH2 0x58 JUMPI DUP1 PUSH4 0xB60D4288 EQ PUSH2 0x14E JUMPI DUP1 PUSH4 0xBEA4DFB5 EQ PUSH2 0x158 JUMPI DUP1 PUSH4 0xD39CF006 EQ PUSH2 0x182 JUMPI DUP1 PUSH4 0xDA4658E0 EQ PUSH2 0x1AA JUMPI DUP1 PUSH4 0xF2FDE38B EQ PUSH2 0x1D4 JUMPI PUSH2 0x90 JUMP JUMPDEST DUP1 PUSH4 0x13FFFF01 EQ PUSH2 0x94 JUMPI DUP1 PUSH4 0x590E1AE3 EQ PUSH2 0xBC JUMPI DUP1 PUSH4 0x8DA5CB5B EQ PUSH2 0xD2 JUMPI DUP1 PUSH4 0x8EDD6EB6 EQ PUSH2 0xFC JUMPI DUP1 PUSH4 0x9F883A05 EQ PUSH2 0x112 JUMPI JUMPDEST PUSH0 DUP1 REVERT JUMPDEST CALLVALUE DUP1 ISZERO PUSH2 0x9F JUMPI PUSH0 DUP1 REVERT JUMPDEST POP PUSH2 0xBA PUSH1 0x4 DUP1 CALLDATASIZE SUB DUP2 ADD SWAP1 PUSH2 0xB5 SWAP2 SWAP1 PUSH2 0xB1C JUMP JUMPDEST PUSH2 0x1FC JUMP JUMPDEST STOP JUMPDEST CALLVALUE DUP1 ISZERO PUSH2 0xC7 JUMPI PUSH0 DUP1 REVERT JUMPDEST POP PUSH2 0xD0 PUSH2 0x2CE JUMP JUMPDEST STOP JUMPDEST CALLVALUE DUP1 ISZERO PUSH2 0xDD JUMPI PUSH0 DUP1 REVERT JUMPDEST POP PUSH2 0xE6 PUSH2 0x51B JUMP JUMPDEST PUSH1 0x40 MLOAD PUSH2 0xF3 SWAP2 SWAP1 PUSH2 0xB56 JUMP JUMPDEST PUSH1 0x40 MLOAD DUP1 SWAP2 SUB SWAP1 RETURN JUMPDEST CALLVALUE DUP1 ISZERO PUSH2 0x107 JUMPI PUSH0 DUP1 REVERT JUMPDEST POP PUSH2 0x110 PUSH2 0x540 JUMP JUMPDEST STOP JUMPDEST CALLVALUE DUP1 ISZERO PUSH2 0x11D JUMPI PUSH0 DUP1 REVERT JUMPDEST POP PUSH2 0x138 PUSH1 0x4 DUP1 CALLDATASIZE SUB DUP2 ADD SWAP1 PUSH2 0x133 SWAP2 SWAP1 PUSH2 0xB1C JUMP JUMPDEST PUSH2 0x73D JUMP JUMPDEST PUSH1 0x40 MLOAD PUSH2 0x145 SWAP2 SWAP1 PUSH2 0xB87 JUMP JUMPDEST PUSH1 0x40 MLOAD DUP1 SWAP2 SUB SWAP1 RETURN JUMPDEST PUSH2 0x156 PUSH2 0x751 JUMP JUMPDEST STOP JUMPDEST CALLVALUE DUP1 ISZERO PUSH2 0x163 JUMPI PUSH0 DUP1 REVERT JUMPDEST POP PUSH2 0x16C PUSH2 0x839 JUMP JUMPDEST PUSH1 0x40 MLOAD PUSH2 0x179 SWAP2 SWAP1 PUSH2 0xBB8 JUMP JUMPDEST PUSH1 0x40 MLOAD DUP1 SWAP2 SUB SWAP1 RETURN JUMPDEST CALLVALUE DUP1 ISZERO PUSH2 0x18D JUMPI PUSH0 DUP1 REVERT JUMPDEST POP PUSH2 0x1A8 PUSH1 0x4 DUP1 CALLDATASIZE SUB DUP2 ADD SWAP1 PUSH2 0x1A3 SWAP2 SWAP1 PUSH2 0xBFB JUMP JUMPDEST PUSH2 0x8D6 JUMP JUMPDEST STOP JUMPDEST CALLVALUE DUP1 ISZERO PUSH2 0x1B5 JUMPI PUSH0 DUP1 REVERT JUMPDEST POP PUSH2 0x1BE PUSH2 0x9AA JUMP JUMPDEST PUSH1 0x40 MLOAD PUSH2 0x1CB SWAP2 SWAP1 PUSH2 0xC53 JUMP JUMPDEST PUSH1 0x40 MLOAD DUP1 SWAP2 SUB SWAP1 RETURN JUMPDEST CALLVALUE DUP1 ISZERO PUSH2 0x1DF JUMPI PUSH0 DUP1 REVERT JUMPDEST POP PUSH2 0x1FA PUSH1 0x4 DUP1 CALLDATASIZE SUB DUP2 ADD SWAP1 PUSH2 0x1F5 SWAP2 SWAP1 PUSH2 0xB1C JUMP JUMPDEST PUSH2 0x9BD JUMP JUMPDEST STOP JUMPDEST PUSH1 0x2 PUSH0 SWAP1 SLOAD SWAP1 PUSH2 0x100 EXP SWAP1 DIV PUSH20 0xFFFFFFFFFFFFFFFFFFFFFFFFFFFFFFFFFFFFFFFF AND PUSH20 0xFFFFFFFFFFFFFFFFFFFFFFFFFFFFFFFFFFFFFFFF AND CALLER PUSH20 0xFFFFFFFFFFFFFFFFFFFFFFFFFFFFFFFFFFFFFFFF AND EQ PUSH2 0x28B JUMPI PUSH1 0x40 MLOAD PUSH32 0x8C379A000000000000000000000000000000000000000000000000000000000 DUP2 MSTORE PUSH1 0x4 ADD PUSH2 0x282 SWAP1 PUSH2 0xCEC JUMP JUMPDEST PUSH1 0x40 MLOAD DUP1 SWAP2 SUB SWAP1 REVERT JUMPDEST DUP1 PUSH1 0x5 PUSH0 PUSH2 0x100 EXP DUP2 SLOAD DUP2 PUSH20 0xFFFFFFFFFFFFFFFFFFFFFFFFFFFFFFFFFFFFFFFF MUL NOT AND SWAP1 DUP4 PUSH20 0xFFFFFFFFFFFFFFFFFFFFFFFFFFFFFFFFFFFFFFFF AND MUL OR SWAP1 SSTORE POP POP JUMP JUMPDEST PUSH1 0x4 SLOAD PUSH1 0x3 SLOAD PUSH2 0x2DE SWAP2 SWAP1 PUSH2 0xD37 JUMP JUMPDEST TIMESTAMP LT ISZERO PUSH2 0x320 JUMPI PUSH1 0x40 MLOAD PUSH32 0x8C379A000000000000000000000000000000000000000000000000000000000 DUP2 MSTORE PUSH1 0x4 ADD PUSH2 0x317 SWAP1 PUSH2 0xDB4 JUMP JUMPDEST PUSH1 0x40 MLOAD DUP1 SWAP2 SUB SWAP1 REVERT JUMPDEST PUSH9 0x3635C9ADC5DEA00000 PUSH2 0x333 SELFBALANCE PUSH2 0xA8F JUMP JUMPDEST LT PUSH2 0x373 JUMPI PUSH1 0x40 MLOAD PUSH32 0x8C379A000000000000000000000000000000000000000000000000000000000 DUP2 MSTORE PUSH1 0x4 ADD PUSH2 0x36A SWAP1 PUSH2 0xE1C JUMP JUMPDEST PUSH1 0x40 MLOAD DUP1 SWAP2 SUB SWAP1 REVERT JUMPDEST PUSH0 DUP1 PUSH0 CALLER PUSH20 0xFFFFFFFFFFFFFFFFFFFFFFFFFFFFFFFFFFFFFFFF AND PUSH20 0xFFFFFFFFFFFFFFFFFFFFFFFFFFFFFFFFFFFFFFFF AND DUP2 MSTORE PUSH1 0x20 ADD SWAP1 DUP2 MSTORE PUSH1 0x20 ADD PUSH0 KECCAK256 SLOAD SUB PUSH2 0x3F1 JUMPI PUSH1 0x40 MLOAD PUSH32 0x8C379A000000000000000000000000000000000000000000000000000000000 DUP2 MSTORE PUSH1 0x4 ADD PUSH2 0x3E8 SWAP1 PUSH2 0xE84 JUMP JUMPDEST PUSH1 0x40 MLOAD DUP1 SWAP2 SUB SWAP1 REVERT JUMPDEST PUSH0 CALLER PUSH20 0xFFFFFFFFFFFFFFFFFFFFFFFFFFFFFFFFFFFFFFFF AND PUSH0 DUP1 CALLER PUSH20 0xFFFFFFFFFFFFFFFFFFFFFFFFFFFFFFFFFFFFFFFF AND PUSH20 0xFFFFFFFFFFFFFFFFFFFFFFFFFFFFFFFFFFFFFFFF AND DUP2 MSTORE PUSH1 0x20 ADD SWAP1 DUP2 MSTORE PUSH1 0x20 ADD PUSH0 KECCAK256 SLOAD PUSH1 0x40 MLOAD PUSH2 0x452 SWAP1 PUSH2 0xECF JUMP JUMPDEST PUSH0 PUSH1 0x40 MLOAD DUP1 DUP4 SUB DUP2 DUP6 DUP8 GAS CALL SWAP3 POP POP POP RETURNDATASIZE DUP1 PUSH0 DUP2 EQ PUSH2 0x48C JUMPI PUSH1 0x40 MLOAD SWAP2 POP PUSH1 0x1F NOT PUSH1 0x3F RETURNDATASIZE ADD AND DUP3 ADD PUSH1 0x40 MSTORE RETURNDATASIZE DUP3 MSTORE RETURNDATASIZE PUSH0 PUSH1 0x20 DUP5 ADD RETURNDATACOPY PUSH2 0x491 JUMP JUMPDEST PUSH1 0x60 SWAP2 POP JUMPDEST POP POP DUP1 SWAP2 POP POP DUP1 PUSH2 0x4D7 JUMPI PUSH1 0x40 MLOAD PUSH32 0x8C379A000000000000000000000000000000000000000000000000000000000 DUP2 MSTORE PUSH1 0x4 ADD PUSH2 0x4CE SWAP1 PUSH2 0xF2D JUMP JUMPDEST PUSH1 0x40 MLOAD DUP1 SWAP2 SUB SWAP1 REVERT JUMPDEST PUSH0 DUP1 PUSH0 CALLER PUSH20 0xFFFFFFFFFFFFFFFFFFFFFFFFFFFFFFFFFFFFFFFF AND PUSH20 0xFFFFFFFFFFFFFFFFFFFFFFFFFFFFFFFFFFFFFFFF AND DUP2 MSTORE PUSH1 0x20 ADD SWAP1 DUP2 MSTORE PUSH1 0x20 ADD PUSH0 KECCAK256 DUP2 SWAP1 SSTORE POP POP JUMP JUMPDEST PUSH1 0x2 PUSH0 SWAP1 SLOAD SWAP1 PUSH2 0x100 EXP SWAP1 DIV PUSH20 0xFFFFFFFFFFFFFFFFFFFFFFFFFFFFFFFFFFFFFFFF AND DUP2 JUMP JUMPDEST PUSH1 0x4 SLOAD PUSH1 0x3 SLOAD PUSH2 0x550 SWAP2 SWAP1 PUSH2 0xD37 JUMP JUMPDEST TIMESTAMP LT ISZERO PUSH2 0x592 JUMPI PUSH1 0x40 MLOAD PUSH32 0x8C379A000000000000000000000000000000000000000000000000000000000 DUP2 MSTORE PUSH1 0x4 ADD PUSH2 0x589 SWAP1 PUSH2 0xDB4 JUMP JUMPDEST PUSH1 0x40 MLOAD DUP1 SWAP2 SUB SWAP1 REVERT JUMPDEST PUSH1 0x2 PUSH0 SWAP1 SLOAD SWAP1 PUSH2 0x100 EXP SWAP1 DIV PUSH20 0xFFFFFFFFFFFFFFFFFFFFFFFFFFFFFFFFFFFFFFFF AND PUSH20 0xFFFFFFFFFFFFFFFFFFFFFFFFFFFFFFFFFFFFFFFF AND CALLER PUSH20 0xFFFFFFFFFFFFFFFFFFFFFFFFFFFFFFFFFFFFFFFF AND EQ PUSH2 0x621 JUMPI PUSH1 0x40 MLOAD PUSH32 0x8C379A000000000000000000000000000000000000000000000000000000000 DUP2 MSTORE PUSH1 0x4 ADD PUSH2 0x618 SWAP1 PUSH2 0xCEC JUMP JUMPDEST PUSH1 0x40 MLOAD DUP1 SWAP2 SUB SWAP1 REVERT JUMPDEST PUSH9 0x3635C9ADC5DEA00000 PUSH2 0x634 SELFBALANCE PUSH2 0xA8F JUMP JUMPDEST LT ISZERO PUSH2 0x675 JUMPI PUSH1 0x40 MLOAD PUSH32 0x8C379A000000000000000000000000000000000000000000000000000000000 DUP2 MSTORE PUSH1 0x4 ADD PUSH2 0x66C SWAP1 PUSH2 0xF95 JUMP JUMPDEST PUSH1 0x40 MLOAD DUP1 SWAP2 SUB SWAP1 REVERT JUMPDEST PUSH0 CALLER PUSH20 0xFFFFFFFFFFFFFFFFFFFFFFFFFFFFFFFFFFFFFFFF AND SELFBALANCE PUSH1 0x40 MLOAD PUSH2 0x69A SWAP1 PUSH2 0xECF JUMP JUMPDEST PUSH0 PUSH1 0x40 MLOAD DUP1 DUP4 SUB DUP2 DUP6 DUP8 GAS CALL SWAP3 POP POP POP RETURNDATASIZE DUP1 PUSH0 DUP2 EQ PUSH2 0x6D4 JUMPI PUSH1 0x40 MLOAD SWAP2 POP PUSH1 0x1F NOT PUSH1 0x3F RETURNDATASIZE ADD AND DUP3 ADD PUSH1 0x40 MSTORE RETURNDATASIZE DUP3 MSTORE RETURNDATASIZE PUSH0 PUSH1 0x20 DUP5 ADD RETURNDATACOPY PUSH2 0x6D9 JUMP JUMPDEST PUSH1 0x60 SWAP2 POP JUMPDEST POP POP DUP1 SWAP2 POP POP DUP1 PUSH2 0x71F JUMPI PUSH1 0x40 MLOAD PUSH32 0x8C379A000000000000000000000000000000000000000000000000000000000 DUP2 MSTORE PUSH1 0x4 ADD PUSH2 0x716 SWAP1 PUSH2 0xF2D JUMP JUMPDEST PUSH1 0x40 MLOAD DUP1 SWAP2 SUB SWAP1 REVERT JUMPDEST PUSH1 0x1 PUSH1 0x5 PUSH1 0x14 PUSH2 0x100 EXP DUP2 SLOAD DUP2 PUSH1 0xFF MUL NOT AND SWAP1 DUP4 ISZERO ISZERO MUL OR SWAP1 SSTORE POP POP JUMP JUMPDEST PUSH0 PUSH1 0x20 MSTORE DUP1 PUSH0 MSTORE PUSH1 0x40 PUSH0 KECCAK256 PUSH0 SWAP2 POP SWAP1 POP SLOAD DUP2 JUMP JUMPDEST PUSH9 0x56BC75E2D63100000 PUSH2 0x764 CALLVALUE PUSH2 0xA8F JUMP JUMPDEST LT ISZERO PUSH2 0x7A5 JUMPI PUSH1 0x40 MLOAD PUSH32 0x8C379A000000000000000000000000000000000000000000000000000000000 DUP2 MSTORE PUSH1 0x4 ADD PUSH2 0x79C SWAP1 PUSH2 0xFFD JUMP JUMPDEST PUSH1 0x40 MLOAD DUP1 SWAP2 SUB SWAP1 REVERT JUMPDEST PUSH1 0x4 SLOAD PUSH1 0x3 SLOAD PUSH2 0x7B5 SWAP2 SWAP1 PUSH2 0xD37 JUMP JUMPDEST TIMESTAMP LT PUSH2 0x7F6 JUMPI PUSH1 0x40 MLOAD PUSH32 0x8C379A000000000000000000000000000000000000000000000000000000000 DUP2 MSTORE PUSH1 0x4 ADD PUSH2 0x7ED SWAP1 PUSH2 0x1065 JUMP JUMPDEST PUSH1 0x40 MLOAD DUP1 SWAP2 SUB SWAP1 REVERT JUMPDEST CALLVALUE PUSH0 DUP1 CALLER PUSH20 0xFFFFFFFFFFFFFFFFFFFFFFFFFFFFFFFFFFFFFFFF AND PUSH20 0xFFFFFFFFFFFFFFFFFFFFFFFFFFFFFFFFFFFFFFFF AND DUP2 MSTORE PUSH1 0x20 ADD SWAP1 DUP2 MSTORE PUSH1 0x20 ADD PUSH0 KECCAK256 DUP2 SWAP1 SSTORE POP JUMP JUMPDEST PUSH0 DUP1 PUSH1 0x1 PUSH0 SWAP1 SLOAD SWAP1 PUSH2 0x100 EXP SWAP1 DIV PUSH20 0xFFFFFFFFFFFFFFFFFFFFFFFFFFFFFFFFFFFFFFFF AND PUSH20 0xFFFFFFFFFFFFFFFFFFFFFFFFFFFFFFFFFFFFFFFF AND PUSH4 0xFEAF968C PUSH1 0x40 MLOAD DUP2 PUSH4 0xFFFFFFFF AND PUSH1 0xE0 SHL DUP2 MSTORE PUSH1 0x4 ADD PUSH1 0xA0 PUSH1 0x40 MLOAD DUP1 DUP4 SUB DUP2 DUP7 GAS STATICCALL ISZERO DUP1 ISZERO PUSH2 0x8A5 JUMPI RETURNDATASIZE PUSH0 DUP1 RETURNDATACOPY RETURNDATASIZE PUSH0 REVERT JUMPDEST POP POP POP POP PUSH1 0x40 MLOAD RETURNDATASIZE PUSH1 0x1F NOT PUSH1 0x1F DUP3 ADD AND DUP3 ADD DUP1 PUSH1 0x40 MSTORE POP DUP2 ADD SWAP1 PUSH2 0x8C9 SWAP2 SWAP1 PUSH2 0x1100 JUMP JUMPDEST POP POP POP SWAP2 POP POP DUP1 SWAP2 POP POP SWAP1 JUMP JUMPDEST PUSH1 0x5 PUSH0 SWAP1 SLOAD SWAP1 PUSH2 0x100 EXP SWAP1 DIV PUSH20 0xFFFFFFFFFFFFFFFFFFFFFFFFFFFFFFFFFFFFFFFF AND PUSH20 0xFFFFFFFFFFFFFFFFFFFFFFFFFFFFFFFFFFFFFFFF AND CALLER PUSH20 0xFFFFFFFFFFFFFFFFFFFFFFFFFFFFFFFFFFFFFFFF AND EQ PUSH2 0x965 JUMPI PUSH1 0x40 MLOAD PUSH32 0x8C379A000000000000000000000000000000000000000000000000000000000 DUP2 MSTORE PUSH1 0x4 ADD PUSH2 0x95C SWAP1 PUSH2 0x11E7 JUMP JUMPDEST PUSH1 0x40 MLOAD DUP1 SWAP2 SUB SWAP1 REVERT JUMPDEST DUP1 PUSH0 DUP1 DUP5 PUSH20 0xFFFFFFFFFFFFFFFFFFFFFFFFFFFFFFFFFFFFFFFF AND PUSH20 0xFFFFFFFFFFFFFFFFFFFFFFFFFFFFFFFFFFFFFFFF AND DUP2 MSTORE PUSH1 0x20 ADD SWAP1 DUP2 MSTORE PUSH1 0x20 ADD PUSH0 KECCAK256 DUP2 SWAP1 SSTORE POP POP POP JUMP JUMPDEST PUSH1 0x5 PUSH1 0x14 SWAP1 SLOAD SWAP1 PUSH2 0x100 EXP SWAP1 DIV PUSH1 0xFF AND DUP2 JUMP JUMPDEST PUSH1 0x2 PUSH0 SWAP1 SLOAD SWAP1 PUSH2 0x100 EXP SWAP1 DIV PUSH20 0xFFFFFFFFFFFFFFFFFFFFFFFFFFFFFFFFFFFFFFFF AND PUSH20 0xFFFFFFFFFFFFFFFFFFFFFFFFFFFFFFFFFFFFFFFF AND CALLER PUSH20 0xFFFFFFFFFFFFFFFFFFFFFFFFFFFFFFFFFFFFFFFF AND EQ PUSH2 0xA4C JUMPI PUSH1 0x40 MLOAD PUSH32 0x8C379A000000000000000000000000000000000000000000000000000000000 DUP2 MSTORE PUSH1 0x4 ADD PUSH2 0xA43 SWAP1 PUSH2 0xCEC JUMP JUMPDEST PUSH1 0x40 MLOAD DUP1 SWAP2 SUB SWAP1 REVERT JUMPDEST DUP1 PUSH1 0x2 PUSH0 PUSH2 0x100 EXP DUP2 SLOAD DUP2 PUSH20 0xFFFFFFFFFFFFFFFFFFFFFFFFFFFFFFFFFFFFFFFF MUL NOT AND SWAP1 DUP4 PUSH20 0xFFFFFFFFFFFFFFFFFFFFFFFFFFFFFFFFFFFFFFFF AND MUL OR SWAP1 SSTORE POP POP JUMP JUMPDEST PUSH0 DUP1 PUSH2 0xA99 PUSH2 0x839 JUMP JUMPDEST SWAP1 POP PUSH4 0x5F5E100 DUP2 DUP5 PUSH2 0xAAC SWAP2 SWAP1 PUSH2 0x1205 JUMP JUMPDEST PUSH2 0xAB6 SWAP2 SWAP1 PUSH2 0x1273 JUMP JUMPDEST SWAP2 POP POP SWAP2 SWAP1 POP JUMP JUMPDEST PUSH0 DUP1 REVERT JUMPDEST PUSH0 PUSH20 0xFFFFFFFFFFFFFFFFFFFFFFFFFFFFFFFFFFFFFFFF DUP3 AND SWAP1 POP SWAP2 SWAP1 POP JUMP JUMPDEST PUSH0 PUSH2 0xAEB DUP3 PUSH2 0xAC2 JUMP JUMPDEST SWAP1 POP SWAP2 SWAP1 POP JUMP JUMPDEST PUSH2 0xAFB DUP2 PUSH2 0xAE1 JUMP JUMPDEST DUP2 EQ PUSH2 0xB05 JUMPI PUSH0 DUP1 REVERT JUMPDEST POP JUMP JUMPDEST PUSH0 DUP2 CALLDATALOAD SWAP1 POP PUSH2 0xB16 DUP2 PUSH2 0xAF2 JUMP JUMPDEST SWAP3 SWAP2 POP POP JUMP JUMPDEST PUSH0 PUSH1 0x20 DUP3 DUP5 SUB SLT ISZERO PUSH2 0xB31 JUMPI PUSH2 0xB30 PUSH2 0xABE JUMP JUMPDEST JUMPDEST PUSH0 PUSH2 0xB3E DUP5 DUP3 DUP6 ADD PUSH2 0xB08 JUMP JUMPDEST SWAP2 POP POP SWAP3 SWAP2 POP POP JUMP JUMPDEST PUSH2 0xB50 DUP2 PUSH2 0xAE1 JUMP JUMPDEST DUP3 MSTORE POP POP JUMP JUMPDEST PUSH0 PUSH1 0x20 DUP3 ADD SWAP1 POP PUSH2 0xB69 PUSH0 DUP4 ADD DUP5 PUSH2 0xB47 JUMP JUMPDEST SWAP3 SWAP2 POP POP JUMP JUMPDEST PUSH0 DUP2 SWAP1 POP SWAP2 SWAP1 POP JUMP JUMPDEST PUSH2 0xB81 DUP2 PUSH2 0xB6F JUMP JUMPDEST DUP3 MSTORE POP POP JUMP JUMPDEST PUSH0 PUSH1 0x20 DUP3 ADD SWAP1 POP PUSH2 0xB9A PUSH0 DUP4 ADD DUP5 PUSH2 0xB78 JUMP JUMPDEST SWAP3 SWAP2 POP POP JUMP JUMPDEST PUSH0 DUP2 SWAP1 POP SWAP2 SWAP1 POP JUMP JUMPDEST PUSH2 0xBB2 DUP2 PUSH2 0xBA0 JUMP JUMPDEST DUP3 MSTORE POP POP JUMP JUMPDEST PUSH0 PUSH1 0x20 DUP3 ADD SWAP1 POP PUSH2 0xBCB PUSH0 DUP4 ADD DUP5 PUSH2 0xBA9 JUMP JUMPDEST SWAP3 SWAP2 POP POP JUMP JUMPDEST PUSH2 0xBDA DUP2 PUSH2 0xB6F JUMP JUMPDEST DUP2 EQ PUSH2 0xBE4 JUMPI PUSH0 DUP1 REVERT JUMPDEST POP JUMP JUMPDEST PUSH0 DUP2 CALLDATALOAD SWAP1 POP PUSH2 0xBF5 DUP2 PUSH2 0xBD1 JUMP JUMPDEST SWAP3 SWAP2 POP POP JUMP JUMPDEST PUSH0 DUP1 PUSH1 0x40 DUP4 DUP6 SUB SLT ISZERO PUSH2 0xC11 JUMPI PUSH2 0xC10 PUSH2 0xABE JUMP JUMPDEST JUMPDEST PUSH0 PUSH2 0xC1E DUP6 DUP3 DUP7 ADD PUSH2 0xB08 JUMP JUMPDEST SWAP3 POP POP PUSH1 0x20 PUSH2 0xC2F DUP6 DUP3 DUP7 ADD PUSH2 0xBE7 JUMP JUMPDEST SWAP2 POP POP SWAP3 POP SWAP3 SWAP1 POP JUMP JUMPDEST PUSH0 DUP2 ISZERO ISZERO SWAP1 POP SWAP2 SWAP1 POP JUMP JUMPDEST PUSH2 0xC4D DUP2 PUSH2 0xC39 JUMP JUMPDEST DUP3 MSTORE POP POP JUMP JUMPDEST PUSH0 PUSH1 0x20 DUP3 ADD SWAP1 POP PUSH2 0xC66 PUSH0 DUP4 ADD DUP5 PUSH2 0xC44 JUMP JUMPDEST SWAP3 SWAP2 POP POP JUMP JUMPDEST PUSH0 DUP3 DUP3 MSTORE PUSH1 0x20 DUP3 ADD SWAP1 POP SWAP3 SWAP2 POP POP JUMP JUMPDEST PUSH32 0x746869732066756E6374696F6E2063616E206F6E6C792062652063616C6C6564 PUSH0 DUP3 ADD MSTORE PUSH32 0x206279206F776E65720000000000000000000000000000000000000000000000 PUSH1 0x20 DUP3 ADD MSTORE POP JUMP JUMPDEST PUSH0 PUSH2 0xCD6 PUSH1 0x29 DUP4 PUSH2 0xC6C JUMP JUMPDEST SWAP2 POP PUSH2 0xCE1 DUP3 PUSH2 0xC7C JUMP JUMPDEST PUSH1 0x40 DUP3 ADD SWAP1 POP SWAP2 SWAP1 POP JUMP JUMPDEST PUSH0 PUSH1 0x20 DUP3 ADD SWAP1 POP DUP2 DUP2 SUB PUSH0 DUP4 ADD MSTORE PUSH2 0xD03 DUP2 PUSH2 0xCCA JUMP JUMPDEST SWAP1 POP SWAP2 SWAP1 POP JUMP JUMPDEST PUSH32 0x4E487B7100000000000000000000000000000000000000000000000000000000 PUSH0 MSTORE PUSH1 0x11 PUSH1 0x4 MSTORE PUSH1 0x24 PUSH0 REVERT JUMPDEST PUSH0 PUSH2 0xD41 DUP3 PUSH2 0xB6F JUMP JUMPDEST SWAP2 POP PUSH2 0xD4C DUP4 PUSH2 0xB6F JUMP JUMPDEST SWAP3 POP DUP3 DUP3 ADD SWAP1 POP DUP1 DUP3 GT ISZERO PUSH2 0xD64 JUMPI PUSH2 0xD63 PUSH2 0xD0A JUMP JUMPDEST JUMPDEST SWAP3 SWAP2 POP POP JUMP JUMPDEST PUSH32 0x77696E646F77206973206E6F7420636C6F736500000000000000000000000000 PUSH0 DUP3 ADD MSTORE POP JUMP JUMPDEST PUSH0 PUSH2 0xD9E PUSH1 0x13 DUP4 PUSH2 0xC6C JUMP JUMPDEST SWAP2 POP PUSH2 0xDA9 DUP3 PUSH2 0xD6A JUMP JUMPDEST PUSH1 0x20 DUP3 ADD SWAP1 POP SWAP2 SWAP1 POP JUMP JUMPDEST PUSH0 PUSH1 0x20 DUP3 ADD SWAP1 POP DUP2 DUP2 SUB PUSH0 DUP4 ADD MSTORE PUSH2 0xDCB DUP2 PUSH2 0xD92 JUMP JUMPDEST SWAP1 POP SWAP2 SWAP1 POP JUMP JUMPDEST PUSH32 0x5461726765742069732072656163686564000000000000000000000000000000 PUSH0 DUP3 ADD MSTORE POP JUMP JUMPDEST PUSH0 PUSH2 0xE06 PUSH1 0x11 DUP4 PUSH2 0xC6C JUMP JUMPDEST SWAP2 POP PUSH2 0xE11 DUP3 PUSH2 0xDD2 JUMP JUMPDEST PUSH1 0x20 DUP3 ADD SWAP1 POP SWAP2 SWAP1 POP JUMP JUMPDEST PUSH0 PUSH1 0x20 DUP3 ADD SWAP1 POP DUP2 DUP2 SUB PUSH0 DUP4 ADD MSTORE PUSH2 0xE33 DUP2 PUSH2 0xDFA JUMP JUMPDEST SWAP1 POP SWAP2 SWAP1 POP JUMP JUMPDEST PUSH32 0x7468657265206973206E6F2066756E6420666F7220796F750000000000000000 PUSH0 DUP3 ADD MSTORE POP JUMP JUMPDEST PUSH0 PUSH2 0xE6E PUSH1 0x18 DUP4 PUSH2 0xC6C JUMP JUMPDEST SWAP2 POP PUSH2 0xE79 DUP3 PUSH2 0xE3A JUMP JUMPDEST PUSH1 0x20 DUP3 ADD SWAP1 POP SWAP2 SWAP1 POP JUMP JUMPDEST PUSH0 PUSH1 0x20 DUP3 ADD SWAP1 POP DUP2 DUP2 SUB PUSH0 DUP4 ADD MSTORE PUSH2 0xE9B DUP2 PUSH2 0xE62 JUMP JUMPDEST SWAP1 POP SWAP2 SWAP1 POP JUMP JUMPDEST PUSH0 DUP2 SWAP1 POP SWAP3 SWAP2 POP POP JUMP JUMPDEST POP JUMP JUMPDEST PUSH0 PUSH2 0xEBA PUSH0 DUP4 PUSH2 0xEA2 JUMP JUMPDEST SWAP2 POP PUSH2 0xEC5 DUP3 PUSH2 0xEAC JUMP JUMPDEST PUSH0 DUP3 ADD SWAP1 POP SWAP2 SWAP1 POP JUMP JUMPDEST PUSH0 PUSH2 0xED9 DUP3 PUSH2 0xEAF JUMP JUMPDEST SWAP2 POP DUP2 SWAP1 POP SWAP2 SWAP1 POP JUMP JUMPDEST PUSH32 0x7472616E73666572207478206661696C65640000000000000000000000000000 PUSH0 DUP3 ADD MSTORE POP JUMP JUMPDEST PUSH0 PUSH2 0xF17 PUSH1 0x12 DUP4 PUSH2 0xC6C JUMP JUMPDEST SWAP2 POP PUSH2 0xF22 DUP3 PUSH2 0xEE3 JUMP JUMPDEST PUSH1 0x20 DUP3 ADD SWAP1 POP SWAP2 SWAP1 POP JUMP JUMPDEST PUSH0 PUSH1 0x20 DUP3 ADD SWAP1 POP DUP2 DUP2 SUB PUSH0 DUP4 ADD MSTORE PUSH2 0xF44 DUP2 PUSH2 0xF0B JUMP JUMPDEST SWAP1 POP SWAP2 SWAP1 POP JUMP JUMPDEST PUSH32 0x546172676574206973206E6F7420726561636865640000000000000000000000 PUSH0 DUP3 ADD MSTORE POP JUMP JUMPDEST PUSH0 PUSH2 0xF7F PUSH1 0x15 DUP4 PUSH2 0xC6C JUMP JUMPDEST SWAP2 POP PUSH2 0xF8A DUP3 PUSH2 0xF4B JUMP JUMPDEST PUSH1 0x20 DUP3 ADD SWAP1 POP SWAP2 SWAP1 POP JUMP JUMPDEST PUSH0 PUSH1 0x20 DUP3 ADD SWAP1 POP DUP2 DUP2 SUB PUSH0 DUP4 ADD MSTORE PUSH2 0xFAC DUP2 PUSH2 0xF73 JUMP JUMPDEST SWAP1 POP SWAP2 SWAP1 POP JUMP JUMPDEST PUSH32 0x53656E64206D6F72652045544800000000000000000000000000000000000000 PUSH0 DUP3 ADD MSTORE POP JUMP JUMPDEST PUSH0 PUSH2 0xFE7 PUSH1 0xD DUP4 PUSH2 0xC6C JUMP JUMPDEST SWAP2 POP PUSH2 0xFF2 DUP3 PUSH2 0xFB3 JUMP JUMPDEST PUSH1 0x20 DUP3 ADD SWAP1 POP SWAP2 SWAP1 POP JUMP JUMPDEST PUSH0 PUSH1 0x20 DUP3 ADD SWAP1 POP DUP2 DUP2 SUB PUSH0 DUP4 ADD MSTORE PUSH2 0x1014 DUP2 PUSH2 0xFDB JUMP JUMPDEST SWAP1 POP SWAP2 SWAP1 POP JUMP JUMPDEST PUSH32 0x77696E646F7720697320636C6F73650000000000000000000000000000000000 PUSH0 DUP3 ADD MSTORE POP JUMP JUMPDEST PUSH0 PUSH2 0x104F PUSH1 0xF DUP4 PUSH2 0xC6C JUMP JUMPDEST SWAP2 POP PUSH2 0x105A DUP3 PUSH2 0x101B JUMP JUMPDEST PUSH1 0x20 DUP3 ADD SWAP1 POP SWAP2 SWAP1 POP JUMP JUMPDEST PUSH0 PUSH1 0x20 DUP3 ADD SWAP1 POP DUP2 DUP2 SUB PUSH0 DUP4 ADD MSTORE PUSH2 0x107C DUP2 PUSH2 0x1043 JUMP JUMPDEST SWAP1 POP SWAP2 SWAP1 POP JUMP JUMPDEST PUSH0 PUSH10 0xFFFFFFFFFFFFFFFFFFFF DUP3 AND SWAP1 POP SWAP2 SWAP1 POP JUMP JUMPDEST PUSH2 0x10A1 DUP2 PUSH2 0x1083 JUMP JUMPDEST DUP2 EQ PUSH2 0x10AB JUMPI PUSH0 DUP1 REVERT JUMPDEST POP JUMP JUMPDEST PUSH0 DUP2 MLOAD SWAP1 POP PUSH2 0x10BC DUP2 PUSH2 0x1098 JUMP JUMPDEST SWAP3 SWAP2 POP POP JUMP JUMPDEST PUSH2 0x10CB DUP2 PUSH2 0xBA0 JUMP JUMPDEST DUP2 EQ PUSH2 0x10D5 JUMPI PUSH0 DUP1 REVERT JUMPDEST POP JUMP JUMPDEST PUSH0 DUP2 MLOAD SWAP1 POP PUSH2 0x10E6 DUP2 PUSH2 0x10C2 JUMP JUMPDEST SWAP3 SWAP2 POP POP JUMP JUMPDEST PUSH0 DUP2 MLOAD SWAP1 POP PUSH2 0x10FA DUP2 PUSH2 0xBD1 JUMP JUMPDEST SWAP3 SWAP2 POP POP JUMP JUMPDEST PUSH0 DUP1 PUSH0 DUP1 PUSH0 PUSH1 0xA0 DUP7 DUP9 SUB SLT ISZERO PUSH2 0x1119 JUMPI PUSH2 0x1118 PUSH2 0xABE JUMP JUMPDEST JUMPDEST PUSH0 PUSH2 0x1126 DUP9 DUP3 DUP10 ADD PUSH2 0x10AE JUMP JUMPDEST SWAP6 POP POP PUSH1 0x20 PUSH2 0x1137 DUP9 DUP3 DUP10 ADD PUSH2 0x10D8 JUMP JUMPDEST SWAP5 POP POP PUSH1 0x40 PUSH2 0x1148 DUP9 DUP3 DUP10 ADD PUSH2 0x10EC JUMP JUMPDEST SWAP4 POP POP PUSH1 0x60 PUSH2 0x1159 DUP9 DUP3 DUP10 ADD PUSH2 0x10EC JUMP JUMPDEST SWAP3 POP POP PUSH1 0x80 PUSH2 0x116A DUP9 DUP3 DUP10 ADD PUSH2 0x10AE JUMP JUMPDEST SWAP2 POP POP SWAP3 SWAP6 POP SWAP3 SWAP6 SWAP1 SWAP4 POP JUMP JUMPDEST PUSH32 0x796F7520646F206E6F742068617665207065726D697373696F6E20746F206361 PUSH0 DUP3 ADD MSTORE PUSH32 0x6C6C20746869732066756E74696F6E0000000000000000000000000000000000 PUSH1 0x20 DUP3 ADD MSTORE POP JUMP JUMPDEST PUSH0 PUSH2 0x11D1 PUSH1 0x2F DUP4 PUSH2 0xC6C JUMP JUMPDEST SWAP2 POP PUSH2 0x11DC DUP3 PUSH2 0x1177 JUMP JUMPDEST PUSH1 0x40 DUP3 ADD SWAP1 POP SWAP2 SWAP1 POP JUMP JUMPDEST PUSH0 PUSH1 0x20 DUP3 ADD SWAP1 POP DUP2 DUP2 SUB PUSH0 DUP4 ADD MSTORE PUSH2 0x11FE DUP2 PUSH2 0x11C5 JUMP JUMPDEST SWAP1 POP SWAP2 SWAP1 POP JUMP JUMPDEST PUSH0 PUSH2 0x120F DUP3 PUSH2 0xB6F JUMP JUMPDEST SWAP2 POP PUSH2 0x121A DUP4 PUSH2 0xB6F JUMP JUMPDEST SWAP3 POP DUP3 DUP3 MUL PUSH2 0x1228 DUP2 PUSH2 0xB6F JUMP JUMPDEST SWAP2 POP DUP3 DUP3 DIV DUP5 EQ DUP4 ISZERO OR PUSH2 0x123F JUMPI PUSH2 0x123E PUSH2 0xD0A JUMP JUMPDEST JUMPDEST POP SWAP3 SWAP2 POP POP JUMP JUMPDEST PUSH32 0x4E487B7100000000000000000000000000000000000000000000000000000000 PUSH0 MSTORE PUSH1 0x12 PUSH1 0x4 MSTORE PUSH1 0x24 PUSH0 REVERT JUMPDEST PUSH0 PUSH2 0x127D DUP3 PUSH2 0xB6F JUMP JUMPDEST SWAP2 POP PUSH2 0x1288 DUP4 PUSH2 0xB6F JUMP JUMPDEST SWAP3 POP DUP3 PUSH2 0x1298 JUMPI PUSH2 0x1297 PUSH2 0x1246 JUMP JUMPDEST JUMPDEST DUP3 DUP3 DIV SWAP1 POP SWAP3 SWAP2 POP POP JUMP INVALID LOG2 PUSH5 0x6970667358 0x22 SLT KECCAK256 0xAB 0xDD PUSH2 0xB521 0xD1 PUSH29 0x283AB0BB5D4C9F2381F10F470C0047A64E76F86350921C595564736F6C PUSH4 0x4300081A STOP CALLER "
				},
				"gasEstimates": {
					"creation": {
						"codeDepositCost": "965000",
						"executionCost": "infinite",
						"totalCost": "infinite"
					},
					"external": {
						"fund()": "infinite",
						"fundersToAmount(address)": "2890",
						"getChainlinkDataFeedLatestAnswer()": "infinite",
						"getFund()": "infinite",
						"getFundSuccess()": "2583",
						"owner()": "2553",
						"refund()": "infinite",
						"setErc20Addr(address)": "26885",
						"setFunderToAmount(address,uint256)": "25035",
						"transferOwnership(address)": "26972"
					},
					"internal": {
						"convertEthToUsd(uint256)": "infinite"
					}
				},
				"methodIdentifiers": {
					"fund()": "b60d4288",
					"fundersToAmount(address)": "9f883a05",
					"getChainlinkDataFeedLatestAnswer()": "bea4dfb5",
					"getFund()": "8edd6eb6",
					"getFundSuccess()": "da4658e0",
					"owner()": "8da5cb5b",
					"refund()": "590e1ae3",
					"setErc20Addr(address)": "13ffff01",
					"setFunderToAmount(address,uint256)": "d39cf006",
					"transferOwnership(address)": "f2fde38b"
				}
			},
			"storageLayout": {
				"storage": [
					{
						"astId": 821,
						"contract": "fundme/FundTokenERC20_flattened.sol:FundMe",
						"label": "fundersToAmount",
						"offset": 0,
						"slot": "0",
						"type": "t_mapping(t_address,t_uint256)"
					},
					{
						"astId": 824,
						"contract": "fundme/FundTokenERC20_flattened.sol:FundMe",
						"label": "dataFeed",
						"offset": 0,
						"slot": "1",
						"type": "t_contract(AggregatorV3Interface)816"
					},
					{
						"astId": 840,
						"contract": "fundme/FundTokenERC20_flattened.sol:FundMe",
						"label": "owner",
						"offset": 0,
						"slot": "2",
						"type": "t_address"
					},
					{
						"astId": 842,
						"contract": "fundme/FundTokenERC20_flattened.sol:FundMe",
						"label": "deploymentTimestamp",
						"offset": 0,
						"slot": "3",
						"type": "t_uint256"
					},
					{
						"astId": 844,
						"contract": "fundme/FundTokenERC20_flattened.sol:FundMe",
						"label": "lockTime",
						"offset": 0,
						"slot": "4",
						"type": "t_uint256"
					},
					{
						"astId": 846,
						"contract": "fundme/FundTokenERC20_flattened.sol:FundMe",
						"label": "erc20Addr",
						"offset": 0,
						"slot": "5",
						"type": "t_address"
					},
					{
						"astId": 849,
						"contract": "fundme/FundTokenERC20_flattened.sol:FundMe",
						"label": "getFundSuccess",
						"offset": 20,
						"slot": "5",
						"type": "t_bool"
					}
				],
				"types": {
					"t_address": {
						"encoding": "inplace",
						"label": "address",
						"numberOfBytes": "20"
					},
					"t_bool": {
						"encoding": "inplace",
						"label": "bool",
						"numberOfBytes": "1"
					},
					"t_contract(AggregatorV3Interface)816": {
						"encoding": "inplace",
						"label": "contract AggregatorV3Interface",
						"numberOfBytes": "20"
					},
					"t_mapping(t_address,t_uint256)": {
						"encoding": "mapping",
						"key": "t_address",
						"label": "mapping(address => uint256)",
						"numberOfBytes": "32",
						"value": "t_uint256"
					},
					"t_uint256": {
						"encoding": "inplace",
						"label": "uint256",
						"numberOfBytes": "32"
					}
				}
			},
			"userdoc": {
				"kind": "user",
				"methods": {},
				"version": 1
			}
		}
	}
}